:020000040800F2
:10000000B073032409040008E56700089F30000866
:10001000E3670008150A0008AD740008000000003E
:100020000000000000000000000000004D03000878
:10003000B50A000800000000A1030008896B000851
:1000400023040008230400082304000823040008F4
:1000500023040008230400082304000823040008E4
:1000600023040008B90A0008230400082304000838
:1000700023040008230400082304000823040008C4
:1000800023040008230400082304000823040008B4
:1000900023040008230400082304000823040008A4
:1000A0002304000823040008230400082304000894
:1000B00023040008256C000823040008230400081A
:1000C0002304000823040008230400082304000874
:1000D00023040008697400082304000823040008AE
:1000E0002304000823040008000000002304000883
:1000F0002304000823040008230400082304000844
:100100002304000823040008230400082304000833
:100110002304000823040008230400082304000823
:100120002304000823040008230400082304000813
:100130002304000823040008230400082304000803
:1001400000000000000000000000000000000000AF
:1001500023040008230400082304000823040008E3
:1001600023040008230400082304000823040008D3
:1001700023040008230400082304000800000000F2
:1001800023040008230400082304000823040008B3
:1001900023040008230400082304000823040008A3
:1001A0002304000823040008230400082304000893
:1001B0002304000823040008230400082304000883
:1001C0002304000823040008230400082304000873
:1001D0002304000823040008230400082304000863
:1001E0002304000823040008230400082304000853
:1001F0002304000823040008230400082304000843
:100200002304000823040008230400082304000832
:100210002304000823040008230400082304000822
:100220002304000823040008230400080000000041
:100230002304000823040008000000002304000831
:1002400023040008230400082304000823040008F2
:1002500023040008230400082304000823040008E2
:1002600023040008230400082304000823040008D2
:1002700023040008230400082304000800000000F1
:100280002304000800000000230400080000000010
:10029000000000002304000800F002F800F047F816
:1002A0000AA090E8000C82448344AAF10107DA45D1
:1002B00001D100F03CF8AFF2090EBAE80F0013F0DC
:1002C000010F18BFFB1A43F00103184770DD00004F
:1002D00090DD0000103A24BF78C878C1FAD85207E0
:1002E00024BF30C830C144BF04680C6070470000B0
:1002F0000023002400250026103A28BF78C1FBD82F
:10030000520728BF30C148BF0B607047642900F016
:100310007D81782900F0B681732900F0E582002004
:1003200070471FB509F0AAFA1FBD10B510BD00F047
:100330003EFB1146FFF7F5FF07F0CEF900F05CFB3E
:1003400003B4FFF7F2FF03BC07F0C1F82B4B1968A9
:100350000868B0E8F04F80F30988BFF36F8F4FF063
:10036000000080F311887047000000000648006814
:10037000006880F3088862B661B6BFF34F8FBFF3A1
:100380006F8F00DF00BF00BF08ED00E0DFF80C005A
:10039000016841F470010160704700BF88ED00E022
:1003A000EFF30980BFF36F8F144B1A681EF0100F24
:1003B00008BF20ED108A20E9F04F106008B44FF01C
:1003C000500072B680F31188BFF34F8FBFF36F8F69
:1003D00062B608F0F3FA4FF0000080F3118808BC11
:1003E00019680868B0E8F04F1EF0100F08BFB0ECB5
:1003F000108A80F30988BFF36F8F7047AC00002428
:10040000EFF305807047000009488047094800471E
:10041000FEE7FEE7FEE7FEE7FEE7FEE7FEE7FEE7B4
:10042000FEE7FEE704480549054A064B7047000011
:10043000A16B000899020008B0670324B07303247D
:10044000B0690324B069032453EA020C00F0698008
:100450002DE9F04B4FF00006002B1FBFB3FA83F5D8
:1004600003FA05F424FA05F65E4012BF1643B2FA09
:1004700082F502FA05F4C5F120051EBF22FA05FC3B
:1004800044EA0C04203556EA044C4FEA144418BFE1
:10049000641C4FF000084FF00009904271EB030C10
:1004A00039D3002919BFB1FA81F701FA07F6B0FA7A
:1004B00080F700FA07F6C7F120071EBF20FA07FCF5
:1004C00046EA0C062037B6FBF4FCA7EB0507103F05
:1004D00007F01F0BCBF120060CFA0BFB2CFA06F6EB
:1004E00044BFB3460026202FA4BF5E464FF0000B4A
:1004F0005BEA060C08BF4FF0010B19EB0B09ABFBD5
:10050000027C48EB0608C01B06FB02CC0BFB03CCAD
:1005100071EB0C01C1E70B46024641464846BDE877
:10052000F08B13B54FF000004FF00001AFF30080E7
:10053000BDE81C40704700000FB4044910B503AA81
:10054000029800F0D5F910BC5DF814FB5C000024A3
:100550002DE9F0410E460446002020622046E16865
:10056000884730B3252805D0D4E901219047206A77
:10057000401CF2E7E168204600278847050018D0B4
:10058000A5F14100192802D820354FF40067324602
:10059000294620462760FFF7B9FE40B1012804D064
:1005A000F61D26F007060836D8E7361DD6E728469A
:1005B000DAE7206ABDE8F08170B50C460546012AED
:1005C00005D02878800600D5EA69002302E00123DF
:1005D00005E05B1C934202D2E05C0028F9D1A869D7
:1005E000E618C01AA861286A184428622846AFF3A2
:1005F000008004E0D5E9012114F8010B9047B442D2
:10060000F8D32846AFF3008070BD00002DE9F0411B
:100610000646002410687529314616A510D0AFF3A0
:100620000080002802DA404213A507E031688A07FB
:1006300001D512A502E0490704D511A5012401E066
:10064000AFF3008000210A2206F1240709E0B0FB85
:10065000F2FCB0FBF2F302FB1C0030307854184679
:10066000491C0028F3D123462A463046BDE8F04114
:1006700000F0B6B8000000002D0000002B000000C4
:100680002000000070B504460D4621461068AFF307
:1006900000802188090502D50F4A7A4402E00E4AFB
:1006A0007A440E32002104F1240305E000F00F0625
:1006B0000009965D5E54491C0028F7D1207800237C
:1006C000000704D5702D02D009B102231132204653
:1006D000BDE8704000F084B876D90000032A40F2EB
:1006E000308010F0030C00F0158011F8013BBCF1D4
:1006F000020F624498BF11F801CB00F8013B38BFEC
:1007000011F8013BA2F1040298BF00F801CB38BFF9
:1007100000F8013B11F0030300F02580083AC0F017
:10072000088051F8043B083A51F804CBA0E80810BF
:10073000F5E7121D5CBF51F8043B40F8043BAFF3F2
:100740000080D20724BF11F8013B11F801CB48BF4C
:1007500011F8012B24BF00F8013B00F801CB48BF82
:1007600000F8012B704710B5203AC0F00B80B1E8BB
:100770001850203AA0E81850B1E81850A0E81850D6
:10078000BFF4F5AF5FEA027C24BFB1E81850A0E8DF
:10079000185044BF18C918C0BDE810405FEA827CF9
:1007A00024BF51F8043B40F8043B08BF7047D20710
:1007B00028BF31F8023B48BF11F8012B28BF20F8B1
:1007C000023B48BF00F8012B704702F0FF0343EAE9
:1007D000032242EA024200F09FB870477047704718
:1007E0002DE9F0470D4699469246044600F124084B
:1007F0000168880604D5E06921F01001216000E05D
:100800000120A84201DD471B00E00027A1697A19F9
:1008100002EB0900081AA0612078C00602D4204625
:10082000AFF30080002608E0D4E901211AF80600A1
:100830009047206A401C761C20624E45F4DB2078ED
:10084000C0060AD52046AFF3008006E0D4E90121B6
:1008500030209047206A401C2062381EA7F1010713
:10086000F4DC07E0D4E9012118F805009047206A7C
:10087000401C2062281EA5F10105F3DC2046AFF3E1
:1008800000802078000602D50220BDE8F087012014
:10089000FBE7000001694A1C02610878704700B557
:1008A0008FB0CDE901310021059105497944CDE9A9
:1008B000031011466846FFF74BFE0FB000BD000065
:1008C000E5FFFFFF10B5436913B1AFF3008001E00E
:1008D000FFF772FE012010BD127800F124010A70AA
:1008E00000224A700122EDE711684FF0FF32E9E77C
:1008F000074B70B50D467B44FFF7D1FF04462846F1
:1009000000F02AF810B14FF0FF3070BD204670BDE6
:10091000CB6D00004FF000020429C0F0128010F0EF
:10092000030C00F01F80CCF1040CBCF1020F18BFC7
:1009300000F8012BA8BF20F8022BA1EB0C0100F05E
:1009400011B85FEAC17C24BF00F8012B00F8012B2D
:1009500048BF00F8012B7047007B00F08000704713
:100960004FF0000200B5134694469646203922BF48
:10097000A0E80C50A0E80C50B1F12001BFF4F7AF93
:10098000090728BFA0E80C5048BF0CC05DF804EB75
:10099000890028BF40F8042B08BF704748BF20F8E3
:1009A000022B11F0804F18BF00F8012B70477546DD
:1009B00000F02CF8AE4605006946534620F00700CB
:1009C000854618B020B5FFF72DFDBDE820404FF05B
:1009D00000064FF000074FF000084FF0000B21F029
:1009E0000701AC46ACE8C009ACE8C009ACE8C009F6
:1009F000ACE8C0098D46704710B50446AFF30080DF
:100A00002046BDE81040FFF79BBC0000004870473F
:100A10004C670324FEE70000F0B5BFF34F8FBFF330
:100A20006F8F1D4900200860BFF34F8FBFF36F8F9A
:100A30001A4C216841F400312160BFF34F8FBFF39E
:100A40006F8F164970310860BFF34F8F081F006821
:100A500043F6FF75104E1036C0F34E31C0F3C90394
:100A600005EA4112184642EA80773760401EFAD202
:100A7000491EF5D2BFF34F8F206840F480302060CC
:100A8000BFF34F8FBFF36F8F03484C30016841F0C5
:100A900004010160F0BD000050EF00E014ED00E043
:100AA0000348002202604260C721312006F0C0B82E
:100AB0008000002470470000322008B506F058FD81
:100AC0000E48082100F096FA88B90D48006870B108
:100AD000012200940023114608F0A6FB3CB109490D
:100AE0004FF080500860BFF34F8FBFF36F8F4FF010
:100AF000B0410820C1F8880008BD0000001C025861
:100B00000C00002404ED00E00F4800B587B0016838
:100B100041F0800101600068694600F080000590A6
:100B2000082000900948019001200290084800F038
:100B30006DF900220621092000F052FC092000F086
:100B400042FC07B000BD0000E04402580000211143
:100B5000001C025870B5B3F5804F05D06FF070419E
:100B600040F82210002070BD50F82230084C23407D
:100B7000D1E900458E8944EA05148D6889692D0202
:100B800045EA06452C430C431C4340F82240E9E764
:100B90000000F0CFF0B50C6850F824501A4A154008
:100BA000D1E90123D1E903671A433E4332434E6939
:100BB00032438E693243CE6932430E6A32434E6A03
:100BC00032438E6A3243CE6A32430E6B32438E6BAF
:100BD00032434E6B32432A43082B01D142F040028C
:100BE00040F824200A6BB2F5801F05D10A684AB18B
:100BF000026842F4801202600A681AB10268496B06
:100C00000A4302600020F0BD8004C0FF00EB8202B6
:100C1000F0B553688E8903F04044D1E9003543EACA
:100C200005138D682D0245EA06450E8A2B430D4DAE
:100C300005EB065633430E7D6F0107EB0666334323
:100C40008E693343234353600268D20207D542685A
:100C5000098A22F4700205EB015111434160002022
:100C6000F0BD00000000F0FF30B5D1E901230D68B0
:100C70001A43D1E9033423431A434B691A438B695E
:100C80001A43D1E90734496A012D056807D01A4390
:100C900022430A436FF30E052A4302600AE025F45B
:100CA000F845234329430B43416803606FF30E016A
:100CB0000A434260002030BD426942EA410141617D
:100CC0000020704718B5D1E900236FF01F041A43C4
:100CD0008B68C96804EB431343EA41210A4300923D
:100CE0000261002018BD0000F0B5D1E900346FF0BA
:100CF0000F055B1E2E0105EB041423438C682F03A4
:100D00004FEA054C0D8A06EB04248E8A2343CC68F7
:100D1000097E4FF07F4E012A07EB05450CEB065686
:100D20000EEB01610CD082683F1107EB04342343C2
:100D30002B4333430B4302F07042134383600FE0B5
:100D40008768084A17402203C468A2F580523243DC
:100D50003A4382602B430B4304F070442343C36047
:100D60000020F0BDFF0F0FFF10B528B190F835102F
:100D7000022903D080214165012010BD1D4A4FF496
:100D8000956301688C189C4207D8042280F83520AE
:100D9000086820F00100086029E00C6824F00E04C7
:100DA0000C6001680A440A6822F001020A60016EC0
:100DB0000A6822F480720A6090F85C30012202FA1C
:100DC00003F10D4B1960D0E919134B60C16E31B1BD
:100DD0000B6823F480730B60D0E91C134B60002177
:100DE00080F8341080F83520016D01B1884700206B
:100DF00010BD0000F0FFFDBF045402580248016816
:100E000041F0010101607047200400582DE9F84FBE
:100E10006C4C00224FF0B04A4FF0010B4FF0030E24
:100E20004FF00F090B680BFA02F73B40BB4270D141
:100E30004D68022D01D0122D12D1D50800EB850C82
:100E4000DCF820605507ED0E09FA05F826EA0806D9
:100E5000D1F8108008FA05F848EA0608CCF8208096
:100E6000D0F80080560091F804C00EFA06F50CF098
:100E7000030C28EA05080CFA06FC4CEA080CC0F83A
:100E800000C0D1F804C0BCF1010F08D0BCF1020FC2
:100E900005D0BCF1110F02D0BCF1120F16D1D0F861
:100EA00008C0D1F80C802CEA050C08FA06F848EACC
:100EB0000C08C0F80880D0F804C02CEA070C0F79A1
:100EC000C7F30017974047EA0C074760C768AF436E
:100ED0008D68B5403D43C5604D68ED006BD53A4D1A
:100EE0002E6846F002062E602D6822F0030606F1F9
:100EF000B04605F002050095D6F808C495072F0FF7
:100F000009FA07F52CEA050C304DA84202D100255C
:100F10002EE050E02E4DA84201D1012528E02D4DB4
:100F2000A84201D1022523E02B4DA84201D103257F
:100F30001EE02A4DA84201D1042519E0284DA842FF
:100F400001D1052514E0274DA84201D106250FE067
:100F5000254DA84201D107250AE0244DA84201D120
:100F6000082505E0224DA84201D1092500E00A2507
:100F7000BD4045EA0C05C6F8085425684E689D43F7
:100F8000F60300D51D43256065684E689D43B60392
:100F900000D51D436560DAF8005056464F689D4302
:100FA000FF0200D51D43356075684F689D43BF0241
:100FB00000D51D437560521C102AFFF433AFBDE805
:100FC000F88F000080000058F444025800000258D6
:100FD0000004025800080258000C02580010025881
:100FE0000014025800180258001C02580020025831
:100FF000002402580069084000D00120704742696F
:101000004A40426170470AB101837047418370478B
:101010000148806870470000600000240248816831
:10102000027811448160704760000024032010B5ED
:1010300000F0F6F90F2000F007F808B1012010BD0C
:1010400000F0C0F9002010BD70B50D4D04464FF4FE
:101050007A712878B1FBF0F00A490968B1FBF0F029
:1010600001F02CFD48B9102C07D200222146501E59
:1010700000F0B6F900206C6070BD012070BD00006A
:1010800060000024480000242DE9F041044690F857
:10109000A00015460F4601281DD0012684F8A06047
:1010A000022084F8A10005EB850000EBC500342286
:1010B00004EB80003830FFF756FB2A4639462046BD
:1010C00005F0DEFA2068466284F8A160002084F80A
:1010D000A000BDE8F0810220FBE7000070B504002D
:1010E00004D094F8A100002510B106E0012070BDE5
:1010F000204684F8A05000F06BF8022084F8A1008C
:101100002068816921F070418161D4E901100143B7
:10111000D4E90302104301432068826911438161CD
:101120002068826829490A408260A08A02042068F7
:101130008368A6693343134383602068C2680A400A
:10114000C260A08B02042068C368266A334313433D
:10115000C360206802690A400261A08C0204206812
:101160000369A66A334313430361206842690A4056
:101170004261A08D010420684269236B1A430A432F
:10118000426194F83500020294F8360001042068A8
:10119000C36A03F07F43C3622068C36A114394F8B3
:1011A000346033430B43C3622068416B41F0060156
:1011B00041632068816941F001018161C4F8A45054
:1011C000012084F8A100002070BD000000F800F0AC
:1011D000374810B586B0016841F008010160006829
:1011E00000F00800059032481038016841F0100105
:1011F0000160006800F0100005902D48001F016894
:1012000041F002010160016801F0020105910168ED
:1012100041F020010160016801F0200105910168A1
:1012200041F040010160016801F040010591016851
:1012300041F080010160016801F0800105910168C1
:1012400041F48071016000680324694600F48070F5
:1012500005902020009001200190CDE9020415485E
:10126000FFF7D4FD4FF48060009002200190002031
:101270006946CDE902040E2004900F48FFF7C6FD31
:101280004FF40C6000900D486946FFF7BFFD4FF426
:101290007E4000900A486946FFF7B8FD40F2F760CB
:1012A000009008486946FFF7B1FD06B010BD000088
:1012B000E44402580004025800140258001802586E
:1012C000001C02580020025870B5044690F8A00097
:1012D0000E46012820D0012584F8A050022084F871
:1012E000A10003EB830000EBC30004EB80018E63DD
:1012F000086E3044C1E90F02486E1044486438312A
:101300001A46204605F0BCF92068456284F8A150D1
:10131000002084F8A00070BD022070BD70B50446A6
:1013200090F8A0000E46012820D0012584F8A05096
:10133000022084F8A10003EB830000EBC30004EB60
:101340008001886B3044C863086C10444864C1E96C
:10135000186238311A46204605F092F92068456235
:1013600084F8A150002084F8A00070BD022070BD58
:10137000134A41781160111D03780A1DE3B14368D7
:101380000B60017BC37A090741EA0361837A41EA72
:10139000C341437B41EA8341837B41EA4341C37BB1
:1013A00041EA0341437A41EA0321037A007841EAA2
:1013B00043010143116070470020086010607047CE
:1013C00098ED00E07047002809DB012100F01F02C2
:1013D00091404009800000F1E020C0F80011704702
:1013E0000E4BF0B41B68C3F30223C3F10704042CB3
:1013F00000D904241D1D072D01D2002300E0DB1EAF
:10140000012606FA04F56D1E0D409D409E40761E95
:10141000164045EA0601F0BC06F049B80CED00E0C4
:10142000064A00F0070110684FF6FF03184040EA33
:101430000120034908431060704700000CED00E0F4
:101440000000FA0510B500F021FF084909684FF4C3
:10145000807292FAA2F201F47061B2FA82F2D14083
:10146000034A515CC8400349086010BD1844025843
:10147000869800084800002410B500F0C1FE074916
:101480000968102292FAA2F201F07001B2FA82F217
:10149000D140034A515CC84010BD000020440258AE
:1014A00086980008364930B50A68096812F00302C8
:1014B000344BC1F305311B68334C03F0100324682F
:1014C000DFED320AB7EE001AC4F3CC0414FB03F3C9
:1014D00000EE103A2E4BB8EE400A07D02D4C012AF0
:1014E00001D0022A4AD0B4FBF1F10BE0244C283C95
:1014F00022689506284A03D52468C4F3C104E24053
:10150000B2FBF1F101EE901A1968B8EE612AC1F34D
:10151000080101EE901A1968F8EE611A40EE201ADF
:1015200031EE810A22EE000AC1F34621491C00EE89
:10153000901AF8EE600A80EE201AFCEEC10AC0EDA7
:10154000000A1968C1F30641491C00EE901AF8EE32
:10155000600A80EE201AFCEEC10AC0ED010A19688B
:10156000C1F30661491C00EE901AF8EE600A80EEA5
:10157000201ABCEEC10A80ED020A30BD074ABFE75F
:10158000284402582C4402583C44025800000039B8
:101590003844025800093D000090D00340787D0196
:1015A000364930B50A68096812F00302344BC1F3BA
:1015B00005511B68334C03F480732468DFED320A55
:1015C000B7EE001AC4F3CC0414FB03F300EE103A98
:1015D0002E4BB8EE400A07D02D4C012A01D0022A2A
:1015E0004AD0B4FBF1F10BE0244C283C226895066C
:1015F000284A03D52468C4F3C104E240B2FBF1F1E8
:1016000001EE901A1968B8EE612AC1F3080101EEE3
:10161000901A1968F8EE611A40EE201A31EE810A2C
:1016200022EE000AC1F34621491C00EE901AF8EEA2
:10163000600A80EE201AFCEEC10AC0ED000A1968AB
:10164000C1F30641491C00EE901AF8EE600A80EEE4
:10165000201AFCEEC10AC0ED010A1968C1F3066147
:10166000491C00EE901AF8EE600A80EE201ABCEEDB
:10167000C10A80ED020A30BD074ABFE7284402587C
:101680002C44025844440258000000394044025897
:1016900000093D000090D00340787D012DE9F84F0E
:1016A000044600680025FC4FDFF8F0832E46010158
:1016B00004F12400009023D5606E50B1B0F5801F76
:1016C0000CD0B0F5001F11D0B0F5401F23D001257C
:1016D00015E0386840F4003038601CE0386840F4A9
:1016E00000103860201D05F0C3F806E0386840F0AF
:1016F00080703860009805F01FF905000BD02E4669
:101700002088C00529D5606D052824D2DFE800F0C7
:101710000C1119212100D8F80010626E21F440113B
:101720001143C8F80010EBE7386840F40030386027
:101730000FE0386840F400203860201D05F098F86C
:1017400006E0386840F480003860009805F0F4F84E
:1017500005466DB100E001252E43208880052ED579
:10176000A06D802821D00CDC90B140280ED114E06F
:10177000D8F80010626D21F007011143C8F800107D
:10178000EBE7C02819D0B0F5807F16D0012515E011
:10179000386840F4003038600FE0386840F40020CA
:1017A0003860201D05F064F806E0386840F48000D9
:1017B0003860009805F0C0F8054685B12E432088B2
:1017C000DFF8DC92400532D5D4F8A400B0F5800FE4
:1017D00023D00DDCA0B1B0F5001F0FD115E0D8F873
:1017E0000010A26D21F4E0711143C8F80010E6E783
:1017F000B0F5C00F19D0B0F5000F16D0012515E0D7
:10180000386840F4003038600FE0386840F4002059
:101810003860201D05F02CF806E0386840F48000A0
:101820003860009805F088F8054675B12E43208889
:10183000000533D5D4F8A800B0F1007F24D00EDC29
:10184000A8B1B0F1807F10D116E0D9F80010D4F81B
:10185000A42021F460011143C9F80010E7E7B0F1BA
:10186000407F19D0B0F1806F16D0012515E038689F
:1018700040F4003038600FE0386840F400203860F1
:10188000201D04F0F5FF06E0386840F48000386061
:10189000009805F051F805466DB12E43206880018F
:1018A00022D5A06CF0B110280FD0202812D03028FB
:1018B00018D0012517E0D9F80010D4F8A82021F09D
:1018C000E0611143C9F80010E8E7386840F40030DF
:1018D000386007E0386840F400103860201D04F0DC
:1018E000C7FF05466DB12E432088C00431D5E06D99
:1018F000B0F5005F23D00DDCA0B1B0F5805F0FD153
:1019000015E06648001F0168A26C21F03001114308
:101910000160E9E7B0F5405F19D0B0F5804F16D00F
:10192000012515E0386840F4003038600FE0386871
:1019300040F400203860201D04F09AFF06E038686B
:1019400040F480003860009804F0F6FF054685B149
:101950002E43208880042FD5206EB0F5403F29D03B
:1019600010DC38B3B0F5803F14D0B0F5003F0FD194
:1019700018E0D8F80010E26D21F4E0411143C8F8F6
:101980000010E6E7B0F5802F14D0B0F5A02F11D0ED
:10199000012510E0386840F480103860201D04F004
:1019A00067FF06E0386840F400003860009804F0F3
:1019B000C3FF05468DB12E432088400430D5D4F8AE
:1019C000AC00B0F1405F29D010DC38B3B0F1805FDB
:1019D00014D0B0F1005F0FD118E0D8F80010226EDB
:1019E00021F4E0211143C8F80010E5E7B0F1804F81
:1019F00014D0B0F1A04F11D0012510E0386840F4A8
:101A000080103860201D04F033FF06E0386840F491
:101A100000003860009804F08FFF05466DB12E433A
:101A20002088000422D5E06EF0B1B0F1805F0ED0C6
:101A3000B0F1005F10D0012517E0D9F80010D4F8FC
:101A4000AC2021F0E0411143C9F80010E8E7386804
:101A500040F40030386007E0386840F480103860A7
:101A6000201D04F005FF05466DB12E432068C0011E
:101A700027D5606C18B3012814D0022817D003288A
:101A80001DD001251CE0D8F80010E26E21F0405175
:101A90001143C8F80010E9E72C440258504402589A
:101AA00058440258386840F40030386007E038681D
:101AB00040F400103860201D04F0DAFE054675B1D0
:101AC0002E432068DFF8E8B340024FD5F94801689B
:101AD00041F480710160FFF79BFA82460EE0F44802
:101AE0003C300168626C21F0030111430160E8E7BA
:101AF000FFF78EFAA0EB0A0064282ED8ED480068A4
:101B0000C005F5D555BBEA4860300068B4F8B010A0
:101B100000F4407001F4407188420DD0E448603018
:101B20000168026821F4407142F480320260026868
:101B300022F4803202600160D4F8B000B0F5807FFA
:101B400023D1FFF765FA824609E0FFF761FAA0EBBF
:101B50000A0141F28830814201D9032505E0D448C9
:101B6000603000688007F0D57DB12E432078DFF823
:101B700048A3C00743D0A06F18283ED026DC98B3F6
:101B8000082829D0102825D12FE0D4F8B000C0F3C0
:101B9000012103290FD0DBF8001021F47C51CBF890
:101BA0000010C5481C300168B4F8B020C2F30B0225
:101BB00011430160DAE7DBF80020C04B22F47C52CD
:101BC00003EA10100243CBF80020EAE7202814D0E3
:101BD000282812D0012511E0386840F480103860C0
:101BE000201D04F045FE07E007E0386840F40000DF
:101BF0003860009804F0A0FE05465DB12E432078C1
:101C0000800724D5606F06281FD2DFE800F01C0C87
:101C1000141C1C1CDAF80010A26F21F038011143CB
:101C2000CAF80010EBE7386840F480103860201DD7
:101C300004F01EFE06E0386840F4000038600098AA
:101C400004F07AFE054675B100E001252E432078A8
:101C5000400725D5D4F8900006281FD2DFE800F011
:101C60001C0C141C1C1CDAF80010626F21F0070118
:101C70001143CAF80010EAE7386840F48010386071
:101C8000201D04F0F5FD06E0386840F400003860DF
:101C9000009804F051FE05469DB100E001252E4359
:101CA0002078800631D5D4F88C00B0F1405F2AD07E
:101CB00011DC40B3B0F1805F15D0B0F1005F10D1FE
:101CC00019E0D9F80010D4F8902021F00701114351
:101CD000C9F80010E4E7B0F1804F14D0B0F1A04F84
:101CE00011D0012510E0386840F400203860201D34
:101CF00004F0BEFD06E0386840F08070386000985F
:101D000004F01AFE05468DB12E432078400631D5E9
:101D1000D4F89800B0F5406F2AD011DC40B3B0F58C
:101D2000806F15D0B0F5006F10D119E0DAF800100F
:101D3000D4F88C2021F0E0411143CAF80010E4E708
:101D4000B0F5805F14D0B0F5A05F11D0012510E090
:101D5000386840F400203860201D04F089FD06E05A
:101D6000386840F080703860009804F0E5FD054662
:101D70008DB12E432078000631D5D4F89C00B0F503
:101D8000C04F2AD011DC40B3B0F5005F15D0B0F5DC
:101D9000804F10D119E0D9F80010D4F8982021F420
:101DA000E0511143C9F80010E4E7B0F5004F14D03A
:101DB000B0F5204F11D0012510E0386840F4002024
:101DC0003860201D04F054FD06E0386840F0807053
:101DD0003860009804F0B0FD054665B32E432078C6
:101DE00000070BD5D4F88000B0F5805F2DD0DAF86D
:101DF000002022F440520243CAF800202078C00696
:101E00000BD5D4F89400B0F5807F26D0D9F8002007
:101E100022F440720243C9F800202068000336D53E
:101E2000D4F8A00008B3B0F5803F26D0B0F5003F4D
:101E30002BD001252AE0D9F80010D4F89C2021F4F9
:101E400060411143C9F80010C9E7009804F074FD1F
:101E5000386840F080703860D0E7009804F06CFD7E
:101E6000386840F080703860D7E7386840F4002068
:101E70003860201D04F0FCFC06E0386840F08070FB
:101E80003860009804F058FD0546CDB12E43206817
:101E900040032ED5D4F88400B0F5801F1AD0B0F5D9
:101EA000001F1CD0B0F5401F21D0012520E000000C
:101EB000104402580048025854440258CFFFFF0013
:101EC000D9F80010D4F8A02021F440311143C9F80A
:101ED0000010DCE7386840F40030386007E038680C
:101EE00040F400003860009804F026FD054655B126
:101EF0002E432068C0031FD5E06C70B1B0F5803F61
:101F000010D0012517E0DAF80010D4F8842021F46D
:101F100040111143CAF80010EBE7386840F4003074
:101F2000386007E0386840F400103860201D04F085
:101F30009FFC0546DDB12E432068800007D5386838
:101F400040F080703860009804F0F6FC064320688A
:101F500080031AD5E06FB0B1B0F5807F0FD0B0F537
:101F6000007F10D0B0F5407F0DD001250CE02D484A
:101F70000168E26C21F4803111430160DCE73868CC
:101F800040F400303860EDB32E432068C00207D51E
:101F9000D8F80010226F21F000411143C8F800105A
:101FA0002068C00008D5DBF80010D4F8B42021F474
:101FB00080411143CBF800102068800207D5D8F883
:101FC0000010A26E21F080711143C8F80010206843
:101FD00040000CD5DBF8001021F40041CBF80010D4
:101FE000DBF80010D4F8B8201143CBF800102068BB
:101FF000002806DA0B480168226D21F04051114398
:10200000016000E003E05EB10120BDE8F88FDAF87E
:102010000010E26F21F440711143CAF80010B4E7D8
:102020000020F2E74C4402582DE9F047DFF8BC915C
:1020300004460E46D9F8000000F00700B0420CD26A
:10204000D9F8001021F007013143C9F80010D9F880
:10205000000000F00700B0427ED12078DFF89081C8
:10206000800707D5D8F80010E26821F00F0111436E
:10207000C8F800102078C00762D0D8F80010A26815
:1020800021F470611143C8F800105949606818398B
:1020900002281CD003281DD0096801281DD049073B
:1020A000002960DA524F083F396821F007010143E7
:1020B0003960FEF7ADFF0546606841F288310228BD
:1020C00013D003281ED001288A4627D034E009689F
:1020D0008903E5E709688901E2E7C905E0E7FEF75A
:1020E00097FF411B514501D923E08A463868C0F368
:1020F000C2000228F3D123E0FEF78AFF411B5145BD
:1021000001D916E08A463868C0F3C2000328F3D12B
:1021100016E0FEF77DFF411B51450AD83868C0F331
:10212000C2000128F5D10BE0FEF772FF411B5145BB
:1021300002D90320BDE8F087386810F0380FF3D1DA
:10214000D9F80010484601F00701B1420DD90168E5
:1021500021F00701314300E005E00160006800F074
:102160000700B04201D00120E4E72078400707D5FE
:10217000D8F80010226921F070011143C8F800104E
:10218000207801071B4805D50168626921F07001BC
:10219000114301602178C90605D50168A26921F4BF
:1021A000E061114301602078800607D51149091DBF
:1021B0000868E26920F070001043086000F066F8DB
:1021C000D8F800104FF4807292FAA2F201F4706114
:1021D000B2FA82F2D140084A515CC840074908600F
:1021E0000F20FEF731FF0020A4E70000002000527E
:1021F000184402581C4402588698000848000024DD
:1022000010B5FFF71FF908490968012292FAA2F2F6
:1022100001F00F01B2FA82F2D140044A515CC84089
:102220000349086010BD0000184402588698000851
:102230004C00002410B5FFF7E3FF0749096810229E
:1022400092FAA2F201F07001B2FA82F2D140034A8E
:10225000515CC84010BD00001C440258869800081C
:1022600010B5FFF7CDFF074909684FF4807292FA65
:10227000A2F201F4E061B2FA82F2D140024A515C6A
:10228000C84010BD1C440258869800083548F0B577
:102290000068364D10F03801334809D00411082980
:1022A00004D0334E10290BD018290BD02046F0BD96
:1022B00029688906FBD52968C1F3C101C840F0BD72
:1022C0003046F0BD274918310A68096812F0030248
:1022D000284BC1F305111B68274F03F001033F682A
:1022E000DFED260AB7EE001AC7F3CC0717FB03F39E
:1022F00000EE103A224BB8EE400A06D0012A01D077
:10230000022A2BD0B4FBF1F008E02A68920603D52C
:102310002A68C2F3C102D040B0FBF1F001EE900A8E
:102320001868B8EE612AC0F3080001EE900A186838
:10233000F8EE611A40EE201A31EE810A22EE000A10
:10234000C0F34620401C00EE900AF8EE600A80EED2
:10235000201ABCEEC10A10EE100AF0BDB6FBF1F077
:10236000DCE70000104402580090D00300440258FB
:1023700040787D012C440258344402580000003952
:10238000304402582DE9F05F04460078DFF8FC8302
:1023900041F28839DFF8F8A3FE4DC0074ED0D8F8D7
:1023A00000104046C1F3C20102291AD00068C0F3F0
:1023B000C200032805D1DAF8000000F0030002286B
:1023C0000FD06068B0F5803F12D010B1B0F5A02FEB
:1023D00019D0286820F480302860286820F48020F4
:1023E00009E02868800329D56068002874D025E0BA
:1023F000286840F480302860606890B1FEF708FEDD
:1024000006464F4609E0286840F480202860EFE740
:10241000FEF7FEFD801BB8427DD828688003F7D503
:102420000CE0FEF7F5FD06464F4604E0FEF7F0FD32
:10243000801BB842F0D828688003F7D42078D64FA4
:1024400080075AD5D8F8001040464FF47C3B11F075
:10245000380F13D00068C0F3C200032803D1DAF8A4
:10246000000080070AD0E068A8B3296821F01901AC
:1024700001432960FEF7CCFD06461DE028684007B1
:1024800002D5E0680028B1D02868E16820F0190082
:1024900008432860FEF7BCFD064604E0FEF7B8FDE1
:1024A000801B0228B8D828684007F7D507E0FEF758
:1024B000AFFD801B0228AFD828684007F7D53868E1
:1024C0009BFAABF220F47C312069B2FA82F29040A0
:1024D0000143396011E000E0AEE0286820F001001F
:1024E0002860FEF795FD064604E0FEF791FD801B8F
:1024F000022891D828684007F7D42078C00655D51F
:10250000D8F8001040464FF0F84BC1F3C201012942
:1025100017D0006800E0EDE0C0F3C200032805D149
:10252000DAF8000000F0030001280AD0E069002872
:1025300028682CD040F080002860FEF769FD064630
:1025400016E02868C00502D5E069802874D1386893
:102550009BFAABF220F0F841206AB2FA82F2904086
:102560000143396022E0FEF753FD801B022899D811
:102570002868C005F7D538689BFAABF2216AB2FA31
:1025800082F220F0F8409140084338600EE020F0DD
:1025900080002860FEF73CFD064604E0FEF738FDAB
:1025A000801B022887D82868C005F7D42078000748
:1025B00024D5774F60694C37002838680FD040F039
:1025C00001003860FEF724FD064604E0FEF720FD1A
:1025D000801B02288DD838688007F7D50EE020F0E0
:1025E00001003860FEF714FD064604E0FEF710FD1A
:1025F000801B02287ED838688007F7D420788006B0
:1026000023D5A069002828680FD040F480502860A6
:10261000FEF7FEFC064604E0FEF7FAFC801B0228EB
:1026200068D828688004F7D50FE020F4805028602F
:10263000FEF7EEFC064605E0D6E0FEF7E9FC801B5F
:10264000022857D828688004F7D42078400744D55A
:10265000524F386840F480703860FEF7D9FC064667
:1026600004E0FEF7D5FC801B642843D83868C00519
:10267000F7D5474FA068483701280AD008B1052888
:1026800011D0386820F001003860386820F004006C
:1026900002E0386840F001003860A06888B1FEF7B9
:1026A000B7FC064609E0386840F004003860F0E7FF
:1026B000FEF7AEFC811B49451CD838688007F7D56A
:1026C0000BE0FEF7A5FC064604E0FEF7A1FC811B2B
:1026D00049450FD838688007F7D4606AF0B3D8F856
:1026E0000010C1F3C20103297ED00228286820F01F
:1026F000807000E079E0286003D0FEF789FC044692
:1027000087E0FEF785FC064604E0FEF781FC801BAF
:1027100002287BD828688001F7D4DAF8001040F24C
:10272000F3329143E26A41EA0211A26A1143CAF804
:10273000001094F834004FF4FE02218E4002491E2E
:10274000A0F5007080B2C1F308010843218F491E33
:1027500002EA0141084394F83C1000E05CE0491EA5
:10276000120202EA016108430949083108600B1DA1
:1027700019684FF6F872A06C914392FAA2F2B2FA7D
:1027800082F2904001431960014809E01044025868
:102790002844025800440258044402580048025891
:1027A000001D0168226C21F00C01114301600168D9
:1027B000626C21F0020111430160016841F4803133
:1027C0000160016841F400310160016841F4802139
:1027D0000160016841F001010160286840F08070EB
:1027E0002860FEF715FC01E018E00FE0044604E065
:1027F000FEF70EFC001B022808D828688001F7D5D8
:102800000AE0FEF705FC001B022802D90320BDE800
:10281000F09F28688001F4D40020F8E70120F6E753
:1028200070B504000D4603D094F82C0010B107E0F9
:10283000012070BD002084F82D00204600F018F81B
:10284000022084F82C002068211DFEF70DFAD4E93F
:1028500000022946FEF748FA0448016841F00041A9
:102860000160012084F82C00002070BD004000525F
:102870003B4810B5B6B0016841F002010160006844
:1028800000F00200349036482038016841F480514D
:102890000160006800F480503490314814380168B9
:1028A00041F004010160016801F004013491016804
:1028B00041F008010160016801F0080134910168EC
:1028C00041F010010160016801F0100134910168CC
:1028D00041F020010160016801F02001349101689C
:1028E00041F0400101600068022400F04000349093
:1028F0004FF08070009019201194019020020594EF
:1029000002906846FEF7CAFE0D20CDE92F04012093
:102910003190032032900C20339012482FA9FEF7FB
:1029200075FA4CF203702F900F482FA9FEF76EFA3C
:102930004FF683702F900D482FA9FEF767FA4FF6D8
:102940003F002F900A482FA9FEF760FA48F237108F
:102950002F9008482FA9FEF759FA36B010BD000095
:10296000F444025800080258000C025800100258A3
:10297000001402580018025810B5044690F82C00B4
:10298000022809D0022084F82C002068FEF794F970
:10299000012084F82C00002010BD70B5044690F88A
:1029A0002C000D4602280CD0022084F82C00206850
:1029B000FEF788F92868022804D0012084F82C004A
:1029C000002070BD0520F9E770B5040015460E46DD
:1029D00003D094F8450010B107E0012070BD00203D
:1029E00084F84400204600F021F8206804F1080132
:1029F000FEF7D0F8A26831462068FEF707F9E36ACF
:102A00002946D4E90102FEF7A5F8A168206850F82C
:102A1000212042F0010240F821200348016841F0E2
:102A200000410160002070BD004000521A4800B50E
:102A300087B0016841F480510160006800F4805063
:102A4000059015480C30016841F0080101600168EB
:102A500001F008010591016841F010010160006872
:102A6000694600F0100005904EF2B370009002200D
:102A7000019001200290032003900C20049007484D
:102A8000FEF7C4F94FF68070009005486946FEF7DE
:102A9000BDF907B000BD0000D4440258000C025834
:102AA000001002584FF0E0210428086903D020F0FC
:102AB00004000861704740F00400FAE7401EB0F1DE
:102AC000807F10B501D3012010BD4FF0E02460617C
:102AD0000F21601704F0EBFC0020A06107202061AB
:102AE000002010BD7047704710B5040003D094F863
:102AF0003D0010B107E0012010BD002084F83C002B
:102B0000204600F00DF8022084F83D002068211DC9
:102B100004F0A4F8012084F83D00002010BD00005E
:102B200008B500680B49884212D10B48016841F092
:102B30000201016000680022012100F00200009003
:102B40001D20FEF74DFCBDE808401D20FEF73BBCF4
:102B500008BD000000040040E84402580168CA684B
:102B600042F00102CA600068018841F00101018061
:102B700000207047704770B50446006801694FF047
:102B80000005C943890715D4C168C943890711D411
:102B9000E91E0161012020772068806980072046B6
:102BA00002D0FFF7E7FF04E000F0A5F8204600F0B0
:102BB000A3F8257720680169C943490717D4C1687C
:102BC000C943490713D46FF0040101610220207743
:102BD0002068806910F4407F204602D0FFF7CAFFCA
:102BE00004E000F088F8204600F086F82577206899
:102BF0000169C943090716D4C168C943090712D43A
:102C00006FF008010161042020772068C069800707
:102C1000204602D0FFF7AEFF04E000F06CF820463B
:102C200000F06AF8257720680169C943C90617D4FE
:102C3000C168C943C90613D46FF0100101610820AF
:102C400020772068C06910F4407F204602D0FFF74B
:102C500091FF04E000F04FF8204600F04DF8257792
:102C600020680169C943C90708D1C168C943C907B8
:102C700004D1891E0161204600F040F820680169F6
:102C80006FF08005C943090607D4C168C943090626
:102C900003D405612046FFF725FF20680169C94379
:102CA000C90507D4C168C943090603D40561204694
:102CB000FFF718FF20680169C943490609D4C168B4
:102CC000C943490605D46FF040010161204600F078
:102CD00025F820680169C94389060BD4C168C94336
:102CE000890607D46FF0200101612046BDE87040DD
:102CF000FFF7F9BE70BD7047704700000549884274
:102D000007D1054801684268491C016042F1000290
:102D100042607047C0030024800000247047704761
:102D2000704790F8791090F87A00084370470000D7
:102D300070B502680446D0691368916810F00F0FEF
:102D400064D0594D03F490760D40354376D0C507D5
:102D500007D0DD0505D501251562E26F42F00102BD
:102D6000E267820708D5CA0706D0256802222A62D0
:102D7000E26F42F00402E267420708D5CA0706D0B4
:102D8000256804222A62E26F42F00202E26702072B
:102D90000ED503F0200201F080552A4352EAC17299
:102DA00006D0256808222A62E26F42F00802E26734
:102DB000E26F002A3AD0800608D503F0200001F027
:102DC0008051084302D0204604F052F8E06F00071B
:102DD00003D42068806840062AD5204604F03AF8DB
:102DE0002068816849061ED5816821F04001816014
:102DF000606FC0B12D490165606FFDF7B5FF002818
:102E000014D0606F016DBDE870400847850615D588
:102E100003F0200501F0805635430FD02046BDE871
:102E2000704004F025B82046FFF77AFF70BD05E03A
:102E30002046FFF775FF0020E067F7E7C6024FF076
:102E400020050CD54E020AD5E803106284F87950AB
:102E500084F87A502046BDE87040FFF760BF060650
:102E60000AD503F0800601F400010E4304D0204689
:102E7000BDE8704004F08CBA41060BD5590609D55F
:102E80001168204621F04001116084F8795000F06B
:102E900005F9CBE70002C9D55800C7D5106820F066
:102EA00080401060C2E7000001000010416E000881
:102EB00010B5040003D094F8790010B107E00120A8
:102EC00010BD002084F87800204600F027F8242068
:102ED00084F879002068016821F001010160204632
:102EE00004F002F80128EBD0606B10B1204603F02B
:102EF00015FF2068416821F4904141602068816895
:102F000021F02A0181602068016841F0010101601F
:102F10002046BDE8104003F065BF000010B5006812
:102F200086B01B49884230D11A48016841F001013E
:102F30000160006800F0010005901648103001683B
:102F400041F01001016000680121134C00F01000F5
:102F500005904FF4007000900220CDE9010103902C
:102F60000720694604902046FDF750FF4FF480612A
:102F7000204600916946FDF749FF2520FEF723FA18
:102F8000002207212520FEF72BFA06B010BD000015
:102F900000100140E04402580000025890F87A30D6
:102FA000202B4CD1B9B1B2B190F87830012B46D07A
:102FB000012380F878304166A0F86820A0F86A20E4
:102FC000FF228168B1F5805F07D07F2351B1B1F155
:102FD000805F0CD010E001207047016921B940F2F8
:102FE000FF1107E0016909BBA0F86C2004E001694A
:102FF000E1B13F21A0F86C100021C167222280F8C6
:103000007A2080F8781001688A6842F001028A60AC
:1030100001680A6892000CD50A6842F480720A605E
:103020000068816841F08051816006E0A0F86C3052
:10303000E2E7086840F490700860002070470220C2
:103040007047000030B50068114988420CD1114A20
:103050005088010408D411464FF000034404097855
:1030600006D50A2901D0538030BD40F400400DE060
:103070000D2909D0084DC0F30D04401C80B2C728AB
:1030800029555080EFD830BD40F48040508030BD8D
:103090000010014058000024200100247047FEE782
:1030A000114810B586B0016841F0800101600068E8
:1030B00069460E4C00F08000059030200090012001
:1030C00001900290032003902046FDF79FFE01220D
:1030D00020462021FDF797FF012220461021FDF711
:1030E00092FF06B010BD0000E0440258001C0258D8
:1030F00070B5194E05463046316821F440613160A3
:10310000316841F48061316000221021FDF77BFFBE
:103110000024280601D5012200E0002230462021AB
:10312000FDF771FF6806050E022004F007FA012280
:1031300030461021FDF767FF022004F0FFF900225E
:1031400030461021FDF75FFF022004F0F7F9641C00
:10315000E4B2082CDDD370BD001C025810B5124C2F
:10316000206820F440602060206840F48060206087
:10317000012220462021FDF746FF01222046102192
:10318000FDF741FF042004F0D9F900222046202158
:10319000FDF739FF042004F0D1F900222046BDE8F4
:1031A00010401021FDF72FBF001C025810B5124C23
:1031B000206820F440602060206840F48060206037
:1031C000002220461021FDF71EFF0022204620216C
:1031D000FDF719FF042004F0B1F901222046102167
:1031E000FDF711FF012220462021FDF70CFFBDE86D
:1031F0001040042004F0A2B9001C025870B5174D0D
:103200000024286820F44060286028682860012293
:1032100020212846FDF7F7FE012004F08FF9012256
:1032200028461021FDF7EFFE012004F087F907E0A2
:10323000641CE4B2FA2C03D9FFF7B8FF012070BD7B
:1032400020212846FDF7D6FE0028F1D1002228468D
:103250001021FDF7D8FE002070BD0000001C0258B0
:103260001B4870B586B0016841F00101016001683A
:1032700001F001010591016841F00401016001685C
:1032800001F004010591016841F0800101600068CE
:1032900003240025694600F08000059002200126E5
:1032A000CDE902040B48CDE90065FDF7AFFD7003E1
:1032B00003948DE8610008486946FDF7A7FD0C20DE
:1032C000009006486946FDF7A1FD06B070BD0000FC
:1032D000E04402580000025800080258001C02583E
:1032E0002DE9F0470126304CDFF8C080DFF8C090B0
:1032F0007703304D01281DD02078A0B10821284641
:10330000FDF778FEC0B104212846FDF773FE98B1A1
:1033100039464046FDF76EFE70B101214846FDF783
:1033200069FE012808D008212846FDF763FE012820
:1033300026D037E02670E1E70A2004F0E3F8002009
:10334000207008212846FDF755FE80B1042128464B
:10335000FDF750FE70B139464046FDF74BFE58B1BF
:1033600001214846FDF746FE012807D01AE001205A
:10337000BDE8F0870220FBE70320F9E70420F7E728
:1033800004212846FDF736FE01280BD13946404678
:10339000FDF730FE012805D101214846FDF72AFE40
:1033A00000B926700020E3E77C00002400080258E2
:1033B00000000258001C02580E490F4A70B506461C
:1033C00008881268002422B13046BDE8704002F03F
:1033D00097BE4D8800214543084602F0E3FC02F009
:1033E00057FEB1B2054801E00180641CAC42FBD33A
:1033F00070BD0000B40200246C03002400000860CB
:103400002DE9F05F394C3A4DA071296839B102F0CD
:103410009BFEE88A2080288B6080BDE8F09F3349BE
:103420002C232A254FF0F0092B2649F2413A4FF47C
:10343000305E45F2105B89884FF448774FF4A078EE
:1034400045F2103C4FF4F07258B1A4F80080514599
:10345000A4F8029001D0614529D123816581A6811C
:1034600039E0A4F800905145A4F8028001D06145EC
:1034700008D1238161456581A68131D1A4F80080FE
:1034800062802DE0594508D1A4F808E04FF4285097
:1034900060814FF42C50A08106E0A1F5C85063383C
:1034A0001ED123816681A5812280678018E059455D
:1034B00008D1A4F808E04FF4285060814FF42C5054
:1034C000A08106E0A1F5C850633804D1238165814D
:1034D000A68127806280614502D12280A4F8028003
:1034E0000020BDE8F05F02F081BB0000B4020024C0
:1034F0006C0300242DE9FE4F00268246A2EB000853
:1035000035465F1A8946701EB8F1000F02DD4FF094
:10351000010102E003D14FF00001019102E0C8F186
:1035200000080190002F02DD4FF0010002E003D1FE
:103530004FF00000009002E0C7F100070090B8458E
:10354000404601DD044600E03C464FF0000B601CA5
:10355000029015E01FFA89F11FFA8AF000F016F8C0
:103560004644A6423D4402DD0199361B8A44A542E9
:1035700002DD00992D1B89440BF101001FFA80FB2D
:1035800002998B45E6DDBDE8FE8F0000084A10B5C4
:10359000084C126822B12268BDE8104002F0E8BD74
:1035A00002F000FC02F074FD03492088088010BD81
:1035B0006C0300246C000024000008602DE9F04139
:1035C0001C4615460E4607460B46FFF793FF3A4644
:1035D000234631461046FFF78DFF23462A461946FB
:1035E0003846FFF787FF2A46234631461046BDE896
:1035F000F041FFF77FBF00002DE9F04104463A4853
:103600000D46006820B12046BDE8F04102F0B0BD93
:10361000364E270A4FEA15283146B0884989A0F569
:103620001343413B0CD0A0F5A643103B08D0A0F5B6
:10363000AA43103B11D0A0F5C853633B27D04BE001
:10364000084602F019FD384602F00AFDE0B202F029
:1036500007FDB08902F010FD38E0084602F00CFDCD
:10366000384602F0FDFC7089401C80B202F004FD77
:10367000E0B202F0F5FCB08902F0FEFC404602F038
:10368000EFFCB089401C80B202F0F6FC21E0B0797A
:1036900018B93088001B401E84B2084602F0ECFCCA
:1036A000270A384602F0DCFCE0B202F0D9FC3846CA
:1036B00002F0D6FCE0B202F0D3FCB08902F0DCFCF0
:1036C000404602F0CDFCE8B202F0CAFC404602F0EF
:1036D000C7FCE8B202F0C4FC054930890880881CA8
:1036E0000280BDE8F08100006C030024B4020024D5
:1036F000FEFF07602DE9F8431F46144B80460898EB
:103700001B6833B13B460090404602F04FFDBDE8D8
:10371000F883A2EB0802DFF83890521C0C4696B2F0
:1037200085B20FE02146404602F03CFB02F0B0FCBF
:103730000020494602E00D80401C80B2B042FAD31E
:10374000641CA4B2BC42EDD9E1E700006C03002484
:10375000000008602DE9F04F95B002F031FFFE4DFA
:103760004FF6FF7ADFF8F48349F2413945F210361B
:1037700045F2105441F66317A88038B10146F8A00D
:10378000FCF7DAFE02F068FD02F08FB9F848016834
:1037900041F00201016000680EA900F002001390E0
:1037A00020200E9001200F90109003201190F148DE
:1037B000FDF72CFB02F0AAF9E7481022EE494C383D
:1037C000C0E9008100218160C160C0E904121202D9
:1037D0008161C161C0E908129200C0E90A12920138
:1037E0000163C0E90D121120CDE9000155200290BE
:1037F000152007AACDE90610CDE90810D6480D918D
:1038000069464C38FFF7E0F8322003F07BFED32006
:1038100002F032FC02F0B6F9A88002F0B3F9A880F9
:1038200002F0B0F90AEA00205246A88002F0AAF994
:10383000A9880843A880484547D0D42002F01CFC42
:1038400002F0A0F9A88002F09DF9A88002F09AF990
:1038500002EA0020A88002F095F9A9880843A88010
:10386000B04232D04FF45A4002F006FC02F08AF91E
:10387000A8804FF45B4002F0FFFB02F083F902EAFC
:103880000020A8804FF45C4002F0F6FB02F07AF9C9
:10389000A9880843A880B0F5004F7CD0A04214D07E
:1038A000A12002F0E9FB02F06DF9A88002F06AF9AC
:1038B00002EA0020A88002F065F9A9880843A880E0
:1038C000A0F5AE41613900D1AF80A5A0A988FCF771
:1038D00033FEA88848457DD1CF2002F0CDFB0020E3
:1038E00002F0BEFBC12002F0BBFB302002F0B8FBAF
:1038F000ED2002F0C1FB642002F0B2FB032002F0D5
:10390000AFFB122002F0ACFB812002F0A9FBE82003
:1039100002F0B2FB852002F0A3FB102002F0A0FB16
:103920007A2002F09DFBCB2002F0A6FB392002F0AA
:1039300097FB2C2002F094FB002002F091FB342036
:1039400002F08EFB022002F08BFBF72002F094FBCA
:10395000202002F085FBEA2002F08EFB002002F01E
:103960007FFB002002F07CFBC02002F085FB1B20C7
:1039700002F076FBC12002F07FFB012002F070FB19
:10398000C52002F079FB302002F06AFB302002F003
:1039900067FBC72000E0B7E002F06EFBB72002F043
:1039A0005FFB362002F068FB482002F059FB3A200A
:1039B00002F062FB552002F053FBB12002F05CFBE9
:1039C000002002F04DFB1A2002F04AFBB62002F064
:1039D00053FB00E09AE00A2002F042FBA22002F032
:1039E0003FFBF22002F048FB002002F039FB2620CA
:1039F00002F042FB012002F033FBE02002F03CFB2E
:103A00000F2002F02DFB2A2002F02AFB282002F0D2
:103A100027FB082002F024FB0E2002F021FB0820E7
:103A200002F01EFB542002F01BFBA92002F018FB41
:103A3000432002F015FB0A2002F012FB0F2002F0D7
:103A40000FFB002002F00CFB002002F009FB00201D
:103A500002F006FB002002F003FBE12002F00CFB69
:103A6000002002F0FDFA152002F0FAFA172002F009
:103A7000F7FA072002F0F4FA112002F0F1FA06201A
:103A800002F0EEFA2B2002F0EBFA562002F0E8FAF0
:103A90003C2002F0E5FA052002F0E2FA102002F0E4
:103AA000DFFA0F2002F0DCFA3F2002F0D9FA3F20C3
:103AB00002F0D6FA0F2002F0D3FA2B2002F0DCFA43
:103AC000002002F0CDFA002002F0CAFA012002F034
:103AD000C7FA3F2002F0C4FA2A2002F0CDFA0020F3
:103AE00002F0BEFA002002F0BBFA002002F0B8FAA1
:103AF000EF2002F0B5FA112002F0BEFA782003F0B0
:103B000001FD292001F014BFAC80DEE6B0427DD17A
:103B1000ED2002F0B1FA012002F0A2FAFE2002F03C
:103B20009FFAEE2002F0A8FADE2002F099FA212096
:103B300002F096FAF12002F09FFA012002F090FACA
:103B4000DF2002F099FA102002F08AFAC42002F075
:103B500093FA8F2012E00000B402002400400052CB
:103B6000204C43442049443A25780D0A00000000C7
:103B7000E0440258000402580441005202F070FA76
:103B8000C62002F079FA002002F06AFAE22002F080
:103B900067FAE22002F064FAE22002F061FABF2044
:103BA00002F06AFAAA2002F05BFAB02002F064FA8E
:103BB0000D2002F055FA002002F052FA0D2002F01A
:103BC0004FFA002002F04CFA112002F049FA0020CE
:103BD00002F046FA192002F043FA002002F040FAFF
:103BE000212002F03DFA002002F03AFA2D2002F0E6
:103BF00037FA002002F034FA3D2002F031FA0020BA
:103C000002F02EFA5D2002F02BFA00E0FDE3002026
:103C100002F026FA5D2002F023FA002002F020FADA
:103C2000B12002F029FA802002F01AFA002002F0F6
:103C300017FA8B2002F014FA002002F011FA9620F5
:103C400002F00EFA002002F00BFAB22002F014FA91
:103C5000002002F005FA002002F002FA022002F031
:103C6000FFF9002002F0FCF9032002F0F9F900202E
:103C700002F0F6F9B32002F0FFF9002002F0F0F9AB
:103C8000002002F0EDF9002002F0EAF9002002F035
:103C9000E7F9002002F0E4F9002002F0E1F9002049
:103CA00002F0DEF9002002F0DBF9002002F0D8F982
:103CB000002002F0D5F9002002F0D2F9002002F035
:103CC000CFF9002002F0CCF9002002F0C9F9002061
:103CD00002F0C6F9002002F0C3F9002002F0C0F99A
:103CE000002002F0BDF9002002F0BAF9002002F035
:103CF000B7F9002002F0B4F9002002F0B1F9002079
:103D000002F0AEF9002002F0ABF9B42002F0B4F9F1
:103D10008B2002F0A5F9002002F0A2F9962002F013
:103D20009FF9002002F09CF9A12002F099F90020EF
:103D300002F096F9B52002F09FF9022002F090F906
:103D4000002002F08DF9032002F08AF9002002F031
:103D500087F9042002F084F9002002F081F9B620EE
:103D600002F08AF9002002F07BF9002002F078F9D5
:103D7000B72002F081F9002002F072F9002002F071
:103D80006FF93F2002F06CF9002002F069F95E2023
:103D900002F066F9002002F063F9642002F060F995
:103DA000002002F05DF98C2002F05AF9002002F0A8
:103DB00057F9AC2002F054F9002002F051F9DC2050
:103DC00002F04EF9002002F04BF9702002F048F9A1
:103DD000002002F045F9902002F042F9002002F0A4
:103DE0003FF9EB2002F03CF9002002F039F9DC2029
:103DF00002F036F9002002F033F9B82002F03CF965
:103E0000002002F02DF9002002F02AF9002002F033
:103E100027F9002002F024F9002002F021F9002007
:103E200002F01EF9002002F01BF9002002F018F940
:103E3000BA2002F021F9242002F012F9002002F049
:103E40000FF9002002F00CF9002002F009F9C1205E
:103E500002F012F9202002F003F9002002F000F92C
:103E6000542002F0FDF8002002F0FAF8FF2002F0E2
:103E7000F7F8002002F0F4F8C22002F0FDF80A2062
:103E800002F0EEF8002002F0EBF8042002F0E8F86F
:103E9000002002F0E5F8C32002F0EEF83C2002F02A
:103EA000DFF8002002F0DCF83A2002F0D9F8002018
:103EB00002F0D6F8392002F0D3F8002002F0D0F852
:103EC000372002F0CDF8002002F0CAF83C2002F0C2
:103ED000C7F8002002F0C4F8362002F0C1F8002034
:103EE00002F0BEF8322002F0BBF8002002F0B8F871
:103EF0002F2002F0B5F8002002F0B2F82C2002F0DA
:103F0000AFF8002002F0ACF8292002F0A9F8002058
:103F100002F0A6F8262002F0A3F8002002F0A0F894
:103F2000242002F09DF8002002F09AF8242002F0EC
:103F300097F8002002F094F8232002F091F8002076
:103F400002F08EF83C2002F08BF8002002F088F896
:103F5000362002F085F8002002F082F8322002F0CC
:103F60007FF8002002F07CF82F2002F079F8002082
:103F700002F076F82C2002F073F8002002F070F8BE
:103F8000292002F06DF8002002F06AF8262002F0E5
:103F900067F8002002F064F8242002F061F80020A5
:103FA00002F05EF8242002F05BF8002002F058F8DE
:103FB000232002F055F8002002F052F8C42002F04D
:103FC0005BF8622002F04CF8002002F049F805206E
:103FD00002F046F8002002F043F8842002F040F896
:103FE000002002F03DF8F02002F03AF8002002F044
:103FF00037F8182002F034F8002002F031F8A4203D
:1040000002F02EF8002002F02BF8182002F028F819
:10401000002002F025F8502002F022F8002002F0E3
:104020001FF80C2002F01CF8002002F019F81720ED
:1040300002F016F8002002F013F8952002F010F8B4
:10404000002002F00DF8F32002F00AF8002002F040
:1040500007F8E62002F004F8002002F001F8C5207D
:1040600002F00AF8322001F0FBFF002001F0F8FF17
:10407000442001F0F5FF002001F0F2FF652001F07F
:10408000EFFF002001F0ECFF762001F0E9FF0020B7
:1040900001F0E6FF882001F0E3FF002001F0E0FFDF
:1040A000C62001F0E9FF202001F0DAFF002001F036
:1040B000D7FF172001F0D4FF002001F0D1FF01202D
:1040C00001F0CEFF002001F0CBFFC72001F0D4FFAC
:1040D000002001F0C5FF002001F0C2FF002001F028
:1040E000BFFF002001F0BCFFC82001F0C5FF002089
:1040F00001F0B6FF002001F0B3FF002001F0B0FF97
:10410000002001F0ADFFC92001F0B6FF002001F052
:10411000A7FF002001F0A4FF002001F0A1FF002074
:1041200001F09EFF002001F09BFF002001F098FFAE
:10413000002001F095FF002001F092FF002001F027
:104140008FFF002001F08CFF002001F089FF00208C
:1041500001F086FF002001F083FF002001F080FFC6
:10416000002001F07DFF002001F07AFFE02001F047
:1041700083FF162001F074FF002001F071FF1C2066
:1041800001F06EFF002001F06BFF212001F068FFBD
:10419000002001F065FF362001F062FF002001F0F1
:1041A0005FFF462001F05CFF002001F059FF522024
:1041B00001F056FF002001F053FF642001F050FF92
:1041C000002001F04DFF7A2001F04AFF002001F0AD
:1041D00047FF8B2001F044FF002001F041FF9920B0
:1041E00001F03EFF002001F03BFFA82001F038FF66
:1041F000002001F035FFB92001F032FF002001F06E
:104200002FFFC42001F02CFF002001F029FFCA205D
:1042100001F026FF002001F023FFD22001F020FF53
:10422000002001F01DFFD92001F01AFF002001F04D
:1042300017FFE02001F014FF002001F011FFF32030
:1042400001F00EFF002001F00BFFE12001F014FF50
:10425000162001F005FF002001F002FF1C2001F0F4
:10426000FFFE002001F0FCFE222001F0F9FE0020FC
:1042700001F0F6FE362001F0F3FE002001F0F0FE22
:10428000452001F0EDFE002001F0EAFE522001F091
:10429000E7FE002001F0E4FE642001F0E1FE0020D2
:1042A00001F0DEFE7A2001F0DBFE002001F0D8FEF6
:1042B0008B2001F0D5FE002001F0D2FE992001F004
:1042C000CFFE002001F0CCFEA82001F0C9FE0020A6
:1042D00001F0C6FEB92001F0C3FE002001F0C0FECF
:1042E000C42001F0BDFE002001F0BAFECA2001F09A
:1042F000B7FE002001F0B4FED22001F0B1FE002094
:1043000001F0AEFED82001F0ABFE002001F0A8FEC7
:10431000E02001F0A5FE002001F0A2FEF32001F054
:104320009FFE002001F09CFEE22001F0A5FE05208A
:1043300001F096FE002001F093FE0B2001F090FEAC
:10434000002001F08DFE1B2001F08AFE002001F00C
:1043500087FE342001F084FE002001F081FE44201D
:1043600001F07EFE002001F07BFE4F2001F078FE80
:10437000002001F075FE612001F072FE002001F0C6
:104380006FFE792001F06CFE002001F069FE8820AC
:1043900001F066FE002001F063FE972001F060FE50
:1043A000002001F05DFEA62001F05AFE002001F081
:1043B00057FEB72001F054FE002001F051FEC2204C
:1043C00001F04EFE002001F04BFEC72001F048FE38
:1043D000002001F045FED12001F042FE002001F056
:1043E0003FFED62001F03CFE002001F039FEDD202A
:1043F00001F036FE002001F033FEF32001F030FE24
:10440000002001F02DFEE32000E00FE301F034FE78
:10441000052001F025FE002001F022FE0A2001F017
:104420001FFE002001F01CFE1C2001F019FE0020E0
:1044300001F016FE332001F013FE002001F010FE03
:10444000442001F00DFE002001F00AFE502001F092
:1044500007FE002001F004FE622001F001FE0020B2
:1044600001F0FEFD782001F0FBFD002001F0F8FDD9
:10447000882001F0F5FD002001F0F2FD972001F009
:10448000EFFD002001F0ECFDA62001F0E9FD002089
:1044900001F0E6FDB72001F0E3FD002001F0E0FDB2
:1044A000C22001F0DDFD002001F0DAFDC72001F09F
:1044B000D7FD002001F0D4FDD12001F0D1FD002076
:1044C00001F0CEFDD52001F0CBFD002001F0C8FDAC
:1044D000DD2001F0C5FD002001F0C2FDF32001F058
:1044E000BFFD002001F0BCFDE42001F0C5FD01206E
:1044F00001F0B6FD002001F0B3FD012001F0B0FD98
:10450000002001F0ADFD022001F0AAFD002001F025
:10451000A7FD2A2001F0A4FD002001F0A1FD3C2010
:1045200001F09EFD002001F09BFD4B2001F098FD65
:10453000002001F095FD5D2001F092FD002001F0CA
:104540008FFD742001F08CFD002001F089FD842096
:1045500001F086FD002001F083FD932001F080FD35
:10456000002001F07DFDA22001F07AFD002001F085
:1045700077FDB32001F074FD002001F071FDBE2035
:1045800001F06EFD002001F06BFDC42001F068FD1C
:10459000002001F065FDCD2001F062FD002001F05A
:1045A0005FFDD32001F05CFD002001F059FDDD200E
:1045B00001F056FD002001F053FDF32001F050FD05
:1045C000002001F04DFDE52001F056FD002001F036
:1045D00047FD002001F044FD002001F041FD0020D6
:1045E00001F03EFD022001F03BFD002001F038FD0E
:1045F000292001F035FD002001F032FD3C2001F0C2
:104600002FFD002001F02CFD4B2001F029FD0020A2
:1046100001F026FD5D2001F023FD002001F020FDCA
:10462000742001F01DFD002001F01AFD842001F02E
:1046300017FD002001F014FD932001F011FD002072
:1046400001F00EFDA22001F00BFD002001F008FD9D
:10465000B32001F005FD002001F002FDBE2001F0B5
:10466000FFFC002001F0FCFCC42001F0F9FC00205C
:1046700001F0F6FCCD2001F0F3FC002001F0F0FC8D
:10468000D32001F0EDFC002001F0EAFCDC2001F079
:10469000E7FC002001F0E4FCF32001F0E1FC002045
:1046A00001F0DEFCE62001F0E7FC112001F0D8FC6F
:1046B000002001F0D5FC342001F0D2FC002001F0F4
:1046C000CFFC562001F0CCFC002001F0C9FC762084
:1046D00001F0C6FC002001F0C3FC772001F0C0FC13
:1046E000002001F0BDFC662001F0BAFC002001F0C2
:1046F000B7FC882001F0B4FC002001F0B1FC992047
:1047000001F0AEFC002001F0ABFCBB2001F0A8FCE6
:10471000002001F0A5FC992001F0A2FC002001F08E
:104720009FFC662001F09CFC002001F099FC5520C4
:1047300001F096FC002001F093FC552001F090FC64
:10474000002001F08DFC452001F08AFC002001F0E2
:1047500087FC432001F084FC002001F081FC442010
:1047600001F07EFC002001F07BFCE72001F084FCDE
:10477000322001F075FC002001F072FC552001F0A0
:104780006FFC002001F06CFC762001F069FC002039
:1047900001F066FC662001F063FC002001F060FC83
:1047A000672001F05DFC002001F05AFC672001F059
:1047B00057FC002001F054FC872001F051FC002040
:1047C00001F04EFC992001F04BFC002001F048FC68
:1047D000BB2001F045FC002001F042FC992001F0D3
:1047E0003FFC002001F03CFC772001F039FC002068
:1047F00001F036FC442001F033FC002001F030FCD5
:10480000562001F02DFC002001F02AFC232001F0AD
:1048100027FC002001F024FC332001F021FC0020C3
:1048200001F01EFC452001F01BFC002001F018FCEB
:10483000E82001F021FC002001F012FC002001F032
:104840000FFC992001F00CFC002001F009FC8720EE
:1048500001F006FC002001F003FC882001F000FCC0
:10486000002001F0FDFB772001F0FAFB002001F0B1
:10487000F7FB662001F0F4FB002001F0F1FB88203B
:1048800001F0EEFB002001F0EBFBAA2001F0E8FBB9
:10489000002001F0E5FBBB2001F0E2FB002001F06D
:1048A000DFFB992001F0DCFB002001F0D9FB662042
:1048B00001F0D6FB002001F0D3FB552001F0D0FB26
:1048C000002001F0CDFB552001F0CAFB002001F0D3
:1048D000C7FB442001F0C4FB002001F0C1FB4420D1
:1048E00001F0BEFB002001F0BBFB552001F0B8FB3E
:1048F000002001F0B5FBE92001F0BEFBAA2001F089
:10490000AFFB002001F0ACFB002001F0A9FB002070
:1049100001F0A6FB002001F0AFFBAA2001F0A0FBF4
:10492000CF2001F0A9FB002001F09AFB002001F04C
:1049300097FB002001F094FB002001F091FB002088
:1049400001F08EFB002001F08BFB002001F088FBC2
:10495000002001F085FB002001F082FB002001F027
:104960007FFB002001F07CFB002001F079FB0020A0
:1049700001F076FB002001F073FB002001F070FBDA
:10498000002001F06DFB002001F06AFBF02001F037
:1049900073FB002001F064FB502001F061FB00205C
:1049A00001F05EFB002001F05BFB002001F058FBF2
:1049B000F32001F061FB002001F052FBF92001F02F
:1049C0005BFB062001F04CFB102001F049FB292085
:1049D00001F046FB002001F043FB3A2001F04CFBC4
:1049E000552001F03DFB112001F046FB642002F050
:1049F00089FD292001F040FB352001F03DFB00201E
:104A000001F02EFB512001F037FBFF2001F028FBC5
:104A1000532001F031FB2C2001F022FB552001F046
:104A20002BFB822001F01CFB2C20FDE3A0427DD15A
:104A30004FF470435521184601F034FB4FF2010B3F
:104A4000AA21584601F02EFB52214FF2020001F03C
:104A500029FB08214FF2030001F024FB01214FF252
:104A6000040001F01FFB0D214FF4304001F01AFB50
:104A70000D214BF2010001F015FB0D214BF202005C
:104A800001F010FB34214FF4364001F00BFB3421D0
:104A90004BF2016001F006FB34214BF2026001F0A1
:104AA00001FB0D214FF4314001F0FCFA0D214BF2D6
:104AB000011001F0F7FA0D214BF2021001F0F2FAA9
:104AC00034214FF4374001F0EDFA34214BF20170FC
:104AD00001F0E8FA34214BF2027001F0E3FA002110
:104AE0004FF4324001F0DEFA00214BF2012001F0D8
:104AF000D9FA00214BF2022001F0D4FA24214FF41C
:104B0000384001F0CFFA24214BF6010001F0CAFA37
:104B100024214BF6020001F0C5FA01214FF43F4079
:104B200001F0C0FA0F214FF4334000E0FEE301F042
:104B3000B9FA0F214BF2013001F0B4FA0F214BF218
:104B4000023001F0AFFA34214FF4394001F0AAFAF3
:104B500034214BF6011001F0A5FA34214BF6021076
:104B600001F0A0FA08214FF4354001F09BFA08212A
:104B70004BF2015001F096FA08214BF2025001F07D
:104B800091FA03214FF4424001F08CFA24214FF4B2
:104B90003A4001F087FA24214BF6012001F082FA15
:104BA00024214BF6022001F07DFA00214FF43C4015
:104BB00001F078FA78214BF6014001F073FA0021F8
:104BC0004BF6024001F06EFA00214FF43D4001F037
:104BD00069FA78214BF6015001F064FA00214BF696
:104BE000025001F05FFA00214FF43E4001F05AFA02
:104BF00064214BF6016001F055FA00214FF4514059
:104C000001F050FA33214DF2011001F04BFA00216E
:104C10004DF2021001F046FA34214DF2031001F07A
:104C200041FA00214DF2041001F03CFA3A214DF214
:104C3000051001F037FA00214DF2061001F032FAAA
:104C40004A214DF2071001F02DFA00214DF2081013
:104C500001F028FA5C214DF2091001F023FA00213D
:104C60004DF20A1001F01EFA81214DF20B1001F0F5
:104C700019FA00214DF20C1001F014FAA6214DF2A0
:104C80000D1001F00FFA00214DF20E1001F00AFA9A
:104C9000E5214DF20F1001F005FA01214DF210103F
:104CA00001F000FA13214DF2111001F0FBF901217E
:104CB0004DF2121001F0F6F954214DF2131001F0EB
:104CC000F1F901214DF2141001F0ECF982214DF2BD
:104CD000151001F0E7F901214DF2161001F0E2F98B
:104CE000CA214DF2171001F0DDF902214DF2181022
:104CF00001F0D8F900214DF2191001F0D3F9022189
:104D00004DF21A1001F0CEF901214DF21B1001F005
:104D1000C9F902214DF21C1001F0C4F934214DF201
:104D20001D1001F0BFF902214DF21E1001F0BAF979
:104D300067214DF21F1001F0B5F902214DF220104C
:104D400001F0B0F984214DF2211001F0ABF90221FC
:104D50004DF2221001F0A6F9A4214DF2231001F02A
:104D6000A1F902214DF2241001F09CF9B7214DF276
:104D7000251001F097F902214DF2261001F092F969
:104D8000CF214DF2271001F08DF902214DF22810AC
:104D900001F088F9DE214DF2291001F083F902219A
:104DA0004DF22A1001F07EF9F2214DF22B1001F0A4
:104DB00079F902214DF22C1001F074F9FE214DF227
:104DC0002D1001F06FF903214DF22E1001F06AF958
:104DD00010214DF22F1001F065F903214DF2301032
:104DE00001F060F933214DF2311001F05BF903213C
:104DF0004DF2321001F056F96D214DF2331001F0F1
:104E000051F900214FF4524001F04CF933214DF299
:104E1000012001F047F900214DF2022001F042F992
:104E200034214DF2032001F03DF900214DF2042020
:104E300001F038F93A214DF2052001F033F9002153
:104E40004DF2062001F02EF94A214DF2072001F023
:104E500029F900214DF2082001F024F95C214DF2DE
:104E6000092001F01FF900214DF20A2001F01AF982
:104E700081214DF20B2001F015F900214DF20C209B
:104E800001F010F9A6214DF20D2001F00BF90021DF
:104E90004DF20E2001F006F9E5214DF20F2001F050
:104EA00001F901214DF2102001F0FCF813214DF21F
:104EB000112001F0F7F801214DF2122001F0F2F873
:104EC00054214DF2132001F0EDF801214DF2142090
:104ED00001F0E8F882214DF2152001F0E3F80121FC
:104EE0004DF2162001F0DEF8CA214DF2172001F034
:104EF000D9F802214DF2182001F0D4F800214DF22A
:104F0000192001F0CFF802214DF21A2001F0CAF861
:104F100001214DF21B2001F0C5F802214DF21C20A9
:104F200001F0C0F834214DF21D2001F0BBF8022140
:104F30004DF21E2001F0B6F867214DF21F2001F05E
:104F4000B1F802214DF2202001F0ACF884214DF29D
:104F5000212001F0A7F802214DF2222001F0A2F851
:104F6000A4214DF2232001F09DF802214DF22420CE
:104F700001F098F8B7214DF2252001F093F80221B5
:104F80004DF2262001F08EF8CF214DF2272001F0BE
:104F900089F802214DF2282001F084F8DE214DF23B
:104FA000292001F07FF802214DF22A2001F07AF841
:104FB000F2214DF22B2001F075F802214DF22C2048
:104FC00001F070F8FE214DF22D2001F06BF8032165
:104FD0004DF22E2001F066F810214DF22F2001F045
:104FE00061F803214DF2302001F05CF833214DF2DD
:104FF000312001F057F803214DF2322001F052F830
:105000006D214DF2332001F04DF800214FF4534053
:1050100001F048F833214DF2013001F043F800214E
:105020004DF2023001F03EF834214DF2033001F030
:1050300039F800214DF2043001F034F83A214DF2F4
:10504000053001F02FF800214DF2063001F02AF86A
:105050004A214DF2073001F025F800214DF20830C9
:1050600001F020F85C214DF2093001F01BF800211D
:105070004DF20A3001F016F881214DF20B3001F0AB
:1050800011F800214DF20C3001F00CF8A6214DF280
:105090000D3001F007F800214DF20E3001F002F85A
:1050A000E5214DF20F3000F0FDFF01214DF21030EF
:1050B00000F0F8FF13214DF2113000F0F3FF012151
:1050C0004DF2123000F0EEFF54214DF2133000F09B
:1050D000E9FF01214DF2143000F0E4FF82214DF28E
:1050E000153000F0DFFF01214DF2163000F0DAFF3D
:1050F000CA214DF2173000F0D5FF02214DF21830D1
:1051000000F0D0FF00214DF2193000F0CBFF02215A
:105110004DF21A3000F0C6FF01214DF21B3000F0B5
:10512000C1FF02214DF21C3000F0BCFF34214DF2D2
:105130001D3000F0B7FF02214DF21E3000F0B2FF2B
:1051400067214DF21F3000F0ADFF02214DF22030FB
:1051500000F0A8FF84214DF2213000F0A3FF0221CE
:105160004DF2223000F09EFFA4214DF2233000F0DA
:1051700099FF02214DF2243000F094FFB7214DF247
:10518000253000F08FFF02214DF2263000F08AFF1B
:10519000CF214DF2273000F085FF02214DF228305B
:1051A00000F080FFDE214DF2293000F07BFF02216C
:1051B0004DF22A3000F076FFF2214DF22B3000F054
:1051C00071FF02214DF22C3000F06CFFFE214DF2F8
:1051D0002D3000F067FF03214DF22E3000F062FF0A
:1051E00010214DF22F3000F05DFF03214DF23030E1
:1051F00000F058FF33214DF2313000F053FF03210E
:105200004DF2323000F04EFF6D214DF2333000F0A0
:1052100049FF00214FF4544000F044FF33214DF288
:10522000014000F03FFF00E082E300214DF2024028
:1052300000F038FF34214DF2034000F033FF00212D
:105240004DF2044000F02EFF3A214DF2054000F0EF
:1052500029FF00214DF2064000F024FF4A214DF2C3
:10526000074000F01FFF00214DF2084000F01AFF38
:105270005C214DF2094000F015FF00214DF20A407B
:1052800000F010FF81214DF20B4000F00BFF0021D8
:105290004DF20C4000F006FFA6214DF20D4000F04B
:1052A00001FF00214DF20E4000F0FCFEE5214DF221
:1052B0000F4000F0F7FE01214DF2104000F0F2FE29
:1052C00013214DF2114000F0EDFE01214DF212408C
:1052D00000F0E8FE54214DF2134000F0E3FE0121FE
:1052E0004DF2144000F0DEFE82214DF2154000F038
:1052F000D9FE01214DF2164000F0D4FECA214DF234
:10530000174000F0CFFE02214DF2184000F0CAFE17
:1053100000214DF2194000F0C5FE02214DF21A4065
:1053200000F0C0FE01214DF21B4000E003E300F05D
:10533000B9FE02214DF21C4000F0B4FE34214DF2C2
:105340001D4000F0AFFE02214DF21E4000F0AAFE0B
:1053500067214DF21F4000F0A5FE02214DF22040D2
:1053600000F0A0FE84214DF2214000F09BFE0221BE
:105370004DF2224000F096FEA4214DF2234000F0B1
:1053800091FE02214DF2244000F08CFEB7214DF237
:10539000254000F087FE02214DF2264000F082FEFB
:1053A000CF214DF2274000F07DFE02214DF2284032
:1053B00000F078FEDE214DF2294000F073FE02215C
:1053C0004DF22A4000F06EFEF2214DF22B4000F02B
:1053D00069FE02214DF22C4000F064FEFE214DF2E8
:1053E0002D4000F05FFE03214DF22E4000F05AFEEA
:1053F00010214DF22F4000F055FE03214DF23040B8
:1054000000F050FE33214DF2314000F04BFE0321FD
:105410004DF2324000F046FE6D214DF2334000F077
:1054200041FE00214FF4554000F03CFE33214DF287
:10543000015000F037FE00214DF2025000F032FE24
:1054400034214DF2035000F02DFE00214DF20450A6
:1054500000F028FE3A214DF2055000F023FE002115
:105460004DF2065000F01EFE4A214DF2075000F0AA
:1054700019FE00214DF2085000F014FE5C214DF29F
:10548000095000F00FFE00214DF20A5000F00AFE14
:1054900081214DF20B5000F005FE00214DF20C5021
:1054A00000F000FEA6214DF20D5000F0FBFD0021A2
:1054B0004DF20E5000F0F6FDE5214DF20F5000F0D8
:1054C000F1FD01214DF2105000F0ECFD13214DF2E1
:1054D000115000F0E7FD01214DF2125000F0E2FD05
:1054E00054214DF2135000F0DDFD01214DF2145016
:1054F00000F0D8FD82214DF2155000F0D3FD0121BE
:105500004DF2165000F0CEFDCA214DF2175000F0BA
:10551000C9FD02214DF2185000F0C4FD00214DF2EA
:10552000195000F0BFFD02214DF21A5000F0BAFDF3
:1055300001214DF21B5000F0B5FD02214DF21C502F
:1055400000F0B0FD34214DF21D5000F0ABFD022102
:105550004DF21E5000F0A6FD67214DF21F5000F0E5
:10556000A1FD02214DF2205000F09CFD84214DF25E
:10557000215000F097FD02214DF2225000F092FDE3
:10558000A4214DF2235000F08DFD02214DF2245054
:1055900000F088FDB7214DF2255000F083FD022177
:1055A0004DF2265000F07EFDCF214DF2275000F045
:1055B00079FD02214DF2285000F074FDDE214DF2FC
:1055C000295000F06FFD02214DF22A5000F06AFDD3
:1055D000F2214DF22B5000F065FD02214DF22C50CE
:1055E00000F060FDFE214DF22D5000F05BFD032127
:1055F0004DF22E5000F056FD10214DF22F5000F0CC
:1056000051FD03214DF2305000F04CFD33214DF29D
:10561000315000F047FD03214DF2325000F042FDC1
:105620006D214DF2335000F03DFD00214FF4564006
:1056300000F038FD33214DF2016000F033FD002110
:105640004DF2026000F02EFD34214DF2036000F0B7
:1056500029FD00214DF2046000F024FD3A214DF2B5
:10566000056000F01FFD00214DF2066000F01AFDFC
:105670004A214DF2076000F015FD00214DF208604F
:1056800000F010FD5C214DF2096000F00BFD0021DF
:105690004DF20A6000F006FD81214DF20B6000F032
:1056A00001FD00214DF20C6000F0FCFCA6214DF242
:1056B0000D6000F0F7FC00214DF20E6000F0F2FCEE
:1056C000E5214DF20F6000F0EDFC01214DF210607C
:1056D00000F0E8FC13214DF2116000F0E3FC012121
:1056E0004DF2126000F0DEFC54214DF2136000F028
:1056F000D9FC01214DF2146000F0D4FC82214DF25E
:10570000156000F0CFFC01214DF2166000F0CAFCDC
:10571000CA214DF2176000F0C5FC02214DF218605D
:1057200000F0C0FC00214DF2196000F0BBFC02212A
:105730004DF21A6000F0B6FC01214DF21B6000F042
:10574000B1FC02214DF21C6000F0ACFC34214DF2A2
:105750001D6000F0A7FC02214DF21E6000F0A2FCCB
:1057600067214DF21F6000F09DFC02214DF2206088
:1057700000F098FC84214DF2216000F093FC02219E
:105780004DF2226000F08EFCA4214DF2236000F067
:1057900089FC02214DF2246000F084FCB7214DF217
:1057A000256000F07FFC02214DF2266000F07AFCBB
:1057B000CF214DF2276000F075FC02214DF22860E8
:1057C00000F070FCDE214DF2296000F06BFC02213C
:1057D0004DF22A6000F066FCF2214DF22B6000F0E1
:1057E00061FC02214DF22C6000F05CFCFE214DF2C8
:1057F0002D6000F057FC03214DF22E6000F052FCAA
:1058000010214DF22F6000F04DFC03214DF230606D
:1058100000F048FC33214DF2316000F043FC0321DD
:105820004DF2326000F03EFC6D214DF2336000F02D
:1058300039FC5521184600F035FCAA21584600F0E5
:1058400031FC52214FF2020000F02CFC08214FF2F3
:10585000030000F027FC00214FF2040000F022FCBE
:10586000CC214FF4314000F01DFC00214BF201101F
:1058700000F018FC05214FF4364000F013FC7021B5
:105880004FF4374000F00EFC70214BF2017000F035
:1058900009FC01214FF4384000F004FC03214BF6D1
:1058A000010000F0FFFB03214BF6020000F0FAFBC1
:1058B00003214BF6030000F0F5FB02214FF43C40BE
:1058C00000F0F0FB00214BF6014000F0EBFB002163
:1058D0004BF6024000F0E6FBD0214FF4494000F0C7
:1058E000E1FB02214CF6011000F0DCFB50214CF6EC
:1058F000021000F0D7FB50214CF6031000F0D2FB51
:1059000050214CF6041000F0CDFB00214FF4545010
:1059100000F0C8FB55214FF4685000F0C3FB4FF472
:10592000885000F0A9FB782001F008FE4FF42450C5
:1059300000F0A2FBB9E0B842FCD1E22000F09CFBF1
:105940001D2000F08DFB022000F08AFB042000F0F7
:1059500087FB642001F0F2FDE02000F08DFB0120C8
:1059600000F07EFB0A2001F0CDFDE02000F084FB7A
:10597000032000F075FB0C2001F0C4FD012000F0B5
:105980007BFB0A2001F0BEFDE62000F075FB2F2016
:1059900000F066FBFF2000F063FBFF2000F060FBDF
:1059A000B02000F069FB202000F05AFB002000F03E
:1059B00057FB032000F054FB40F21F3000F050FB77
:1059C000012000F04DFB40F2DF1000F049FB002009
:1059D00000F046FBB42000F04FFB042000F040FB39
:1059E00040F21F4000F03CFB002000F039FB2E206D
:1059F00000F036FB002000F033FB002000F030FB0D
:105A0000002000F02DFB002000F02AFBB62000F063
:105A100033FB022000F024FB4FF4037000F020FB66
:105A2000002000F01DFB172000F01AFB152000F0ED
:105A300017FB002000F014FB002000F011FBF02009
:105A400000F01AFB032000F00BFB292000F014FBF0
:105A5000D02000F011FB002000F002FBBE2000F07F
:105A60000BFB052000F0FCFAFE2000F0F9FA012003
:105A700000F0F6FA002000F0F3FA002000F0F0FA4F
:105A8000002000F0EDFAB82000F0F6FA032000F054
:105A9000E7FA012000F0E4FABA2000F0EDFA012064
:105AA00000F0DEFA642000F077F8A888484505D0B9
:105AB000B04203D0A04201D0B84217D1D8F80411A7
:105AC00021F00F01C8F80411D8F8041121F4706115
:105AD000C8F80411D8F8041141F00501C8F8041100
