:020000040800F2
:10000000A8C300241904000815330008B3320008FF
:100010001133000881180008F542000800000000B4
:100020000000000000000000000000005D03000868
:10003000A118000800000000B103000829350008DD
:1000400033040008330400083304000833040008B4
:1000500033040008330400083304000833040008A4
:100060003304000833040008330400083304000894
:100070003304000833040008330400083304000884
:100080003304000833040008330400083304000874
:100090003304000833040008330400083304000864
:1000A0003304000833040008330400083304000854
:1000B0003304000833040008330400083304000844
:1000C0003304000833040008330400083304000834
:1000D00033040008A5420008330400083304000874
:1000E0003304000833040008000000003304000853
:1000F0003304000833040008330400083304000804
:1001000033040008330400083304000833040008F3
:1001100033040008330400083304000833040008E3
:1001200033040008330400083304000833040008D3
:1001300033040008330400083304000833040008C3
:1001400000000000000000000000000000000000AF
:1001500033040008330400083304000833040008A3
:100160003304000833040008330400083304000893
:1001700033040008330400083304000800000000C2
:100180003304000833040008330400083304000873
:100190003304000833040008330400083304000863
:1001A0003304000833040008330400083304000853
:1001B0003304000833040008330400083304000843
:1001C0003304000833040008330400083304000833
:1001D0003304000833040008330400083304000823
:1001E0003304000833040008330400083304000813
:1001F0003304000833040008330400083304000803
:1002000033040008330400083304000833040008F2
:1002100033040008330400083304000833040008E2
:100220003304000833040008330400080000000011
:100230003304000833040008000000003304000801
:1002400033040008330400083304000833040008B2
:1002500033040008330400083304000833040008A2
:100260003304000833040008330400083304000892
:1002700033040008330400083304000800000000C1
:1002800033040008000000003304000800000000F0
:10029000000000003304000800F002F800F04FF8FE
:1002A0000AA090E8000C82448344AAF10107DA45D1
:1002B00001D100F044F8AFF2090EBAE80F0013F0D4
:1002C000010F18BFFB1A43F0010318473466000002
:1002D00054660000103A24BF78C878C1FAD8520793
:1002E00024BF30C830C144BF04680C6070470000B0
:1002F0000023002400250026103A28BF78C1FBD82F
:10030000520728BF30C148BF0B607047662906F00E
:100310007282642900F04E81732900F0F18400207C
:1003200070471FB506F062FA00F054FD040000208B
:10033000002106F045FAE0601FBD10B510BD00F0C9
:1003400075FE1146FFF7EDFF04F08EF800F093FE06
:1003500003B4FFF7F2FF03BC04F009F82B4B196854
:100360000868B0E8F04F80F30988BFF36F8F4FF053
:10037000000080F311887047000000000648006804
:10038000006880F3088862B661B6BFF34F8FBFF391
:100390006F8F00DF00BF00BF08ED00E0DFF80C004A
:1003A000016841F470010160704700BF88ED00E012
:1003B000EFF30980BFF36F8F144B1A681EF0100F14
:1003C00008BF20ED108A20E9F04F106008B44FF00C
:1003D000500072B680F31188BFF34F8FBFF36F8F59
:1003E00062B605F0E7FA4FF0000080F3118808BC10
:1003F00019680868B0E8F04F1EF0100F08BFB0ECA5
:10040000108A80F30988BFF36F8F70473C00002487
:10041000EFF305807047000009488047094800470E
:10042000FEE7FEE7FEE7FEE7FEE7FEE7FEE7FEE7A4
:10043000FEE7FEE704480549054A064B7047000001
:100440003D35000899020008A8BD0024A8C3002477
:10045000A8BF0024A8BF002453EA020C00F0698062
:100460002DE9F04B4FF00006002B1FBFB3FA83F5C8
:1004700003FA05F424FA05F65E4012BF1643B2FAF9
:1004800082F502FA05F4C5F120051EBF22FA05FC2B
:1004900044EA0C04203556EA044C4FEA144418BFD1
:1004A000641C4FF000084FF00009904271EB030C00
:1004B00039D3002919BFB1FA81F701FA07F6B0FA6A
:1004C00080F700FA07F6C7F120071EBF20FA07FCE5
:1004D00046EA0C062037B6FBF4FCA7EB0507103FF5
:1004E00007F01F0BCBF120060CFA0BFB2CFA06F6DB
:1004F00044BFB3460026202FA4BF5E464FF0000B3A
:100500005BEA060C08BF4FF0010B19EB0B09ABFBC4
:10051000027C48EB0608C01B06FB02CC0BFB03CC9D
:1005200071EB0C01C1E70B46024641464846BDE867
:10053000F08B13B54FF000004FF00001AFF30080D7
:10054000BDE81C40704700000FB4044910B503AA71
:10055000029800F0D9FB10BC5DF814FB28000024C1
:1005600070B50C460546012A05D02878800600D5CE
:10057000EA69002302E0012305E05B1C934202D2FA
:10058000E05C0028F9D1A869E618C01AA861286AB9
:10059000184428622846AFF3008004E0D5E9012121
:1005A00014F8010B9047B442F8D32846AFF300800B
:1005B00070BD00002DE9F041064600241068752941
:1005C000314616A510D0AFF30080002802DA404271
:1005D00013A507E031688A0701D512A502E0490793
:1005E00004D511A5012401E0AFF3008000210A2207
:1005F00006F1240709E0B0FBF2FCB0FBF2F302FBCA
:100600001C00303078541846491C0028F3D123468A
:100610002A463046BDE8F04100F0DFB80000000097
:100620002D0000002B000000200000002DE9F04705
:100630004FF0000A89460446C0F820A02046E16831
:100640008847002876D0252806D0D4E90121904794
:10065000206A401C2062F1E7E168204600258847B7
:10066000C4F81CA006460027C4F818A02A2E09D0FA
:10067000304603F075FE38B304EB8708303EC8F807
:10068000186019E059F8041B204604EB87029161B9
:10069000E1688847012F064618D1E069002820DA72
:1006A00025F020051DE0D8F8180000EB800006EBCF
:1006B00040003038C8F818002046E16888470646F0
:1006C00003F04EFE0028EED1012F0AD02E2E08D1C5
:1006D0002046E16888477F1C0646022F45F020052A
:1006E000C4DBA069002803DA404245F00105A0619F
:1006F000E80701D025F01005B6B1A6F14100192890
:1007000002D8203645F400654A4631462046256029
:100710004D46FFF7FBFD58B1012806D0ED1D25F031
:10072000070000F1080989E704E005F1040985E7FD
:1007300030468AE7206ABDE8F087032A40F230801D
:1007400010F0030C00F0158011F8013BBCF1020F12
:10075000624498BF11F801CB00F8013B38BF11F893
:10076000013BA2F1040298BF00F801CB38BF00F8AA
:10077000013B11F0030300F0D982083AC0F0088071
:1007800051F8043B083A51F804CBA0E80810F5E70B
:10079000121D5CBF51F8043B40F8043BAFF30080EE
:1007A000D20724BF11F8013B11F801CB48BF11F863
:1007B000012B24BF00F8013B00F801CB48BF00F833
:1007C000012B704702F0FF0343EA032242EA024290
:1007D00000F0E0BA7047704770472DE9F0470D46CA
:1007E00099469246044600F124080168880604D51B
:1007F000E06921F01001216000E00120A84201DD44
:10080000471B00E00027A1697A1902EB0900081ACA
:10081000A0612078C00602D42046AFF300800026F5
:1008200008E0D4E901211AF806009047206A401C2C
:10083000761C20624E45F4DB2078C0060AD520469F
:10084000AFF3008006E0D4E9012130209047206A10
:10085000401C2062381EA7F10107F4DC07E0D4E950
:10086000012118F805009047206A401C2062281ECC
:10087000A5F10105F3DC2046AFF3008020780006E7
:1008800002D50220BDE8F0870120FBE770472DE983
:10089000FF4F0C461E464FF0FF378BB0D2E90001E8
:1008A000DDF860800A908A46C1F30A5505B93D46D5
:1008B000002108464FF00000BAF1000F00F440009C
:1008C00005DA00EB80004FF4400101EA50004FEAE6
:1008D0009059B9F1010F00DDB9460A9850EA4A0073
:1008E0000ED044F61050A5F2FF3545432F14B8F151
:1008F000000F1ED07542291E1EDDC9F100021CE04A
:10090000B8F1010F4FF0000001D0302103E0F243B5
:1009100005E02154401CB042FBDB304600220021A0
:1009200021540B99C1F80880C1E900200FB0BDE83F
:10093000F08FBD1B6D1CDEE74A4600DA694206A84F
:1009400000F0D2FA06AB93E8070003AB83E8070098
:1009500050460A9900F0CCFB8DE80700A0F5005046
:100960001F3800900398002D0ADD42F21F014A460D
:100970000844002303A90390684600F035FE09E00F
:10098000A0F500504A461F38002303A9039068468B
:1009900000F03FFE8DE807000004000C03D04FF08C
:1009A000FF30410800E01046B8F1000F03D00022EC
:1009B000009215461EE0751E05D400F00FFA303285
:1009C00062556D1EF9D5B3460122084302D00022BC
:1009D0007F1C04E02078302801D100227F1E002AED
:1009E000099784D01DE0112D07DA00F0F7F93032B5
:1009F00062556D1C50EA0102F5D1084302D00098FF
:100A0000C8B10EE00021681E05E0235C625C6354FF
:100A10002254401E491C8142F7DBAB46A81B401EF6
:100A20000990002004F80B000B98099AC0F8088080
:100A3000C0E9002B7AE711264FF0000857E72DE9AF
:100A4000F04F88460446D21D22F0070191B0D1E94B
:100A50000001CDE90A0103F04FFC02460B98C00FDC
:100A600001D02D2007E02068810701D52B2002E06E
:100A7000202101EAC000032A099001D0072A05DBE2
:100A800003464146204600F0EFF90BE1207880064E
:100A900001D5E06900E00620B8F1650F814606D077
:100AA000B8F1660F18D0B8F1670F70D131E00020AF
:100AB000B9F1110F009001DB112301E009F10103ED
:100AC0000AAA01A90CA8FFF7E2FEDDE90C700026D6
:100AD00009F10105834647E001204B4600904FF0A5
:100AE00000470AAA01A90CA8FFF7D1FEDDE90DB065
:100AF0000C995D46002610B909F101000D18B9EBFB
:100B0000050003D4C0F1FF3609F10105A5EB09008A
:100B10002BE0B9F1010F01DA4FF001090020B9F122
:100B2000110F0090484601DD112300E003460AAA98
:100B300001A90CA8FFF7ABFEDDE90C704D460026BD
:100B40008346207800070AD4AB4500DA5D4601A849
:100B5000012D04DD411911F8011C302907D04F4542
:100B600002DA17F1040F04DA012082460FE06D1E4D
:100B7000EEE7002F02DCED1B3E4403E0781CA842A8
:100B800000DD7D1CB81B00F1010A4FF00047207802
:100B9000000703D4AA4501DB4FF0FF3A0021B7F16B
:100BA000004F0DF143088DF8431024D002202B2371
:100BB000002F01DA7F422D230A21021EA0F101003D
:100BC00000DC5FB197FBF1FC97FBF1F201FB1C7CB1
:100BD00017460CF1300C08F801CDEEE7A8F1010042
:100BE00003702188090501D5452100E06521A0F1A8
:100BF000010800F8011C09980FA9A1EB0807FF1DC7
:100C000000B10120411901EBEA70A1693844081ACA
:100C1000401EA0612078C00602D42046AFF30080B9
:100C2000099828B1D4E901219047206A401C20622C
:100C30002078C00622D52046AFF300801EE0002EAB
:100C400004DBB34502DD01A8805D00E03020D4E97B
:100C500001219047206A401C2062761CAAF1010005
:100C60005FEA000A0AD100F0B5F8C0680168405C8C
:100C7000D4E901219047206A401C2062281EA5F17A
:100C80000105DCDC07E0D4E9012118F8010B9047ED
:100C9000206A401C2062381EA7F10107F3DC2046C1
:100CA000AFF30080032011B041E6000001694A1C47
:100CB00002610878704700B58FB0CDE9013100219D
:100CC000059105497944CDE9031011466846FFF7BF
:100CD000ADFC0FB000BD0000E5FFFFFF10B543699C
:100CE00013B1AFF3008001E0FFF73AFC012010BD23
:100CF000127800F124010A7000224A700122EDE707
:100D000011684FF0FF32E9E7074B70B50D467B44A1
:100D1000FFF7D1FF0446284600F058F910B14FF014
:100D2000FF3070BD204670BDF736000010B5203A88
:100D3000C0F00B80B1E81850203AA0E81850B1E894
:100D40001850A0E81850BFF4F5AF5FEA027C24BF4A
:100D5000B1E81850A0E8185044BF18C918C0BDE841
:100D600010405FEA827C24BF51F8043B40F8043B0A
:100D700008BF7047D20728BF31F8023B48BF11F8BF
:100D8000012B28BF20F8023B48BF00F8012B704719
:100D90004FF000020429C0F0128010F0030C00F0A4
:100DA0001B81CCF1040CBCF1020F18BF00F8012B21
:100DB000A8BF20F8022BA1EB0C0100F00DB95FEAEF
:100DC000C17C24BF00F8012B00F8012B48BF00F8BC
:100DD000012B70470048704764BD002430B5B0F166
:100DE0000A024FEA900E71F100034EEA817EB0EBE9
:100DF0000E0061EB91014FEA101E4EEA017E10EBEE
:100E00000E0041EB11114FEA102E4EEA016E10EB6D
:100E10000E0041EB11214FEA104E4EEA014E10EB4D
:100E20000E0041EB1141401841F100014FEAD000A2
:100E300040EA41704FEAD10110EB80054FEA81048E
:100E400044EA907444EB01046D1944EB0404521B12
:100E5000A3414FF0000348BF0A3200D530BD401C0B
:100E600041F1000130BD00002DE9F0411F4604466C
:100E700003260168072A01F4006004DB08B116A507
:100E800005E016A503E008B115A500E015A521F0C1
:100E900010002060A069C01EA0610FB1401EA061BB
:100EA0002046AFF300804FB1D4E901213846904786
:100EB000206A401C2062C01C206206E0206AFAE71B
:100EC000D4E9012115F8010B9047761EF8D220468F
:100ED000AFF30080BDE8F0814E414E006E616E00C0
:100EE000494E4600696E66002DE9F0478146164678
:100EF0008AB0354878440DC88DE80D0032487844F2
:100F0000801C03AC0DC884E80D0041F69B300844FA
:100F1000372190FBF1F290FBF1F5A5F1800501FB83
:100F200012041B3C02D56442012000E00020DFF8DF
:100F300098A080460027FA44AAF1BE0A0EE0E00716
:100F40000AD03246684607EB470101230AEB8101CC
:100F500000F05FFB8DE8070064107F1C002CEED1D1
:100F6000194F7F44AE3F19E0E80715D007EB041096
:100F70000DF1180A90E80E008AE80E00C068F042F1
:100F800001D1981908903246012306A903A800F060
:100F900040FB03AB83E807006D10641C002DE3D118
:100FA0004FF0010332466946B8F1000F03A802D0A2
:100FB00000F01AFB01E000F02CFBC9E90001C9F8C0
:100FC00008200AB0BDE8F087F0590000007B00F06F
:100FD000800070474FF0000200B5134694469646D5
:100FE000203922BFA0E80C50A0E80C50B1F120013C
:100FF000BFF4F7AF090728BFA0E80C5048BF0CC0EA
:101000005DF804EB890028BF40F8042B08BF704747
:1010100048BF20F8022B11F0804F18BF00F8012BB9
:10102000704700000048704744BD00247546FFF734
:10103000F9FFAE4605006946534620F00700854695
:1010400018B020B5FFF7F6F9BDE820404FF00006D4
:101050004FF000074FF000084FF0000B21F00701A0
:10106000AC46ACE8C009ACE8C009ACE8C009ACE8E3
:10107000C0098D46704710B50446AFF30080204686
:10108000BDE81040FFF764B94FF0013C50F8042B65
:1010900051F8043B9A4215D1A2EB0C03934313EA97
:1010A000CC130BD150F8042B51F8043B9A4209D1D0
:1010B000A2EB0C03934313EACC13E7D04FF00000EC
:1010C000704700BFD01A01BAB1FA81F101F01801DE
:1010D00022FA01F0CB40C1F12001DBB2C0B2C01A4C
:1010E0002CFA01F3D11A914311EAC311E6D17047EA
:1010F0005FEA400C08BF91F0000F4FEA8C234FEAE3
:10110000C12243EA51514FEA1C5018BF00F5F0408C
:101110004FEA300018BF41F000415FEA6C5C00F01C
:101120002980BCF1FF3F08BF40F080407047130C9E
:1011300006BF12044FF0100C4FF0000C130E04BF4A
:1011400012020CF1080C130F04BF12010CF1040C75
:10115000930F04BF92000CF1020CD30F04BF520096
:101160000CF1010C11464FF00002A0F11F00A0EBA2
:101170000C00704711F0004F08BF704731F000417C
:101180003FF4D5AF0B0C06BF09044FF0100C4FF025
:10119000000C0B0E04BF09020CF1080C0B0F04BF6E
:1011A00009010CF1040C8B0F04BF89000CF1020C37
:1011B000CB0F04BF49000CF1010CCCF12003A0EBD4
:1011C0000C0022FA03F302FA0CF241EA030100F1E7
:1011D0000100704720F07F4C80EA030023F07F4736
:1011E000ACEB070303F57C5300F0004003F1FF0371
:1011F0002DE980494FEA154B09B44FEA144325EA1B
:101200000B4E24EA03480FF2042606EB1327490885
:101210003E785FEA320203FB0667C7F5000707FB6B
:1012200006F64FEA54374FEAD64606F1020607FBA8
:10123000066CCCF1005C4FEA1C472CEA074C07FB1C
:1012400006F40CFB06F504EB15464FEA961634BF80
:1012500000204FF000404FEAD13706FB07FC4FEA71
:101260001C4C0CFB0BF7D21B03FB0CF761EB0701CB
:101270000CFB0EF7B0EB074072EB17420CFB08F7C4
:1012800034BFA2EB0742B2EB074261EB17414FEAD2
:101290000C444FEA910706FB07FC4FEA1C4C0CFB81
:1012A0000BF7B0EBC74072EB573203FB0CF734BFC0
:1012B000A2EBC742B2EBC74261EB57310CFB0EF712
:1012C000B0EBC70072EB57720CFB08F734BFA2EB10
:1012D000C702B2EBC70261EB5771039F4FEA81610E
:1012E00041EA921104EBCC044FEAD1374FEA826213
:1012F00006FB07FC42EA90124FEA80604FEA1C4C62
:101300000CFB0BF7D21B03FB0CF761EB07010CFB8B
:101310000EF7B0EB074072EB17420CFB08F734BF37
:10132000A2EB0742B2EB074261EB17414FEA8C5543
:101330004FEA910704EB9C2406FB07FC4FEA1C4C88
:101340000CFB0BF7B0EBC74072EB573203FB0CF70B
:1013500034BFA2EBC742B2EBC74261EB57310CFB83
:101360000EF7B0EBC70072EB57720CFB08F734BFF7
:10137000A2EBC702B2EBC70261EB577115EB4C252C
:101380004FEA816141EA92114FEA82624FEAD13716
:1013900042EA901206FB07FC44F100044FEA806029
:1013A0004FEA1C4C0CFB0BF7D21B03FB0CF761EB59
:1013B00007010CFB0EF7B0EB074072EB17420CFB7A
:1013C00008F734BFA2EB0742B2EB074261EB1741CB
:1013D00015EB1C154FEA813141EA92414FEA823206
:1013E00042EA90424FEA80304FEA0C7644F1000422
:1013F00048EA03434EEA0B484FF0000EB2EB080CEC
:1014000071EB030724BF624639464EEB0E0E4FF0D8
:10141000000B0018524149414BEB0B0BB2EB080C8F
:1014200071EB03077BF1000B24BF624639464EEB9C
:101430000E0E4FF0000B0018524149414BEB0B0BC5
:10144000B2EB080C71EB03077BF1000B24BF624683
:1014500039464EEB0E0E51EA020718BF46F0010660
:1014600016EB0E7655F1000254F1000103D5BDE8EC
:101470008901BDE80088BDE88901BDE80048B619CA
:10148000524141EB0101A3F10103704780807F7E4F
:101490007D7C7B7A797877767675747372717170EA
:1014A0006F6E6E6D6C6C6B6A6A696868676666659C
:1014B0006464636362616160605F5F5E5E5D5D5C2A
:1014C0005C5B5B5A5A59595858575756565555559B
:1014D0005454535352525251515050504F4F4F4EFB
:1014E0004E4D4D4D4C4C4C4B4B4B4A4A4A49494949
:1014F000484848474747474646464545454444448B
:10150000444343434342424242414141002B9C46B3
:1015100030D477002BD01CB54FEA370703B44FF017
:1015200010004FF01001BAF1000F06D0BCF1000F0F
:10153000DCBF40F0080040F008014FF000000FBC95
:10154000BDE810400BF1010BBBF1010F08BF5FEAD2
:10155000170722BF12F1010211F101014FF0004102
:1015600043F1000300F0004043EA00007047F9D364
:101570005708D0E746EA064613F1400F4FEA1646F1
:101580001FDD13F1200FDFBF16430A460021203371
:101590005B42BED0C3F1200746EA064602FA07F7CF
:1015A0004FEA164646EA0706C3F1200722FA03F27D
:1015B00001FA07F721FA03F14FF0000342EA0702AC
:1015C000A7E746EA020646EA06464FEA164646EA14
:1015D0000106BCBF46EA0646360C4FF000034FF04A
:1015E00000024FF0000194E72DE9804C9A469346A3
:1015F00070B491E8380007C831EA400C48BF34EABB
:10160000430C03D5FFF7E6FDFFF780FFF0BCBDE814
:10161000008C2DE9804C9A46934670B491E83800CE
:1016200007C810F0804F08BF13F0804F03D100F0BF
:1016300005F8FFF76BFFF0BCBDE8008C20F07F479A
:1016400080EA030023F07F4C07EB0C03A3F57C53E7
:1016500000F00040A3F1FE0392F0000F00F0B38011
:1016600095F0000F00F077802DE901494FEA114015
:101670004FEA144621EA004800FB06FC24EA06472C
:1016800008FB06F607FB08F800FB07F718EB06480F
:101690004CEB164C4FEA124B18EB07484FEA154635
:1016A0004CEB174022EA0B4E0BFB06FC25EA0647E3
:1016B0000EFB06F607FB0EFE0BFB07F71EEB064EB6
:1016C0004CEB164C4FF000061EEB074E4CEB174B45
:1016D00018EB0B0840F1000018EB0E0B58EB00085C
:1016E00040F100008F1A4FF000013CBFC943661B58
:1016F00014BFB5EB040C00213CBFC943F61B4FEAF5
:1017000017444EEA8E0E27EA04454FEA1C4704FBB5
:1017100007622CEA074C05FB07F70CFB05F604FBF8
:101720000CFC16EB074642EB174216EB0C4642EB5D
:101730001C421BEB060658EB0202414146EA9E069C
:1017400001D5BDE80189B619524141EB0101A3F170
:101750000103BDE801894FEA14454FEA114724EA25
:10176000054621EA074C05FB07F406FB07F70CFBCF
:1017700006F105FB0CFC11EB074144EB17444FEA63
:10178000124711EB0C4144EB1C4422EA074C05FBC9
:1017900007F206FB07F70CFB06F605FB0CFC16EB45
:1017A000074642EB174216EB0C4642EB1C456A1803
:1017B00054F1000148BF7047B619524141EB010195
:1017C000A3F10103704795F0000F37D04FEA1142A3
:1017D0004FEA144721EA024624EA074C02FB07F1CC
:1017E00006FB07F70CFB06F402FB0CFC14EB0744AA
:1017F00041EB17414FEA154714EB0C4441EB1C41F8
:1018000025EA074C02FB07F506FB07F70CFB06F67B
:1018100002FB0CFC16EB074645EB174516EB0C4696
:1018200045EB1C42121951F1000148BF7047B6192F
:10183000524141EB0101A3F1010370474FEA144506
:101840004FEA114724EA054621EA074C05FB07F158
:1018500006FB07F70CFB06F24FF0000605FB0CFC3D
:1018600012EB074241EB174112EB0C4251EB1C41CA
:1018700048BF7047921841EB0101A3F10103704783
:1018800000BFFEE710B501F095FD01F045FD0348EE
:10189000006840F004000149086010BD9CEF00E0C2
:1018A0007047000010B504460CB9012010BD94F833
:1018B0003500022803D0802060650120F6E7344916
:1018C0002068884205D333492068884201D8012026
:1018D00000E00020C0B1042084F835002C492068C5
:1018E00088420AD32B492068884206D820680068BD
:1018F00020F001002168086048E02068006820F0BE
:1019000001002168086041E02068006820F00E00B6
:10191000216808601E49206888420AD31D49206852
:10192000884206D82068006820F00100216808601D
:1019300005E02068006820F0010021680860206E42
:10194000006820F48070216E086094F85C1001201B
:10195000884011490860D4E919104860E06E40B130
:10196000E06E006820F48070E16E0860D4E91C101D
:10197000486000BF002084F8340000BF012084F8D4
:101980003500206D10B12046216D884700208DE77D
:1019900010000240B8040240045402580348006892
:1019A00040F0010001490860704700002004005821
:1019B000F8B502460B460021002600240020824D87
:1019C00000BFFCE0012707FA01F61F6807EA0604DA
:1019D000B4427CD15F68022F02D05F68122F1AD107
:1019E0004FEAD10C02F1200757F82C004F074FEABD
:1019F000D76C0F2707FA0CF7B8434FEA417C4FEA40
:101A0000DC6C1F6907FA0CF738434FEAD10C02F17E
:101A1000200747F82C0010684FEA410C032707FA0B
:101A20000CF7B8431F7907F003074FEA410C07FA98
:101A30000CF7384310605F68012F08D05F68022FF1
:101A400005D05F68112F02D05F68122F17D1906800
:101A50004FEA410C032707FA0CF7B8434FEA410C51
:101A6000DF6807FA0CF738439060506801278F4011
:101A7000B8431F79C7F300178F4038435060D068D0
:101A80004FEA410C032707FA0CF7B8434FEA410C21
:101A90009F6807FA0CF73843D0605F6807F08057FB
:101AA000B7F1805F95D100BF484F3F6847F002070C
:101AB000DFF818C1CCF8007067463F6807F00207EE
:101AC000009700BF00BF424F4FEA910C00E075E065
:101AD00057F82C008F074FEA177C0F2707FA0CF7EF
:101AE000B8433C4FBA4201D100272DE03A4FBA42E9
:101AF00001D1012728E0394FBA4201D1022723E062
:101B0000374FBA4201D103271EE0364FBA4201D106
:101B1000042719E0344FBA4201D1052714E0334FAE
:101B2000BA4201D106270FE0314FBA4201D107274F
:101B30000AE0304FBA4201D1082705E02E4FBA42E1
:101B400001D1092700E00A274FEA817C4FEA1C7C7B
:101B500007FA0CF738431E4F4FEA910C47F82C0058
:101B60002868A0435F6807F48037B7F5803F00D14D
:101B7000204328606868A0435F6807F40037B7F522
:101B8000003F00D1204368604FF0B0473868A04361
:101B90005F6807F48017B7F5801F00D120434FF02E
:101BA000B04738607868A0435F6807F40017B7F55E
:101BB000001F00D120434FF0B0477860491C102926
:101BC000FFF400AFF8BD000080000058F444025854
:101BD0000804005800000258000402580008025887
:101BE000000C025800100258001402580018025845
:101BF000001C0258002002580024025842694A4042
:101C0000426170470AB1018300E0418370470000E0
:101C10000148006870470000300000240348006855
:101C200003490978084401490860704730000024DE
:101C30003800002410B5032000F080F80F2000F0D9
:101C400007F808B1012010BD00F028F80020FAE7DD
:101C500070B504460E4800784FF47A71B1FBF0F08D
:101C60000C490968B1FBF0F5284601F0E1F808B12C
:101C7000012070BD102C07D200222146501E00F01A
:101C80001EF80548046001E00120F2E70020F0E7BB
:101C90003800002418000024340000247047014656
:101CA0000846002809DB00F01F0301229A4043097F
:101CB0009B0003F1E023C3F8002100BF70472DE92A
:101CC000F05F80460D461646002702F02DFB0746C2
:101CD00039462A46334601F00700C0F1070ABAF137
:101CE000040F02D94FF0040A01E0C0F1070AD146FF
:101CF00000F1040ABAF1070F02D24FF0000A01E026
:101D0000A0F1030AD4464FF0010A0AFA09FAAAF12F
:101D1000010A0AEA020A0AFA0CFA4FF0010B0BFA5E
:101D20000CFBABF1010B0BEA030B4AEA0B04214657
:101D3000404602F001FBBDE8F09F000000BF00F04C
:101D40000702064B19684FF6FF031940044B0B437B
:101D500043EA0221014B196000BF70470CED00E01F
:101D60000000FA0510B500F0CBFB0949096801F441
:101D700070614FF4807292FAA2F2B2FA82F2D1400C
:101D8000044A515CC840044908600846006810BD18
:101D9000184402582A6800081800002410B500F002
:101DA00067FB0749096801F07001102292FAA2F25C
:101DB000B2FA82F2D140034A515CC84010BD000023
:101DC000204402582A68000870B50146002201200C
:101DD000002300249FED811AB0EE410A9FED7F1A87
:101DE000F0EE410A7E4D2D6805F003027C4D2D6812
:101DF000C5F305307A4D2D1D2D6805F01003784D83
:101E000014352D68C5F3CC0515FB03F501EE105A0A
:101E1000B8EE411AB0EE410A22B1012A4DD0022A91
:101E20007DD169E06E4D283D2D68C5F340152DB379
:101E30006B4D283D2D68C5F3C1066A4D25FA06F4A1
:101E4000B4FBF0F501EE105AF8EE411A9FED661A58
:101E500080EE012A624D10352D68C5F3080501EEAC
:101E6000105AB8EE411A32EE011AB7EE002A31EEDE
:101E7000021A21EE811AF0EE410A1DE0594DB5FB20
:101E8000F0F501EE105AF8EE411A9FED571A80EE68
:101E9000012A534D10352D68C5F3080501EE105A7F
:101EA000B8EE411A32EE011AB7EE002A31EE021AEC
:101EB00021EE811AF0EE410A5EE04C4DB5FBF0F5E3
:101EC00001EE105AB8EE412A9FED471AC0EE011AF2
:101ED000434D10352D68C5F3080501EE105AB8EED4
:101EE000411A31EE811AF7EE001A31EE211A22EE74
:101EF000011AF0EE410A3FE03D4DB5FBF0F501EE71
:101F0000105AF8EE411A9FED381A80EE012A344D2E
:101F100010352D68C5F3080501EE105A00E00CE0FD
:101F2000B8EE411A32EE011AB7EE002A31EE021A6B
:101F300021EE811AF0EE410A1EE02C4DB5FBF0F5C2
:101F400001EE105AB8EE412A9FED271AC0EE011A91
:101F5000234D10352D68C5F3080501EE105AB8EE73
:101F6000411A31EE811AF7EE001A31EE211A22EEF3
:101F7000011AF0EE410A00BF00BF194D10352D685F
:101F8000C5F346256D1C01EE105AB8EE411AC0EE9D
:101F9000811ABCEEE11A81ED001A114D10352D6841
:101FA000C5F306456D1C01EE105AB8EE411AC0EE9D
:101FB000811ABCEEE11A81ED011A094D10352D6828
:101FC000C5F306656D1C01EE105AB8EE411AC0EE5D
:101FD000811ABCEEE11A81ED021A70BD000000000A
:101FE000284402580090D0030000004600093D003C
:101FF00040787D0170B501460022012000230024B5
:102000009FED811AB0EE410A9FED7F1AF0EE410A72
:102010007E4D2D6805F003027C4D2D68C5F30550FB
:102020007A4D2D1D2D6805F48073784D1C352D6873
:10203000C5F3CC0515FB03F501EE105AB8EE411AB5
:10204000B0EE410A22B1012A4DD0022A7DD169E0C9
:102050006E4D283D2D68C5F340152DB36B4D283DC1
:102060002D68C5F3C1066A4D25FA06F4B4FBF0F5F8
:1020700001EE105AF8EE411A9FED661A80EE012A21
:10208000624D18352D68C5F3080501EE105AB8EEFB
:10209000411A32EE011AB7EE002A31EE021A21EE91
:1020A000811AF0EE410A1DE0594DB5FBF0F501EE45
:1020B000105AF8EE411A9FED571A80EE012A534D3F
:1020C00018352D68C5F3080501EE105AB8EE411A0F
:1020D00032EE011AB7EE002A31EE021A21EE811A11
:1020E000F0EE410A5EE04C4DB5FBF0F501EE105A02
:1020F000B8EE412A9FED471AC0EE011A434D18353C
:102100002D68C5F3080501EE105AB8EE411A31EEFC
:10211000811AF7EE001A31EE211A22EE011AF0EEC2
:10212000410A3FE03D4DB5FBF0F501EE105AF8EEE7
:10213000411A9FED381A80EE012A344D18352D686A
:10214000C5F3080501EE105A00E00CE0B8EE411AA4
:1021500032EE011AB7EE002A31EE021A21EE811A90
:10216000F0EE410A1EE02C4DB5FBF0F501EE105AE1
:10217000B8EE412A9FED271AC0EE011A234D1835FB
:102180002D68C5F3080501EE105AB8EE411A31EE7C
:10219000811AF7EE001A31EE211A22EE011AF0EE42
:1021A000410A00BF00BF194D18352D68C5F34625FB
:1021B0006D1C01EE105AB8EE411AC0EE811ABCEE49
:1021C000E11A81ED001A114D18352D68C5F3064549
:1021D0006D1C01EE105AB8EE411AC0EE811ABCEE29
:1021E000E11A81ED011A094D18352D68C5F3066510
:1021F0006D1C01EE105AB8EE411AC0EE811ABCEE09
:10220000E11A81ED021A70BD000000002844025856
:102210000090D0030000004600093D0040787D0199
:1022200070B504460D4600268D48006800F0070092
:10223000A8420ED28A48006820F007002843884947
:1022400008600846006800F00700A84201D001209D
:1022500070BD207800F00200022807D18148006894
:1022600020F00F00E16808437E490860207800F004
:102270000100002851D07B48006820F47060A168FC
:102280000843784908606068022807D17548183803
:102290000068C0F34040F8B90120D9E7606803281E
:1022A00007D1704818380068C0F34060A0B9012019
:1022B000CEE76068012807D16A4818380068C0F383
:1022C000002048B90120C3E7664818380068C0F309
:1022D000800008B90120BBE762480838006820F098
:1022E0000700616808435F4908390860FFF790FC00
:1022F00006466068022811D108E0FFF789FC801BC0
:1023000041F28831884201D90320A1E755480838B5
:10231000006800F038001028EFD13AE06068032828
:1023200011D108E0FFF774FC801B41F2883188422C
:1023300001D903208CE74B480838006800F03800CA
:102340001828EFD125E06068012811D108E0FFF7D7
:102350005FFC801B41F28831884201D9032077E776
:1023600040480838006800F038000828EFD110E035
:1023700008E0FFF74DFC801B41F28831884201D90B
:10238000032065E737480838006800F03800002867
:10239000EFD13348006800F00700A8420ED930485A
:1023A000006820F0070028432D49086008460068AF
:1023B00000F00700A84201D0012049E7207800F092
:1023C0000400042807D12748006820F07000216924
:1023D000084324490860207800F00800082809D143
:1023E0002048001D006820F07000616908431D4905
:1023F000091D0860207800F01000102809D1194844
:10240000001D006820F4E060A16908431549091D1A
:102410000860207800F02000202809D111480830F9
:10242000006820F07000E16908430E490831086037
:1024300000F066F80B49096801F470614FF480728E
:1024400092FAA2F2B2FA82F2D140074A515CC84035
:10245000064908600F20FFF7FBFB0020F8E60000AC
:1024600000200052184402582A680008180000246E
:1024700010B5FFF777FC0949096801F00F01012247
:1024800092FAA2F2B2FA82F2D140054A515CC840F7
:10249000044908600846006810BD0000184402584E
:1024A0002A6800081C00002410B5FFF7E1FF074967
:1024B000096801F07001102292FAA2F2B2FA82F2D7
:1024C000D140034A515CC84010BD00001C44025872
:1024D0002A68000810B5FFF7CBFF0749096801F427
:1024E000E0614FF4807292FAA2F2B2FA82F2D14025
:1024F000024A515CC84010BD1C4402582A680008BA
:1025000070B5012500EE905A00220121002300241D
:10251000DFED861AB0EE610ADFED841AB0EE611AC3
:102520000020834D2D6805F0380535B1082D15D0F4
:10253000102D15D0182D7CD114E07D4D103D2D6847
:10254000C5F3401545B17A4D103D2D68C5F3C10660
:10255000784D25FA06F000E07648E5E07648E3E0BD
:102560007648E1E0724D18352D6805F00302704D94
:1025700018352D68C5F305116D4D1C352D6805F016
:1025800001036B4D24352D68C5F3CC0515FB03F510
:1025900001EE905AF8EE611AB0EE610A22B1012AFA
:1025A0004FD0022A7DD16BE0614D103D2D68C5F3FF
:1025B00040152DB35E4D103D2D68C5F3C1065D4D30
:1025C00025FA06F4B4FBF1F501EE905AB8EE612A53
:1025D000DFED5B1AC0EE212A554D20352D68C5F37D
:1025E000080501EE905AF8EE611A72EEA11AF7EEA4
:1025F000002A71EEA21A62EE211AB0EE611A1FE0F3
:102600004C4DB5FBF1F501EE905AB8EE612ADFEDC5
:102610004C1AC0EE212A464D20352D68C5F3080519
:1026200001EE905AF8EE611A72EEA11AF7EE002A46
:1026300000E077E071EEA21A62EE211AB0EE611AA4
:102640005EE03D4DB5FBF1F501EE905AB8EE612A22
:10265000DFED3B1AC0EE212A354D20352D68C5F33C
:10266000080501EE905AF8EE611A72EEA11AF7EE23
:10267000002A71EEA21A62EE211AB0EE611A3FE052
:102680002E4DB5FBF1F501EE905AB8EE612ADFED63
:102690002C1AC0EE212A264D20352D68C5F30805D9
:1026A00000E00EE001EE905AF8EE611A72EEA11A07
:1026B000F7EE002A71EEA21A62EE211AB0EE611A4C
:1026C0001EE01D4DB5FBF1F501EE905AF8EE612AC2
:1026D000DFED1B1A80EE212A154D20352D68C5F33C
:1026E000080501EE905AF8EE611A72EE211AB7EE63
:1026F000002A71EE821A62EEA11AB0EE611A00BFD2
:1027000000BF0B4D20352D68C5F346256D1C00EE2E
:10271000905AF8EE601A81EE212AFCEEC21A11EEF0
:10272000900A01E0044800BF00BF70BD0000000037
:10273000104402580090D00300093D0040787D010C
:102740000000004670B504460025207800F0010026
:10275000002872D0F948006800F0380010280CD02A
:10276000F648006800F03800182812D1F3481830F5
:10277000006800F0030002280BD1F0481038006810
:10278000C0F3404000286DD0606800286AD1012065
:1027900070BD00BF6068B0F5803F08D1E7481038D1
:1027A000006840F48030E549103908602EE0606828
:1027B00068B9E2481038006820F48030DF491039E9
:1027C00008600846006820F4802008601EE0606809
:1027D000B0F5A02F0DD1D9481038006840F4802002
:1027E000D649103908600846006840F48030086017
:1027F0000CE0D2481038006820F48030CF491039FE
:1028000008600846006820F48020086000BF606807
:10281000A0B1FFF7FDF9054608E0FFF7F9F9401B05
:1028200041F28831884201D90320B1E7C34810380A
:102830000068C0F340400028EFD013E0FFF7E8F94C
:10284000054608E0FFF7E4F9401B41F28831884271
:1028500001D903209CE7B94810380068C0F3404014
:102860000028EFD1207800F00200022847D1B348B9
:10287000006800F0380058B1B048006800F0380037
:1028800018283ED1AD481830006800F00300B8BBEE
:10289000AA4810380068C0F3800018B1E06808B991
:1028A000012075E7A5481038006820F01900E1689C
:1028B0000843A24910390860FFF7AAF9054606E067
:1028C000FFF7A6F9401B022801D9032060E79B48C7
:1028D00010380068C0F380000028F1D097480C3809
:1028E000006820F47C304FF47C3292FAA2F2B2FA03
:1028F00082F221699140084390490C3908604AE00E
:10290000FFE7E06868B38D481038006820F01900D0
:10291000E1680843894910390860FFF779F90546ED
:1029200006E0FFF775F9401B022801D903202FE7C5
:10293000824810380068C0F380000028F1D07F483A
:102940000C38006820F47C304FF47C3292FAA2F20A
:10295000B2FA82F221699140084378490C39086043
:1029600019E076481038006820F0010073491039EA
:102970000860FFF74DF9054606E0FFF749F9401BEF
:10298000022801D9032003E76C4810380068C0F31F
:1029900080000028F1D1207800F01000102877D1B5
:1029A0006648006800F0380008280CD063480068CA
:1029B00000F03800182823D160481830006800F073
:1029C000030001281CD15D4810380068C0F30020C6
:1029D00020B1E069802801D00120D9E657480C38A1
:1029E000006820F0F8404FF0F84292FAA2F2B2FAF2
:1029F00082F2216A9140084350490C39086047E04F
:102A0000E06958B34D481038006840F080004B49E9
:102A100010390860FFF7FCF8054606E0FFF7F8F804
:102A2000401B022801D90320B2E644481038006850
:102A3000C0F300200028F1D040480C38006820F096
:102A4000F8404FF0F84292FAA2F2B2FA82F2216A0A
:102A50009140084339490C39086019E0374810386B
:102A6000006820F08000354910390860FFF7D0F881
:102A7000054606E0FFF7CCF8401B022801D90320E9
:102A800086E62E4810380068C0F300200028F1D1F7
:102A9000207800F00800082836D16069D0B12748B6
:102AA0006430006840F00100244964310860FFF799
:102AB000AFF8054606E0FFF7ABF8401B022801D946
:102AC000032065E61D4864300068C0F3400000281C
:102AD000F1D019E019486430006820F0010017496E
:102AE00064310860FFF794F8054606E0FFF790F8B8
:102AF000401B022801D903204AE6104864300068D0
:102B0000C0F340000028F1D1207800F020002028F8
:102B100034D1A069D8B109481038006840F4805019
:102B2000064910390860FFF773F8054608E0FFF71B
:102B30006FF8401B022803D9032029E610440258ED
:102B4000AF480068C0F340300028F0D016E0AC4831
:102B5000006820F48050AA490860FFF759F805463C
:102B600006E0FFF755F8401B022801D903200FE6C5
:102B7000A3480068C0F340300028F2D1207800F06C
:102B8000040004287DD19F48006840F480709D496E
:102B90000860FFF73DF8054606E0FFF739F8401BEF
:102BA000642801D90320F3E59648006800F480709A
:102BB0000028F2D000BFA068012808D190487030EA
:102BC000006840F001008E49703108602DE0A06877
:102BD00068B98B487030006820F001008849703176
:102BE00008600846006820F0040008601DE0A06846
:102BF00005280DD182487030006840F004008049FB
:102C0000703108600846006840F0010008600CE080
:102C10007B487030006820F001007949703108600D
:102C20000846006820F00400086000BFA068A0B15A
:102C3000FEF7EEFF054608E0FEF7EAFF401B41F213
:102C40008831884201D90320A2E56D4870300068C0
:102C5000C0F340000028EFD013E0FEF7D9FF05468F
:102C600008E0FEF7D5FF401B41F28831884201D9C8
:102C700003208DE5624870300068C0F340000028F2
:102C8000EFD1606A00287CD05D481030006800F009
:102C90003800182876D0606A022874D15848006835
:102CA00020F0807056490860FEF7B2FF054606E046
:102CB000FEF7AEFF401B022801D9032068E550480B
:102CC0000068C0F340600028F2D100BFD4E90A10C8
:102CD00041EA00104A492831096840F2F332914331
:102CE0000843474928310860208E401EC0F3080081
:102CF000616B491E4FF47E4202EA41210843218F55
:102D0000491ED20102EA014108433C21095D491EE6
:102D1000120202EA0161084339493031086000BFFC
:102D2000081D00684FF6F87188434FF6F87292FA62
:102D3000A2F2B2FA82F2A16C9140084330493431D8
:102D400008602F482C30006820F00C00216C0843EC
:102D50002B492C3108600846006820F00200616CA5
:102D6000084327492C3108600846006840F4803049
:102D700008600846006840F40030086008460068B3
:102D800002E03BE038E01FE040F4802008600846A5
:102D9000006840F0010008601948006840F0807049
:102DA00017490860FEF734FF054606E0FEF730FFDE
:102DB000401B022801D90320EAE411480068C0F34F
:102DC00040600028F2D019E00D48006820F08070C3
:102DD0000B490860FEF71CFF054606E0FEF718FFEA
:102DE000401B022801D90320D2E405480068C0F343
:102DF00040600028F2D101E00120C9E40020C7E4CE
:102E00000044025800480258042808D14FF0E0213D
:102E1000096941F004014FF0E022116107E04FF031
:102E2000E021096921F004014FF0E02211617047AF
:102E300070B504462546681EB0F1807F01D301209D
:102E40000FE0681E4FF0E02148610F214FF0FF3086
:102E500001F072FA00204FF0E0218861072008613C
:102E6000002070BD7047704701460022002391F892
:102E7000792091F87A3042EA030070472DE9F04159
:102E800004462068C569206807682068866805F0E0
:102E90000F08B8F1000F0DD105F0200050B107F078
:102EA000200010B906F0805020B1204600F06BFCE5
:102EB000BDE8F081B8F1000F72D05D48304018B91C
:102EC00007F4907000287AD005F0010048B107F4AB
:102ED000807030B1012021680862E06F40F001008D
:102EE000E06705F0020048B106F0010030B10220B1
:102EF00021680862E06F40F00400E06705F004001C
:102F000048B106F0010030B1042021680862E06F8A
:102F100040F00200E06705F0080078B107F02000FB
:102F200028B906F0805010B906F0010030B1082031
:102F300021680862E06F40F00800E067E06F70B35E
:102F400005F0200040B107F0200010B906F08050D5
:102F500010B1204600F017FCE06F00F0080020B927
:102F60002068806800F0400018B3204600F0EBFBBA
:102F70002068806800F04000B8B12068806820F0C8
:102F8000400021688860606F58B12A48616F086509
:102F9000606FFEF787FC10B1606F016D88470DE030
:102FA0000DE02046FFF75FFF08E02046FFF75BFFDC
:102FB00004E02046FFF757FF0020E06778E705F4BC
:102FC000801078B106F4800060B14FF48010216861
:102FD0000862202084F8790084F87A002046FFF700
:102FE00041FF65E705F0800048B107F0800010B9A7
:102FF00006F4000018B1204601F0DCF858E705F0AF
:10300000400030B107F0400018B1204600F0ABFBA3
:103010004EE705F4000040B107F0804028B1206879
:10302000006820F080402168086000BF40E7000091
:10303000010000102F37000810B504460CB901201C
:1030400010BDA06900B100E000BF94F8790028B974
:10305000002084F87800204600F02AF8242084F824
:1030600079002068006820F001002168086020468F
:1030700000F0CEFB012800D1E2E7606B10B12046E2
:1030800000F0A6FA2068406820F49040216848606B
:103090002068806820F02A00216888602068006825
:1030A00040F0010021680860204600F006FBC7E7F9
:1030B00010B586B004462149206888423BD100BF44
:1030C0001F48006840F001001D490860084600687C
:1030D00000F00100009000BF00BF00BF1848103092
:1030E000006840F01000164910310860084600687A
:1030F00000F01000009000BF00BF4FF4007001907E
:1031000002200290012003900220049007200590E5
:1031100001A90C48FEF74CFC4FF48060019001A916
:103120000848FEF745FC2520FEF7B9FD03221146AD
:103130002520FEF7C4FD06B010BD000000100140C0
:10314000E04402580000025810B5034693F87A0094
:10315000202867D101B10AB9012010BD00BF93F842
:103160007800012801D10220F7E7012083F87800D8
:1031700000BF5966A3F86820A3F86A2000BF9868CA
:10318000B0F5805F0AD1186920B940F2FF10A3F8AA
:103190006C001CE0FF20A3F86C0018E0986848B9A8
:1031A000186918B9FF20A3F86C0010E07F20A3F87D
:1031B0006C000CE09868B0F1805F08D1186918B90C
:1031C0007F20A3F86C0002E03F20A3F86C0000BF52
:1031D0000020D867222083F87A0000BF002083F8FF
:1031E000780000BF1868806840F001001C68A0608B
:1031F0001868006800F0005060B11868006840F47A
:1032000080701C6820601868806840F080501C68DE
:10321000A06005E01868006840F490701C682060A9
:1032200000209AE7022098E71D4A0168914236D1B2
:103230001C49098801F4004189BB1A49098801F435
:10324000804171B1184909780A2903D00021154A33
:10325000118024E01349098841F40041114A11808A
:103260001DE0114909780D2906D10E49098841F45C
:1032700080410C4A118012E00B490978094A1288F2
:10328000C2F30D02094B995406490988491C054AA5
:10329000118011460988C72901DD0021118070477E
:1032A000001001402C0000242E000024B000002457
:1032B000704700BFFEE7000000B587B000BF1248AE
:1032C000006840F00200104908600846006800F0FD
:1032D0000200019000BF00BF032002900120039074
:1032E00004900320059002A90848FEF761FB012223
:1032F00011460648FEF786FC012202210348FEF72C
:1033000081FC07B000BD0000E044025800040258F0
:1033100000BFFEE77047000010B50023234C236078
:1033200000BF00BF00BFBFF34F8F00BF00BF00BF93
:10333000231F1868C0F34E3100BFC0F3C90200BF9D
:1033400043F6E07303EA41134FF0404404EA827409
:103350002343174C236000BF00BF131EA2F10102DC
:10336000EED10B1EA1F10101E7D100BF00BF00BFEC
:10337000BFF34F8F00BF00BF00BF0C4B703B1B68FB
:1033800043F48033094C703C236000BF00BF00BF92
:10339000BFF34F8F00BF00BF00BF00BF00BF00BF23
:1033A000BFF36F8F00BF00BF00BF10BD84ED00E012
:1033B00060EF00E000BF00BF00BFBFF34F8F00BF52
:1033C00000BF00BF00BF00BF00BFBFF36F8F00BFD3
:1033D00000BF00BF00201449086000BF00BF00BF4D
:1033E000BFF34F8F00BF00BF00BF00BF00BF00BFD3
:1033F000BFF36F8F00BF00BF00BF0C48006840F4F0
:1034000000300A49086000BF00BF00BFBFF34F8F04
:1034100000BF00BF00BF00BF00BF00BFBFF36F8F82
:1034200000BF00BF00BF704750EF00E014ED00E0A8
:103430002DE9F0419CB080460C4615461E460027FB
:103440003748006820F004003549086000BF0020BC
:10345000009033480C30006840F4404030490C3153
:1034600008600846006800F44040009000BF00BFBC
:1034700000BF2B480C30006800F40050B0F5005F2E
:10348000F7D10120019000040290002004900890E0
:1034900002200A9002210B91CDF834800C940E95F5
:1034A0000F96002112910821119101A8FFF74AF906
:1034B00007460FB100BFFEE73F2014900320159090
:1034C00000201690082017904020199000011A90B3
:1034D0004020189050201B90042114A8FEF7A0FE55
:1034E00007460FB100BFFEE70E48006840F08000BD
:1034F0000C49086000BF0B48F430006840F002003F
:103500000849F43108600846006800F002000090A5
:1035100000BF00BFFEF742FA1CB0BDE8F08100001A
:103520000C4802580044025810B502F0A1FE0128D0
:1035300001D002F01FFBFEF771FB10BD20480068B0
:1035400040F470001E4908601E48006840F0010009
:103550001C49086000201B491031086019480068A8
:1035600019490840174908600020164918310860B9
:10357000091D0860091D0860124928310860091DED
:103580000860091D0860091D0860091D0860091D03
:103590000860091D0860091D08600A48006820F4D9
:1035A0008020084908600020064960310860012039
:1035B00006490860C006024980390860704700006B
:1035C00088ED00E0004402587FEDF6EA08810051E2
:1035D00090F8341001F0010139B10168496821F413
:1035E0000031826B11430268516090F8341001F091
:1035F000020139B10168496821F48031C26B11437D
:103600000268516090F8341001F0040139B101688A
:10361000496821F48021026C11430268516090F8DE
:10362000341001F0080139B10168496821F4004102
:10363000426C11430268516090F8341001F010019F
:1036400039B10168896821F48051826C11430268A4
:10365000916090F8341001F0200139B10168896857
:1036600021F40051C26C11430268916090F834104B
:1036700001F0400199B10168496821F48011026D9F
:10368000114302685160016DB1F5801F07D10168D7
:10369000496821F4C001426D11430268516090F8FD
:1036A000341001F0800139B10168496821F400212A
:1036B000826D114302685160704738B50446002599
:1036C0000020E067FEF7A4FA05462068006800F0D5
:1036D000080008280CD16FF07E402B4600224FF4E2
:1036E00000110090204600F0A6FD08B1032038BD6F
:1036F0002068006800F0040004280CD16FF07E40C0
:103700002B4600224FF480010090204600F093FDEC
:1037100008B10320EBE7202084F8790084F87A00D0
:1037200000BF002084F8780000BF00BFDFE770B55D
:103730000546AC6B0020A4F86A00A4F8620020469D
:10374000FFF791FB70BD0168096821F49071026870
:1037500011600168896821F00101026891602021EF
:1037600080F87A10704710B504462068006820F091
:10377000400021680860202084F879002046FFF787
:1037800097FD002010BD2DE9F0410446B4F86C709F
:1037900094F87A00222833D12068858CA068B0F58F
:1037A000805F09D1206938B9666E05EA070030806C
:1037B000606E801C606605E0F8B22840626E511CA5
:1037C00061661070B4F86A00401E80B2A4F86A0006
:1037D000A0B92068006820F4907021680860206813
:1037E000806820F0010021688860202084F87A0039
:1037F0002046FFF719FD0020BDE8F0810020FBE71F
:103800002068008B40F00800216808830220F3E75D
:103810002DE9F04F89B0044600254FF08008A946F5
:10382000AA4600200890FA492068884201D1012068
:1038300000E0002000B100E000BFA06AB0F1005F2E
:1038400000D100BF2169A068084361690843E169AC
:1038500040EA0105A06A054320680068ED49084078
:103860002843216808602068406820F44050E168DF
:10387000084321684860A569E5492068884201D16C
:10388000012000E0002008B9206A0543A06AB0F1D9
:10389000005F03D1D4E90B01084305432068806829
:1038A000DD4908402843216888602068C06A20F00C
:1038B0000F00616A08432168C86200BFD7492068C9
:1038C000884224D1D648006800F03800182814D067
:1038D00005DC48B108280AD0102817D10AE02028B2
:1038E0000ED0282812D10EE04FF001080EE04FF064
:1038F00004080BE04FF0400808E04FF0080805E02E
:103900004FF0100802E04FF0200800BF17E1C54952
:10391000206888421DD1C248006800F007000628D0
:1039200016D2DFE800F00306090C0F124FF0000872
:103930000EE04FF004080BE04FF0400808E04FF0B5
:10394000080805E04FF0100802E04FF0200800BF23
:10395000F5E0B549206888421DD1B148006800F003
:103960000700062816D2DFE800F00306090C0F1244
:103970004FF000080EE04FF004080BE04FF0400855
:1039800008E04FF0080805E04FF0100802E04FF0A3
:10399000200800BFD3E0A549206888421DD1A04877
:1039A000006800F00700062816D2DFE800F00306E2
:1039B000090C0F124FF000080EE04FF004080BE066
:1039C0004FF0400808E04FF0080805E04FF01008FD
:1039D00002E04FF0200800BFB1E09549206888421E
:1039E0001DD18F48006800F00700062816D2DFE8D6
:1039F00000F00306090C0F124FF000080EE04FF024
:103A000004080BE04FF0400808E04FF0080805E01C
:103A10004FF0100802E04FF0200800BF8FE085490A
:103A20002068884224D17E48006800F038001828B9
:103A300014D005DC48B108280AD0102817D10AE0B4
:103A400020280ED0282812D10EE04FF001080EE0F9
:103A50004FF004080BE04FF0400808E04FF0080872
:103A600005E04FF0100802E04FF0200800BF66E0CC
:103A70007149206888421DD16948006800F007003C
:103A8000062816D2DFE800F00306090C0F124FF0EB
:103A900000080EE04FF004080BE04FF0400808E08B
:103AA0004FF0080805E04FF0100802E04FF0200842
:103AB00000BF44E06149206888421DD15848006831
:103AC00000F00700062816D2DFE800F00306090C14
:103AD0000F124FF000080EE04FF004080BE04FF01B
:103AE000400808E04FF0080805E04FF0100802E039
:103AF0004FF0200800BF22E04549206888421ED1CF
:103B00004748001D006800F00700062816D2DFE8CD
:103B100000F00306090C0F124FF002080EE04FF000
:103B200004080BE04FF0400808E04FF0080805E0FB
:103B30004FF0100802E04FF0200800BF00BF00BFA8
:103B400033492068884201D1012000E0002000288C
:103B50005DD00025B8F1100F33D009DCB8F1020FA9
:103B600010D0B8F1040F11D0B8F1080F2ED117E022
:103B7000B8F1200F27D0B8F1400F0CD0B8F1800F6A
:103B800024D124E0FEF70AF9054623E005A8FEF754
:103B90001BF9069D1EE002A8FEF72CFA039D19E012
:103BA0001F4854380068C0F3401040B11C485438D6
:103BB0000068C0F3C101224820FA01F500E0204D61
:103BC00008E0204D06E04FF4004503E000BF01206F
:103BD000089000BF00BF002D0AD0606800EB4000D5
:103BE000A84203D860680003A84202D201200890CE
:103BF000D4E2B8F1100F7CD026DCB8F1020F2DD042
:103C0000B8F1040F52D0B8F1080F73D19EE03FE134
:103C1000000C0058F369FFCFFFF4FF1100100140C2
:103C2000544402580044004000480040004C00400A
:103C3000005000400014014000780040007C00402B
:103C40000090D00300093D00B8F1200F7DD0B8F1FD
:103C5000400F54D0B8F1800FD7D109E1FEF79EF89C
:103C600000270646FB49606A31F810C062463B46B1
:103C700030463946FCF7F0FB4FF4807600220346CD
:103C8000A3FB060701FB067103FB021361684908E9
:103C9000064671185A41CDE9001266683246002383
:103CA00008460199FCF7D8FB0546E4E005A8FEF7B5
:103CB0008BF8DDF818C0E749606A31F810B05A4651
:103CC000002360461946FCF7C7FB4FF4807C0022B6
:103CD000A0FB0C3B01FB0CB100FB02106168490822
:103CE0005E1840EB0201D4F804C06246002330465F
:103CF00001E079E0BBE0FCF7AFFB0546BBE002A8C2
:103D0000FEF778F9DDF80CC0D249606A31F810B0DE
:103D10005A46002360461946FCF79EFB4FF4807C10
:103D20000022A0FB0C3B01FB0CB100FB0210616800
:103D300049085E1840EB0201D4F804C06246002333
:103D40003046FCF789FB054695E06EE0C248006806
:103D5000C0F3401038B3C0480068C0F3C101BF4889
:103D600020FA01FCBB49606A31F810B05A460023C2
:103D700060461946FCF770FB4FF4807C0022A0FBE4
:103D80000C3B01FB0CB100FB0210616849085E1896
:103D900040EB0201D4F804C0624600233046FCF731
:103DA0005BFB05461FE0AB49606A31F810C0624614
:103DB0000023AA481946FCF74FFB4FF4807C0022F1
:103DC000A0FB0C3B01FB0CB100FB02106168490831
:103DD0005E1840EB0201D4F804C06246002330466E
:103DE000FCF73AFB054646E09A49606A31F810C094
:103DF000624600239A481946FCF72EFB4FF4807C5C
:103E00000022A0FB0C3B01FB0CB100FB021061681F
:103E100049085E1840EB0201D4F804C06246002352
:103E20003046FCF719FB054625E08A49606A31F8FF
:103E300010C0624600234FF400401946FCF70CFB0B
:103E40004FF4807C0022A0FB0C3B01FB0CB100FB7B
:103E50000210616849085E1840EB0201D4F804C002
:103E6000624600233046FCF7F7FA054603E000BF40
:103E70000120089000BF00BFB5F5407F05D3B5F520
:103E8000801F02D22068C56088E10120089085E18A
:103E9000E069B0F5004F7CD1B8F1100F7AD00CDC9E
:103EA000B8F1000F13D0B8F1010F21D0B8F1040F11
:103EB0002FD0B8F1080F6ED151E0B8F1200F6BD0C0
:103EC000B8F1400F38D0B8F1800F64D197E0FEF719
:103ED000EBFA604A616A32F81110B0FBF1F0400071
:103EE000616800EB5100B0FBF1F01FFA80FA89E045
:103EF000FEF7F0FA574A616A32F81110B0FBF1F0A0
:103F00004000616800EB5100B0FBF1F01FFA80FA4D
:103F100078E005A8FDF758FF06994E4A606A32F826
:103F20001000B1FBF0F04000616800EB5100B0FB05
:103F3000F1F01FFA80FA65E002A8FEF75BF803993A
:103F4000444A606A32F81000B1FBF0F0400061684A
:103F500000EB5100B0FBF1F01FFA80FA52E03E484E
:103F60000068C0F34010C0B13B480068C0F3C10115
:103F70003A48C840374A616A32F81110B0FBF1F094
:103F80004000616800EB5100B0FBF1F01FFA80FACD
:103F900012E044E011E031E01FE02E49606A31F8A0
:103FA00010002E49B1FBF0F04000616800EB5100B9
:103FB000B0FBF1F01FFA80FA24E02649606A31F87C
:103FC00010002749B1FBF0F04000616800EB5100A0
:103FD000B0FBF1F01FFA80FA14E01E49606A31F874
:103FE00010004FF40041B1FBF0F04000616800EBBD
:103FF0005100B0FBF1F01FFA80FA03E000BF01208E
:10400000089000BF00BF4FF6F0700AEA0009CAF33B
:10401000420049EA00092068C0F80C90BEE0B8F1FF
:10402000100F7CD00CDCB8F1000F1BD0B8F1010FE1
:1040300029D0B8F1040F37D0B8F1080F70D159E08A
:10404000B8F1200F6DD0B8F1400F40D0B8F1800F1B
:1040500066D19FE03A680008004402580090D003FF
:1040600000093D00FEF720FA4E4A616A32F811104D
:10407000B0FBF1F0616800EB5100B0FBF1F080B2F1
:104080002168C86089E0FEF725FA464A616A32F87D
:104090001110B0FBF1F0616800EB5100B0FBF1F0E2
:1040A00080B22168C86078E005A8FDF78DFE06990A
:1040B0003C4A606A32F81000B1FBF0F0616800EB36
:1040C0005100B0FBF1F080B22168C86065E002A841
:1040D000FDF790FF0399334A606A32F81000B1FB94
:1040E000F0F0616800EB5100B0FBF1F080B22168A4
:1040F000C86052E02C480068C0F34010C0B12A48A4
:104100000068C0F3C1012948C840264A616A32F8F4
:104110001110B0FBF1F0616800EB510002E017E014
:1041200037E025E0B0FBF1F080B22168C8600EE016
:104130001C49606A31F810001C49B1FBF0F061685D
:1041400000EB5100B0FBF1F080B22168C86024E0C0
:104150001449606A31F810001549B1FBF0F061684C
:1041600000EB5100B0FBF1F080B22168C86014E0B0
:104170000C49606A31F810004FF40041B1FBF0F0D7
:10418000616800EB5100B0FBF1F080B22168C860BB
:1041900003E000BF0120089000BF00BF089809B0ED
:1041A000BDE8F08F3A680008004402580090D00340
:1041B00000093D00014691F87900212839D1B1F874
:1041C0006200C8B90868006800F0005030B10868A3
:1041D000806820F400000B68986005E008680068BB
:1041E00020F080000B6818600868006840F040000C
:1041F0000B681860002070478868B0F5805F0BD1AD
:10420000086948B9CA6D1088C0F308000B681885A2
:10421000C86D801CC86505E0CB6D581CC865187852
:104220000B681885B1F86200401EA1F862000020FA
:10423000E1E70220DFE72DE9F04104460D4617468D
:104240009846069E21E0701CF8B12EB1FDF7E0FC07
:10425000A0EB0800B04218D92068006820F4D070A4
:10426000216808602068806820F00100216888606B
:10427000202084F8790084F87A0000BF002084F8B8
:10428000780000BF0320BDE8F0812068C0692840A5
:10429000A84201D1012000E00020B842D3D0002084
:1042A000F1E7000070B500240F4D1048FEF7E6FD61
:1042B00000BF03E0641CAC4200D904E00B48FEF7E9
:1042C000D3FD2028F6D100BF002403E0641CAC42DB
:1042D00000D906E0012206490448FEF735FF002810
:1042E000F4D100BF70BD0000FFFF01007801002481
:1042F0002E00002400BFFEE703B40198410000989F
:1043000050EAC12018BF04204A0D18BF40F0010038
:1043100040F2FF72B2EB515F08BF40F0020001288B
:1043200008BF052002B0704702480068C0F30220B1
:10433000704700000CED00E010B5002804DB0A0710
:10434000130E054A135406E00A07140E034A00F040
:104350000F031B1FD45410BD00E400E018ED00E073
:1043600030380A2801D2012070470020704700BF72
:104370007047000070B504460420FEF745FD0C4868
:10438000046025464FF47A704543012009490880AE
:104390004FF0E020006940F002004FF0E02108619A
:1043A00008464561006940F00100086170BD0000E9
:1043B000200000242400002413E00A4890ED000BA4
:1043C0009FED091B30EE010B80ED000B90ED000B13
:1043D00053EC102B06A0FCF7B7F84FF47A7001F0FD
:1043E000EDF8EAE71000002400000040E17A843F85
:1043F000666C6F61745F6E756DB5C4D6B5CEAA3A42
:1044000020252E34660D0A0000BF054AD26902F04D
:104410004002002AF9D0C2B2014B1A857047000051
:104420000010014007E002210348FDF7E7FB4FF4CD
:10443000FA7001F0C3F8F6E70004025810E0002219
:1044400001210848FDF7DEFBC82001F0B7F8012282
:1044500011460448FDF7D6FB4FF4487001F0AEF862
:10446000EDE70000000402581CB5FDF70BFAFDF75C
:10447000E1FB02231A460521A020FEF7D9FF4FF4E5
:10448000C870FFF777FF4FF4E13000F0B5FEFEF79C
:1044900013FF0748012100238022CDE9001005A168
:1044A000074801F0B5FE01F025FA00201CBD000010
:1044B0000000002473746172745F7461736B000098
:1044C000655100082DE9F04105460E461C48076875
:1044D0001C480068001D00F0ABFE50B91948006888
:1044E00090F82C100120884017490968814316482C
:1044F0000160681C38B936B112480168091D1348BB
:1045000000F0D4FE1AE07C190E4800684460BC42FA
:1045100007D20C480168091D0D48006800F0ACFE88
:104520000CE008480168091D0A48006800F0A4FE74
:1045300009480068844201D207480460BDE8F08160
:10454000500000243C0000245400002408050024EE
:1045500044000024400000246C00002410B50446F0
:1045600000F0B0FE24480068401C2349086023483E
:10457000006840B9214804600846006801280DD150
:1045800000F0EEF90AE01E48006838B91B480068E0
:10459000C06AE16A884201D8184804601948006876
:1045A000401C1849086008460068606494F82C10A4
:1045B0000120884014490968084313490860E16AEA
:1045C00001EB8101114A02EB8100211D00F06EFE1A
:1045D00000F0C0FE0A48006868B108480068C06A78
:1045E000E16A884207D24FF0805009490860BFF362
:1045F0004F8FBFF36F8F10BD4C0000243C00002490
:1046000058000024680000245400002438020024CC
:1046100004ED00E010B500F055FE10480068D0B978
:104620000F4800F019FE0F4800F016FE0C480E4926
:1046300008600C480D49086000221021052001F097
:10464000B5FA064908600846006820B108A1034889
:10465000006800F077FF00F07DFE10BD80000024B0
:104660001C05002430050024780000247C00002470
:10467000546D72510000000070B523E001F092F912
:104680001348006808B9012000E00020054601F049
:104690007BFFBDB900F016FE0D48C068C468201D40
:1046A00000F0C6FD0B480068401E0A4908600A4831
:1046B0000068401E0849086000F04CFE204600F0EB
:1046C00060F800BF044800680028D7D170BD000022
:1046D000F40400244C0000244800002470B5044673
:1046E0000D46206C70B1216CE0680844E0606168A0
:1046F000E068884201D32068E0602846226CE168C7
:10470000FCF71BF870BD2DE9F04104460F46154635
:104710004FF00008A66B206C40B9206860BB606851
:1047200001F06CFE80460020606025E07DB93946CE
:10473000226CA068FCF701F8216CA0680844A06016
:10474000D4E90110884217D32068A06014E03946EC
:10475000226CE068FBF7F1FF216CE068401AE06032
:104760002168E068884203D2216C6068401AE060EA
:10477000022D01D106B1761E701CA0634046BDE833
:10478000F08110B50446206B00F01EFE204600F0BC
:104790001BFE10BD0146084A126812680AB90122C0
:1047A00000E000220A600A6822B9034A1268D2684F
:1047B000106800E0002070477800002430B54FF406
:1047C0003843174800F007042CB1C01D20F0070043
:1047D000134C041B1B1B0246124C22600024114D7B
:1047E0006C60D018083820F007000F4C20600024BF
:1047F0000D4D2D686C600C4D2D682C601146441ACF
:104800004C60094C24680C60084D4C682C60084DC5
:104810004C682C604FF00044064D2C6030BD000009
:104820004405002498000024A0000024A8000024CF
:10483000A4000024AC00002400BFFFF71DFF0648C1
:1048400000680128F9D94FF0805004490860BFF38F
:104850004F8FBFF36F8FF0E73802002404ED00E0C4
:104860002DE9F04106460D4617469846069C0DB9BF
:10487000246000E02760E66325640121204601F002
:10488000B3FA84F850800020A064BDE8F0810000F5
:104890002DE9F05F82460F4690469B460A9E0C9C8F
:1048A0004FEA8801A522206BFBF78CFFA8F10100DD
:1048B000216B01EB800929F0070909F0070008B90D
:1048C000012000E0002028B940F22B321BA120A0DB
:1048D000FBF73AFE002507E0795D04F1340041550D
:1048E000785D00B902E06D1C102DF5D300BF0021EA
:1048F00043200155202E00D31F26E662E6640020E7
:104900002065201D00F0B5FC04F1180000F0B1FC9A
:104910002461C6F12000A06164620020606584F813
:1049200058005A465146484600F006FC20600B9855
:1049300008B10B980460BDE8F09F00002E2E5C4685
:1049400072656552544F535C7461736B732E6300D0
:104950004572726F723A25732C25640D0A000000AF
:1049600010B5002407E004EB84010F4A02EB81003C
:1049700000F072FC641C202CF5D30C4800F06CFC99
:104980000B4800F069FC0B4800F066FC0A4800F098
:1049900063FC0A4800F060FC0448094908600448C8
:1049A0000849086010BD000038020024B804002443
:1049B000CC040024E0040024F404002408050024AE
:1049C000400000244400002410B50146164800E0D1
:1049D000006803688B42FBD30246436813448B4252
:1049E00004D143684C682344436001460A464B683F
:1049F00013440468A34211D10C4C03682468A342F9
:104A000008D04B680468646823444B6003681B68E3
:104A10000B6005E0054B1B680B6001E003680B6051
:104A2000884200D0016010BD98000024A00000243E
:104A30002DE9F04104460D4616461F464FF000088A
:104A400065602461B5420CD8F01BA169884202D38D
:104A50004FF0010811E0211D0948006800F00CFC2E
:104A60000BE0BE4204D2BD4202D34FF0010804E085
:104A7000211D0448006800F0FFFB4046BDE8F081BE
:104A80007C0000247800002470B5054600F01AFC74
:104A9000A86B08B9012400E0002400F05BFC20466C
:104AA00070BD70B5054600F00DFCA86BE96B88423F
:104AB00001D1012400E0002400F04CFC204670BD30
:104AC0002DE9F3410D460098846C00272CB940F67F
:104AD000CE121AA11EA0FBF737FDA06BE16B884236
:104AE00001D2012000E0002028B940F6CF1213A126
:104AF00017A0FBF729FDA06BE16B88421BD294F94C
:104B000045602A4669462046FFF7FDFD0746701CB2
:104B100060B9606A08B9012000E0002050B904F1D2
:104B2000240001F0D7FC28B1012703E0701C40B23B
:104B300084F8450000BF3846BDE8FC812E2E5C4657
:104B400072656552544F535C71756575652E6300CF
:104B50004572726F723A25732C25640D0A000000AD
:104B6000F8B505460F4613480068C068C468201DA4
:104B700000F05EFBE069012818D1A06941192B46BD
:104B80003A462046FFF754FF80B1002003462A46EC
:104B900001460090204601F0C1FD06462EB94FF4B3
:104BA000027205A10AA0FBF7CFFC00BF2046616A94
:104BB0008847F8BD780000242E2E5C467265655249
:104BC000544F535C74696D6572732E63000000006E
:104BD0004572726F723A25732C25640D0A0000002D
:104BE000F0B587B070E0039800280CDA04AE2EB957
:104BF00040F2E7223AA140A0FBF7A6FCD6E900204C
:104C0000B168904700BF039800285DDB059C606990
:104C100008B9012000E0002010B9201D00F008FBB9
:104C200002A800F0C7F8054603980A284AD2DFE830
:104C300000F00905072C2E4506082D2F00BF00BFE8
:104C400000BF00BF0498A269811803462A46204687
:104C5000FFF7EEFEC0B12046616A8847E06901288F
:104C600012D1002000900498A1694218002319462F
:104C7000204601F053FD07462FB940F2213218A11A
:104C80001DA0FBF761FC00BF1DE000BF1BE000BFE3
:104C90000498A061A06908B1012000E0002028B9B3
:104CA0004FF44E720EA114A0FBF74EFCA0694119FF
:104CB0002B462A462046FFF7BBFE04E0204600F0C4
:104CC00083FB00E000BF00BF00231A4603A90E4883
:104CD000006800F0A5FF002885D107B0F0BD0000F6
:104CE0002E2E5C4672656552544F535C74696D6537
:104CF00072732E63000000004572726F723A257362
:104D00002C25640D0A00000080000024F8B505463B
:104D10000C4600F047FE684600F04CF80646009846
:104D200020BB44B9B54206D801F02EFC31462846D6
:104D3000FFF716FF1CE03CB10E480068006808B998
:104D4000012000E000200446A91B22460A48006812
:104D500000F00EFC01F018FC50B94FF080500749EC
:104D60000860BFF34F8FBFF36F8F01E001F00CFCC1
:104D7000F8BD00007C0000248000002404ED00E069
:104D80000A490968096809B9012100E0002121B137
:104D90004FF0FF31064A116006E004490968C9680E
:104DA000C868034A41681160704700004000002451
:104DB0006C00002470B5044601F06AFA0546074805
:104DC0000068854204D200F00BF80120206001E069
:104DD0000020206001480560284670BD880000243E
:104DE0002DE9F8432DE021480068C06805681F4898
:104DF0000068C068C468201D00F01AFA2046616A85
:104E00008847E06901281CD1A0694619AE4207D93C
:104E100066602461211D1548006800F02DFA10E03D
:104E2000002003462A4601460090204601F076FC09
:104E300007462FB940F292320DA113A0FBF784FB75
:104E400000BF0A480068006808B9012000E000209F
:104E50000028C8D00548D0F800800F4800680349F2
:104E600008600D48C0F80080BDE8F8837800002491
:104E70002E2E5C4672656552544F535C74696D65A5
:104E800072732E63000000004572726F723A2573D0
:104E90002C25640D0A0000007C0000240D480068E9
:104EA000401C08B9012000E0002028B940F2091296
:104EB00009A115A0FBF748FB00BF502072B680F394
:104EC0001188BFF34F8FBFF36F8F62B600BF00BF73
:104ED000FEE700008C0000242E2E5C4672656552B1
:104EE000544F535C706F727461626C655C525644CF
:104EF000535C41524D5F434D375C723070315C7092
:104F00006F72742E630000004572726F723A2573DF
:104F10002C25640D0A00000008B500BF6846FFF7A5
:104F200039FC044620460099FFF7F0FEFFF758FED3
:104F3000F4E770B5044600F0C5F994F945501AE05D
:104F4000A06C38B100212046FFF7BAFD88B100F00F
:104F5000F5FB0EE0606A08B9012000E0002038B9D6
:104F600004F1240001F0B6FA18B100F0E7FB00E00C
:104F700003E0681E45B2002DE2DC00BFFF2084F88C
:104F8000450000F0E7F900F09DF994F9445010E075
:104F9000206908B9012000E0002048B904F11000A0
:104FA00001F098FA08B100F0C9FB681E45B200E0B4
:104FB00001E0002DECDC00BFFF2084F8440000F08D
:104FC000C9F970BD2DE9F04104464FF0000800F02A
:104FD000E9FC3E48006808B9FFF7F0FB3C48006870
:104FE000204000285FD1A4B1083404F0070080B14C
:104FF00004F00700C0F10800044404F0070008B9F9
:10500000012000E0002020B9BF2232A13BA0FBF725
:105010009BFA002C47D03D480068844243D83C4E60
:105020003046056801E02E462D686868A04202D22D
:1050300028680028F7D125480068854233D03068B9
:1050400000F10808286830606868001B102813D930
:105050002F1907F0070008B9012000E0002020B94F
:10506000EC221CA125A0FBF76FFA6868001B786092
:105070006C603846FFF7A8FC244968680968081A7C
:10508000224908600846006822490968884203D21C
:105090001E4800681F4908600D4968680968084390
:1050A00068600020286001F06FFA08F0070008B976
:1050B000012000E0002028B94FF4967205A10FA04E
:1050C000FBF742FA4046BDE8F0810000A000002452
:1050D000AC0000242E2E5C4672656552544F535C22
:1050E000706F727461626C655C4D656D4D616E6769
:1050F0005C686561705F342E630000004572726FFA
:10510000723A25732C25640D0A000000A4000024C7
:1051100098000024A80000240648006830B1054922
:10512000096801F15000096D491C016001480068DF
:10513000704700003C000024001F4FF080730360A4
:10514000001F21F001030360001F054B03601438AA
:105150000260001F6FF002030360203870470000F8
:105160009D4E00081CB5044600F0ACF81248022120
:1051700000233222CDE9001010A1134801F048F8B5
:105180001248032100233222CDE9001010A1134858
:1051900001F03EF81248042100238022CDE90010DE
:1051A00010A1134801F034F81248006800F040FAEA
:1051B00000F0D0F81CBD0000040000246C656430D1
:1051C0005F7461736B000000254400080800002430
:1051D0006C6564315F7461736B0000003D440008CE
:1051E0000C000024666C6F61745F7461736B000067
:1051F000B94300080000002410B5044609480A49D4
:1052000008600846446000218160C16001618161DD
:105210000C214161FDF710FF012204490248FDF70E
:1052200093FF10BD00100140780100242E000024DF
:1052300001460A69D1E901309860D1E9010358605B
:105240005068884201D18868506000200861106869
:10525000401E10601068704700F1080141604FF077
:10526000FF31816000F10801C1600161002101602E
:10527000704700210161704710B502460B685C1C45
:105280000CB9106907E002F1080000E040684468CA
:1052900024689C42FAD944684C604C68A1608860DC
:1052A00041600A611468641C146010BD42684A6061
:1052B00093688B60936859609160086103685B1C18
:1052C0000360704710B500BF502072B680F311889C
:1052D000BFF34F8FBFF36F8F62B600BF0B480068FC
:1052E000401C0A4908600846006801280DD108489A
:1052F0000068C0B208B9012000E0002028B940F2DF
:10530000A91204A10FA0FBF71FF910BD8C00002407
:1053100004ED00E02E2E5C4672656552544F535CDE
:10532000706F727461626C655C525644535C41529A
:105330004D5F434D375C723070315C706F72742E0C
:10534000630000004572726F723A25732C25640D5C
:105350000A00000010B50B48006828B94FF4D87255
:1053600009A115A0FBF7F0F806480068401E0549A2
:1053700008600846006820B9002080F3118800BF4B
:1053800000BF10BD8C0000242E2E5C467265655255
:10539000544F535C706F727461626C655C5256441A
:1053A000535C41524D5F434D375C723070315C70DD
:1053B0006F72742E630000004572726F723A25732B
:1053C0002C25640D0A00000070B506463546002EF7
:1053D00035D0083D2C461A4960680968084008B174
:1053E000012000E0002028B94FF4A07215A11FA0F1
:1053F000FBF7AAF8206808B9012000E0002028B9CE
:1054000040F241120FA119A0FBF79EF80C49606809
:105410000968084098B1206888B909496068096836
:105420008843606000F0BEFA144960680968084467
:10543000124908602046FFF7C7FA01F0A5F870BDD1
:10544000AC0000242E2E5C4672656552544F535CAE
:10545000706F727461626C655C4D656D4D616E67F5
:105460005C686561705F342E630000004572726F86
:10547000723A25732C25640D0A000000A400002454
:10548000064800684FF47A71B0FBF1F0401E4FF00F
:10549000E0214861072008617047000018000024DF
:1054A00070B5FAF7B5FF0546102D11D305F1E020D0
:1054B00090F8F04310480078844201DB012000E0BE
:1054C000002028B940F2F2220CA118A0FBF73CF80A
:1054D0001A48006800F4E06019490968884201D858
:1054E000012000E0002028B940F2023203A10FA001
:1054F000FBF72AF870BD0000900000242E2E5C46B9
:1055000072656552544F535C706F727461626C6562
:105510005C525644535C41524D5F434D375C723090
:1055200070315C706F72742E630000004572726F90
:10553000723A25732C25640D0A0000000CED00E082
:1055400094000024024600200BE0084B53F8303052
:1055500033B9064B43F8301003EBC0035A6002E046
:10556000401C0828F1D300BF70470000F801002458
:105570002DE9F04105460E4617462C46FFF7A2FEE0
:1055800094F94400401C10B9002084F8440094F9B8
:105590004500401C10B9002084F84500FFF7DAFEF2
:1055A000A06B28B93A46314604F1240000F0F6F821
:1055B0002046FFF7BEFCBDE8F081000070B5044650
:1055C0000025ACB10F48006808B9012000E00020B8
:1055D00028B940F2CF420CA110A0FAF7B5FF00F0B5
:1055E000E1F900212046FEF76DFF00F0CDFF0546F2
:1055F0003DB94FF080500D490860BFF34F8FBFF3A6
:105600006F8F70BD740000242E2E5C46726565524B
:10561000544F535C7461736B732E63004572726FE9
:10562000723A25732C25640D0A00000004ED00E099
:1056300070B50546FFF746FE15B92D48006800E035
:1056400028460446201DFFF7F3FD78B9E06A00EB19
:105650008000284951F8200040B994F82C1001200E
:10566000884025490968814323480160A06A18B130
:1056700004F11800FFF7DCFD20480068401C1F49BA
:1056800008601B480068844209D1211D1C48FFF7AF
:105690000DFE1C480068401C1A49086009E01A48C1
:1056A0000068401E184908602046FFF76AF8FFF7B7
:1056B00067FBFFF74FFE15480068C0B10C48006853
:1056C000844214D11248006808B9012000E000208B
:1056D00028B940F265420FA113A0FAF735FF4FF049
:1056E000805015490860BFF34F8FBFF36F8F70BDB7
:1056F0003C000024380200245400002468000024E8
:10570000F4040024480000244C0000245800002425
:10571000740000242E2E5C4672656552544F535C13
:105720007461736B732E63004572726F723A2573E6
:105730002C25640D0A00000004ED00E00120014961
:10574000086070476000002470B504460D462CB90F
:1057500040F6063207A10CA0FAF7F6FE0E480168E3
:1057600018312046FFF788FD01212846FEF7AAFEE2
:1057700070BD00002E2E5C4672656552544F535C1E
:105780007461736B732E63004572726F723A257386
:105790002C25640D0A0000003C00002470B505466D
:1057A0000E4614462DB940F6313209A10DA0FAF784
:1057B000CBFE1048016818312846FFF777FD0CB181
:1057C0004FF0FF3621463046FEF77CFE70BD0000EC
:1057D0002E2E5C4672656552544F535C7461736B38
:1057E000732E63004572726F723A25732C25640D17
:1057F0000A0000003C00002470B505462C46002D30
:105800004BD02649E06A0968C96A884245D2A06936
:1058100000F0004028B921480068C06AC0F12000AB
:10582000A061E16A01EB81011D4A02EB810160691F
:10583000884201D1012000E0002050B3201DFFF775
:10584000F7FC78B9E06A00EB8000154951F82000B8
:1058500040B994F82C10012088401249096881430E
:10586000104801600D480068C06AE06294F82C108E
:10587000012088400B49096808430A490860E16A29
:1058800001EB8101064A02EB8100211DFFF70EFDAD
:1058900003E002480068C06AE06270BD3C0000247A
:1058A000380200245400002410B504462CB940F6F8
:1058B000C13205A109A0FAF747FE0C480068206034
:1058C0000B480068606010BD2E2E5C467265655204
:1058D000544F535C7461736B732E63004572726F27
:1058E000723A25732C25640D0A0000006400002420
:1058F000500000241CB51B4800210B468222CDE934
:10590000001019A11A4800F083FC0446012C02D1B2
:1059100000F0CAFE0446012C17D100BF502072B619
:1059200080F31188BFF34F8FBFF36F8F62B600BF54
:105930004FF0FF300F49086001200F490860002038
:105940000E49086000F08AF80BE0601C08B10120E5
:1059500000E0002028B940F2847209A10DA0FAF7F6
:10596000F3FD1CBD7000002449444C4500000000BC
:10597000394800086C00002458000024500000241E
:105980002E2E5C4672656552544F535C7461736B86
:10599000732E63004572726F723A25732C25640D65
:1059A0000A00000002480068401C01490860704776
:1059B0007400002410B51B48006818B101201A4972
:1059C00008602DE000201849086018480068B0FA07
:1059D00080F0C0F11F0404EB8400154951F8200049
:1059E00008B1012000E0002028B940F6F62211A1FC
:1059F00015A0FAF7A9FD04EB84010D4A02EB810022
:105A000041684968416000F1080142688A4202D158
:105A10004168496841604168C9680F4A116000BF28
:105A200010BD000074000024600000245400002415
:105A3000380200242E2E5C4672656552544F535C2A
:105A40007461736B732E63004572726F723A2573C3
:105A50002C25640D0A0000003C0000241CB52F4CCE
:105A6000204600780190FF20214608700846007803
:105A700000909DF8000000F0F0009DF800108842B2
:105A800001D1012000E0002028B940F2631224A1D6
:105A90002FA0FAF759FD9DF8000000F050003049A2
:105AA000087007202F49086009E02E480068401E52
:105AB0002C4908609DF800004006000E00909DF8FB
:105AC000000000F080008028EFD026480068000227
:105AD000244908600846008800F4E06008600F4927
