:020000040800F2
:10000000A834002441030008957400081F3C000830
:100010002B7400088D090008B1BA00080000000028
:10002000000000000000000000000000D5AB000848
:10003000090C0008000000003D080008D1AC0008D1
:100040007B0300087B0300087B0300087B03000898
:100050007B0300087B0300087B0300087B03000888
:100060007B0300087B0300087B0300087B03000878
:100070007B0300087B0300087B0300087B03000868
:100080007B0300087B0300087B0300087B03000858
:100090007B0300087B0300087B0300087B03000848
:1000A0007B0300087B0300087B0300087B03000838
:1000B0007B0300087B0300087B0300087B03000828
:1000C0007B0300087B0300087B0300087B03000818
:1000D0007B03000859BA00087B0300087B03000873
:1000E0007B0300087B030008000000007B0300087E
:1000F0007B0300087B0300087B0300087B030008E8
:100100007B0300087B0300087B0300087B030008D7
:100110007B0300087B0300087B0300087B030008C7
:100120007B0300087B0300087B0300087B030008B7
:100130007B0300087B0300087B0300087B030008A7
:1001400000000000000000000000000000000000AF
:100150007B0300087B0300087B0300087B03000887
:100160007B0300087B0300087B0300087B03000877
:100170007B0300087B0300087B03000800000000ED
:100180007B0300087B0300087B0300087B03000857
:100190007B0300087B0300087B0300087B03000847
:1001A0007B0300087B0300087B0300087B03000837
:1001B0007B0300087B0300087B0300087B03000827
:1001C0007B0300087B0300087B0300087B03000817
:1001D0007B0300087B0300087B0300087B03000807
:1001E0007B0300087B0300087B0300087B030008F7
:1001F0007B0300087B0300087B0300087B030008E7
:100200007B0300087B0300087B0300087B030008D6
:100210007B0300087B0300087B0300087B030008C6
:100220007B0300087B0300087B030008000000003C
:100230007B0300087B030008000000007B0300082C
:100240007B0300087B0300087B0300087B03000896
:100250007B0300087B0300087B0300087B03000886
:100260007B0300087B0300087B0300087B03000876
:100270007B0300087B0300087B03000800000000EC
:100280007B030008000000007B0300080000000062
:10029000000000007B03000800F002F800F041F8C5
:1002A0000AA090E8000C82448344AAF10107DA45D1
:1002B00001D100F036F8AFF2090EBAE80F0013F0E2
:1002C000010F18BFFB1A43F0010318477406010021
:1002D00094060100103A24BF78C878C1FAD85207B2
:1002E00024BF30C830C144BF04680C6070470000B0
:1002F0000023002400250026103A28BF78C1FBD82F
:10030000520728BF30C148BF0B607047782900F002
:100310001D81002070471FB50BF008FE1FBD10B5F2
:1003200010BD00F0FBF91146FFF7F5FF0BF0BAFC2A
:1003300000F019FA03B4FFF7F2FF03BC0BF0D6FB91
:1003400011488047DFF84400016841F47001016002
:10035000BFF34F8FDFF83800016821F040410160A2
:10036000BFF36F8F0B480047FEE7FEE7FEE7FEE7AF
:10037000FEE7FEE7FEE7FEE7FEE7FEE70648074981
:10038000074A084B70470000F1AC000888ED00E018
:1003900034EF00E099020008A8280024A8340024C3
:1003A000A82A0024A82A002472B6704762B67047B3
:1003B000EFF3108072B6704780F31088704730BF3B
:1003C000704720BF7047B0FA80F0704790FAA0F0F5
:1003D000B0FA80F0704790FAA0F0704753EA020C30
:1003E00000F069802DE9F04B4FF00006002B1FBF95
:1003F000B3FA83F503FA05F424FA05F65E4012BF5A
:100400001643B2FA82F502FA05F4C5F120051EBFC3
:1004100022FA05FC44EA0C04203556EA044C4FEA63
:10042000144418BF641C4FF000084FF000099042BC
:1004300071EB030C39D3002919BFB1FA81F701FA26
:1004400007F6B0FA80F700FA07F6C7F120071EBFDB
:1004500020FA07FC46EA0C062037B6FBF4FCA7EBB3
:100460000507103F07F01F0BCBF120060CFA0BFB22
:100470002CFA06F644BFB3460026202FA4BF5E46E2
:100480004FF0000B5BEA060C08BF4FF0010B19EBB5
:100490000B09ABFB027C48EB0608C01B06FB02CC39
:1004A0000BFB03CC71EB0C01C1E70B460246414646
:1004B0004846BDE8F08B13B54FF000004FF0000147
:1004C000AFF30080BDE81C40704700000FB4044942
:1004D00010B503AA029800F0F3F810BC5DF814FB05
:1004E000100000242DE9F0410E4604460020206251
:1004F0002046E168884730B3252805D0D4E901219A
:100500009047206A401CF2E7E168204600278847B0
:10051000050018D0A5F14100192802D820354FF464
:1005200000673246294620462760FFF7EFFE40B1BC
:10053000012804D0F61D26F007060836D8E7361D38
:10054000D6E72846DAE7206ABDE8F08170B50446B0
:100550000D4621461068AFF300802188090502D5B9
:100560000F4A7A4402E00E4A7A440E32002104F126
:10057000240305E000F00F060009965D5E54491C57
:100580000028F7D120780023000704D5702D02D071
:1005900009B1022311322046BDE8704000F037B89F
:1005A000B203010010B5203AC0F00B80B1E818503A
:1005B000203AA0E81850B1E81850A0E81850BFF44D
:1005C000F5AF5FEA027C24BFB1E81850A0E81850EC
:1005D00044BF18C918C0BDE810405FEA827C24BF40
:1005E00051F8043B40F8043B08BF7047D20728BFCE
:1005F00031F8023B48BF11F8012B28BF20F8023B1D
:1006000048BF00F8012B70477047704770472DE9CD
:10061000F0470D4699469246044600F124080168C9
:10062000880604D5E06921F01001216000E0012076
:10063000A84201DD471B00E00027A1697A1902EBFF
:100640000900081AA0612078C00602D42046AFF342
:100650000080002608E0D4E901211AF8060090473E
:10066000206A401C761C20624E45F4DB2078C006D0
:100670000AD52046AFF3008006E0D4E901213020FE
:100680009047206A401C2062381EA7F10107F4DC65
:1006900007E0D4E9012118F805009047206A401CC2
:1006A0002062281EA5F10105F3DC2046AFF300808F
:1006B0002078000602D50220BDE8F0870120FBE784
:1006C000074B70B50D467B4400F011F804462846F0
:1006D00000F020F810B14FF0FF3070BD204670BD23
:1006E0004FB5000001694A1C02610878704700B5E7
:1006F0008FB0CDE901310021059105497944CDE95B
:10070000031011466846FFF7EDFE0FB000BD000074
:10071000E5FFFFFF007B00F080007047754600F0AA
:100720002BF8AE4605006946534620F00700854683
:1007300018B020B5FFF722FEBDE820404FF00006BC
:100740004FF000074FF000084FF0000B21F00701B9
:10075000AC46ACE8C009ACE8C009ACE8C009ACE8FC
:10076000C0098D46704710B50446AFF3008020469F
:10077000BDE81040FFF7DEBD004870474828002460
:10078000EFF3098141B1F1EE101A40F8041D20ED9C
:10079000200A3E490A6810607047B0EC200A02C87F
:1007A000E1EE101A3A490A681060704772B64EF6C8
:1007B0002250CEF2000040F2FF01C0F200010170B1
:1007C0004FF0000080F3098808F08AF840F21C100E
:1007D000C2F20040016881F3088840F29A00C2F238
:1007E000004040F29B01C2F200410A78027040F2E0
:1007F0001415C2F2004540F21811C2F200410A6815
:100800002A60106880F30988EFF3148040F002003A
:1008100080F31488BFF36F8FBDE8F00F0FBCBDE805
:10082000005006BC62B608471A484FF0805101607C
:10083000704718484FF080510160704772B6EFF36F
:10084000098020E9F00F40F21415C2F200452E682D
:100850003060744608F044F840F29A00C2F200405A
:1008600040F29B01C2F200410A78027040F2181176
:10087000C2F200410A682A6044F0F40E1068B0E841
:10088000F00F80F3098862B670470000140100245D
:100890001801002404ED00E010B509480068401C70
:1008A00007490860084600684CF25031884205D17B
:1008B00000200349086003A0FFF708FE10BD0000F8
:1008C0002001002449646C65205461736B205275CB
:1008D0006E6E696E672035303030302074696D651A
:1008E00073210D0A0000000010B5002400BF00BFF6
:1008F000FFF75EFD044600BF00F0E4F800BF0F48BC
:100900000F4908600F4810490860104810490860F6
:1009100010481149086011481149086011481249EE
:10092000086012481249086000BF00F0E5F800BFF7
:100930002046FFF741FD00BF00BF10BD770900084A
:1009400058000024790900085C0000247B09000895
:10095000600000249908000864000024750900085C
:10096000680000247D0900086C0000247F0900084D
:100970007000002470477047704770477047704799
:1009800010B502F0A5F80446204610BD00BFFEE7F2
:1009900010B500F0FBF800F003F800F0F3F810BD1C
:1009A00070B50026002018490880184908801849A9
:1009B0000860184908601849086018490860184913
:1009C0000860002400BFFFF7F3FC064600BF0025C7
:1009D0000BE000201049086000F074F800F08CF87B
:1009E0000D4800680444681C85B2002DF1D00C4805
:1009F00004600020084908600849086000BF3046CC
:100A0000FFF7DAFC00BF70BD380000243A00002474
:100A10003C00002440000024480000244C00002436
:100A20004400002401460846044A1268904203D953
:100A3000024A1268801A00E0002070474400002437
:100A400070B5002500BFFFF7B3FC054600BF0648A0
:100A5000046800BF2846FFF7AFFC00BF2046FFF741
:100A6000E1FF0646304670BD4800002470B5002501
:100A7000FFF7E6FF044600BFFFF79AFC054600BFFC
:100A800000200449086000BF2846FFF795FC00BF1E
:100A9000204670BD4800002470B5002500BFFFF758
:100AA00087FC054600BF0648046800BF2846FFF7DC
:100AB00083FC00BF2046FFF7B5FF0646304670BDF9
:100AC0004C00002410B509480088401C07490880E4
:100AD0000748008818B900F083F806490860044800
:100AE0000088401C0249088010BD00003800002426
:100AF0003A0000243C00002410B50F480088401E36
:100B00000D49088008460088A0B900F069F80B4933
:100B10000860084600680A490968441A09480068DC
:100B2000A04201D20748046007480068A04201D2F1
:100B30000548046010BD00003A0000244000002475
:100B40003C000024480000244C00002410B5002480
:100B500000BF00BFFFF72CFC044600BFFFF7B2FF49
:100B600000BF1021064806F062FC00BFFFF7C4FF7B
:100B700000BF2046FFF720FC00BF00BF10BD0000F3
:100B80007C12002410B5FFF7E1FF10BD10B5002066
:100B90000249086000F00AF810BD0000340000248B
:100BA00001490860704700003400002410B5FFF7C9
:100BB000E7FE04460848006840F080700649086077
:100BC0000020064948600846006840F001000860BF
:100BD0002046FFF7E5FF10BDFCED00E0001000E04F
:100BE0000149486870470000001000E010B509F0A6
:100BF00031FF09F0E1FE0348006840F004000149BC
:100C0000086010BD9CEF00E07047000070B504461E
:100C10001D460023B5F5804F13D154F822300C48FF
:100C20000340D1E9000640EA06108E6840EA06203B
:100C30008E8940EA06408E693043034344F82230EF
:100C400003E06FF0704044F82200002070BD000007
:100C50000000F0CF10B502460023086852F820309B
:100C60001B480340D1E901042043CC6820430C69B0
:100C700020434C6920438C692043CC6920430C6A93
:100C800020434C6A20438C6A2043CC6A20430C6B7F
:100C900020438C6B20434C6B204303438868082817
:100CA00001D143F04003086842F82030086BB0F5EA
:100CB000801F05D1086818B110680C6B20431060C4
:100CC000086818B110684C6B20431060002010BDFC
:100CD0008004C0FF30B5034614460022601C53F860
:100CE000202002F04042D1E9000540EA05108D685D
:100CF00040EA05208D8940EA0545088A401E45EAFC
:100D00000055087D801E45EA00608D692843024336
:100D1000601C43F82020186800F4801038B158682F
:100D200020F47002088A401E42EA00525A600020F5
:100D300030BD30B50246002300240868012816D0D3
:100D400013686FF30E03D1E901052843CD682843EA
:100D50000D6928434D6928438D692843CD6928438F
:100D60000D6A28434D6A28430343136019E0136852
:100D700023F4F843D1E9070528434D6A2843034388
:100D800054686FF30E04D1E901052843CD68284368
:100D90000D6928434D6928438D6928430443136036
:100DA0005460002030BD0246506940EA4100506165
:100DB0000020704718B5034600200090D1E90004D8
:100DC00020438C68641E40EA4410CC6840EA44200A
:100DD000009000981861002018BD000070B503460F
:100DE000154600220024012D1FD09A6802F070429F
:100DF0000868401E4E68761E40EA06168868401E47
:100E000046EA0026C868401E46EA0036088A401EA8
:100E100046EA0046888A401E46EA0056087E401E82
:100E200046EA006002439A6022E09A681148024054
:100E3000C868401E0603888A401E46EA00500243E6
:100E4000DC6804F070440868401E4E68761E40EA74
:100E500006168868401E46EA0026088A401E46EAB2
:100E60000046087E401E46EA006004439A60DC604B
:100E7000002070BDFF0F0FFF10B504460CB9012014
:100E800010BD94F83500022803D080206065012051
:100E9000F6E734492068884205D333492068884200
:100EA00001D8012000E00020C0B1042084F8350002
:100EB0002C49206888420AD32B492068884206D8EA
:100EC0002068006820F001002168086048E0206880
:100ED000006820F001002168086041E02068006897
:100EE00020F00E00216808601E49206888420AD35D
:100EF0001D492068884206D82068006820F001005B
:100F00002168086005E02068006820F00100216881
:100F10000860206E006820F48070216E086094F8EC
:100F20005C100120884011490860D4E9191048601C
:100F3000E06E40B1E06E006820F48070E16E086001
:100F4000D4E91C10486000BF002084F8340000BFC2
:100F5000012084F83500206D10B12046216D8847AE
:100F600000208DE710000240B804024004540258EB
:100F70000348006840F00100014908607047000024
:100F800020040058F8B502460B4600210026002434
:100F90000020824D00BFFCE0012707FA01F61F6820
:100FA00007EA0604B4427CD15F68022F02D05F6872
:100FB000122F1AD14FEAD10C02F1200757F82C005A
:100FC0004F074FEAD76C0F2707FA0CF7B8434FEAE1
:100FD000417C4FEADC6C1F6907FA0CF738434FEA93
:100FE000D10C02F1200747F82C0010684FEA410CA1
:100FF000032707FA0CF7B8431F7907F003074FEAF6
:10100000410C07FA0CF7384310605F68012F08D0D5
:101010005F68022F05D05F68112F02D05F68122F22
:1010200017D190684FEA410C032707FA0CF7B84331
:101030004FEA410CDF6807FA0CF7384390605068BC
:1010400001278F40B8431F79C7F300178F403843FB
:101050005060D0684FEA410C032707FA0CF7B843F9
:101060004FEA410C9F6807FA0CF73843D0605F687D
:1010700007F08057B7F1805F95D100BF484F3F68B8
:1010800047F00207DFF818C1CCF8007067463F68E8
:1010900007F00207009700BF00BF424F4FEA910CD4
:1010A00000E075E057F82C008F074FEA177C0F27F8
:1010B00007FA0CF7B8433C4FBA4201D100272DE0A4
:1010C0003A4FBA4201D1012728E0394FBA4201D143
:1010D000022723E0374FBA4201D103271EE0364FE3
:1010E000BA4201D1042719E0344FBA4201D1052791
:1010F00014E0334FBA4201D106270FE0314FBA4214
:1011000001D107270AE0304FBA4201D1082705E094
:101110002E4FBA4201D1092700E00A274FEA817C0D
:101120004FEA1C7C07FA0CF738431E4F4FEA910C2C
:1011300047F82C002868A0435F6807F48037B7F5AC
:10114000803F00D1204328606868A0435F6807F4AF
:101150000037B7F5003F00D1204368604FF0B0473B
:101160003868A0435F6807F48017B7F5801F00D187
:1011700020434FF0B04738607868A0435F6807F4B9
:101180000017B7F5001F00D120434FF0B04778603B
:10119000491C1029FFF400AFF8BD00008000005882
:1011A000F444025808040058000002580004025891
:1011B00000080258000C025800100258001402588F
:1011C00000180258001C025800200258002402583F
:1011D000024613690B400BB1012000E0002070476C
:1011E00042694A40426170470AB1018300E041838D
:1011F0007047000001480068704700001800002494
:1012000003480068034909780844014908607047A9
:10121000180000242000002410B5032000F07AFA02
:101220000F2000F007F808B1012010BD00F022FAED
:101230000020FAE770B504460E4800784FF47A7142
:10124000B1FBF0F00C490968B1FBF0F5284602F05B
:10125000A5FA08B1012070BD102C07D2002221464A
:10126000501E00F018FA0548046001E00120F2E782
:101270000020F0E720000024000000241C000024CF
:1012800070B504460E46154600BF94F8A00001282C
:1012900001D1022070BD012084F8A00000BF02200F
:1012A00084F8A10005EB850101EBC50204F13801CA
:1012B00001EB820034223146FFF774F92A463146A9
:1012C000204605F0A9FF01202168486284F8A100AA
:1012D00000BF002084F8A00000BF00BFDAE70000D4
:1012E00070B50446002500260CB9012070BD94F8A5
:1012F000A10028B9002084F8A000204600F07EF864
:10130000022084F8A1002068806920F070402168E4
:101310008861D4E901010843E16808432169084371
:10132000216889690843216888612068806832499A
:10133000084021688860A08A050420688068A16947
:1013400029430843216888602068C0682A4908400A
:101350002168C860A08B05042068C068216A294301
:1013600008432168C8602068006923490840216853
:101370000861A08C050420680069A16A294308431C
:1013800021680861206840691B490840216848615C
:10139000A08D050420684069216B2943084321681A
:1013A000486194F83500050294F836000604206878
:1013B000C06A00F07F402168C86246EA050094F8E0
:1013C000341008432168C96A08432168C86220684C
:1013D000406B40F00600216848632068806940F057
:1013E0000100216888610020C4F8A400012084F86D
:1013F000A10000207AE7000000F800F010B586B0E8
:10140000044600BF4848006840F0080046490860AC
:101410000846006800F00800009000BF00BF00BF51
:1014200041481038006840F010003F49103908600A
:101430000846006800F01000009000BF00BF00BF29
:101440003948001F006840F002003749091F086052
:101450000846006800F00200009000BF00BF00BF17
:101460000846006840F0200008600846006800F068
:101470002000009000BF00BF00BF0846006840F099
:10148000400008600846006800F04000009000BF7F
:1014900000BF00BF0846006840F0800008600846B2
:1014A000006800F08000009000BF00BF00BF084649
:1014B000006840F4807008600846006800F480709E
:1014C000009000BF00BF20200190012002900390F7
:1014D0000320049001A91548FFF754FD4FF48060E4
:1014E00001900220029000200390032004900E201F
:1014F000059001A90E48FFF745FD4FF40C600190DF
:1015000001A90C48FFF73EFD4FF47E40019001A970
:101510000948FFF737FD40F2F760019001A907483D
:10152000FFF730FD06B010BDE44402580004025835
:101530000014025800180258001C025800200258DB
:101540002DE9F04104460E461746984600BF94F830
:10155000A000012802D10220BDE8F081012084F81A
:10156000A00000BF022084F8A10008EB880000EB77
:10157000C80104F1380000EB81052E60A86A3044F0
:101580006860AF60E86A3844E86042462946204611
:1015900005F042FE01202168486284F8A10000BFE6
:1015A000002084F8A00000BF00BFD5E72DE9F0417E
:1015B00004460E461746984600BF94F8A00001283E
:1015C00002D10220BDE8F081012084F8A00000BF14
:1015D000022084F8A10008EB880000EBC80104F1A8
:1015E000380000EB8105286830446860A8683844FA
:1015F000E860AE62EF6242462946204605F00CFEE6
:1016000001202168486284F8A10000BF002084F80E
:10161000A00000BF00BFD5E74178154A11600178EE
:10162000F9B1121D41681160017B0907C27A41EAD4
:101630000261827A41EAC241427B41EA8241827B75
:1016400041EA4241C27B41EA0241427A41EA022137
:10165000027A41EA420102781143054A08321160D8
:1016600005E00021024A121D1160121D1160704731
:1016700098ED00E0704701460846002809DB00F0BD
:101680001F0301229A4043099B0003F1E023C3F8A2
:10169000002100BF70472DE9F05F80460D461646D9
:1016A00000270AF007FA074639462A46334601F072
:1016B0000700C0F1070ABAF1040F02D94FF0040A7B
:1016C00001E0C0F1070AD14600F1040ABAF1070FA0
:1016D00002D24FF0000A01E0A0F1030AD4464FF015
:1016E000010A0AFA09FAAAF1010A0AEA020A0AFA3E
:1016F0000CFA4FF0010B0BFA0CFBABF1010B0BEAF0
:10170000030B4AEA0B04214640460AF0DBF9BDE828
:10171000F09F000000BF00F00702064B19684FF66B
:10172000FF031940044B0B4343EA0221014B1960AC
:1017300000BF70470CED00E00000FA0510B501F0A5
:101740000FFA0949096801F470614FF4807292FA46
:10175000A2F2B2FA82F2D140044A515CC840044974
:1017600008600846006810BD1844025866BF0008AB
:101770000000002410B501F0ABF90749096801F039
:101780007001102292FAA2F2B2FA82F2D140034A18
:10179000515CC84010BD00002044025866BF0008DC
:1017A00070B5014600220120002300249FED811A1C
:1017B000B0EE410A9FED7F1AF0EE410A7E4D2D6892
:1017C00005F003027C4D2D68C5F305307A4D2D1DC3
:1017D0002D6805F01003784D14352D68C5F3CC0540
:1017E00015FB03F501EE105AB8EE411AB0EE410AAE
:1017F00022B1012A4DD0022A7DD169E06E4D283DEB
:101800002D68C5F340152DB36B4D283D2D68C5F3EC
:10181000C1066A4D25FA06F4B4FBF0F501EE105A44
:10182000F8EE411A9FED661A80EE012A624D1035DE
:101830002D68C5F3080501EE105AB8EE411A32EED4
:10184000011AB7EE002A31EE021A21EE811AF0EEEB
:10185000410A1DE0594DB5FBF0F501EE105AF8EEC6
:10186000411A9FED571A80EE012A534D10352D680D
:10187000C5F3080501EE105AB8EE411A32EE011A0E
:10188000B7EE002A31EE021A21EE811AF0EE410A7B
:101890005EE04C4DB5FBF0F501EE105AB8EE412A72
:1018A0009FED471AC0EE011A434D10352D68C5F360
:1018B000080501EE105AB8EE411A31EE811AF7EE22
:1018C000001A31EE211A22EE011AF0EE410A3FE031
:1018D0003D4DB5FBF0F501EE105AF8EE411A9FEDC3
:1018E000381A80EE012A344D10352D68C5F30805ED
:1018F00001EE105A00E00CE0B8EE411A32EE011A87
:10190000B7EE002A31EE021A21EE811AF0EE410AFA
:101910001EE02C4DB5FBF0F501EE105AB8EE412A51
:101920009FED271AC0EE011A234D10352D68C5F31F
:10193000080501EE105AB8EE411A31EE811AF7EEA1
:10194000001A31EE211A22EE011AF0EE410A00BF10
:1019500000BF194D10352D68C5F346256D1C01EEED
:10196000105AB8EE411AC0EE811ABCEEE11A81EDB0
:10197000001A114D10352D68C5F306456D1C01EE9A
:10198000105AB8EE411AC0EE811ABCEEE11A81ED90
:10199000011A094D10352D68C5F306656D1C01EE61
:1019A000105AB8EE411AC0EE811ABCEEE11A81ED70
:1019B000021A70BD00000000284402580090D003B5
:1019C0000000004600093D0040787D0170B50146E9
:1019D00000220120002300249FED811AB0EE410A6D
:1019E0009FED7F1AF0EE410A7E4D2D6805F003024F
:1019F0007C4D2D68C5F305507A4D2D1D2D6805F4DD
:101A00008073784D1C352D68C5F3CC0515FB03F5A7
:101A100001EE105AB8EE411AB0EE410A22B1012A85
:101A20004DD0022A7DD169E06E4D283D2D68C5F369
:101A300040152DB36B4D283D2D68C5F3C1066A4D89
:101A400025FA06F4B4FBF0F501EE105AF8EE411A4F
:101A50009FED661A80EE012A624D18352D68C5F398
:101A6000080501EE105AB8EE411A32EE011AB7EE2F
:101A7000002A31EE021A21EE811AF0EE410A1DE031
:101A8000594DB5FBF0F501EE105AF8EE411A9FEDF5
:101A9000571A80EE012A534D18352D68C5F30805F5
:101AA00001EE105AB8EE411A32EE011AB7EE002AD2
:101AB00031EE021A21EE811AF0EE410A5EE04C4D41
:101AC000B5FBF0F501EE105AB8EE412A9FED471A2A
:101AD000C0EE011A434D18352D68C5F3080501EE17
:101AE000105AB8EE411A31EE811AF7EE001A31EEB3
:101AF000211A22EE011AF0EE410A3FE03D4DB5FBFE
:101B0000F0F501EE105AF8EE411A9FED381A80EE0A
:101B1000012A344D18352D68C5F3080501EE105A19
:101B200000E00CE0B8EE411A32EE011AB7EE002ADE
:101B300031EE021A21EE811AF0EE410A1EE02C4D20
:101B4000B5FBF0F501EE105AB8EE412A9FED271AC9
:101B5000C0EE011A234D18352D68C5F3080501EEB6
:101B6000105AB8EE411A31EE811AF7EE001A31EE32
:101B7000211A22EE011AF0EE410A00BF00BF194DF2
:101B800018352D68C5F346256D1C01EE105AB8EEC8
:101B9000411AC0EE811ABCEEE11A81ED001A114D16
:101BA00018352D68C5F306456D1C01EE105AB8EEC8
:101BB000411AC0EE811ABCEEE11A81ED011A094DFD
:101BC00018352D68C5F306656D1C01EE105AB8EE88
:101BD000411AC0EE811ABCEEE11A81ED021A70BD05
:101BE00000000000284402580090D0030000004686
:101BF00000093D0040787D012DE9F04104464FF099
:101C00000008002700250026206800F0006000285A
:101C10003AD0606E48B1B0F5801F0DD0B0F5001F0E
:101C200015D0B0F5401F1FD11DE0FB48006840F4FF
:101C30000030F949086019E0F748006840F40010E6
:101C4000F5490860201D08F0BFFD05460EE0F2488A
:101C5000006840F08070F049086004F1240008F04A
:101C60002FFE054602E001E0012500BF00BF55B987
:101C7000E9482430006820F44010616E0843E649CA
:101C80002431086000E02E43208800F48070A8B35F
:101C9000606D052824D2DFE800F0030A1521220038
:101CA000DD48006840F40030DB4908601AE0DA489B
:101CB000006840F40020D8490860201D08F084FD29
:101CC00005460FE0D448006840F48000D24908601F
:101CD00004F1240008F0F4FD054603E002E001E011
:101CE000012500BF00BF55B9CB482430006820F063
:101CF0000700616D0843C8492431086000E02E43A5
:101D0000208800F40070D8B3A06D80281CD003DCBC
:101D100040B1402826D10CE0C02821D0B0F5807F0A
:101D200020D11EE0BC48006840F40030BA49086089
:101D30001AE0B948006840F40020B7490860201D47
:101D400008F042FD05460FE0B348006840F480000B
:101D5000B149086004F1240008F0B2FD054603E033
:101D600002E001E0012500BF00BF55B9AA482430B8
:101D7000006820F4E070A16D0843A7492431086091
:101D800000E02E43208800F4806078B3D4F8A400EB
:101D9000B0F5800F1ED004DC50B1B0F5001F28D183
:101DA0000DE0B0F5C00F22D0B0F5000F21D11FE03B
:101DB0009948006840F40030974908601BE0964855
:101DC000006840F4002094490860201D08F0FCFCE5
:101DD000054610E09048006840F480008E49086095
:101DE00004F1240008F06CFD054604E012E002E076
:101DF00001E0012500BF00BF5DB987482C300068B5
:101E000020F46000D4F8A410084383492C31086002
:101E100000E02E43208800F4006078B3D4F8A800D6
:101E2000B0F1007F1ED004DC50B1B0F1807F28D12A
:101E30000DE0B0F1407F22D0B0F1806F21D11FE0E2
:101E40007548006840F40030734908601BE0724830
:101E5000006840F4002070490860201D08F0B4FCC0
:101E6000054610E06C48006840F480006A4908604C
:101E700004F1240008F024FD054604E012E002E02D
:101E800001E0012500BF00BF5DB963482C30006848
:101E900020F0E060D4F8A81008435F492C310860B6
:101EA00000E02E43206800F0007050B3A06CC8B171
:101EB000102804D0202809D0302814D111E0564829
:101EC000006840F40030544908600EE05248006851
:101ED00040F4001050490860201D08F075FC0546CC
:101EE00003E002E001E0012500BF00BF55B94A4808
:101EF0002030006820F03000A16C084346492031B2
:101F0000086000E02E43208800F4805078B3E06D34
:101F1000B0F5005F1ED004DC50B1B0F5805F28D171
:101F20000DE0B0F5405F21D0B0F5804F21D11FE02A
:101F30003948006840F40030374908601BE03648F3
:101F4000006840F4002034490860201D08F03CFC83
:101F5000054610E03048006840F480002E490860D3
:101F600004F1240008F0ACFC054604E003E010E0B6
:101F700001E0012500BF00BF55B9274824300068A3
:101F800020F4E040E16D084323492431086000E07B
:101F90002E43208800F40050E0B3206EB0F5403F9F
:101FA00027D007DC68B1B0F5803F0BD0B0F5003F1B
:101FB00022D112E0B0F5802F1CD0B0F5A02F1BD19C
:101FC00019E01BE01448006840F4801012490860D2
:101FD000201D08F0F9FB054610E00F48006840F4AA
:101FE00000000D49086004F1240008F069FC054672
:101FF00004E003E002E001E0012500BF00BF6DB98D
:1020000005482430006820F4E020216E084302498E
:102010002431086003E000002C4402582E4320883D
:1020200000F4804078B3D4F8AC00B0F1405F27D022
:1020300007DC68B1B0F1805F0BD0B0F1005F23D155
:1020400012E0B0F1804F1CD0B0F1A04F1CD119E0CC
:102050001CE0FA48006840F48010F8490860201D30
:1020600008F0B2FB054611E0F448006840F40000B7
:10207000F249086004F1240008F022FC054605E05E
:1020800004E003E002E010E0012500BF00BF5DB9FD
:10209000EA482C30006820F0E040D4F8AC10084347
:1020A000E6492C31086000E02E43208800F400400F
:1020B00048B3E06EC0B1B0F1805F03D0B0F1005F13
:1020C00013D106E0DD48006840F40030DB490860C9
:1020D0000DE0DA48006840F48010D8490860201DFF
:1020E00008F072FB054602E001E0012500BF00BFD9
:1020F00055B9D2482430006820F04050E16E0843C2
:10210000CE492431086000E02E43206800F0807042
:1021100050B3606CC8B1012804D0022809D003284C
:1021200014D111E0C548006840F40030C34908608C
:102130000EE0C248006840F40010C0490860201D4D
:1021400008F042FB054603E002E001E0012500BF84
:1021500000BF55B9B9482030006820F00300616C19
:102160000843B6492031086000E02E43206800F49F
:102170008000E8B3B248006840F48070B04908605D
:10218000FFF738F8074606E0FFF734F8C01B64286D
:1021900001D9032505E0AA48006800F480700028F2
:1021A000F2D000BF9DBBA5484430006800F44070E9
:1021B000B4F8B01001F44071884214D09F48443004
:1021C000006820F440789D484430006840F4803036
:1021D0009A49443108600846006820F4803008605D
:1021E0000846C0F80080D4F8B000B0F5807F00E069
:1021F00045E015D1FEF7FEFF074609E0FEF7FAFFBE
:10220000C01B41F28831884202D9032507E035E03E
:102210008A4844300068C0F340000028EED000BF78
:1022200055BB00BFB4F8B00000F44070B0F5407F7B
:102230000ED182481C38006820F47C51814AD4F8C1
:10224000B000104041EA10107C491C39086007E0DA
:102250007A481C38006820F47C5078491C390860A2
:10226000764844300068B4F8B010C1F30B0108435D
:1022700072494431086002E02E4300E02E4320788A
:1022800000F00100B8B3A06F182823D005DC48B1D6
:10229000082808D0102820D110E020281BD028289A
:1022A0001BD119E01BE06548006840F480106349C9
:1022B0000860201D08F088FA054610E05F480068B5
:1022C00040F400005D49086004F1240008F0F8FAC9
:1022D000054604E003E002E001E0012500BF00BF85
:1022E00055B956482830006820F03800A16F0843DF
:1022F00052492831086000E02E43207800F00200A7
:1023000080B3606F06281FD2DFE800F003040F1BC4
:102310001C1D1BE04948006840F4801047490860D4
:10232000201D08F051FA054610E04448006840F4CA
:1023300000004249086004F1240008F0C1FA054693
:1023400004E003E002E001E0012500BF00BF55B951
:102350003A482830006820F00700616F0843374989
:102360002831086000E02E43207800F0040090B38C
:10237000D4F8900006281FD2DFE800F003040F1BFA
:102380001C1D1BE02D48006840F480102B4908609C
:10239000201D08F019FA054610E02848006840F4AE
:1023A00000002649086004F1240008F089FA054677
:1023B00004E003E002E001E0012500BF00BF5DB9D9
:1023C0001E482C30006820F00700D4F89010084315
:1023D0001A492C31086000E02E43207800F02000DC
:1023E00090B3D4F88C00B0F1405F2ED007DC68B118
:1023F000B0F1805F0BD0B0F1005F29D112E0B0F1F5
:10240000804F23D0B0F1A04F22D120E022E00B4832
:10241000006840F4002009490860201D08F0D4F944
:10242000054617E00548006840F0807003490860E1
:1024300004F1240008F044FA05460BE02C4402584D
:1024400000480258FFFCFF0F11E003E002E001E04A
:10245000012500BF00BF4DB9FE48006820F0E040F4
:10246000D4F88C100843FB49086000E02E43207824
:1024700000F0400080B3D4F89800B0F5406F2CD045
:1024800007DC68B1B0F5806F0BD0B0F5006F27D1D5
:1024900014E0B0F5805F21D0B0F5A05F20D11EE040
:1024A00020E0EC482838006840F40020E949283949
:1024B0000860201D08F088F9054613E0E548283833
:1024C000006840F08070E3492839086004F1240076
:1024D00008F0F6F9054605E013E003E002E001E04C
:1024E000012500BF00BF5DB9DA48001D006820F477
:1024F000E050D4F898100843D649091D086000E060
:102500002E43207800F0800080B3D4F89C00B0F512
:10251000C04F2CD007DC68B1B0F5005F0BD0B0F530
:10252000804F27D114E0B0F5004F21D0B0F5204FF7
:1025300020D11EE020E0C7482838006840F4002081
:10254000C44928390860201D08F03EF9054613E00B
:10255000C0482838006840F08070BE4928390860BB
:1025600004F1240008F0ACF9054605E013E003E0AF
:1025700002E001E0012500BF00BF5DB9B548001DC4
:10258000006820F46040D4F89C100843B149091D4C
:10259000086000E02E43207800F00800D0B1D4F8A5
:1025A0008000B0F5805F0CD104F1240008F088F9B8
:1025B000A8482838006840F08070A649283908608B
:1025C00008E0A448006820F44050D4F88010084384
:1025D000A0490860207800F01000E0B1D4F8940021
:1025E000B0F5807F0CD104F1240008F069F9994816
:1025F0002838006840F080709649283908600AE061
:102600009448001D006820F44070D4F894100843EA
:102610009049091D0860206800F40020A0B3D4F898
:10262000A00030B1B0F5803F10D0B0F5003F1CD114
:102630001AE088482838006840F400208549283985
:102640000860201D08F0C0F8054610E081482838D1
:10265000006840F080707F492839086004F1240048
:1026600008F02EF9054602E001E0012500BF00BF99
:102670005DB97848001D006820F44030D4F8A010FF
:1026800008437449091D086000E02E43206800F4E7
:10269000802080B3D4F88400B0F5801F06D0B0F558
:1026A000001F0CD0B0F5401F18D116E0694828383B
:1026B000006840F4003067492839086010E0654838
:1026C0002838006840F4000062492839086004F1A5
:1026D000240008F0F5F8054602E001E0012500BFFE
:1026E00000BF4DB95B48006820F44010D4F8841056
:1026F00008435849086000E02E43206800F4803009
:1027000048B3E06C18B1B0F5803F16D108E05148ED
:102710002838006840F400304E49283908600EE03F
:102720004C482838006840F400104A4928390860AD
:10273000201D08F049F8054601E0012500BF00BF53
:1027400055B944480838006820F48030E16C0843EB
:1027500040490839086000E02E43206800F000502E
:1027600060B13C482838006840F080703949283909
:10277000086004F1240008F0A3F80643206800F480
:10278000003018B3E06FA0B1B0F5807F06D0B0F58F
:10279000007F0CD0B0F5407F0CD109E02D482838DF
:1027A000006840F400302B492839086004E003E059
:1027B00002E001E0012500BF00BF45B925480068DF
:1027C00020F44070E16F08432249086000E02E4386
:1027D000206800F4801048B11E48001F006820F0F7
:1027E0000040216F08431B49091F0860206800F062
:1027F000805050B117484438006820F48040D4F825
:10280000B4100843134944390860206800F40010EC
:1028100048B11048001F006820F08070A16E084386
:102820000C49091F0860206800F0804088B100BF93
:1028300008484438006820F40040064944390860DC
:1028400008460068D4F8B8100843024944390860C3
:1028500000BF01E054440258206800F0004038B145
:102860000648006820F04050216D08430349086085
:1028700016B90020BDE8F0810120FBE74C44025866
:1028800070B504460D4600268D48006800F007002C
:10289000A8420ED28A48006820F0070028438849E1
:1028A00008600846006800F00700A84201D0012037
:1028B00070BD207800F00200022807D1814800682E
:1028C00020F00F00E16808437E490860207800F09E
:1028D0000100002851D07B48006820F47060A16896
:1028E0000843784908606068022807D1754818389D
:1028F0000068C0F34040F8B90120D9E760680328B8
:1029000007D1704818380068C0F34060A0B90120B2
:10291000CEE76068012807D16A4818380068C0F31C
:10292000002048B90120C3E7664818380068C0F3A2
:10293000800008B90120BBE762480838006820F031
:102940000700616808435F4908390860FEF752FCD8
:1029500006466068022811D108E0FEF74BFC801B98
:1029600041F28831884201D90320A1E7554808384F
:10297000006800F038001028EFD13AE060680328C2
:1029800011D108E0FEF736FC801B41F28831884205
:1029900001D903208CE74B480838006800F0380064
:1029A0001828EFD125E06068012811D108E0FEF772
:1029B00021FC801B41F28831884201D9032077E74E
:1029C00040480838006800F038000828EFD110E0CF
:1029D00008E0FEF70FFC801B41F28831884201D9E4
:1029E000032065E737480838006800F03800002801
:1029F000EFD13348006800F00700A8420ED93048F4
:102A0000006820F0070028432D4908600846006848
:102A100000F00700A84201D0012049E7207800F02B
:102A20000400042807D12748006820F070002169BD
:102A3000084324490860207800F00800082809D1DC
:102A40002048001D006820F07000616908431D499E
:102A5000091D0860207800F01000102809D11948DD
:102A6000001D006820F4E060A16908431549091DB4
:102A70000860207800F02000202809D11148083093
:102A8000006820F07000E16908430E4908310860D1
:102A900000F066F80B49096801F470614FF4807228
:102AA00092FAA2F2B2FA82F2D140074A515CC840CF
:102AB000064908600F20FEF7BDFB0020F8E6000085
:102AC000002000521844025866BF0008000000248D
:102AD00010B5FEF733FE0949096801F00F01012224
:102AE00092FAA2F2B2FA82F2D140054A515CC84091
:102AF000044908600846006810BD000018440258E8
:102B000066BF00080400002410B5FFF7E1FF074985
:102B1000096801F07001102292FAA2F2B2FA82F270
:102B2000D140034A515CC84010BD00001C4402580B
:102B300066BF000810B5FFF7CBFF0749096801F42D
:102B4000E0614FF4807292FAA2F2B2FA82F2D140BE
:102B5000024A515CC84010BD1C44025866BF0008C0
:102B600070B5012500EE905A0022012100230024B7
:102B7000DFED861AB0EE610ADFED841AB0EE611A5D
:102B80000020834D2D6805F0380535B1082D15D08E
:102B9000102D15D0182D7CD114E07D4D103D2D68E1
:102BA000C5F3401545B17A4D103D2D68C5F3C106FA
:102BB000784D25FA06F000E07648E5E07648E3E057
:102BC0007648E1E0724D18352D6805F00302704D2E
:102BD00018352D68C5F305116D4D1C352D6805F0B0
:102BE00001036B4D24352D68C5F3CC0515FB03F5AA
:102BF00001EE905AF8EE611AB0EE610A22B1012A94
:102C00004FD0022A7DD16BE0614D103D2D68C5F398
:102C100040152DB35E4D103D2D68C5F3C1065D4DC9
:102C200025FA06F4B4FBF1F501EE905AB8EE612AEC
:102C3000DFED5B1AC0EE212A554D20352D68C5F316
:102C4000080501EE905AF8EE611A72EEA11AF7EE3D
:102C5000002A71EEA21A62EE211AB0EE611A1FE08C
:102C60004C4DB5FBF1F501EE905AB8EE612ADFED5F
:102C70004C1AC0EE212A464D20352D68C5F30805B3
:102C800001EE905AF8EE611A72EEA11AF7EE002AE0
:102C900000E077E071EEA21A62EE211AB0EE611A3E
:102CA0005EE03D4DB5FBF1F501EE905AB8EE612ABC
:102CB000DFED3B1AC0EE212A354D20352D68C5F3D6
:102CC000080501EE905AF8EE611A72EEA11AF7EEBD
:102CD000002A71EEA21A62EE211AB0EE611A3FE0EC
:102CE0002E4DB5FBF1F501EE905AB8EE612ADFEDFD
:102CF0002C1AC0EE212A264D20352D68C5F3080573
:102D000000E00EE001EE905AF8EE611A72EEA11AA0
:102D1000F7EE002A71EEA21A62EE211AB0EE611AE5
:102D20001EE01D4DB5FBF1F501EE905AF8EE612A5B
:102D3000DFED1B1A80EE212A154D20352D68C5F3D5
:102D4000080501EE905AF8EE611A72EE211AB7EEFC
:102D5000002A71EE821A62EEA11AB0EE611A00BF6B
:102D600000BF0B4D20352D68C5F346256D1C00EEC8
:102D7000905AF8EE601A81EE212AFCEEC21A11EE8A
:102D8000900A01E0044800BF00BF70BD00000000D1
:102D9000104402580090D00300093D0040787D01A6
:102DA0000000004670B504460025207800F00100C0
:102DB000002872D0F948006800F0380010280CD0C4
:102DC000F648006800F03800182812D1F34818308F
:102DD000006800F0030002280BD1F04810380068AA
:102DE000C0F3404000286DD0606800286AD10120FF
:102DF00070BD00BF6068B0F5803F08D1E74810386B
:102E0000006840F48030E549103908602EE06068C1
:102E100068B9E2481038006820F48030DF49103982
:102E200008600846006820F4802008601EE06068A2
:102E3000B0F5A02F0DD1D9481038006840F480209B
:102E4000D649103908600846006840F480300860B0
:102E50000CE0D2481038006820F48030CF49103997
:102E600008600846006820F48020086000BF6068A1
:102E7000A0B1FEF7BFF9054608E0FEF7BBF9401B1D
:102E800041F28831884201D90320B1E7C3481038A4
:102E90000068C0F340400028EFD013E0FEF7AAF925
:102EA000054608E0FEF7A6F9401B41F2883188424A
:102EB00001D903209CE7B94810380068C0F34040AE
:102EC0000028EFD1207800F00200022847D1B34853
:102ED000006800F0380058B1B048006800F03800D1
:102EE00018283ED1AD481830006800F00300B8BB88
:102EF000AA4810380068C0F3800018B1E06808B92B
:102F0000012075E7A5481038006820F01900E16835
:102F10000843A24910390860FEF76CF9054606E03F
:102F2000FEF768F9401B022801D9032060E79B489F
:102F300010380068C0F380000028F1D097480C38A2
:102F4000006820F47C304FF47C3292FAA2F2B2FA9C
:102F500082F221699140084390490C3908604AE0A7
:102F6000FFE7E06868B38D481038006820F019006A
:102F7000E1680843894910390860FEF73BF90546C6
:102F800006E0FEF737F9401B022801D903202FE79E
:102F9000824810380068C0F380000028F1D07F48D4
:102FA0000C38006820F47C304FF47C3292FAA2F2A4
:102FB000B2FA82F221699140084378490C390860DD
:102FC00019E076481038006820F001007349103984
:102FD0000860FEF70FF9054606E0FEF70BF9401B07
:102FE000022801D9032003E76C4810380068C0F3B9
:102FF00080000028F1D1207800F01000102877D14F
:103000006648006800F0380008280CD06348006863
:1030100000F03800182823D160481830006800F00C
:10302000030001281CD15D4810380068C0F300205F
:1030300020B1E069802801D00120D9E657480C383A
:10304000006820F0F8404FF0F84292FAA2F2B2FA8B
:1030500082F2216A9140084350490C39086047E0E8
:10306000E06958B34D481038006840F080004B4983
:1030700010390860FEF7BEF8054606E0FEF7BAF81C
:10308000401B022801D90320B2E6444810380068EA
:10309000C0F300200028F1D040480C38006820F030
:1030A000F8404FF0F84292FAA2F2B2FA82F2216AA4
:1030B0009140084339490C39086019E03748103805
:1030C000006820F08000354910390860FEF792F85A
:1030D000054606E0FEF78EF8401B022801D90320C2
:1030E00086E62E4810380068C0F300200028F1D191
:1030F000207800F00800082836D16069D0B1274850
:103100006430006840F00100244964310860FEF733
:1031100071F8054606E0FEF76DF8401B022801D95C
:10312000032065E61D4864300068C0F340000028B5
:10313000F1D019E019486430006820F00100174907
:1031400064310860FEF756F8054606E0FEF752F8CF
:10315000401B022801D903204AE610486430006869
:10316000C0F340000028F1D1207800F02000202892
:1031700034D1A069D8B109481038006840F48050B3
:10318000064910390860FEF735F8054608E0FEF7F5
:1031900031F8401B022803D9032029E610440258C5
:1031A000AF480068C0F340300028F0D016E0AC48CB
:1031B000006820F48050AA490860FEF71BF8054615
:1031C00006E0FEF717F8401B022801D903200FE69E
:1031D000A3480068C0F340300028F2D1207800F006
:1031E000040004287DD19F48006840F480709D4908
:1031F0000860FDF7FFFF054606E0FDF7FBFF401BFB
:10320000642801D90320F3E59648006800F4807033
:103210000028F2D000BFA068012808D19048703083
:10322000006840F001008E49703108602DE0A06810
:1032300068B98B487030006820F00100884970310F
:1032400008600846006820F0040008601DE0A068DF
:1032500005280DD182487030006840F00400804994
:10326000703108600846006840F0010008600CE01A
:103270007B487030006820F00100794970310860A7
:103280000846006820F00400086000BFA068A0B1F4
:10329000FDF7B0FF054608E0FDF7ACFF401B41F22B
:1032A0008831884201D90320A2E56D48703000685A
:1032B000C0F340000028EFD013E0FDF79BFF054668
:1032C00008E0FDF797FF401B41F28831884201D9A1
:1032D00003208DE5624870300068C0F3400000288C
:1032E000EFD1606A00287CD05D481030006800F0A3
:1032F0003800182876D0606A022874D158480068CF
:1033000020F0807056490860FDF774FF054606E01E
:10331000FDF770FF401B022801D9032068E55048E3
:103320000068C0F340600028F2D100BFD4E90A1061
:1033300041EA00104A492831096840F2F3329143CA
:103340000843474928310860208E401EC0F308001A
:10335000616B491E4FF47E4202EA41210843218FEE
:10336000491ED20102EA014108433C21095D491E80
:10337000120202EA0161084339493031086000BF96
:10338000081D00684FF6F87188434FF6F87292FAFC
:10339000A2F2B2FA82F2A16C914008433049343172
:1033A00008602F482C30006820F00C00216C084386
:1033B0002B492C3108600846006820F00200616C3F
:1033C000084327492C3108600846006840F48030E3
:1033D00008600846006840F400300860084600684D
:1033E00002E03BE038E01FE040F48020086008463F
:1033F000006840F0010008601948006840F08070E3
:1034000017490860FDF7F6FE054606E0FDF7F2FEF7
:10341000401B022801D90320EAE411480068C0F3E8
:1034200040600028F2D019E00D48006820F080705C
:103430000B490860FDF7DEFE054606E0FDF7DAFE03
:10344000401B022801D90320D2E405480068C0F3DC
:1034500040600028F2D101E00120C9E40020C7E467
:10346000004402580048025870B504460D460CB995
:10347000012070BD94F82C0028B9002084F82D009C
:10348000204600F019F8022084F82C00211D206845
:10349000FDF74FFC2946D4E90002FDF79FFC0548E3
:1034A000006840F0004003490860012084F82C00C7
:1034B0000020DEE70040005210B5B6B0044600BF61
:1034C0004D48006840F002004B490860084600681B
:1034D00000F00200019000BF00BF00BF4648203846
:1034E000006840F48050444920390860084600686C
:1034F00000F48050019000BF00BF00BF3E48143868
:10350000006840F004003C4914390860084600682F
:1035100000F00400019000BF00BF00BF0846006833
:1035200040F0080008600846006800F008000190BC
:1035300000BF00BF00BF0846006840F010000860F0
:103540000846006800F01000019000BF00BF00BFF7
:103550000846006840F0200008600846006800F057
:103560002000019000BF00BF00BF0846006840F087
:10357000400008600846006800F04000019000BF6D
:1035800000BF4FF08070029002201390192003902A
:103590004FF4007104910221079102A8FEF72CFB61
:1035A0000D2031900220329001203390032034907E
:1035B0000C20359031A91148FDF7E4FC4CF2037062
:1035C000319031A90E48FDF7DDFC4FF68370319044
:1035D00031A90C48FDF7D6FC4FF63F00319031A9D8
:1035E0000948FDF7CFFC48F23710319031A9074860
:1035F000FDF7C8FC36B010BDF4440258000802586C
:10360000000C02580010025800140258001802580A
:1036100070B504460D4694F82C00022800D170BD08
:10362000022084F82C0029462068FDF7BCFB01200D
:1036300084F82C000020F2E770B504460D461646CB
:1036400094F82C00022800D170BD022084F82C00D0
:10365000324629462068FDF7ADFB2868022803D1D1
:10366000052084F82C0002E0012084F82C000020C2
:10367000EAE7000070B504460E4615460CB9012075
:1036800070BD94F8450028B9002084F84400204615
:1036900000F024F804F108012068FDF7DBFA314658
:1036A000A2682068FDF716FB2946E36AD4E9010207
:1036B000FDF7ACFAA168206850F8210040F0010045
:1036C000A268216841F822000348006840F00040E9
:1036D000014908600020D3E70040005210B586B0D1
:1036E000044600BF2048006840F480501E4908602E
:1036F0000846006800F48050009000BF00BF00BF83
:1037000019480C30006840F0080017490C31086077
:103710000846006800F00800009000BF00BF00BF2E
:103720000846006840F0100008600846006800F095
:103730001000009000BF00BF4EF2B3700190022055
:10374000029001200390032004900C20059001A911
:103750000648FDF717FC4FF68070019001A9044858
:10376000FDF710FC06B010BDD4440258000C0258FE
:1037700000100258042808D14FF0E021096941F0F7
:1037800004014FF0E022116107E04FF0E0210969E8
:1037900021F004014FF0E0221161704770B504463A
:1037A0002546681EB0F1807F01D301200FE0681E1E
:1037B0004FF0E02148610F214FF0FF3008F082F90F
:1037C00000204FF0E021886107200861002070BDD3
:1037D0007047704701460022002391F8792091F844
:1037E0007A3042EA030070472DE9F0410446206830
:1037F000C569206807682068866805F00F08B8F179
:10380000000F0DD105F0200050B107F0200010B9D5
:1038100006F0805020B1204607F08FFBBDE8F08114
:10382000B8F1000F72D05D48304018B907F49070BD
:1038300000287AD005F0010048B107F4807030B15B
:10384000012021680862E06F40F00100E06705F0A8
:10385000020048B106F0010030B102202168086280
:10386000E06F40F00400E06705F0040048B106F0A6
:10387000010030B1042021680862E06F40F00200CE
:10388000E06705F0080078B107F0200028B906F0DD
:10389000805010B906F0010030B10820216808629C
:1038A000E06F40F00800E067E06F70B305F02000C3
:1038B00040B107F0200010B906F0805010B120464A
:1038C00007F03BFBE06F00F0080020B9206880683B
:1038D00000F0400018B3204607F00FFB2068806816
:1038E00000F04000B8B12068806820F040002168F6
:1038F0008860606F58B12A48616F0865606FFDF796
:10390000BBFA10B1606F016D88470DE00DE02046F5
:10391000FFF75FFF08E02046FFF75BFF04E020466B
:10392000FFF757FF0020E06778E705F4801078B1D3
:1039300006F4800060B14FF48010216808622020F6
:1039400084F8790084F87A002046FFF741FF65E7A4
:1039500005F0800048B107F0800010B906F40000BF
:1039600018B1204608F000F858E705F0400030B1E3
:1039700007F0400018B1204607F0CFFA4EE705F4F3
:10398000000040B107F0804028B12068006820F0B6
:1039900080402168086000BF40E70000010000107F
:1039A000E3AE000810B504460CB9012010BDA069B3
:1039B00000B100E000BF94F8790028B9002084F835
:1039C0007800204600F02AF8242084F87900206846
:1039D000006820F0010021680860204607F0F2FA34
:1039E000012800D1E2E7606B10B1204607F0CAF968
:1039F0002068406820F49040216848602068806812
:103A000020F02A00216888602068006840F00100EA
:103A100021680860204607F02AFAC7E710B586B08B
:103A200004462149206888423BD100BF1F480068F6
:103A300040F001001D4908600846006800F00100E0
:103A4000009000BF00BF00BF18481030006840F071
:103A500010001649103108600846006800F0100098
:103A6000009000BF00BF4FF4007001900220029050
:103A700001200390022004900720059001A90C4822
:103A8000FDF780FA4FF48060019001A90848FDF726
:103A900079FA2520FDF7EFFD032211462520FDF7D9
:103AA000FAFD06B010BD000000100140E0440258CD
:103AB0000000025810B5034693F87A00202867D119
:103AC00001B10AB9012010BD00BF93F878000128A8
:103AD00001D10220F7E7012083F8780000BF596682
:103AE000A3F86820A3F86A2000BF9868B0F5805F4B
:103AF0000AD1186920B940F2FF10A3F86C001CE04D
:103B0000FF20A3F86C0018E0986848B9186918B944
:103B1000FF20A3F86C0010E07F20A3F86C000CE0FD
:103B20009868B0F1805F08D1186918B97F20A3F8B0
:103B30006C0002E03F20A3F86C0000BF0020D867B3
:103B4000222083F87A0000BF002083F8780000BFAD
:103B50001868806840F001001C68A0601868006860
:103B600000F0005060B11868006840F480701C6874
:103B700020601868806840F080501C68A06005E0F4
:103B80001868006840F490701C68206000209AE774
:103B9000022098E71D4A0168914236D11C490988E4
:103BA00001F4004189BB1A49098801F4804171B1CF
:103BB000184909780A2903D00021154A118024E008
:103BC0001349098841F40041114A11801DE011494F
:103BD00009780D2906D10E49098841F480410C4A23
:103BE000118012E00B490978094A1288C2F30D02CC
:103BF000094B995406490988491C054A1180114608
:103C00000988C72901DD002111807047001001409B
:103C100014000024160000247C0F0024704700BF0D
:103C2000FEE7000070B5044600260D4805880D48E3
:103C3000006818B1204602F027FF0FE008484088CE
:103C400045430021084602F05BFD02F0DFFE00263E
:103C500002E005490C80761CAE42FAD370BD00002C
:103C600010110024281200240000086010B504463A
:103C70005C4884715C48006850B1204602F02EFF19
:103C80005948C08A574908805748008B488010BD62
:103C9000002C51D1F020534908804FF4A070488087
:103CA0000846808849F24131884205D04D488088D5
:103CB00045F21031884214D12C204A4908812A202B
:103CC00048812B2088810846808845F2103188423F
:103CD00006D14FF4A070434908804FF4F07048803B
:103CE0007BE04048808845F21051884210D14FF463
:103CF00030503C4908814FF4285048814FF42C50F3
:103D000088814FF4F07008804FF44870488064E078
:103D10003448808841F6631188425ED12C203149B5
:103D200008812B2048812A2088814FF4F070088078
:103D30004FF44870488050E04FF4A0702949088043
:103D4000F02048800846808849F24131884205D0F9
:103D50002448808845F21031884207D12C2021491F
:103D600008812A2048812B20888129E01D488088ED
:103D700045F21051884210D14FF430501949088152
:103D80004FF4285048814FF42C5088814FF44870EC
:103D900008804FF4F070488012E01248808841F6A5
:103DA000631188420CD12C200E4908812A204881B9
:103DB0002B2088814FF4487008804FF4F0704880C1
:103DC0000848808845F21031884206D14FF4F070DF
:103DD000044908804FF4A0704880002002F056FB90
:103DE00000BF54E7101100242812002470B50446C7
:103DF0000D4616464348006828B1324629462046FB
:103E000002F082FE70BD4048808849F2413188420C
:103E100005D03D48808845F21031884214D13A4996
:103E2000488902F0E7FD201202F0D8FDE0B202F06E
:103E3000D5FD3549888902F0DDFD281202F0CEFD5E
:103E4000E8B202F0CBFD54E02F48808845F21051D3
:103E5000884220D12C49488902F0CCFD201202F082
:103E6000BDFD29494989491C88B202F0C3FDE0B271
:103E700002F0B4FD2449888902F0BCFD281202F04A
:103E8000ADFD21498989491C88B202F0B3FDE8B231
:103E900002F0A4FD2DE01C48808841F663118842A1
:103EA00027D11948807920B917480088401E001B87
:103EB00084B21549488902F09DFD201202F08EFD62
:103EC000E0B202F08BFD201202F088FDE0B202F0B9
:103ED00085FD0D49888902F08DFD281202F07EFDD6
:103EE000E8B202F07BFD281202F078FDE8B202F0A1
:103EF00075FD0548008905490880891C0E8000BFB2
:103F000080E700002812002410110024FEFF076043
:103F100000B595B003F010F9FE4988800846808806
:103F200018B102F0BDFE02F0F2B900BFFA48006815
:103F300040F00200F84908600846006800F00200FE
:103F4000019000BF00BF202010900120119012901E
:103F50000320139010A9F148FDF714F802F022FA9B
:103F6000EF48F0490860F048486000208860002170
:103F7000EC48C16001611021416100218161C16192
:103F800001624FF480514162002181624FF480410F
:103F9000C1620021016341634FF4801181631120EC
:103FA000099000200A9055200B9000200F901520BA
:103FB000029000200390152004900020089002AA8F
:103FC00009A9D848FFF756FB322007F0BFFDD320E0
:103FD00002F010FD02F028FACE49888002F024FA9F
:103FE000CC49888002F020FACA4988800846808837
:103FF0004FF6FF7101EA0020C649888002F014FAEA
:10400000C44989880843C34988800846808849F2A2
:104010004131884278D0D42002F0ECFC02F004FA5E
:10402000BC49888002F000FABA49888002F0FCF9A5
:10403000B8498880084680884FF6FF7101EA002061
:10404000B449888002F0F0F9B24989880843B1493F
:1040500088800846808845F21031884254D04FF459
:104060005A4002F0C7FC02F0DFF9AA4988804FF4F9
:104070005B4002F0BFFC02F0D7F9A64988800846F1
:1040800080884FF6FF7101EA0020A24988804FF432
:104090005C4002F0AFFC02F0C7F99E4989880843F2
:1040A0009C49888008468088B0F5004F02D145F2CF
:1040B000105088809748808845F21051884223D05C
:1040C000A12002F097FC02F0AFF99249888002F03B
:1040D000ABF990498880084680884FF6FF7101EA65
:1040E00000208C49888002F09FF98A49898808431A
:1040F000884988800846808845F26171884203D1EA
:1041000041F66310834988808248818887A0FCF744
:10411000DDF98048808849F2413188427ED1CF2044
:1041200002F068FC002002F059FCC12002F056FCAD
:10413000302002F053FCED2002F05CFC642002F021
:104140004DFC032002F04AFC122002F047FC8120C3
:1041500002F044FCE82002F04DFC852002F03EFC19
:10416000102002F03BFC7A2002F038FCCB2002F059
:1041700041FC392002F032FC2C2002F02FFC002000
:1041800002F02CFC342002F029FC022002F026FC74
:10419000F72002F02FFC202002F020FCEA2002F0A1
:1041A00029FC002002F01AFC002002F017FCC020BD
:1041B00002F020FC1B2002F011FCC12002F01AFCCE
:1041C000012002F00BFCC52002F014FC302002F0AC
:1041D00005FC302002F002FCC72002F00BFCB720E7
:1041E00002F0FCFB362002F005FC482002F0F6FB52
:1041F0003A2002F0FFFB552002F0F0FBB12002F064
:10420000F9FB002002F0EAFB1A2002F0E7FBB620DF
:1042100002F0F0FB0A2002F0E1FB00E0ACE0A2209B
:1042200002F0DCFBF22002F0E5FB002002F0D6FBFE
:10423000262002F0DFFB012002F0D0FBE02002F09C
:10424000D9FB0F2002F0CAFB2A2002F0C7FB28206E
:1042500002F0C4FB082002F0C1FB0E2002F0BEFBFE
:10426000082002F0BBFB542002F0B8FBA92002F0AA
:10427000B5FB432002F0B2FB0A2002F0AFFB0F2097
:1042800002F0ACFB002002F0A9FB002002F0A6FB2C
:10429000002002F0A3FB002002F0A0FBE12002F0CE
:1042A000A9FB002002F09AFB152002F097FB1720D3
:1042B00002F094FB072002F091FB112002F08EFB2C
:1042C000062002F08BFB2B2002F088FB562002F028
:1042D00085FB3C2002F082FB052002F07FFB1020D2
:1042E00002F07CFB0F2002F079FB3F2002F076FB0E
:1042F0003F2002F073FB0F2002F070FB2B2002F036
:1043000079FB002002F06AFB002002F067FB01202D
:1043100014E0000010110024E04402580004025888
:1043200000400052C410002404410052204C434479
:104330002049443A25780D0A0000000002F04EFBA7
:104340003F2002F04BFB2A2002F054FB002002F039
:1043500045FB002002F042FB002002F03FFBEF2073
:1043600002F03CFB112002F045FB782007F0EEFB49
:10437000292002F03FFBD6E5FE48808845F2103147
:10438000884240F07C87ED2002F034FB012002F0EF
:1043900025FBFE2002F022FBEE2002F02BFBDE20AC
:1043A00002F01CFB212002F019FBF12002F022FB9D
:1043B000012002F013FBDF2002F01CFB102002F0B2
:1043C0000DFBC42002F016FB8F2002F007FBC62075
:1043D00002F010FB002002F001FBE22002F0FEFAE6
:1043E000E22002F0FBFAE22002F0F8FABF2002F02D
:1043F00001FBAA2002F0F2FAB02002F0FBFA0D2035
:1044000002F0ECFA002002F0E9FA0D2002F0E6FAE0
:10441000002002F0E3FA112002F0E0FA002002F09E
:10442000DDFA192002F0DAFA002002F0D7FA212092
:1044300002F0D4FA002002F0D1FA2D2002F0CEFAD8
:10444000002002F0CBFA3D2002F0C8FA002002F072
:10445000C5FA5D2002F0C2FA002002F0BFFA5D202A
:1044600002F0BCFA002002F0B9FAB12002F0C2FA60
:10447000802002F0B3FA002002F0B0FA8B2002F0A4
:10448000ADFA002002F0AAFA962002F0A7FA002066
:1044900002F0A4FAB22002F0ADFA002002F09EFA77
:1044A000002002F09BFA022002F098FA002002F0AD
:1044B00095FA032002F092FA002002F08FFAB3205E
:1044C00002F098FA002002F089FA002002F086FA41
:1044D000002002F083FA002002F080FA002002F0AF
:1044E0007DFA002002F07AFA002002F077FA00202C
:1044F00002F074FA002002F071FA002002F06EFA65
:10450000002002F06BFA002002F068FA002002F0AE
:1045100065FA002002F062FA002002F05FFA002043
:1045200002F05CFA002002F059FA002002F056FA7C
:10453000002002F053FA002002F050FA002002F0AE
:104540004DFA002002F04AFA002002F047FA00205B
:1045500002F044FAB42002F04DFA8B2002F03EFA49
:10456000002002F03BFA962002F038FA002002F018
:1045700035FAA12002F032FA002002F02FFAB5201D
:1045800002F038FA022002F029FA002002F026FA9E
:10459000032002F023FA002002F020FA042002F0A7
:1045A0001DFA002002F01AFAB62002F023FA0020C9
:1045B00002F014FA002002F011FAB72002F01AFA01
:1045C000002002F00BFA002002F008FA3F2002F06F
:1045D00005FA002002F002FA5E2002F0FFF9002046
:1045E00002F0FCF9642002F0F9F9002002F0F6F97B
:1045F0008C2002F0F3F9002002F0F0F9AC2002F078
:10460000EDF9002002F0EAF9DC2002F0E7F90020E1
:1046100002F0E4F9702002F0E1F9002002F0DEF986
:10462000902002F0DBF9002002F0D8F9EB2002F034
:10463000D5F9002002F0D2F9DC2002F0CFF90020F9
:1046400002F0CCF9B82002F0D5F9002002F0C6F94A
:10465000002002F0C3F9002002F0C0F9002002F0AF
:10466000BDF9002002F0BAF9002002F0B7F90020ED
:1046700002F0B4F9002002F0B1F9BA2002F0BAF960
:10468000242002F0ABF9002002F0A8F9002002F08B
:10469000A5F9002002F0A2F9C12002F0ABF9202018
:1046A00002F09CF9002002F099F9542002F096F9EA
:1046B000002002F093F9FF2002F090F9002002F0B0
:1046C0008DF9C22002F096F90A2002F087F9002045
:1046D00002F084F9042002F081F9002002F07EF952
:1046E000C32002F087F93C2002F078F9002002F0A4
:1046F00075F93A2002F072F9002002F06FF93920C2
:1047000002F06CF9002002F069F9372002F066F936
:10471000002002F063F93C2002F060F9002002F072
:104720005DF9362002F05AF9002002F057F93220E4
:1047300002F054F9002002F051F92F2002F04EF956
:10474000002002F04BF92C2002F048F9002002F082
:1047500045F9292002F042F9002002F03FF9262015
:1047600002F03CF9002002F039F9242002F036F979
:10477000002001E01011002402F030F9242002F0A2
:104780002DF9002002F02AF9232002F027F9002059
:1047900002F024F93C2002F021F9002002F01EF979
:1047A000362002F01BF9002002F018F9322002F046
:1047B00015F9002002F012F92F2002F00FF9002065
:1047C00002F00CF92C2002F009F9002002F006F9A1
:1047D000292002F003F9002002F000F9262002F05F
:1047E000FDF8002002F0FAF8242002F0F7F800208B
:1047F00002F0F4F8242002F0F1F8002002F0EEF8C4
:10480000232002F0EBF8002002F0E8F8C42002F0C8
:10481000F1F8622002F0E2F8002002F0DFF8052053
:1048200002F0DCF8002002F0D9F8842002F0D6F87B
:10483000002002F0D3F8F02002F0D0F8002002F0BF
:10484000CDF8182002F0CAF8002002F0C7F8A42022
:1048500002F0C4F8002002F0C1F8182002F0BEF8FF
:10486000002002F0BBF8502002F0B8F8002002F05F
:10487000B5F80C2002F0B2F8002002F0AFF81720D3
:1048800002F0ACF8002002F0A9F8952002F0A6F89A
:10489000002002F0A3F8F32002F0A0F8002002F0BC
:1048A0009DF8E62002F09AF8002002F097F8C52063
:1048B00002F0A0F8322002F091F8002002F08EF809
:1048C000442002F08BF8002002F088F8652002F006
:1048D00085F8002002F082F8762002F07FF80020B0
:1048E00002F07CF8882002F079F8002002F076F8D7
:1048F000C62002F07FF8202002F070F8002002F0BD
:104900006DF8172002F06AF8002002F067F8012025
:1049100002F064F8002002F061F8C72002F06AF8A3
:10492000002002F05BF8002002F058F8002002F0AE
:1049300055F8002002F052F8C82002F05BF8002081
:1049400002F04CF8002002F049F8002002F046F88E
:10495000002002F043F8C92002F04CF8002002F0D9
:104960003DF8002002F03AF8002002F037F800206D
:1049700002F034F8002002F031F8002002F02EF8A6
:10498000002002F02BF8002002F028F8002002F0AE
:1049900025F8002002F022F8002002F01FF8002085
:1049A00002F01CF8002002F019F8002002F016F8BE
:1049B000002002F013F8002002F010F8E02002F0CE
:1049C00019F8162002F00AF8002002F007F81C205F
:1049D00002F004F8002002F001F8212001F0FEFFAF
:1049E000002001F0FBFF362001F0F8FF002001F06D
:1049F000F5FF462001F0F2FF002001F0EFFF52200A
:104A000001F0ECFF002001F0E9FF642001F0E6FF77
:104A1000002001F0E3FF7A2001F0E0FF002001F028
:104A2000DDFF8B2001F0DAFF002001F0D7FF992095
:104A300001F0D4FF002001F0D1FFA82001F0CEFF4B
:104A4000002001F0CBFFB92001F0C8FF002001F0E9
:104A5000C5FFC42001F0C2FF002001F0BFFFCA2043
:104A600001F0BCFF002001F0B9FFD22001F0B6FF39
:104A7000002001F0B3FFD92001F0B0FF002001F0C9
:104A8000ADFFE02001F0AAFF002001F0A7FFF32016
:104A900001F0A4FF002001F0A1FFE12001F0AAFF36
:104AA000162001F09BFF002001F098FF1C2001F070
:104AB00095FF002001F092FF222001F08FFF0020DF
:104AC00001F08CFF362001F089FF002001F086FF05
:104AD000452001F083FF002001F080FF522001F00B
:104AE0007DFF002001F07AFF642001F077FF0020B5
:104AF00001F074FF7A2001F071FF002001F06EFFD9
:104B00008B2001F06BFF002001F068FF992001F07D
:104B100065FF002001F062FFA82001F05FFF002088
:104B200001F05CFFB92001F059FF002001F056FFB1
:104B3000C42001F053FF002001F050FFCA2001F013
:104B40004DFF002001F04AFFD22001F047FF002076
:104B500001F044FFD82001F041FF002001F03EFFAA
:104B6000E02001F03BFF002001F038FFF32001F0CE
:104B700035FF002001F032FFE22001F03BFF05206D
:104B800001F02CFF002001F029FF0B2001F026FF8F
:104B9000002001F023FF1B2001F020FF002001F086
:104BA0001DFF342001F01AFF002001F017FF442000
:104BB00001F014FF002001F011FF4F2001F00EFF63
:104BC000002001F00BFF612001F008FF002001F040
:104BD00005FF792001F002FF002001F0FFFE882090
:104BE00001F0FCFE002001F0F9FE972001F0F6FE36
:104BF000002001F0F3FEA62001F0F0FE002001F0FD
:104C0000EDFEB72001F0EAFE002001F0E7FEC22031
:104C100001F0E4FE002001F0E1FEC72001F0DEFE1D
:104C2000002001F0DBFED12001F0D8FE002001F0D1
:104C3000D5FED62001F0D2FE002001F0CFFEDD200F
:104C400001F0CCFE002001F0C9FEF32001F0C6FE09
:104C5000002001F0C3FEE32001F0CCFE052001F0AE
:104C6000BDFE002001F0BAFE0A2001F0B7FE0020D0
:104C700001F0B4FE1C2001F0B1FE002001F0AEFEF8
:104C8000332001F0ABFE002001F0A8FE442001F02B
:104C9000A5FE002001F0A2FE502001F09FFE0020A2
:104CA00001F09CFE622001F099FE002001F096FECA
:104CB000782001F093FE002001F090FE882001F0A2
:104CC0008DFE002001F08AFE972001F087FE002073
:104CD00001F084FEA62001F081FE002001F07EFE9E
:104CE000B72001F07BFE002001F078FEC22001F029
:104CF00075FE002001F072FEC72001F06FFE00205B
:104D000001F06CFED12001F069FE002001F066FE8A
:104D1000D52001F063FE002001F060FEDD2001F0EF
:104D20005DFE002001F05AFEF32001F057FE002046
:104D300001F054FEE42001F05DFE012001F04EFE82
:104D4000002001F04BFE012001F048FE002001F0A0
:104D500045FE022001F042FE002001F03FFE2A2025
:104D600001F03CFE002001F039FE3C2001F036FE4F
:104D7000002001F033FE4B2001F030FE002001F056
:104D80002DFE5D2001F02AFE002001F027FE742098
:104D900001F024FE002001F021FE842001F01EFE1F
:104DA000002001F01BFE932001F018FE002001F00E
:104DB00015FEA22001F012FE002001F00FFEB3202C
:104DC00001F00CFE002001F009FEBE2001F006FEFD
:104DD000002001F003FEC42001F000FE002001F0DD
:104DE000FDFDCD2001F0FAFD002001F0F7FDD320FC
:104DF00001F0F4FD002001F0F1FDDD2001F0EEFDF9
:104E0000002001F0EBFDF32001F0E8FD002001F0AF
:104E1000E5FDE52001F0EEFD002001F0DFFD0020C2
:104E200001F0DCFD002001F0D9FD002001F0D6FDED
:104E3000022001F0D3FD002001F0D0FD292001F077
:104E4000CDFD002001F0CAFD3C2001F0C7FD00208F
:104E500001F0C4FD4B2001F0C1FD002001F0BEFDBA
:104E60005D2001F0BBFD002001F0B8FD742001F0D1
:104E7000B5FD002001F0B2FD842001F0AFFD00205F
:104E800001F0ACFD932001F0A9FD002001F0A6FD8A
:104E9000A22001F0A3FD002001F0A0FDB32001F04D
:104EA0009DFD002001F09AFDBE2001F097FD00203D
:104EB00001F094FDC42001F091FD002001F08EFD71
:104EC000CD2001F08BFD002001F088FDD32001F002
:104ED00085FD002001F082FDDC2001F07FFD002037
:104EE00001F07CFDF32001F079FD002001F076FD5A
:104EF000E62001F07FFD112001F070FD002001F09F
:104F00006DFD342001F06AFD002001F067FD5620A0
:104F100001F064FD002001F061FD762001F05EFDEE
:104F2000002001F05BFD772001F058FD002001F02A
:104F300055FD662001F052FD002001F04FFD882054
:104F400001F04CFD002001F049FD992001F046FDE3
:104F5000002001F043FDBB2001F040FD002001F0E6
:104F60003DFD992001F03AFD002001F037FD66205B
:104F700001F034FD002001F031FD552001F02EFD3F
:104F8000002001F02BFD552001F028FD002001F04C
:104F900025FD452001F022FD002001F01FFD4320EA
:104FA00001F01CFD002001F019FD442001F016FD68
:104FB000002001F013FDE72001F01CFD322001F07C
:104FC0000DFD002001F00AFD552001F007FD002035
:104FD00001F004FD762001F001FD002001F0FEFC4F
:104FE000662001F0FBFC002001F0F8FC672001F0D6
:104FF000F5FC002001F0F2FC672001F0EFFC00203E
:1050000001F0ECFC872001F0E9FC002001F0E6FC57
:10501000992001F0E3FC002001F0E0FCBB2001F04E
:10502000DDFC002001F0DAFC992001F0D7FC002023
:1050300001F0D4FC772001F0D1FC002001F0CEFC7F
:10504000442001F0CBFC002001F0C8FC562001F008
:10505000C5FC002001F0C2FC232001F0BFFC0020B1
:1050600001F0BCFC332001F0B9FC002001F0B6FCDB
:10507000452001F0B3FC002001F0B0FCE82001F075
:10508000B9FC002001F0AAFC002001F0A7FC992047
:1050900001F0A4FC002001F0A1FC872001F09EFC9F
:1050A000002001F09BFC882001F098FC002001F01A
:1050B00095FC772001F092FC002001F08FFC662027
:1050C00001F08CFC002001F089FC882001F086FCB6
:1050D000002001F083FCAA2001F080FC002001F0F8
:1050E0007DFCBB2001F07AFC002001F077FC9920C8
:1050F00001F074FC002001F071FC662001F06EFCF0
:10510000002001F06BFC552001F068FC002001F04C
:1051100065FC552001F062FC002001F05FFC44209A
:1051200001F05CFC002001F059FC442001F056FC29
:10513000002001F053FC552001F050FC002001F04C
:105140004DFCE92001F056FCAA2001F047FC0020AC
:1051500001F044FC002001F041FC002001F03EFC85
:10516000002001F047FCAA2001F038FCCF2001F01C
:1051700041FC002001F032FC002001F02FFC002057
:1051800001F02CFC002001F029FC002001F026FC9D
:10519000002001F023FC002001F020FC002001F0A1
:1051A0001DFC002001F01AFC002001F017FC00207B
:1051B00001F014FC002001F011FC002001F00EFCB5
:1051C000002001F00BFC002001F008FC002001F0A1
:1051D00005FC002001F002FCF02001F00BFC002097
:1051E00001F0FCFB502001F0F9FB002001F0F6FB80
:1051F000002001F0F3FB002001F0F0FBF32001F0B0
:10520000F9FB002001F0EAFBF92001F0F3FB062096
:1052100001F0E4FB102001F0E1FB292001F0DEFBAE
:10522000002001F0DBFB3A2001F0E4FB552001F007
:10523000D5FB112001F0DEFB642006F087FC29205D
:1052400001F0D8FB352001F0D5FB002001F0C6FBB2
:10525000512001F0CFFBFF2001F0C0FB532001F0F3
:10526000C9FB2C2001F0BAFB552001F0C3FB8220C2
:1052700001F0B4FB2C2001F0BDFB01F048B8FE4862
:10528000808845F2105188427ED155214FF47040FC
:1052900001F0C6FBAA214FF2010001F0C1FB52212F
:1052A0004FF2020001F0BCFB08214FF2030001F0B5
:1052B000B7FB01214FF2040001F0B2FB0D214FF4C6
:1052C000304001F0ADFB0D214BF2010001F0A8FBD5
:1052D0000D214BF2020001F0A3FB34214FF43640C4
:1052E00001F09EFB34214BF2016001F099FB342167
:1052F0004BF2026001F094FB0D214FF4314001F0BC
:105300008FFB0D214BF2011001F08AFB0D214BF2B6
:10531000021001F085FB34214FF4374001F080FB8F
:1053200034214BF2017001F07BFB34214BF202700F
:1053300001F076FB00214FF4324001F071FB0021B7
:105340004BF2012001F06CFB00214BF2022001F036
:1053500067FB24214FF4384001F062FB24214BF617
:10536000010001F05DFB24214BF6020001F058FB27
:1053700001214FF43F4001F053FB0F214FF4334024
:1053800001F04EFB0F2100E0FEE34BF2013001F093
:1053900047FB0F214BF2023001F042FB34214FF466
:1053A000394001F03DFB34214BF6011001F038FB90
:1053B00034214BF6021001F033FB08214FF4354045
:1053C00001F02EFB08214BF2015001F029FB0821CE
:1053D0004BF2025001F024FB03214FF4424001F054
:1053E0001FFB24214FF43A4001F01AFB24214BF615
:1053F000012001F015FB24214BF6022001F010FBE7
:1054000000214FF43C4001F00BFB78214BF60140AA
:1054100001F006FB00214BF6024001F001FB0021E8
:105420004FF43D4001F0FCFA78214BF6015001F0B9
:10543000F7FA00214BF6025001F0F2FA00214FF486
:105440003E4001F0EDFA64214BF6016001F0E8FA0C
:1054500000214FF4514001F0E3FA33214DF20110E5
:1054600001F0DEFA00214DF2021001F0D9FA3421E8
:105470004DF2031001F0D4FA00214DF2041001F0B6
:10548000CFFA3A214DF2051001F0CAFA00214DF28F
:10549000061001F0C5FA4A214DF2071001F0C0FADA
:1054A00000214DF2081001F0BBFA5C214DF2091009
:1054B00001F0B6FA00214DF20A1001F0B1FA812193
:1054C0004DF20B1001F0ACFA00214DF20C1001F07E
:1054D000A7FAA6214DF20D1001F0A2FA00214DF21B
:1054E0000E1001F09DFAE5214DF20F1001F098FA2F
:1054F00001214DF2101001F093FA13214DF2111019
:1055000001F08EFA01214DF2121001F089FA5421B6
:105510004DF2131001F084FA01214DF2141001F044
:105520007FFA82214DF2151001F07AFA01214DF235
:10553000161001F075FACA214DF2171001F070FA39
:1055400002214DF2181001F06BFA00214DF21910F2
:1055500001F066FA02214DF21A1001F061FA012100
:105560004DF21B1001F05CFA02214DF21C1001F00B
:1055700057FA34214DF21D1001F052FA02214DF27A
:105580001E1001F04DFA67214DF21F1001F048FA8C
:1055900002214DF2201001F043FA84214DF2211036
:1055A00001F03EFA02214DF2221001F039FAA42155
:1055B0004DF2231001F034FA02214DF2241001F0D3
:1055C0002FFAB7214DF2251001F02AFA02214DF2EF
:1055D000261001F025FACF214DF2271001F020FA14
:1055E00002214DF2281001F01BFADE214DF22910A4
:1055F00001F016FA02214DF22A1001F011FAF221FF
:105600004DF22B1001F00CFA02214DF22C1001F09A
:1056100007FAFE214DF22D1001F002FA03214DF29E
:105620002E1001F0FDF910214DF22F1001F0F8F9C4
:1056300003214DF2301001F0F3F933214DF2311016
:1056400001F0EEF903214DF2321001F0E9F96D217C
:105650004DF2331001F0E4F900214FF4524001F013
:10566000DFF933214DF2012001F0DAF900214DF28A
:10567000022001F0D5F901E01011002434214DF28F
:10568000032001F0CDF900214DF2042001F0C8F90A
:105690003A214DF2052001F0C3F900214DF2062018
:1056A00001F0BEF94A214DF2072001F0B9F90021BD
:1056B0004DF2082001F0B4F95C214DF2092001F00F
:1056C000AFF900214DF20A2001F0AAF981214DF233
:1056D0000B2001F0A5F900214DF20C2001F0A0F9FA
:1056E000A6214DF20D2001F09BF900214DF20E2074
:1056F00001F096F9E5214DF20F2001F091F9012119
:105700004DF2102001F08CF913214DF2112001F01F
:1057100087F901214DF2122001F082F954214DF256
:10572000132001F07DF901214DF2142001F078F9E8
:1057300082214DF2152001F073F901214DF216205E
:1057400001F06EF9CA214DF2172001F069F902212A
:105750004DF2182001F064F900214DF2192001F0FA
:105760005FF902214DF21A2001F05AF901214DF2A0
:105770001B2001F055F902214DF21C2001F050F9D7
:1057800034214DF21D2001F04BF902214DF21E2073
:1057900001F046F967214DF21F2001F041F9022185
:1057A0004DF2202001F03CF984214DF2212001F03E
:1057B00037F902214DF2222001F032F9A4214DF2F5
:1057C000232001F02DF902214DF2242001F028F9C7
:1057D000B7214DF2252001F023F902214DF22620B8
:1057E00001F01EF9CF214DF2272001F019F9022115
:1057F0004DF2282001F014F9DE214DF2292001F0AC
:105800000FF902214DF22A2001F00AF9F2214DF29E
:105810002B2001F005F902214DF22C2001F000F9B6
:10582000FE214DF22D2001F0FBF803214DF22E2038
:1058300001F0F6F810214DF22F2001F0F1F80321CC
:105840004DF2302001F0ECF833214DF2312001F01F
:10585000E7F803214DF2322001F0E2F86D214DF21C
:10586000332001F0DDF800214FF4534001F0D8F867
:1058700033214DF2013001F0D3F800214DF2023016
:1058800001F0CEF834214DF2033001F0C9F80021C7
:105890004DF2043001F0C4F83A214DF2053001F028
:1058A000BFF800214DF2063001F0BAF84A214DF25E
:1058B000073001F0B5F800214DF2083001F0B0F8E2
:1058C0005C214DF2093001F0ABF800214DF20A30B5
:1058D00001F0A6F881214DF20B3001F0A1F8002172
:1058E0004DF20C3001F09CF8A6214DF20D3001F084
:1058F00097F800214DF20E3001F092F8E5214DF2BB
:105900000F3001F08DF801214DF2103001F088F8D0
:1059100013214DF2113001F083F801214DF21230C4
:1059200001F07EF854214DF2133001F079F8012195
:105930004DF2143001F074F882214DF2153001F06F
:105940006FF801214DF2163001F06AF8CA214DF2CC
:10595000173001F065F802214DF2183001F060F8BF
:1059600000214DF2193001F05BF802214DF21A309E
:1059700001F056F801214DF21B3001F051F80221DF
:105980004DF21C3001F04CF834214DF21D3001F085
:1059900047F802214DF21E3001F042F867214DF226
:1059A0001F3001F03DF802214DF2203001F038F8AF
:1059B00084214DF2213001F033F802214DF22230E2
:1059C00001F02EF8A4214DF2233001F029F8022134
:1059D0004DF2243001F024F8B7214DF2253001F0CA
:1059E0001FF802214DF2263001F01AF8CF214DF2B6
:1059F000273001F015F802214DF2283001F010F89F
:105A0000DE214DF2293001F00BF802214DF22A304F
:105A100001F006F8F2214DF22B3001F001F80221DD
:105A20004DF22C3000F0FCFFFE214DF22D3000F045
:105A3000F7FF03214DF22E3000F0F2FF10214DF25E
:105A40002F3000F0EDFF03214DF2303000F0E8FF81
:105A500033214DF2313000F0E3FF03214DF23230BB
:105A600000F0DEFF6D214DF2333000F0D9FF002150
:105A70004FF4544000F0D4FF33214DF2014000F0C8
:105A8000CFFF00214DF2024000F0CAFF34214DF259
:105A9000034000F0C5FF00214DF2044000F0C0FFBC
:105AA0003A214DF2054000F0BBFF00214DF20640C7
:105AB00000F0B6FF4A214DF2074000F0B1FF00218F
:105AC0004DF2084000F0ACFF5C214DF2094000F0BF
:105AD000A7FF00214DF20A4000F0A2FF81214DF204
