:020000040800F2
:10000000C80A002499030008BD030008BF030008C4
:1000100065480008C3030008C5030008000000008D
:10002000000000000000000000000000C7030008FE
:10003000C903000800000000CB030008CD0300083E
:10004000CF030008CF030008CF030008CF03000848
:10005000CF030008CF030008CF030008CF03000838
:10006000CF030008CF030008CF030008CF03000828
:10007000CF030008CF030008CF030008CF03000818
:10008000CF030008CF030008CF030008CF03000808
:10009000CF030008CF030008CF030008CF030008F8
:1000A000CF030008CF030008CF030008CF030008E8
:1000B000CF030008CF030008D9500008CF03000881
:1000C000CF030008CF030008CF030008CF030008C8
:1000D000CF03000865510008CF030008CF030008D4
:1000E000CF030008CF03000800000000CF03000882
:1000F000CF030008CF030008CF030008CF03000898
:10010000CF030008CF030008CF030008CF03000887
:10011000CF030008CF030008CF030008CF03000877
:10012000CF030008CF030008CF030008CF03000867
:10013000CF030008CF030008CF030008CF03000857
:1001400000000000000000000000000000000000AF
:10015000CF030008CF030008CF030008CF03000837
:10016000CF030008CF030008CF030008CF03000827
:10017000CF030008CF030008CF03000800000000F1
:10018000CF030008CF030008CF030008CF03000807
:10019000CF030008CF030008CF030008CF030008F7
:1001A000CF030008CF030008CF030008CF030008E7
:1001B000CF030008CF030008CF030008CF030008D7
:1001C000CF030008CF030008CF030008CF030008C7
:1001D000CF030008CF030008CF030008CF030008B7
:1001E000CF030008CF030008CF030008CF030008A7
:1001F000CF030008CF030008CF030008CF03000897
:10020000CF030008CF030008CF030008CF03000886
:10021000CF030008CF030008CF030008CF03000876
:10022000CF030008CF030008CF0300080000000040
:10023000CF030008CF03000800000000CF03000830
:10024000CF030008CF030008CF030008CF03000846
:10025000CF030008CF030008CF030008CF03000836
:10026000CF030008CF030008CF030008CF03000826
:10027000CF030008CF030008CF03000800000000F0
:10028000CF03000800000000CF03000800000000BA
:1002900000000000CF03000800F002F800F06DF845
:1002A0000AA090E8000C82448344AAF10107DA45D1
:1002B00001D100F062F8AFF2090EBAE80F0013F0B6
:1002C000010F18BFFB1A43F00103184748AD0000A7
:1002D00068AD00000A444FF0000C10F8013B13F029
:1002E000070408BF10F8014B1D1108BF10F8015B8F
:1002F000641E05D010F8016B641E01F8016BF9D182
:1003000013F0080F1EBF10F8014BAD1C0C1B09D1D8
:100310006D1E58BF01F801CBFAD505E014F8016B4A
:1003200001F8016B6D1EF9D59142D6D370470000DC
:100330000023002400250026103A28BF78C1FBD8EE
:10034000520728BF30C148BF0B607047642900F0D6
:10035000AF80752900F0AC80782900F0E580632932
:1003600000F03982732900F03E82002070471FB5EB
:1003700006F0FCF91FBD10B510BD00F067FA11467C
:10038000FFF7F5FF04F0C4FF00F085FA03B4FFF7B0
:10039000F2FF03BC04F033FFDFF84000016841F4D2
:1003A00070010160BFF34F8FDFF83400016821F066
:1003B00040410160BFF36F8F0A480047FEE7FEE748
:1003C000FEE7FEE7FEE7FEE7FEE7FEE7FEE7FEE705
:1003D00005480649044A064B7047000088ED00E0D6
:1003E00034EF00E099020008C8020024C80A002483
:1003F000C8020024704700000FB4044910B503AAD6
:10040000029800F0F5F910BC5DF814FB040000241C
:1004100070B5044685690068C10601D5302600E044
:100420002026C00707D070BDD4E90121304690478F
:10043000206A401C20626D1EF6D570BD70B5044662
:1004400085690078C00707D170BDD4E9012120205B
:100450009047206A401C20626D1EF6D570BD70B5B5
:100460000C460546012A05D02878800600D5EA69A1
:10047000002302E0012305E05B1C934202D2E05C12
:100480000028F9D1A869E618C01AA861286A18449A
:1004900028622846FFF7BCFF04E0D5E9012114F8E3
:1004A000010B9047B442F8D32846FFF7C7FF70BD51
:1004B0002DE9F0410646002410687529314616A53D
:1004C00010D0AFF30080002802DA404213A507E005
:1004D00031688A0701D512A502E0490704D511A5A4
:1004E000012401E0AFF3008000210A2206F1240775
:1004F00009E0B0FBF2FCB0FBF2F302FB1C00303071
:1005000078541846491C0028F3D123462A46304621
:10051000BDE8F04100F0FCB8000000002D00000034
:100520002B0000002000000070B504460D46214657
:100530001068AFF300802188090502D50F4A7A447C
:1005400002E00E4A7A440E32002104F1240305E051
:1005500000F00F060009965D5E54491C0028F7D193
:1005600020780023000704D5702D02D009B10223A2
:1005700011322046BDE8704000F0CAB874A90000EE
:100580002DE9F05F894604464FF0000ADFF874B1A8
:10059000FB44C0F820A02046E1688847002874D0BA
:1005A000252806D0D4E901219047206A401C20620A
:1005B000F1E700265F462046E16888472028054687
:1005C00007DB312D05D2781910F8200C08B106434D
:1005D000F1E7B00701D526F00406C4F81CA00027F7
:1005E000C4F818A02A2D09D0284604F001FE38B31B
:1005F00004EB8708303DC8F8185019E059F8041B7F
:10060000204604EB87029161E1688847012F054687
:1006100018D1E069002820DA26F020061DE0D8F87D
:10062000180000EB800005EB40003038C8F81800D7
:100630002046E1688847054604F0DAFD0028EED13F
:10064000012F0AD02E2D08D12046E16888477F1C53
:100650000546022F46F02006C4DBA069002803DA15
:10066000404246F00106A061F00701D026F01006D6
:100670006C2D0BD0682D09D04C2D39D06A2D35D07A
:10068000742D35D07A2D33D016E038E0E1682F464E
:1006900020468847B842054609D16C2F26D04FF432
:1006A0008060E168064320468847054604E06C2FD9
:1006B0001AD04FF4807006430DB3A5F141001928FC
:1006C00002D8203546F400664A4629462046266070
:1006D0004E46FFF73BFE80B101280BD0F61D26F0F9
:1006E000070000F1080956E74020E4E78020D8E73A
:1006F0000020D6E706F104094DE7284652E7206AB4
:10070000BDE8F09F4AA900007047704770477047E6
:100710002DE9F0470D4699469246044600F124081B
:100720000168880604D5E06921F01001216000E02D
:100730000120A84201DD471B00E00027A1697A19CA
:1007400002EB0900081AA0612078C00602D42046F6
:10075000FFF75EFE002608E0D4E901211AF8060042
:100760009047206A401C761C20624E45F4DB2078BE
:10077000C0060AD52046FFF74BFE06E0D4E901216A
:1007800030209047206A401C2062381EA7F10107E4
:10079000F4DC07E0D4E9012118F805009047206A4D
:1007A000401C2062281EA5F10105F3DC2046FFF75E
:1007B00045FE2078000602D50220BDE8F087012022
:1007C000FBE710B5436913B1AFF3008001E0FFF719
:1007D00046FE012010BD127800F124010A700022AB
:1007E0004A700122EDE711684FF0FF32E9E700009F
:1007F000074B70B50D467B4400F011F804462846BF
:1008000000F020F810B14FF0FF3070BD204670BDF1
:10081000FB4A000001694A1C02610878704700B574
:100820008FB0CDE901310021059105497944CDE929
:10083000031011466846FFF7A3FE0FB000BD00008D
:10084000E5FFFFFF007B00F080007047754600F079
:100850002BF8AE4605006946534620F00700854652
:1008600018B020B5FFF7B4FDBDE820404FF00006FA
:100870004FF000074FF000084FF0000B21F0070188
:10088000AC46ACE8C009ACE8C009ACE8C009ACE8CB
:10089000C0098D46704710B50446AFF3008020466E
:1008A000BDE81040FFF772BD0048704768020024A1
:1008B00010B504F0C3F804F073F80348006840F082
:1008C00004000149086010BD9CEF00E030B5CC1079
:1008D00000F1200353F824304C07E50E0F24AC4000
:1008E000A343CD1000F1200444F82530CC1000F1D2
:1008F000200353F824304C07E40E02FA04F4234397
:10090000CD1000F1200444F8253030BD02461069B6
:10091000084008B1012070470020FCE702F0010305
:100920000BB1018300E0418370472DE9F0470C468D
:10093000DDE90867002100258C4600BF60E04FF02C
:10094000010808FA01F504EA050CAC4557D1D0F8C6
:1009500000804FEA410A4FF0030909FA0AF928EA30
:100960000908C0F80080D0F800804FEA410902FA77
:1009700009F948EA0908C0F80080012A01D0022AD2
:1009800027D1D0F808804FEA410A4FF0030909FA4D
:100990000AF928EA0908C0F80880D0F808804FEA68
:1009A000410906FA09F948EA0908C0F80880D0F8B0
:1009B00004904FF0010808FA01F829EA0809C0F884
:1009C0000490D0F8048003FA01F948EA0908C0F855
:1009D0000480D0F80C804FEA410A4FF0030909FA6D
:1009E0000AF928EA0908C0F80C80D0F80C804FEA10
:1009F000410907FA09F948EA0908C0F80C80491CBE
:100A000010299CD3BDE8F08710B5002210211248B0
:100A1000FFF784FF1048006820F440600E4908602A
:100A20000846006840F480600860002220210A48DF
:100A3000FFF774FF022004F00DFC0122102106488C
:100A4000FFF76CFF022004F005FC00221021024891
:100A5000FFF764FF10BD0000001C02581CB50D48D4
:100A6000006840F080000B490860012000210B461F
:100A70000246CDE9001030210748FFF756FF01225A
:100A800010210548FFF74AFF012220210248FFF705
:100A900045FF1CBDE0440258001C025810B500225E
:100AA00010211248FFF73AFF1048006820F4406018
:100AB0000E4908600846006840F480600860012222
:100AC00020210A48FFF72AFF022004F0C3FB01227D
:100AD00010210648FFF722FF022004F0BBFB002292
:100AE00010210248FFF71AFF10BD0000001C025839
:100AF00070B5054600241848006820F44060164987
:100B0000086008460068086000261AE000221021EC
:100B10001148FFF703FF022004F09CFB0122102183
:100B20000D48FFF7FBFE6006040E20210A48FFF780
:100B3000EDFE08B1601CC4B2012004F08BFB701CF8
:100B4000C6B2082EE2DB15B9FFF7A8FF01E0FFF7F8
:100B50005BFF204670BD0000001C025870B50446C3
:100B60001848006820F4406016490860084600688C
:100B700040F480600860002210211248FFF7CEFE8A
:100B800000251BE0E20920210E48FFF7C7FE6006A2
:100B9000040E022004F05EFB012210210948FFF739
:100BA000BDFE022004F056FB002210210548FFF78D
:100BB000B5FE022004F04EFB681CC5B2082DE1DB37
:100BC00070BD0000001C025810B51348006820F4E6
:100BD0004060114908600846006840F48060086081
:100BE000012220210C48FFF799FE012210210A481A
:100BF000FFF794FE042004F02DFB0022202106487C
:100C0000FFF78CFE042004F025FB0022102102488F
:100C1000FFF784FE10BD0000001C025810B51348F9
:100C2000006820F44060114908600846006840F4FC
:100C300080600860002210210C48FFF76FFE002240
:100C400020210A48FFF76AFE042004F003FB01227A
:100C500010210648FFF762FE042004F0FBFA01228F
:100C600020210248FFF75AFE10BD0000001C025868
:100C700010B500241748006820F44060154908604A
:100C8000084600680860012220211248FFF746FE4E
:100C9000012004F0DFFA012210210E48FFF73EFE8A
:100CA000012004F0D7FA07E0601CC4B2FA2C03DD7F
:100CB000FFF7B4FF012010BD20210648FFF726FEF4
:100CC0000028F1D1002210210248FFF727FE002062
:100CD000F1E70000001C02581CB51748006840F0FE
:100CE0000100154908600846006840F004000860EB
:100CF0000846006840F080000860022000210B4692
:100D00000A46CDE9001001210C48FFF70EFE012034
:100D100000210B460A46CDE9001041030848FFF7C1
:100D200004FE012000210B460A46CDE900100C21EB
:100D30000448FFF7FAFD1CBDE044025800000258C9
:100D400000080258001C025810B5044614B10120D6
:100D50002D4908702C480078002839D008212B48EC
:100D6000FFF7D4FD80B104212848FFF7CFFD58B12B
:100D70004FF400512648FFF7C9FD28B1012125484D
:100D8000FFF7C4FD012823D10A2004F049FA00200E
:100D90001D49087008211D48FFF7B8FD08B901205A
:100DA00010BD04211948FFF7B1FD08B90220F7E78B
:100DB0004FF400511648FFF7A9FD08B90320EFE7EB
:100DC00001211448FFF7A2FD01281BD10420E7E709
:100DD00008210E48FFF79AFD012813D104210B4882
:100DE000FFF794FD01280DD141030948FFF78EFD5F
:100DF000012807D101210748FFF788FD10B901201C
:100E0000014908700020CBE71C000024001C025898
:100E1000000802580000025870B5044600260D482C
:100E200005880D48006818B1204602F05DFF0FE00C
:100E30000848408845430021084602F09DFD02F025
:100E400021FF002602E005490C80761CAE42FAD351
:100E500070BD000038020024480200240000086031
:100E600010B504465C4884715C48006850B1204667
:100E700002F0C0FF5948C08A574908805748008B84
:100E8000488010BD002C51D1F020534908804FF408
:100E9000A07048800846808849F24131884205D0D8
:100EA0004D48808845F21031884214D12C204A499F
:100EB00008812A2048812B2088810846808845F2B5
:100EC0001031884206D14FF4A070434908804FF496
:100ED000F07048807BE04048808845F2105188429D
:100EE00010D14FF430503C4908814FF428504881CC
:100EF0004FF42C5088814FF4F07008804FF4487004
:100F0000488064E03448808841F6631188425ED1AD
:100F10002C20314908812B2048812A2088814FF4D8
:100F2000F07008804FF44870488050E04FF4A07093
:100F300029490880F02048800846808849F24131DC
:100F4000884205D02448808845F21031884207D174
:100F50002C20214908812A2048812B20888129E0E2
:100F60001D48808845F21051884210D14FF430500E
:100F7000194908814FF4285048814FF42C5088813A
:100F80004FF4487008804FF4F070488012E0124827
:100F9000808841F6631188420CD12C200E490881CB
:100FA0002A2048812B2088814FF4487008804FF414
:100FB000F07048800848808845F21031884206D198
:100FC0004FF4F070044908804FF4A070488000206E
:100FD00002F098FB00BF54E73802002448020024C6
:100FE00070B504460D4616464348006828B132469F
:100FF0002946204602F014FF70BD4048808849F21F
:101000004131884205D03D48808845F21031884200
:1010100014D13A49488902F029FE201202F01AFE42
:10102000E0B202F017FE3549888902F01FFE28124F
:1010300002F010FEE8B202F00DFE54E02F48808866
:1010400045F21051884220D12C49488902F00EFE09
:10105000201202F0FFFD29494989491C88B202F09B
:1010600005FEE0B202F0F6FD2449888902F0FEFD9B
:10107000281202F0EFFD21498989491C88B202F04B
:10108000F5FDE8B202F0E6FD2DE01C48808841F64F
:101090006311884227D11948807920B91748008800
:1010A000401E001B84B21549488902F0DFFD201262
:1010B00002F0D0FDE0B202F0CDFD201202F0CAFD38
:1010C000E0B202F0C7FD0D49888902F0CFFD281279
:1010D00002F0C0FDE8B202F0BDFD281202F0BAFD38
:1010E000E8B202F0B7FD0548008905490880891C6F
:1010F0000E8000BF80E70000480200243802002470
:10110000FEFF07601CB503F035FAFD4988800846EC
:10111000808818B102F050FF02F078BAF9480068F0
:1011200040F00200F74908600846006840F01800E7
:101130000860F4480C38006840F48050F1490C39DC
:101140000860012000900023024620210190EE4813
:10115000FFF7EBFB0120032100230222CDE9001061
:101160004EF2B371E948FFF7E0FB012003210023B1
:101170000222CDE900104FF68071E548FFF7D5FB5C
:101180000C220021E148FFF7A1FB0C220121DF48DE
:10119000FFF79CFB0C220421DC48FFF797FB0C2295
:1011A0000521DA48FFF792FB0C220721D748FFF709
:1011B0008DFB0C220821D548FFF788FB0C22092162
:1011C000D248FFF783FB0C220A21D048FFF77EFBB1
:1011D0000C220D21CD48FFF779FB0C220E21CB48C4
:1011E000FFF774FB0C220F21C848FFF76FFB0C229E
:1011F0000721C748FFF76AFB0C220821C448FFF704
:1012000065FB0C220921C248FFF760FB0C220A2172
:10121000BF48FFF75BFB0C220B21BD48FFF756FBD5
:101220000C221146BA48FFF751FB0C220D21B84899
:10123000FFF74CFB0C220E21B548FFF747FB0C22B1
:101240000F21B348FFF742FB0020B2490860486015
:10125000B1490860AF48006840F48050AD4908606B
:101260000846006840F4804008600846006840F086
:10127000100008600846406848600846406840F032
:101280000F0048600846406840F49C404860A2480F
:101290000068C1F804010846D0F8040140F00F00CE
:1012A000C1F804010846D0F8040140F47060C1F8A8
:1012B00004010846006840F0010008600846006824
:1012C00040F000400860322003F0AAFFD32002F073
:1012D000CDFC02F0E5F98A49888002F0E1F98849FD
:1012E000888002F0DDF986498880084680884FF6BC
:1012F000FF7101EA00208249888002F0D1F980491B
:10130000898808437E4988800846808849F24131AF
:10131000884278D0D42002F0A9FC02F0C1F97849C3
:10132000888002F0BDF97649888002F0B9F97449E5
:101330008880084680884FF6FF7101EA00207049D6
:10134000888002F0ADF96E49898808436C4988802D
:101350000846808845F21031884254D04FF45A40F4
:1013600002F084FC02F09CF9654988804FF45B40F0
:1013700002F07CFC02F094F961498880084680887C
:101380004FF6FF7101EA00205D4988804FF45C4010
:1013900002F06CFC02F084F95949898808435849E5
:1013A000888008468088B0F5004F02D145F2105081
:1013B00088805348808845F21051884223D0A1206C
:1013C00002F054FC02F06CF94D49888002F068F993
:1013D0004B498880084680884FF6FF7101EA00205B
:1013E0004749888002F05CF94549898808434449A7
:1013F00088800846808845F26171884203D141F6B1
:1014000063103F4988803E48818844A0FEF7F4FF7E
:101410003B48808849F24131884270D1CF2002F0A8
:1014200025FC002002F016FCC12002F013FC302045
:1014300002F010FCED2002F019FC642002F00AFC1E
:10144000032002F007FC122002F004FC812002F0CD
:1014500001FCE82002F00AFC852002F0FBFB1020D2
:1014600002F0F8FB7A2002F0F5FBCB2002F0FEFB45
:10147000392002F0EFFB2C2002F0ECFB002002F000
:10148000E9FB342002F0E6FB022002F0E3FBF72048
:1014900002F0ECFB202002F0DDFBEA2002F0E6FB8C
:1014A000002002F0D7FB002002F0D4FBC02002F0A5
:1014B000DDFB1B2002F0CEFBC12002F0D7FB012098
:1014C00002F0C8FBC52002F0D1FB302002F0C2FBC5
:1014D000302002F0BFFBC72002F0C8FBB72002F0AB
:1014E000B9FB362002F0C2FB482002F0B3FB3A20E1
:1014F00002F0BCFB552002F0ADFBB12016E0BAE0D3
:1015000038020024E044025800040258000C02583B
:10151000001002580040005204410052204C434445
:101520002049443A25780D0A0000000002F09EFB95
:10153000002002F08FFB1A2002F08CFBB62002F094
:1015400095FB0A2002F086FBA22002F083FBF2202A
:1015500002F08CFB002002F07DFB262002F086FBCF
:10156000012002F077FBE02002F080FB0F2002F068
:1015700071FB2A2002F06EFB282002F06BFB082092
:1015800002F068FB0E2002F065FB082002F062FB0F
:10159000542002F05FFBA92002F05CFB432002F024
:1015A00059FB0A2002F056FB0F2002F053FB0020EB
:1015B00002F050FB002002F04DFB002002F04AFB3D
:1015C000002002F047FBE12002F050FB002002F077
:1015D00041FB152002F03EFB172002F03BFB0720E9
:1015E00002F038FB112002F035FB062002F032FB3E
:1015F0002B2002F02FFB562002F02CFB3C2002F0A7
:1016000029FB052002F026FB102002F023FB0F200F
:1016100002F020FB3F2002F01DFB3F2002F01AFBEE
:101620000F2002F017FB2B2002F020FB002002F01D
:1016300011FB002002F00EFB012002F00BFB3F200B
:1016400002F008FB2A2002F011FB002002F002FB4E
:10165000002002F0FFFA002002F0FCFAEF2002F076
:10166000F9FA112002F002FB782003F0D9FD2920BD
:1016700002F0FCFA50E5FE48808845F210318842BD
:1016800040F07C87ED2002F0F1FA012002F0E2FA4E
:10169000FE2002F0DFFAEE2002F0E8FADE2002F08F
:1016A000D9FA212002F0D6FAF12002F0DFFA012067
:1016B00002F0D0FADF2002F0D9FA102002F0CAFAC4
:1016C000C42002F0D3FA8F2002F0C4FAC62002F040
:1016D000CDFA002002F0BEFAE22002F0BBFAE220CE
:1016E00002F0B8FAE22002F0B5FABF2002F0BEFA2A
:1016F000AA2002F0AFFAB02002F0B8FA0D2002F0F2
:10170000A9FA002002F0A6FA0D2002F0A3FA0020A8
:1017100002F0A0FA112002F09DFA002002F09AFADD
:10172000192002F097FA002002F094FA212002F02A
:1017300091FA002002F08EFA2D2002F08BFA0020A0
:1017400002F088FA3D2002F085FA002002F082FAC9
:101750005D2002F07FFA002002F07CFA5D2002F0AA
:1017600079FA002002F076FAB12002F07FFA8020A8
:1017700002F070FA002002F06DFA8B2002F06AFA93
:10178000002002F067FA962002F064FA002002F0CE
:1017900061FAB22002F06AFA002002F05BFA00203F
:1017A00002F058FA022002F055FA002002F052FA34
:1017B000032002F04FFA002002F04CFAB32002F0AE
:1017C00055FA002002F046FA002002F043FA002009
:1017D00002F040FA002002F03DFA002002F03AFA4E
:1017E000002002F037FA002002F034FA002002F064
:1017F00031FA002002F02EFA002002F02BFA00202D
:1018000002F028FA002002F025FA002002F022FA65
:10181000002002F01FFA002002F01CFA002002F063
:1018200019FA002002F016FA002002F013FA002044
:1018300002F010FA002002F00DFA002002F00AFA7D
:10184000002002F007FA002002F004FA002002F063
:1018500001FAB42002F00AFA8B2002F0FBF9002012
:1018600002F0F8F9962002F0F5F9002002F0F2F902
:10187000A12002F0EFF9002002F0ECF9B52002F00F
:10188000F5F9022002F0E6F9002002F0E3F9032066
:1018900002F0E0F9002002F0DDF9042002F0DAF9AC
:1018A000002002F0D7F9B62002F0E0F9002002F0A3
:1018B000D1F9002002F0CEF9B72002F0D7F90020CC
:1018C00002F0C8F9002002F0C5F93F2002F0C2F989
:1018D000002002F0BFF95E2002F0BCF9002002F007
:1018E000B9F9642002F0B6F9002002F0B3F98C20B7
:1018F00002F0B0F9002002F0ADF9AC2002F0AAF934
:10190000002002F0A7F9DC2002F0A4F9002002F088
:10191000A1F9702002F09EF9002002F09BF99020BE
:1019200002F098F9002002F095F9EB2002F092F90C
:10193000002002F08FF9DC2002F08CF9002002F088
:1019400089F9B82002F092F9002002F083F9002012
:1019500002F080F9002002F07DF9002002F07AF90F
:10196000002002F077F9002002F074F9002002F064
:1019700071F9002002F06EF9BA2002F077F9242004
:1019800002F068F9002002F065F9002002F062F927
:10199000002002F05FF9C12002F068F9202002F077
:1019A00059F9002002F056F9542002F053F90020B2
:1019B00002F050F9FF2002F04DF9002002F04AF940
:1019C000C22002F053F90A2002F044F9002002F08C
:1019D00041F9042002F03EF9002002F03BF9C32057
:1019E00002F044F93C2002F035F9002002F032F90F
:1019F0003A2002F02FF9002002F02CF9392002F0F1
:101A000029F9002002F026F9372002F023F90020FE
:101A100002F020F93C2002F01DF9002002F01AF932
:101A2000362002F017F9002002F014F9322002F0FB
:101A300011F9002002F00EF92F2002F00BF900201E
:101A400002F008F92C2002F005F9002002F002F95A
:101A5000292002F0FFF8002002F0FCF8262002F016
:101A6000F9F8002002F0F6F8242002F0F3F801E083
:101A700038020024002002F0EDF8242002F0EAF8F9
:101A8000002002F0E7F8232002F0E4F8002002F042
:101A9000E1F83C2002F0DEF8002002F0DBF836200E
:101AA00002F0D8F8002002F0D5F8322002F0D2F887
:101AB000002002F0CFF82F2002F0CCF8002002F036
:101AC000C9F82C2002F0C6F8002002F0C3F8292043
:101AD00002F0C0F8002002F0BDF8262002F0BAF8AB
:101AE000002002F0B7F8242002F0B4F8002002F041
:101AF000B1F8242002F0AEF8002002F0ABF8232069
:101B000002F0A8F8002002F0A5F8C42002F0AEF818
:101B1000622002F09FF8002002F09CF8052002F0FD
:101B200099F8002002F096F8842002F093F8002043
:101B300002F090F8F02002F08DF8002002F08AF810
:101B4000182002F087F8002002F084F8A42002F0A8
:101B500081F8002002F07EF8182002F07BF80020C7
:101B600002F078F8502002F075F8002002F072F8C8
:101B70000C2002F06FF8002002F06CF8172002F041
:101B800069F8002002F066F8952002F063F8002062
:101B900002F060F8F32002F05DF8002002F05AF83D
:101BA000E62002F057F8002002F054F8C52002F0B9
:101BB0005DF8322002F04EF8002002F04BF844208D
:101BC00002F048F8002002F045F8652002F042F8E3
:101BD000002002F03FF8762002F03CF8002002F0EE
:101BE00039F8882002F036F8002002F033F8C620D9
:101BF00002F03CF8202002F02DF8002002F02AF834
:101C0000172002F027F8002002F024F8012002F04B
:101C100021F8002002F01EF8C72002F027F800206B
:101C200002F018F8002002F015F8002002F012F877
:101C3000002002F00FF8C82002F018F8002002F08F
:101C400009F8002002F006F8002002F003F8002056
:101C500002F000F8C92002F009F8002001F0FAFFB4
:101C6000002001F0F7FF002001F0F4FF002001F058
:101C7000F1FF002001F0EEFF002001F0EBFF00205B
:101C800001F0E8FF002001F0E5FF002001F0E2FF95
:101C9000002001F0DFFF002001F0DCFF002001F058
:101CA000D9FF002001F0D6FF002001F0D3FF002073
:101CB00001F0D0FF002001F0CDFFE02001F0D6FFC1
:101CC000162001F0C7FF002001F0C4FF1C2001F026
:101CD000C1FF002001F0BEFF212001F0BBFF00206A
:101CE00001F0B8FF362001F0B5FF002001F0B2FF8F
:101CF000462001F0AFFF002001F0ACFF522001F0C0
:101D0000A9FF002001F0A6FF642001F0A3FF00203E
:101D100001F0A0FF7A2001F09DFF002001F09AFF62
:101D20008B2001F097FF002001F094FF992001F033
:101D300091FF002001F08EFFA82001F08BFF002012
:101D400001F088FFB92001F085FF002001F082FF3B
:101D5000C42001F07FFF002001F07CFFCA2001F0C9
:101D600079FF002001F076FFD22001F073FF002000
:101D700001F070FFD92001F06DFF002001F06AFF33
:101D8000E02001F067FF002001F064FFF32001F084
:101D900061FF002001F05EFFE12001F067FF1620E7
:101DA00001F058FF002001F055FF1C2001F052FF08
:101DB000002001F04FFF222001F04CFF002001F035
:101DC00049FF362001F046FF002001F043FF452087
:101DD00001F040FF002001F03DFF522001F03AFFEA
:101DE000002001F037FF642001F034FF002001F0F3
:101DF00031FF7A2001F02EFF002001F02BFF8B2015
:101E000001F028FF002001F025FF992001F022FFBA
:101E1000002001F01FFFA82001F01CFF002001F0AE
:101E200019FFB92001F016FF002001F013FFC420B4
:101E300001F010FF002001F00DFFCA2001F00AFFA1
:101E4000002001F007FFD22001F004FF002001F084
:101E500001FFD82001F0FEFE002001F0FBFEE02093
:101E600001F0F8FE002001F0F5FEF32001F0F2FE93
:101E7000002001F0EFFEE22001F0F8FE052001F065
:101E8000E9FE002001F0E6FE0B2001F0E3FE002059
:101E900001F0E0FE1B2001F0DDFE002001F0DAFE83
:101EA000342001F0D7FE002001F0D4FE442001F0E0
:101EB000D1FE002001F0CEFE4F2001F0CBFE00202D
:101EC00001F0C8FE612001F0C5FE002001F0C2FE55
:101ED000792001F0BFFE002001F0BCFE882001F057
:101EE000B9FE002001F0B6FE972001F0B3FE0020FD
:101EF00001F0B0FEA62001F0ADFE002001F0AAFE28
:101F0000B72001F0A7FE002001F0A4FEC22001F0DE
:101F1000A1FE002001F09EFEC72001F09BFE0020E4
:101F200001F098FED12001F095FE002001F092FE14
:101F3000D62001F08FFE002001F08CFEDD2001F0A4
:101F400089FE002001F086FEF32001F083FE0020D0
:101F500001F080FEE32001F089FE052001F07AFE09
:101F6000002001F077FE0A2001F074FE002001F04D
:101F700071FE1C2001F06EFE002001F06BFE33208C
:101F800001F068FE002001F065FE442001F062FED1
:101F9000002001F05FFE502001F05CFE002001F007
:101FA00059FE622001F056FE002001F053FE782019
:101FB00001F050FE002001F04DFE882001F04AFEA5
:101FC000002001F047FE972001F044FE002001F0C0
:101FD00041FEA62001F03EFE002001F03BFEB720AE
:101FE00001F038FE002001F035FEC22001F032FE83
:101FF000002001F02FFEC72001F02CFE002001F090
:1020000029FED12001F026FE002001F023FED5207C
:1020100001F020FE002001F01DFEDD2001F01AFE7F
:10202000002001F017FEF32001F014FE002001F063
:1020300011FEE42001F01AFE012001F00BFE002049
:1020400001F008FE012001F005FE002001F002FE73
:10205000022001F0FFFD002001F0FCFD2A2001F02C
:10206000F9FD002001F0F6FD3C2001F0F3FD002019
:1020700001F0F0FD4B2001F0EDFD002001F0EAFD44
:102080005D2001F0E7FD002001F0E4FD742001F087
:10209000E1FD002001F0DEFD842001F0DBFD0020E9
:1020A00001F0D8FD932001F0D5FD002001F0D2FD14
:1020B000A22001F0CFFD002001F0CCFDB32001F003
:1020C000C9FD002001F0C6FDBE2001F0C3FD0020C7
:1020D00001F0C0FDC42001F0BDFD002001F0BAFDFB
:1020E000CD2001F0B7FD002001F0B4FDD32001F0B8
:1020F000B1FD002001F0AEFDDD2001F0ABFD0020C0
:1021000001F0A8FDF32001F0A5FD002001F0A2FDE3
:10211000E52001F0ABFD002001F09CFD002001F066
:1021200099FD002001F096FD002001F093FD0220B2
:1021300001F090FD002001F08DFD292001F08AFDC5
:10214000002001F087FD3C2001F084FD002001F01B
:1021500081FD4B2001F07EFD002001F07BFD5D2024
:1021600001F078FD002001F075FD742001F072FD92
:10217000002001F06FFD842001F06CFD002001F0D3
:1021800069FD932001F066FD002001F063FDA220AF
:1021900001F060FD002001F05DFDB32001F05AFD6B
:1021A000002001F057FDBE2001F054FD002001F099
:1021B00051FDC42001F04EFD002001F04BFDCD206B
:1021C00001F048FD002001F045FDD32001F042FD63
:1021D000002001F03FFDDC2001F03CFD002001F07B
:1021E00039FDF32001F036FD002001F033FDE6203B
:1021F00001F03CFD112001F02DFD002001F02AFD31
:10220000342001F027FD002001F024FD562001F0CC
:1022100021FD002001F01EFD762001F01BFD0020B5
:1022200001F018FD772001F015FD002001F012FDEE
:10223000662001F00FFD002001F00CFD882001F068
:1022400009FD002001F006FD992001F003FD0020AA
:1022500001F000FDBB2001F0FDFC002001F0FAFCC4
:10226000992001F0F7FC002001F0F4FC662001F059
:10227000F1FC002001F0EEFC552001F0EBFC002009
:1022800001F0E8FC552001F0E5FC002001F0E2FC43
:10229000452001F0DFFC002001F0DCFC432001F0D0
:1022A000D9FC002001F0D6FC442001F0D3FC002032
:1022B00001F0D0FCE72001F0D9FC322001F0CAFC8B
:1022C000002001F0C7FC552001F0C4FC002001F003
:1022D000C1FC762001F0BEFC002001F0BBFC6620B2
:1022E00001F0B8FC002001F0B5FC672001F0B2FC61
:1022F000002001F0AFFC672001F0ACFC002001F0F1
:10230000A9FC872001F0A6FC002001F0A3FC992085
:1023100001F0A0FC002001F09DFCBB2001F09AFC24
:10232000002001F097FC992001F094FC002001F0BE
:1023300091FC772001F08EFC002001F08BFC442002
:1023400001F088FC002001F085FC562001F082FCA1
:10235000002001F07FFC232001F07CFC002001F034
:1023600079FC332001F076FC002001F073FC45205D
:1023700001F070FC002001F06DFCE82001F076FC1B
:10238000002001F067FC002001F064FC992001F0BE
:1023900061FC002001F05EFC872001F05BFC002066
:1023A00001F058FC882001F055FC002001F052FC9F
:1023B000772001F04FFC002001F04CFC662001F07A
:1023C00049FC002001F046FC882001F043FC00207D
:1023D00001F040FCAA2001F03DFC002001F03AFC95
:1023E000BB2001F037FC002001F034FC992001F003
:1023F00031FC002001F02EFC662001F02BFC0020B7
:1024000001F028FC552001F025FC002001F022FC01
:10241000552001F01FFC002001F01CFC442001F0BD
:1024200019FC002001F016FC442001F013FC0020F0
:1024300001F010FC552001F00DFC002001F00AFC19
:10244000E92001F013FCAA2001F004FC002001F0B7
:1024500001FC002001F0FEFB002001F0FBFB00204E
:1024600001F004FCAA2001F0F5FBCF2001F0FEFBF7
:10247000002001F0EFFB002001F0ECFB002001F058
:10248000E9FB002001F0E6FB002001F0E3FB002067
:1024900001F0E0FB002001F0DDFB002001F0DAFBA1
:1024A000002001F0D7FB002001F0D4FB002001F058
:1024B000D1FB002001F0CEFB002001F0CBFB00207F
:1024C00001F0C8FB002001F0C5FB002001F0C2FBB9
:1024D000002001F0BFFBF02001F0C8FB002001F05C
:1024E000B9FB502001F0B6FB002001F0B3FB002047
:1024F00001F0B0FB002001F0ADFBF32001F0B6FBD2
:10250000002001F0A7FBF92001F0B0FB062001F04C
:10251000A1FB102001F09EFB292001F09BFB002075
:1025200001F098FB3A2001F0A1FB552001F092FB4D
:10253000112001F09BFB642002F072FE292001F0C3
:1025400095FB352001F092FB002001F083FB512028
:1025500001F08CFBFF2001F07DFB532001F086FB96
:102560002C2001F077FB552001F080FB822001F048
:1025700071FB2C2001F07AFB01F048B8FE488088FE
:1025800045F2105188427DD155214FF4704001F041
:1025900083FBAA214FF2010001F07EFB52214FF292
:1025A000020001F079FB08214FF2030001F074FBF7
:1025B00001214FF2040001F06FFB0D214FF4304078
:1025C00001F06AFB0D214BF2010001F065FB0D21CA
:1025D0004BF2020001F060FB34214FF4364001F071
:1025E0005BFB34214BF2016001F056FB34214BF2CE
:1025F000026001F051FB0D214FF4314001F04CFB22
:102600000D214BF2011001F047FB0D214BF202109E
:1026100001F042FB34214FF4374001F03DFB3421FF
:102620004BF2017001F038FB34214BF2027001F0E3
:1026300033FB00214FF4324001F02EFB00214BF21E
:10264000012001F029FB00214BF2022001F024FBC4
:1026500024214FF4384001F01FFB24214BF60100E8
:1026600001F01AFB24214BF6020001F015FB0121B9
:102670004FF43F4001F010FB0F214FF4334001F0C5
:102680000BFB00E0FDE30F214BF2013001F004FBF6
:102690000F214BF2023001F0FFFA34214FF43940A0
:1026A00001F0FAFA34214BF6011001F0F5FA342169
:1026B0004BF6021001F0F0FA08214FF4354001F01A
:1026C000EBFA08214BF2015001F0E6FA08214BF237
:1026D000025001F0E1FA03214FF4424001F0DCFA2C
:1026E00024214FF43A4001F0D7FA24214BF601207F
:1026F00001F0D2FA24214BF6022001F0CDFA00219C
:102700004FF43C4001F0C8FA78214BF6014001F04B
:10271000C3FA00214BF6024001F0BEFA00214FF44B
:102720003D4001F0B9FA78214BF6015001F0B4FABE
:1027300000214BF6025001F0AFFA00214FF43E4069
:1027400001F0AAFA64214BF6016001F0A5FA00211C
:102750004FF4514001F0A0FA33214DF2011001F085
:102760009BFA00214DF2021001F096FA34214DF24D
:10277000031001F091FA00214DF2041001F08CFADF
:102780003A214DF2051001F087FA00214DF20610B2
:1027900001F082FA4A214DF2071001F07DFA002182
:1027A0004DF2081001F078FA5C214DF2091001F0A9
:1027B00073FA00214DF20A1001F06EFA81214DF2F8
:1027C0000B1001F069FA00214DF20C1001F064FACF
:1027D000A6214DF20D1001F05FFA00214DF20E100E
:1027E00001F05AFAE5214DF20F1001F055FA0121DE
:1027F0004DF2101001F050FA13214DF2111001F0BA
:102800004BFA01214DF2121001F046FA54214DF21B
:10281000131001F041FA01214DF2141001F03CFABD
:1028200082214DF2151001F037FA01214DF21610F8
:1028300001F032FACA214DF2171001F02DFA0221EF
:102840004DF2181001F028FA00214DF2191001F094
:1028500023FA02214DF21A1001F01EFA01214DF265
:102860001B1001F019FA02214DF21C1001F014FAAC
:1028700034214DF21D1001F00FFA02214DF21E100D
:1028800001F00AFA67214DF21F1001F005FA02214A
:102890004DF2201001F000FA84214DF2211001F0D8
:1028A000FBF902214DF2221001F0F6F9A4214DF2BC
:1028B000231001F0F1F902214DF2241001F0ECF99E
:1028C000B7214DF2251001F0E7F902214DF2261053
:1028D00001F0E2F9CF214DF2271001F0DDF90221DC
:1028E0004DF2281001F0D8F9DE214DF2291001F047
:1028F000D3F902214DF22A1001F0CEF9F2214DF266
:102900002B1001F0C9F902214DF22C1001F0C4F98D
:10291000FE214DF22D1001F0BFF903214DF22E10D2
:1029200001F0BAF910214DF22F1001F0B5F9032191
:102930004DF2301001F0B0F933214DF2311001F0B9
:10294000ABF903214DF2321001F0A6F96D214DF2E1
:10295000331001F0A1F900214FF4524001F09CF92D
:1029600033214DF2012001F097F900214DF20220B0
:1029700001F092F9342101E0380200244DF20320E5
:1029800001F08AF900214DF2042001F085F93A2185
:102990004DF2052001F080F900214DF2062001F0F2
:1029A0007BF94A214DF2072001F076F900214DF222
:1029B000082001F071F95C214DF2092001F06CF959
:1029C00000214DF20A2001F067F981214DF20B2020
:1029D00001F062F900214DF20C2001F05DF9A62111
:1029E0004DF20D2001F058F900214DF20E2001F0BA
:1029F00053F9E5214DF20F2001F04EF901214DF27E
:102A0000102001F049F913214DF2112001F044F991
:102A100001214DF2122001F03FF954214DF2132013
:102A200001F03AF901214DF2142001F035F982212B
:102A30004DF2152001F030F901214DF2162001F080
:102A40002BF9CA214DF2172001F026F902214DF28F
:102A5000182001F021F900214DF2192001F01CF994
:102A600002214DF21A2001F017F901214DF21B202D
:102A700001F012F902214DF21C2001F00DF9342170
:102A80004DF21D2001F008F902214DF21E2001F047
:102A900003F967214DF21F2001F0FEF802214DF2EB
:102AA000202001F0F9F884214DF2212001F0F4F802
:102AB00002214DF2222001F0EFF8A4214DF2232053
:102AC00001F0EAF802214DF2242001F0E5F8B721E7
:102AD0004DF2252001F0E0F802214DF2262001F010
:102AE000DBF8CF214DF2272001F0D6F802214DF27C
:102AF000282001F0D1F8DE214DF2292001F0CCF898
:102B000002214DF22A2001F0C7F8F2214DF22B20CC
:102B100001F0C2F802214DF22C2001F0BDF8FE2197
:102B20004DF22D2001F0B8F803214DF22E2001F0D6
:102B3000B3F810214DF22F2001F0AEF803214DF231
:102B4000302001F0A9F833214DF2312001F0A4F832
:102B500003214DF2322001F09FF86D214DF2332018
:102B600001F09AF800214FF4534001F095F8332119
:102B70004DF2013001F090F800214DF2023001F0E9
:102B80008BF834214DF2033001F086F800214DF22C
:102B9000043001F081F83A214DF2053001F07CF863
:102BA00000214DF2063001F077F84A214DF207304E
:102BB00001F072F800214DF2083001F06DF85C214F
:102BC0004DF2093001F068F800214DF20A3001F0B1
:102BD00063F881214DF20B3001F05EF800214DF2D7
:102BE0000C3001F059F8A6214DF20D3001F054F8E7
:102BF00000214DF20E3001F04FF8E5214DF20F307B
:102C000001F04AF801214DF2103001F045F813218E
:102C10004DF2113001F040F801214DF2123001F077
:102C20003BF854214DF2133001F036F801214DF2FA
:102C3000143001F031F882214DF2153001F02CF8FA
:102C400001214DF2163001F027F8CA214DF217305C
:102C500001F022F802214DF2183001F01DF8002198
:102C60004DF2193001F018F802214DF21A3001F03E
:102C700013F801214DF21B3001F00EF802214DF244
:102C80001C3001F009F834214DF21D3001F004F838
:102C900002214DF21E3000F0FFFF67214DF21F3080
:102CA00000F0FAFF02214DF2203000F0F5FF842100
:102CB0004DF2213000F0F0FF02214DF2223000F001
:102CC000EBFFA4214DF2233000F0E6FF02214DF28C
:102CD000243000F0E1FFB7214DF2253000F0DCFF99
:102CE00002214DF2263000F0D7FFCF214DF22730E0
:102CF00000F0D2FF02214DF2283000F0CDFFDE219E
:102D00004DF2293000F0C8FF02214DF22A3000F0C8
:102D1000C3FFF2214DF22B3000F0BEFF02214DF235
:102D20002C3000F0B9FFFE214DF22D3000F0B4FF41
:102D300003214DF22E3000F0AFFF10214DF22F3065
:102D400000F0AAFF03214DF2303000F0A5FF33213F
:102D50004DF2313000F0A0FF03214DF2323000F08F
:102D60009BFF6D214DF2333000F096FF00214FF4B0
:102D7000544000F091FF33214DF2014000F08CFFF0
:102D800000214DF2024000F087FF34214DF2034054
:102D900000F082FF00214DF2044000F07DFF3A2157
:102DA0004DF2054000F078FF00214DF2064000F0A2
:102DB00073FF4A214DF2074000F06EFF00214DF2F3
:102DC000084000F069FF5C214DF2094000F064FF0B
:102DD00000214DF20A4000F05FFF81214DF20B40CF
:102DE00000F05AFF00214DF20C4000F055FFA621E3
:102DF0004DF20D4000F050FF00214DF20E4000F06A
:102E00004BFFE5214DF20F4000F046FF01214DF24E
:102E1000104000F041FF13214DF2114000F03CFF43
:102E200001214DF2124000F037FF54214DF21340C2
:102E300000F032FF01214DF2144000F02DFF8221FD
:102E40004DF2154000F028FF01214DF2164000F030
:102E500023FFCA214DF2174000F01EFF02214DF260
:102E6000184000F019FF00214DF2194000F014FF46
:102E700002214DF21A4000F00FFF01214DF21B40DC
:102E800000E005E300F008FF02214DF21C4000F0D5
:102E900003FF34214DF21D4000F0FEFE02214DF2F1
:102EA0001E4000F0F9FE67214DF21F4000F0F4FED5
:102EB00002214DF2204000F0EFFE84214DF221402E
:102EC00000F0EAFE02214DF2224000F0E5FEA421CE
:102ED0004DF2234000F0E0FE02214DF2244000F0CC
:102EE000DBFEB7214DF2254000F0D6FE02214DF267
:102EF000264000F0D1FECF214DF2274000F0CCFE5D
:102F000002214DF2284000F0C7FEDE214DF229409B
:102F100000F0C2FE02214DF22A4000F0BDFEF22177
:102F20004DF22B4000F0B8FE02214DF22C4000F093
:102F3000B3FEFE214DF22D4000F0AEFE03214DF216
:102F40002E4000F0A9FE10214DF22F4000F0A4FE0B
:102F500003214DF2304000F09FFE33214DF231400D
:102F600000F09AFE03214DF2324000F095FE6D21F3
:102F70004DF2334000F090FE00214FF4554000F038
:102F80008BFE33214DF2015000F086FE00214DF200
:102F9000025000F081FE34214DF2035000F07CFE1F
:102FA00000214DF2045000F077FE3A214DF2055019
:102FB00000F072FE00214DF2065000F06DFE4A2135
:102FC0004DF2075000F068FE00214DF2085000F06D
:102FD00063FE5C214DF2095000F05EFE00214DF2CF
:102FE0000A5000F059FE81214DF20B5000F054FEC2
:102FF00000214DF20C5000F04FFEA6214DF20D5075
:1030000000F04AFE00214DF20E5000F045FEE52191
:103010004DF20F5000F040FE01214DF2105000F033
:103020003BFE13214DF2115000F036FE01214DF20E
:10303000125000F031FE54214DF2135000F02CFEDE
:1030400001214DF2145000F027FE82214DF215505F
:1030500000F022FE01214DF2165000F01DFECA21A3
:103060004DF2175000F018FE02214DF2185000F0FA
:1030700013FE00214DF2195000F00EFE02214DF218
:103080001A5000F009FE01214DF21B5000F004FE21
:1030900002214DF21C5000F0FFFD34214DF21D5075
:1030A00000F0FAFD02214DF21E5000F0F5FD6721FF
:1030B0004DF21F5000F0F0FD02214DF2205000F0C3
:1030C000EBFD84214DF2215000F0E6FD02214DF28E
:1030D000225000F0E1FDA4214DF2235000F0DCFD70
:1030E00002214DF2245000F0D7FDB7214DF22550BA
:1030F00000F0D2FD02214DF2265000F0CDFDCF218F
:103100004DF2275000F0C8FD02214DF2285000F08A
:10311000C3FDDE214DF2295000F0BEFD02214DF22B
:103120002A5000F0B9FDF2214DF22B5000F0B4FD11
:1031300002214DF22C5000F0AFFDFE214DF22D503A
:1031400000F0AAFD03214DF22E5000F0A5FD102144
:103150004DF22F5000F0A0FD03214DF2305000F051
:103160009BFD33214DF2315000F096FD03214DF2CD
:10317000325000F091FD6D214DF2335000F08CFD86
:1031800000214FF4564000F087FD33214DF20160DD
:1031900000F082FD00214DF2026000F07DFD34213F
:1031A0004DF2036000F078FD00214DF2046000F064
:1031B00073FD3A214DF2056000F06EFD00214DF2E5
:1031C000066000F069FD4A214DF2076000F064FDE1
:1031D00000214DF2086000F05FFD5C214DF20960B6
:1031E00000F05AFD00214DF20A6000F055FD8121EA
:1031F0004DF20B6000F050FD00214DF20C6000F02C
:103200004BFDA6214DF20D6000F046FD00214DF270
:103210000E6000F041FDE5214DF20F6000F03CFD35
:1032200001214DF2106000F037FD13214DF21160C5
:1032300000F032FD01214DF2126000F02DFD54210D
:103240004DF2136000F028FD01214DF2146000F0F2
:1032500023FD82214DF2156000F01EFD01214DF28B
:10326000166000F019FDCA214DF2176000F014FD40
:1032700002214DF2186000F00FFD00214DF219609F
:1032800000F00AFD02214DF21A6000F005FD012157
:103290004DF21B6000F000FD02214DF21C6000F0B9
:1032A000FBFC34214DF21D6000F0F6FC02214DF2D2
:1032B0001E6000F0F1FC67214DF21F6000F0ECFC95
:1032C00002214DF2206000F0E7FC84214DF22160E4
:1032D00000F0E2FC02214DF2226000F0DDFCA421AE
:1032E0004DF2236000F0D8FC02214DF2246000F082
:1032F000D3FCB7214DF2256000F0CEFC02214DF247
:10330000266000F0C9FCCF214DF2276000F0C4FC1C
:1033100002214DF2286000F0BFFCDE214DF2296051
:1033200000F0BAFC02214DF22A6000F0B5FCF22157
:103330004DF22B6000F0B0FC02214DF22C6000F049
:10334000ABFCFE214DF22D6000F0A6FC03214DF2F6
:103350002E6000F0A1FC10214DF22F6000F09CFCCB
:1033600003214DF2306000F097FC33214DF23160C3
:1033700000F092FC03214DF2326000F08DFC6D21D3
:103380004DF2336000F088FC55214FF4704000F09E
:1033900083FCAA214FF2010000F07EFC52214FF283
:1033A000020000F079FC08214FF2030000F074FCE9
:1033B00000214FF2040000F06FFCCC214FF43140AB
:1033C00000F06AFC00214BF2011000F065FC0521C1
:1033D0004FF4364000F060FC70214FF4374000F0AD
:1033E0005BFC70214BF2017000F056FC01214FF4A0
:1033F000384000F051FC03214BF6010000F04CFC7A
:1034000003214BF6020000F047FC03214BF60300BA
:1034100000F042FC02214FF43C4000F03DFC002152
:103420004BF6014000F038FC00214BF6024000F062
:1034300033FCD0214FF4494000F02EFC02214CF621
:10344000011000F029FC50214CF6021000F024FC81
:1034500050214CF6031000F01FFC50214CF60410D4
:1034600000F01AFC00214FF4545000F015FC5521D7
:103470004FF4685000F010FC4FF4885000F0F6FB59
:10348000782001F0E7FE4FF4245000F0EFFBBDE0A0
:103490007F48808841F663118842F8D1E22000F02D
:1034A000E5FB1D2000F0D6FB022000F0D3FB04203A
:1034B00000F0D0FB642001F0CDFEE02000F0D6FB50
:1034C000012000F0C7FB0A2001F0AAFEE02000F076
:1034D000CDFB032000F0BEFB0C2001F0A1FE01207B
:1034E00000F0C4FB0A2001F09BFEE62000F0BEFBCA
:1034F0002F2000F0AFFBFF2000F0ACFBFF2000F01E
:10350000A9FBB02000F0B2FB202000F0A3FB0020BC
:1035100000F0A0FB032000F09DFB40F21F3000F004
:1035200099FB012000F096FB40F2DF1000F092FBC7
:10353000002000F08FFBB42000F098FB042000F086
:1035400089FB40F21F4000F085FB002000F082FB69
:103550002E2000F07FFB002000F07CFB002000F01C
:1035600079FB002000F076FB002000F073FBB62012
:1035700000F07CFB022000F06DFB4FF4037000F0C4
:1035800069FB002000F066FB172000F063FB1520AC
:1035900000F060FB002000F05DFB002000F05AFB13
:1035A000F02000F063FB032000F054FB292000F022
:1035B0005DFBD02000F05AFB002000F04BFBBE204A
:1035C00000F054FB052000F045FBFE2000F042FB1C
:1035D000012000F03FFB002000F03CFB002000F049
:1035E00039FB002000F036FBB82000F03FFB032041
:1035F00000F030FB012000F02DFBBA2000F036FB7C
:10360000012000F027FB642000F054F82048808857
:1036100049F24131884211D01D48808845F210316D
:1036200088420BD01A48808845F21051884205D054
:103630001748808841F6631188421BD115480068FD
:1036400020F00F001449C1F804010846D0F8040125
:1036500020F47060C1F804010846D0F8040140F07D
:103660000400C1F804010846D0F8040140F4806069
:10367000C1F804010020FDF7F3FB012220210748D7
:10368000FDF74CF94FF6FF70FDF7C6FB1CBD0000BF
:103690003802002404410052004000520004025845
:1036A00008B5034800880090BDF8000008BD000080
:1036B0000000086000B50246BE2000F0D7FA0520E1
:1036C00000F0C8FA00EE102AB8EE400B9FED0B1B7D
:1036D00020EE010BBCEEC00B10EE101A88B200F009
:1036E000B9FA012000F0B6FAFF2000F0B3FA00208A
:1036F00000F0B0FA002000F0ADFA00BD6666666624
:1037000066660440F0B50546002400279948807994
:10371000012805D19748808841F66311884208D175
:1037200094488079F0B99348808841F663118842C3
:1037300018D1082D15D2DFE805F00406080A0C0E92
:10374000101206250DE007250BE0042509E00525EC
:1037500007E0012505E0002503E0032501E002253F
:1037600000BF00BF8348808849F24131884211D0B0
:103770008048808845F2103188420BD07D4880888F
:1037800045F21051884205D07A48808841F663118D
:1037900088427DD1082D1CD2DFE805F00406090C13
:1037A0000F12151800BF14E044F0800411E044F03B
:1037B00040040EE044F0C0040BE044F0200408E0B4
:1037C00044F0600405E044F0A00402E044F0E004AA
:1037D00000BF00BF6748808845F21051884202D17F
:1037E0004FF4585700E036276248808845F2103180
:1037F00088420DD05F48808845F21051884207D03A
:103800005C48808841F66311884201D044F0080486
:103810002146384600F040FA5648808841F6631148
:1038200088421DD004F0200068B1524800885149F8
:103830004988884214DA4F48068840884D490880F4
:10384000084646800CE04B4800884A49498888422F
:1038500006DD484806884088464908800846468074
:103860004448808845F21051884254D141494889E2
:1038700000F0FCF9002000F0EDF93E494989491CAF
:1038800088B200F0F3F9002000F0E4F9394900E0D3
:103890006FE04989891C88B200F0E8F93549098848
:1038A000491EC1F30F2000F0D5F932494989C91CDE
:1038B00088B200F0DBF92F490978491EC8B200F040
:1038C000C9F92C49888900F0D1F9002000F0C2F92B
:1038D00028498989491C88B200F0C8F9002000F005
:1038E000B9F924498989891C88B200F0BFF92149B6
:1038F0004988491EC1F30F2000F0ACF91D498989A0
:10390000C91C88B200F0B2F91A498978491EC8B2B8
:1039100000F0A0F92DE01749488900F0A7F9002030
:1039200000F098F9002000F095F912490988491E25
:10393000C1F30F2000F08EF90E490978491EC8B274
:1039400000F088F90B49888900F090F9002000F018
:1039500081F9002000F07EF906494988491EC1F32B
:103960000F2000F077F903498978491EC8B200F0AA
:1039700071F9F0BD3802002410B502460C464B48E0
:10398000808849F24131884205D04848808845F214
:103990001031884214D14549488900F067F9101266
:1039A00000F058F9D0B200F055F94049888900F08C
:1039B0005DF9201200F04EF9E0B200F04BF973E02F
:1039C0003A48808841F66311884247D13748807968
:1039D000A8B936480088401E801A82B23349488907
:1039E00000F044F9002000F035F9002000F032F931
:1039F000101200F02FF9D0B200F02CF916E02B498C
:103A0000488900F033F9101200F024F9D0B200F028
:103A100021F926490988491EC1F30F2000F01AF93F
:103A200022490978491EC8B200F014F91F49888953
:103A300000F01CF9201200F00DF9E0B200F00AF9D4
:103A40001A494988491EC1F30F2000F003F91749AC
:103A50008978491EC8B200F0FDF825E01348808837
:103A600045F2105188421FD11049488900F0FEF8F4
:103A7000101200F0EFF80D494989491C88B200F096
:103A8000F5F8D0B200F0E6F80849888900F0EEF8C1
:103A9000201200F0DFF805498989491C88B200F03E
:103AA000E5F8E0B200F0D6F810BD000038020024BE
:103AB0002DE9F84F80460F4616461C46BB46204669
:103AC000E31704EB5373DB1021464FEAE47C04EB6D
:103AD0005C7C4FEAEC0CA4EBCC0CBCF1000F02D0E8
:103AE0004FF0010C01E04FF0000C6344224604EB60
:103AF000D27C4FEA6C0C03FB0CF3DBB20093A6F113
:103B00002000C6B200255EE00C2C07D106EB460073
:103B10002F4901EB800010F805901BE0102C05D117
:103B20002C4800EB061010F8059013E0182C07D174
:103B300006EBC600284901EB800010F8059009E06B
:103B4000202C05D1254800EBC61010F8059001E0A7
:103B5000BDE8F88F4FF0000A2FE009F0800030B187
:103B60001F48394602684046FDF73AFA07E00A98CE
:103B700028B91C48394602684046FDF731FA4FEA39
:103B800049604FEA1069781C87B217484088B842EC
:103B900000DCDDE7A7EB0B00A0420AD15F4608F18D
:103BA00001001FFA80F810480088404500DCCFE78C
:103BB00006E00AF1010000F0FF0ABAF1080FCCDBC1
:103BC00000BF681CC5B2009885429DDB00BFBFE7FF
:103BD00076670008EA6B0008DA710008367F000893
:103BE0000C00002410000024380200242DE9F84FB6
:103BF00004460D4690469946DDE90A6704F0FF0A3F
:103C000008EB04001FFA80F809EB05001FFA80F9A1
:103C100016E0444502DB5446A81985B24D4500DB49
:103C200014E0002000903A78334629462046FFF7FA
:103C30003FFF304606EBD07104EB61018CB27F1C74
:103C400038787E2802DC38782028E2DA00BFBDE828
:103C5000F88F000001B5BDF800000090BDF800002D
:103C60000149088008BD00000000086001B5BDF8EA
:103C700000000090BDF800000149088008BD000068
:103C8000FEFF076002480089024908807047000073
:103C900038020024FEFF0760024A1080921C118047
:103CA00070470000FEFF07601CB50D48006840F03B
:103CB00002000B4908600120009000230246032106
:103CC00001900848FCF731FE012202210548FCF76B
:103CD00025FE012211460348FCF720FE1CBD000012
:103CE000E04402580004025818B5044606480094FF
:103CF000008B401E83B20448C08A401E82B200215D
:103D0000084600F0B5F818BD4802002470B5034617
:103D10000C4600210020364D2D6825F08055344E8C
:103D2000356001E04D1CA9B2314D2D6805F00055FC
:103D30001DB141F6FF75A942F4DB41F6FF75A942BA
:103D400001D1012052E02A4D28352D6825F07C75DF
:103D5000274E2836356035462D6845EA04553560CE
:103D6000234D40352D686FF30805214E40363560F0
:103D700035462D685E1E35431D4E4036356035464E
:103D80002D6825F0FE45356035462E68551E46EAFD
:103D90000565174E40363560154D2C352D6825F4D8
:103DA0007065134E2C36356035462D6835603546C6
:103DB0002D68356035462D6845F0807535600C4DB1
:103DC0002D6845F080550A4E356001E04D1CA9B2C2
:103DD000074D2D6805F000551DB941F6FF75A94244
:103DE000F4DB41F6FF75A94200D1022070BD00004E
:103DF000004402580949487530B98988074AD18278
:103E000011460988118308E0012806D10349098871
:103E1000024AD182114689881183704748020024E2
:103E200070B5114B5B7D6BB10F4BDB690E4D2D688F
:103E300005FB01056B430C4D2D7D0C4E56F82550AE
:103E4000EA520FE0084B1D685B681B1A5B1E05FBFE
:103E50000313054DED696B43034D2D7D034E56F85D
:103E60002550EA5270BD00004802002414000024CE
:103E70002DE9F04F04460D4616464FF0000CDFF8D2
:103E8000289199F81590B9F1000F04D020462946E1
:103E900032461F4611E02846DFF80C91D9F804900D
:103EA000A9EB0609A9F101011A46DFF8FC90D9F83F
:103EB0000490A9EB0409A9F10107DFF8EC90B9F827
:103EC0000090A2EB000A0AF1010AA9EB0A091FFA05
:103ED00089F8DFF8D49099F81490DFF8D0A05AF858
:103EE0002990DFF8C4A0DAF81CA0DFF8BCB0DBF83A
:103EF00000B00BFB010B0AFB0B9EDFF8B490D9F866
:103F0000009049F01009DFF8A8A0CAF80090DFF887
:103F1000A490D9F8009029F00109DFF898A0CAF818
:103F200000904FF44039CAF800904FF00209CAF8E7
:103F30003490D146C9F84080C9F83CE0A7EB0109AC
:103F400009F10109A2EB000A0AF1010A49EA0A494A
:103F5000DFF860A0CAF84490DDF82490CAF83890E1
:103F6000D146D9F8009049F00109CAF8009005E05F
:103F70000CF1010CBCF5001F00D308E0DFF8349011
:103F8000D9F8049009F00209B9F1000FF0D000BF90
:103F9000DFF82090D9F8089049F00209DFF814A062
:103FA000CAF80890BDE8F08F4802002414000024ED
:103FB000D4440258001000527FB50024002500F0C0
:103FC000D9FA054605B97FBD00F0E4FEE348006874
:103FD00040F00800E1490860081F006840F0020056
:103FE000091F08600846006840F4F070086001206E
:103FF00000900023024620210190D948FCF795FC4F
:104000000120032100230222CDE900108102D548BE
:10401000FCF78BFC0120032100230222CDE90010D4
:104020004FF40C61D048FCF780FC012003210023F1
:104030000222CDE900104FF47E41CC48FCF775FC1C
:104040000120032100230222CDE9001040F2F76194
:10405000C748FCF76AFC0E220A21C248FCF736FC6E
:104060000E220621C048FCF731FC0E220721BE4873
:10407000FCF72CFC0E220B21BB48FCF727FC0E2280
:104080000921BA48FCF722FC0E220A21B748FCF7A6
:104090001DFC0E220B21B548FCF718FC0E220C214A
:1040A000B248FCF713FC0E220D21B048FCF70EFCC1
:1040B0000E221146AD48FCF709FC0E220F21AB4839
:1040C000FCF704FC0E220021A948FCF7FFFB0E229E
:1040D0000121A748FCF7FAFB0E220221A448FCF7B5
:1040E000F5FB0E220421A248FCF7F0FB0E2205216D
:1040F0009F48FCF7EBFB0E2206219D48FCF7E6FBF0
:104100000E2207219A48FCF7E1FB0E22092198486C
:10411000FCF7DCFB0E220A219548FCF7D7FB44F2A2
:104120004230854218D14FF4F070924908604FF444
:1041300088704860012008814881282088810820F3
:10414000C8810520088208204882212219214FF4C5
:104150009670FFF7DBFD6BE047F28400854218D1D3
:104160004FF44870834908604FF4F07048600120B4
:10417000088148812E2088811720C881D22008829A
:1041800016204882092219214FF49670FFF7BEFDD0
:104190004EE047F21600854219D14FF48060754910
:1041A00008604FF41670486014200881032048818D
:1041B0008C2088811420C881A02008820C2048828D
:1041C000062219214FF49670FFF7A0FD30E047F268
:1041D0001800854207D14FF4A060664908604FF48B
:1041E0004870486024E048F21600854206D140112C
:1041F000604908604FF41670486019E041F21800F9
:10420000854215D14FF4A0605A4908604FF44870B8
:1042100048608C2088810A2008820881C8814882F1
:1042200003204881062219214FF49670FFF76EFD96
:10423000002441F21800854201D14FF0805400BFA4
:1042400000BF00BF4C4884614A484089441E494829
:104250000089401E44EA004447488460454840893C
:104260004449C9890844441E424800894149898912
:104270000844401E44EA00443F48C4603D48408929
:104280003C49C98908443B4949680844441E3948A7
:104290000089384989890844364909880844401EFC
:1042A00044EA004434480461324840893149C989AC
:1042B00008443049496808442E49498A0844441E44
:1042C0002C4800892B49898908442A4909880844CF
:1042D0002849098A0844401E44EA004426484461AB
:1042E00000202549C862012000F09EF92348244996
:1042F000086002201F49C861002007210622CDE97D
:104300000002CDE902101E48FF23022201680020AE
:1043100000F03AF802211748808880B2CDE9000108
:104320001448008883B200221146104600F090F82D
:1043300010480088134908800E4880884880002073
:1043400000F06CF9012220210548FCF7E7FA4FF054
:10435000FF30FFF7C9FC00BF35E60000E444025817
:10436000000402580014025800180258001C025899
:10437000002002584802002400100050000000C035
:1043800014000024380200242DE9F04106ACF0CCE2
:1043900090B9DFF84CC0CCF8AC10CCF89420CCF835
:1043A000983047EA046CDFF83880C8F89CC046EAC9
:1043B000052CC8F8A0C011E0DFF824C0CCF82C11FF
:1043C000CCF81421CCF8183147EA046CDFF81080DF
:1043D000C8F81CC146EA052CC8F820C1BDE8F08128
:1043E00000100050012913D140B9184A126842F058
:1043F0000102164B843BC3F884201DE0134A80322F
:10440000126842F00102114B843BC3F8042113E00F
:1044100091B940B90D4A126822F001020B4B843B5E
:10442000C3F8842008E0094A8032126822F00102B1
:10443000064B843BC3F80421044A843A526A42F092
:104440000102024B843B5A62704700008410005006
:104450002DE9F04782460F4690461E46DDE9089456
:10446000BAF1000F3ED1B8194049C968C1F30B41F8
:10447000084405043D48C068C0F30B403844401C64
:1044800028433A498831086008EB09003749C96870
:10449000C1F30A01084405043448C068C0F30A00A7
:1044A0004044401C28433149C1F88C000CB9042514
:1044B0000AE0012C01D1032506E0052C01D0062CD1
:1044C00001D1012500E0022506FB05F0C01D06FB19
:1044D00005F140EA01402549B03108602348C0F8A1
:1044E000B4903CE0B8192149C968C1F30B410844B4
:1044F00005041E48C068C0F30B403844401C2843E4
:104500001B49086008EB09001849C968C1F30A0192
:10451000084405041548C068C0F30A004044401C24
:1045200028431249C1F80C010CB904250AE0012CFA
:1045300001D1032506E0052C01D0062C01D101256F
:1045400000E0022506FB05F0C01D06FB05F140EA70
:1045500001400749283108600448C0F8349101211E
:104560005046FFF73FFFBDE8F08700000010005005
:10457000081100501CB500242548006840F4A070C4
:1045800023490860012000210B460A46CDE90010AE
:1045900040212048FCF7C9F9012000210B460A46BA
:1045A000CDE9001084211C48FCF7BFF9322000F04F
:1045B00037FE40211748FCF7A9F9044604211648A4
:1045C000FCF7A4F944EA4000C4B280211248FCF789
:1045D0009DF944EA8000C4B2062C16D2DFE804F04C
:1045E0000306090C0F1244F242301CBD47F284004E
:1045F000FBE747F21600F8E747F21800F5E748F244
:104600001600F2E741F21800EFE70020EDE70000A6
:10461000E044025800180258002002580149087569
:104620007047000048020024012806D10749896923
:1046300041F00101054A916106E028B90349896901
:1046400021F00101014A9161704700000010005003
:104650000146002002E04908421CD0B20129FAD1EB
:10466000704700000748006820F480300549086062
:1046700004487030006820F0010002497031086081
:104680007047000024ED00E005200549086004485B
:104690007038006840F48030014970390860704714
:1046A00094ED00E00EB501200022CDE900200323A7
:1046B000024641040290400700F046F80120002223
:1046C000CDE9002003230222C10402904FF01050D4
:1046D00000F03AF801200022CDE9002003231A4619
:1046E000C1040290180700F02FF801200022CDE944
:1046F000002003230422010402904FF0605000F0D8
:1047000023F8002000900190032305224FF08061E0
:104710000290580700F018F801200022CDE900208F
:104720000323062241060290500700F00DF80020F6
:1047300000900190032307224FF080510290C8009F
:1047400000F002F80EBD00002DE9F04F05460C46C2
:1047500016461F46DDE90A9ADDF8248000239B46B1
:1047600004F01F0000B914B90120BDE8F08F204605
:10477000FFF76EFF401E00F0FF0BFFF773FF0C48C2
:104780000660001D056000BF43EA076300BF43EAFF
:10479000884343EA494343EA0A4300BF43EA4B03E1
:1047A00043F00103001D0360FFF76EFF0020DCE70C
:1047B00098ED00E02DE9F0410746884614461D4675
:1047C000284600F033F8C5F1040007FA00F60F2080
:1047D000284100EA0800064306F00F06E21704EB42
:1047E000D2625211920002F1E022D2F80021214659
:1047F000E31704EBD3635B11A4EB431C012303FA1F
:104800000CF31A432046E31704EBD3635B119B00C0
:1048100003F1E023C3F800210348005D40EA0610DD
:1048200001490855BDE8F08100E400E00146072396
:1048300023EA01021202054B18684FF6FF031840E5
:10484000034B18431043014B186070470CED00E018
:104850000000FA054A0A52020243014B1A607047EF
:1048600008ED00E010B5002201210A48FCF756F8D7
:1048700009A0FBF7C1FD4FF47A7000F0D1FC0CA049
:10488000FBF7BAFD4FF47A7000F0CAFC00F01CFC94
:1048900010BD0000000402584D656D204163636542
:1048A0007373204572726F7221210D0A000000009F
:1048B000536F6674205265736574696E672E2E2E71
:1048C0000D0A00001CB500241048006840F00200EA
:1048D0000E490860012000210B460A46CDE9001070
:1048E00001030B48FCF721F8FCF7B8F8FCF76CF96A
:1048F0004020FCF733F9FCF7BBF90446FCF78EF9CE
:10490000FF2000F038F820461CBD0000E0440258AB
:104910000004025870B5044600F009F8054601206D
:10492000A040284008B1012070BD0020FCE710B570
:104930000024FCF749F94120FCF710F9FCF798F93D
:104940000020FCF7D5F80446FCF768F9204610BDB6
:1049500070B504460E46FFF7EAFF05461EB9012072
:10496000A040854303E00120A0402843C5B228466B
:1049700000F001F870BD10B50446FCF725F94020A1
:10498000FCF7ECF8FCF774F92046FCF7E7F8FCF7C5
:104990006FF9FCF743F90A2000F042FC10BD00005B
:1049A00010B50023234C236000BF00BF00BFBFF33E
:1049B0004F8F00BF00BF00BF231F1868C0F34E31E8
:1049C00000BFC0F3C90200BF43F6E07303EA41131E
:1049D0004FF0404404EA82742343174C236000BF25
:1049E00000BF131EA2F10102EED10B1EA1F10101C5
:1049F000E7D100BF00BF00BFBFF34F8F00BF00BFB4
:104A000000BF0C4B703B1B6843F48033094C703C77
:104A1000236000BF00BF00BFBFF34F8F00BF00BFC8
:104A200000BF00BF00BF00BFBFF36F8F00BF00BF5C
:104A300000BF10BD84ED00E060EF00E000BF00BFEC
:104A400000BFBFF34F8F00BF00BF00BF00BF00BF5C
:104A500000BFBFF36F8F00BF00BF00BF002014492D
:104A6000086000BF00BF00BFBFF34F8F00BF00BF93
:104A700000BF00BF00BF00BFBFF36F8F00BF00BF0C
:104A800000BF0C48006840F400300A49086000BFCD
:104A900000BF00BFBFF34F8F00BF00BF00BF00BF0C
:104AA00000BF00BFBFF36F8F00BF00BF00BF7047E4
:104AB00050EF00E014ED00E07CB500240025002656
:104AC000AC48006840F48050AA490860A9480C30FE
:104AD000006840F07C00A7490C31086001200321E8
:104AE00000230222CDE900100D21A348FBF71DFF92
:104AF0000120032100230222CDE900104CF20371B2
:104B00009E48FBF712FF0120032100230222CDE97A
:104B100000104FF683719A48FBF707FF012003212D
:104B200000230222CDE900104FF63F019548FBF724
:104B3000FCFE0120032100230222CDE9001048F2EF
:104B400037119148FBF7F1FE0C2200218A48FBF750
:104B5000BDFE0C2202218848FBF7B8FE0C2203217F
:104B60008548FBF7B3FE0C2200218448FBF7AEFE1C
:104B70000C2201218148FBF7A9FE0C2208217F4865
:104B8000FBF7A4FE0C2209217C48FBF79FFE0C22B8
:104B90000A217A48FBF79AFE0C220E217748FBF790
:104BA00095FE0C220F217548FBF790FE0C22002188
:104BB0007348FBF78BFE0C2201217148FBF786FE40
:104BC0000C2207216E48FBF781FE0C2208216C485D
:104BD000FBF77CFE0C2209216948FBF777FE0C22CB
:104BE0000A216748FBF772FE0C220B216448FBF791
:104BF0006DFE0C2211466248FBF768FE0C220D2167
:104C00005F48FBF763FE0C220E215D48FBF75EFE5A
:104C10000C220F215A48FBF759FE0C22002159485B
:104C2000FBF754FE0C2201215648FBF74FFE0C22E5
:104C300002215448FBF74AFE0C2203215148FBF79E
:104C400045FE0C2204214F48FBF740FE0C220521B3
:104C50004C48FBF73BFE0C220B214A48FBF736FE83
:104C60000C2211464748FBF731FE0C220D21454826
:104C7000FBF72CFE0C220E214248FBF727FE0C22EC
:104C80000F214048FBF722FE0C2200213E48FBF793
:104C90001DFE0C2201213C48FBF718FE0C220221CC
:104CA0003948FBF713FE0C2204213748FBF70EFEB0
:104CB0000C2205213448FBF709FE0C22082132485A
:104CC000FBF704FE0C220F212F48FBF7FFFD44F0F9
:104CD000010444F0080444F0100444F0400444F497
:104CE000C07400BF44F4006444F4805400BF2748FB
:104CF000046045F0010545F0700545F4806545F414
:104D0000C04545F4803545F4801545F08075204850
:104D1000C0F84851006840F000401D490860002379
:104D20001A460121184600F059F84FF4FA7000F0C5
:104D300091FA00231A460221184600F04FF800238A
:104D400008220321184600F049F846F0030600BF88
:104D500046F0300600BF46F40076334600220421B8
:104D6000104600F03BF840F28E60084914310860AC
:104D70007CBD0000D444025800080258000C0258C0
:104D80000010025800140258001802584041005206
:104D90000040005210B500240E48006820F4C07096
:104DA0000D49C1F840010846D0F8400140F4807038
:104DB000C1F8400144F0030400BF44F0200400BFE8
:104DC00044F40074234600220421104600F006F843
:104DD00010BD00004041005200400052F0B50446B2
:104DE0000D46002600212943C4F104070120B840E4
:104DF000014341EA421141EA43210948016005E0CB
:104E0000761CB6F5001F01D30120F0BD0448083020
:104E1000006800F020000028F2D100BFF5E7000094
:104E2000504100522DE9F04104460D4616461F46FA
:104E30000120134908600020114910310860104911
:104E400018310860091D0860091D08600C492831E7
:104E50000860091D08600A4960310860012009499D
:104E60000860FBF725FD3B4632462946204600F008
:104E70000BF800214FF00060FFF7ECFCBDE8F0817B
:104E80000044025808810051F0B504460D46002147
:104E90000020894E366826F00406874F3E60864E15
:104EA0000C36366846F44046834F0C373E6000BFF0
:104EB000814E0C36366806F40056002EF8D07F4E30
:104EC000366846F480367D4F3E6001E04E1CB1B23C
:104ED0007A4E366806F400361EB947F6FF76B142C0
:104EE000F4DB47F6FF76B14201D10120E2E0734ED8
:104EF0002836366846F00206704F28373E603E4638
:104F0000366846EA05163E606C4E30363668671ED7
:104F10003E436A4F30373E603E463768561E47EA8A
:104F20004626664F30373E603E4637685E1E47EA8B
:104F30000646624F30373E603E46366846F0807621
:104F40003E603E1F366846F008063F1F3E603E4604
:104F500036683E603E46366846F440363E60574E00
:104F6000366846F08076554F3E6000BF534E366837
:104F700006F00076002EF9D0504E2836366846F4FA
:104F8000C8364E4F28373E604C4E3836366840F2B1
:104F9000B7173E43494F38373E603E46366846F4C1
:104FA00000763E603E46366846F080763E60434E70
:104FB0002C363668414F2C373E603E4636683E60A0
:104FC0003E46366846F400263E603E46366846F465
:104FD00000163E60394E4C36366826F00306374FD1
:104FE0004C373E603E46366846F002063E60334E21
:104FF000366846F08066314F3E6000BF2F4E3668FF
:1050000006F00066002EF9D02C4E1836366846F0B1
:1050100008062A4F18373E603E4636683E60274EE7
:105020001036366846F00306244F10373E6007E01E
:10503000224E10363668C6F3C201032900D100E0C3
:10504000F6E700BF1E4E366846F002061C4F3E6073
:105050003E46366846F020063E60184E18363668E2
:1050600046F04006154F18373E603E1D366846F044
:1050700040063F1D3E603E46366846F480663E6010
:105080003E1D366846F040063F1D3E600B4E3668BA
:1050900046F08006094F3E60084EF436366846F00A
:1050A0000206064FF4373E60064E366846F00106AB
:1050B000044F3E60F0BD00000C4802580044025806
:1050C000002000522004005801480249086070473F
:1050D0000400FA050CED00E010B50C48006800F083
:1050E000010058B10A490869804700200749143176
:1050F00008604FF47A7005491C3108600348006865
:1051000020F001000149086010BD000010080040B7
:105110007C00002470B505460C461048006840F03D
:1051200004000E4908600E480560001F04800C480A
:105130002038006840F0010009492039086008481B
:105140002C38008840F0010005492C3908800223E2
:105150001E2203210846FFF72DFB70BDE8440258CC
:105160002C0800401F49C96901F0200109B31D49FD
:10517000898CC8B21C49098801F40041C9B91A498F
:10518000098801F4804161B10A2803D00021164A40
:10519000118020E01449098841F40041124A11802D
:1051A00019E00D2806D11049098841F480410E4AC2
:1051B000118010E00C490988C1F30D010B4A5054CD
:1051C00009490988491C084A118011460988C729DC
:1051D00001DD002111800349096A41F00801014AFB
:1051E0001162704700100140080000247001002483
:1051F00030380A2801D2012070470020704700BFD4
:10520000704700004FF0E021096941F004014FF0C0
:10521000E02211610149088070470000000000246D
:1052200070B504461E2094FBF0F086B21E2094FB5D
:10523000F0F100FB114085B204E01E2000F030F8D0
:10524000701E86B2002EF8D115B1284600F028F85D
:1052500070BD00000146114A12884A434FF0E02316
:105260005A6100229A611A46126942F001021A61DB
:1052700000BF4FF0E022106900F001021AB100F403
:105280008032002AF5D04FF0E022126922F00102AC
:105290004FF0E0231A6100229A6170470000002459
:1052A0000021134A128842434FF47A735A434FF055
:1052B000E0235A6100229A611A46126942F0010203
:1052C0001A6100BF4FF0E022116901F001021AB12A
:1052D00001F48032002AF5D04FF0E022126922F06A
:1052E00001024FF0E0231A6100229A61704700002A
:1052F0000000002400BF054AD26902F04002002AE3
:10530000F9D0C2B2014B1A8570470000001001406D
:105310001CB50124A04600260127042302220521F2
:10532000A020FFF77FFD4FF4C870FFF76BFF4FF42D
:10533000E131642000F016F95B484168C8208847D5
:10534000FEF7B2FCFFF7AEF9FFF7B6FBFBF7DAFEAC
:10535000FBF7C2FC4FF478405449086054A0102178
:105360000B46C822CDE9001032211E20FEF73EFC7C
:1053700055A010210B46C822CDE9001046211E2061
:10538000FEF734FC54A010210B46C822CDE90010D2
:105390005A211E20FEF72AFC53A010210B46C822DA
:1053A000CDE900106E211E20FEF720FC51A0102137
:1053B0000B46C822CDE9001082211E20FEF716FC04
:1053C00051A010210B46C822CDE9001096211E20C5
:1053D000FEF70CFC23E050A010210B46C822CDE9BB
:1053E0000010AA211E20FEF701FC4FF4FA70FFF70F
:1053F00017FF4FA010210B46C822CDE90010AA21AB
:105400001E20FEF7F3FB4FF4FA70FFF709FF84F05C
:1054100001000446024602214B48FBF77FFAFFF7E2
:1054200051FA0028D7D149A010210B46C822CDE956
:105430000010AA211E20FEF7D9FB1F201B4908607F
:1054400030E00020FBF780FC0546012D07D107B9AD
:1054500000E00020074639460020FFF779FA4FF4B4
:1054600080513948FBF752FA60B90420FFF752FA2D
:1054700005463DB988F001008046024601213248C8
:10548000FBF74CFA701C86B20A20FFF7C9FE142EF7
:1054900008D184F001000446024602212A48FBF7A5
:1054A0003DFA0026CDE700007C0000240C0000241B
:1054B00041706F6C6C6F2053544D333246342F461D
:1054C000372F483700000000504346383537342026
:1054D000544553540000000041544F4D40414C4945
:1054E000454E54454B000000323031382F362F31B5
:1054F000340000004B4559303A42454550204F4E4C
:105500002F4F4646000000004558494F3A4453315A
:10551000204F4E2F4F4646005043463835373420F3
:10552000436865636B204661696C65642100000017
:10553000506C6561736520436865636B2120202092
:10554000202020202000000000040258504346384C
:1055500035373420526561647921000001460868BE
:10556000704700007CB505460C462948684300EBAF
:105570005400B0FBF4F62748006840F001002549CC
:10558000086024481030006840F0100021491031B4
:10559000086001200090002302224FF4C0610190B6
:1055A0001D48FBF7C2F9072209211B48FBF78EF9BA
:1055B00007220A211848FBF789F91848C66000201D
:1055C00016490860084600680860084600680860D8
:1055D0000846006808600846006840F00800086057
:1055E0000846006840F0040008600846006840F083
:1055F000200008600223252203210846FFF7DAF87D
:105600000648006840F00100044908607CBD0000C5
:1056100040420F00E04402580000025800100140D0
:1056200030B595B0054613AB12AA09A9284600F07B
:105630003FFA044614B1204615B030BD0020149046
:1056400026E0224909689DF8502001EBC20113AB06
:1056500011AA486801A900F02BFA04460CB12046B3
:10566000EAE709A901A800F0DDFC60B99DF8440053
:105670009DF84810884201DD0220DDE79DF85000CA
:10568000124988750AE09DF85000401CC0B2149081
:105690000E48007D9DF850108842D2DC00BF0B48B8
:1056A000007D9DF85010884201D10420C4E714A960
:1056B000284600F0DDFA04460CB12046BCE79DF810
:1056C0005000024948750020B6E700007C00002425
:1056D0002DE9F0419AB09C48847D007DA04202DC17
:1056E0001AB0BDE8F0819849096801EBC40106AB26
:1056F00007AA486808A900F0DBF908A993A0FAF7FF
:105700007BFE002644E09048008B0121B140084018
:10571000D8B122218FA0FAF76FFE304600F02EFBA1
:1057200089492431471839468BA0FAF765FE2221B2
:1057300088A0FAF761FE304600F020FB8249243150
:10574000084410A941F8260018E0304600F016FB86
:105750007D492431085810A941F826007A48C07DB7
:1057600030B910A850F826107CA0FAF745FE05E0E5
:1057700010A850F826107AA0FAF73EFE9DF81C00FB
:10578000401EB04202D078A0FAF736FE701CC6B2B6
:105790009DF81C008642B6DB74A0FAF72DFE00F0DF
:1057A0003DFB6948407D0B280DD2DFE800F0060D77
:1057B000151E27323F4E5F7287006349096851F812
:1057C00034008047054690E05F4A126852F8341072
:1057D00010988847054688E05B4B1B6853F83420D7
:1057E000DDE91001904705467FE0574F3F6857F8C5
:1057F000343010A807C89847054676E0DFF848C15E
:10580000DCF800C05CF8347010A80FC8B847054633
:105810006BE01498DFF830C10090DCF800C05CF851
:10582000347010A80FC8B84705465EE0DDE91401E2
:10583000DFF814C1CDE90001DCF800C05CF8347079
:1058400010A80FC8B84705464FE0DDE914121698B6
:10585000DFF8F4C0CDE900120290DCF800C05CF87B
:10586000347010A80FC8B84705463EE0DDE91423A0
:10587000DDE91610DFF8D0C0CDE90023CDE9021034
:10588000DCF800C05CF8347010A80FC8B8470546B3
:105890002BE0DDE91523DDE91710CDE90123CDE982
:1058A00003101498DFF8A0C00090DCF800C05CF88A
:1058B000347010A80FC8B847054616E0DDE9162376
:1058C000DDE91810CDE90223CDE90410DDE914016A
:1058D000DFF874C0CDE90001DCF800C05CF834707A
:1058E00010A80FC8B847054600BF00BF00F056FA21
:1058F0009DF8180001280CD11348C07D20B9294615
:105900001BA0FAF779FD07E029461BA0FAF774FD02
:1059100002E018A0FAF770FD0B4890F8EC0088B18F
:105920000948D0F8F0000A21B0FBF1F201FB1207A0
:105930000548D0F8F000B0FBF1F83A46414611A016
:10594000FAF75AFD00BFCBE67C0000240D0A257350
:10595000280000002563000025730000256C64000A
:1059600030582558000000002C00000029000000DD
:105970003D256C753B0D0A003D305825583B0D0AFE
:105980000000000046756E6374696F6E2052756E7C
:105990002054696D653A25642E2531646D730D0AB6
:1059A00000000000F0B50346154600200022002646
:1059B00000245BE01F782C2F01D104B901221F784D
:1059C000292F01D01F780FB904B950E0002E3AD129
:1059D0001F78302F02DB1F78392F17DD1F782D2F0E
:1059E00014D01F782B2F11D01F78612F02DB1F7866
:1059F000662F0BDD1F78412F02DB1F78462F05DD58
:105A00001F78582F02D01F78782F0CD102B12EE0CA
:105A10001F78612F03DB1F78203F0F7001E01F7894
:105A20000F70491C1FE01F78222F04D102B11EE025
:105A30000126012417E01F78202F14D01F782C2F67
:105A400011D0FF2613E01F78222F00D1002402B1CD
:105A50000DE044B11F785C2F02D15B1C471CF8B2EB
:105A60001F780F70491C471CF8B25B1CA2E700BFEF
:105A700000270F702E70F0BD10B504460020107086
:105A80000BE020780870641C491C1078401C1070D2
:105A90001078984201DB012010BD2078202802D028
:105AA00020780028EDD10020087000BFF4E7000046
:105AB0002DE9FF4F85B080468946002700200490DD
:105AC0000390012002904FF0000B002544461DE09A
:105AD0002078202816D005F07F00052812DA0DB9AD
