:020000040800F2
:10000000984B002499030008BD030008BF030008B3
:10001000914F0008C3030008C5030008000000005A
:10002000000000000000000000000000C7030008FE
:10003000C903000800000000CB030008CD0300083E
:10004000CF030008CF030008CF030008CF03000848
:10005000CF030008CF030008CF030008CF03000838
:10006000CF030008CF030008CF030008CF03000828
:10007000750C0008CF030008CF030008CF03000869
:10008000CF030008CF030008CF030008CF03000808
:10009000CF030008CF030008CF030008CF030008F8
:1000A000CF030008CF030008CF030008CF030008E8
:1000B000CF030008D96100088D620008CF03000853
:1000C000CF030008CF030008CF030008CF030008C8
:1000D000CF03000801640008CF030008CF03000825
:1000E000CF030008CF03000800000000CF03000882
:1000F000CF030008CF030008CF030008CF03000898
:10010000CF030008CF030008C9620008CF0300082E
:10011000CF030008CF030008CF030008CF03000877
:10012000CF030008CF030008CF030008CF03000867
:10013000CF030008CF030008CF030008CF03000857
:1001400000000000000000000000000000000000AF
:10015000CF030008CF030008CF030008CF03000837
:10016000CF030008CF030008CF030008CF03000827
:10017000CF030008CF030008E909000800000000D1
:10018000CF030008CF030008CF030008CF03000807
:10019000CF030008CF030008CF030008CF030008F7
:1001A000CF030008CF030008CF030008CF030008E7
:1001B000CF030008CF030008CF030008CF030008D7
:1001C000CF030008CF030008CF030008CF030008C7
:1001D000CF030008CF030008CF030008CF030008B7
:1001E000CF030008CF030008CF030008CF030008A7
:1001F000CF030008CF030008CF030008CF03000897
:10020000CF030008CF030008CF030008CF03000886
:10021000CF030008CF030008CF030008CF03000876
:10022000CF030008CF030008CF0300080000000040
:10023000CF030008CF03000800000000CF03000830
:10024000CF030008CF030008CF030008CF03000846
:10025000CF030008CF030008CF030008CF03000836
:10026000CF030008CF030008CF030008CF03000826
:10027000CF030008CF030008CF03000800000000F0
:10028000CF03000800000000CF03000800000000BA
:1002900000000000CF03000800F002F800F06DF845
:1002A0000AA090E8000C82448344AAF10107DA45D1
:1002B00001D100F062F8AFF2090EBAE80F0013F0B6
:1002C000010F18BFFB1A43F00103184718E10000A3
:1002D00038E100000A444FF0000C10F8013B13F025
:1002E000070408BF10F8014B1D1108BF10F8015B8F
:1002F000641E05D010F8016B641E01F8016BF9D182
:1003000013F0080F1EBF10F8014BAD1C0C1B09D1D8
:100310006D1E58BF01F801CBFAD505E014F8016B4A
:1003200001F8016B6D1EF9D59142D6D370470000DC
:100330000023002400250026103A28BF78C1FBD8EE
:10034000520728BF30C148BF0B607047642900F0D6
:10035000C380752900F0C080782900F0F9806329F6
:1003600000F06B82732900F07082002070471FB587
:1003700008F00EF81FBD10B510BD00F081FA11464F
:10038000FFF7F5FF06F0AEFB00F09FFA03B4FFF7AE
:10039000F2FF03BC06F081F8DFF84000016841F489
:1003A00070010160BFF34F8FDFF83400016821F066
:1003B00040410160BFF36F8F0A480047FEE7FEE748
:1003C000FEE7FEE7FEE7FEE7FEE7FEE7FEE7FEE705
:1003D00005480649044A064B7047000088ED00E0D6
:1003E00034EF00E09902000898430024984B002461
:1003F00098430024704700000FB4044910B503AAC5
:10040000029800F027FA10BC5DF814FB600000248D
:100410000FB41CB5074B06AA7B44694600900598AB
:1004200000F0E9F90020694600F0F8F91CBC5DF81D
:1004300014FB00000104000070B5044685690068E3
:10044000C10601D5302600E02026C00707D070BDC8
:10045000D4E9012130469047206A401C20626D1E7D
:10046000F6D570BD70B5044685690078C00707D120
:1004700070BDD4E9012120209047206A401C2062F1
:100480006D1EF6D570BD70B50C460546012A05D027
:100490002878800600D5EA69002302E0012305E000
:1004A0005B1C934202D2E05C0028F9D1A869E618EF
:1004B000C01AA861286A184428622846FFF7BCFFC2
:1004C00004E0D5E9012114F8010B9047B442F8D3B8
:1004D0002846FFF7C7FF70BD2DE9F041064600240E
:1004E00010687529314616A510D0AFF3008000289A
:1004F00002DA404213A507E031688A0701D512A548
:1005000002E0490704D511A5012401E0AFF3008002
:1005100000210A2206F1240709E0B0FBF2FCB0FB3F
:10052000F2F302FB1C00303078541846491C0028B6
:10053000F3D123462A463046BDE8F04100F0FCB82E
:10054000000000002D0000002B0000002000000033
:1005500070B504460D4621461068AFF3008021882F
:10056000090502D50F4A7A4402E00E4A7A440E3257
:10057000002104F1240305E000F00F060009965D58
:100580005E54491C0028F7D120780023000704D5C9
:10059000702D02D009B1022311322046BDE870400F
:1005A00000F0CAB8ADDA00002DE9F05F89460446D4
:1005B0004FF0000ADFF874B1FB44C0F820A02046D9
:1005C000E1688847002874D0252806D0D4E90121A5
:1005D0009047206A401C2062F1E700265F462046D3
:1005E000E16888472028054607DB312D05D27819B8
:1005F00010F8200C08B10643F1E7B00701D526F04A
:100600000406C4F81CA00027C4F818A02A2D09D09D
:10061000284605F03BFF38B304EB8708303DC8F8A7
:10062000185019E059F8041B204604EB8702916129
:10063000E1688847012F054618D1E069002820DAD3
:1006400026F020061DE0D8F8180000EB800005EB2E
:1006500040003038C8F818002046E1688847054651
:1006600005F014FF0028EED1012F0AD02E2D08D15D
:100670002046E16888477F1C0546022F46F0200689
:10068000C4DBA069002803DA404246F00106A061FD
:10069000F00701D026F010066C2D0BD0682D09D084
:1006A0004C2D39D06A2D35D0742D35D07A2D33D0DC
:1006B00016E038E0E1682F4620468847B8420546F4
:1006C00009D16C2F26D04FF48060E16806432046A4
:1006D0008847054604E06C2F1AD04FF4807006431B
:1006E0000DB3A5F14100192802D8203546F4006663
:1006F0004A462946204626604E46FFF727FE80B12F
:1007000001280BD0F61D26F0070000F1080956E776
:100710004020E4E78020D8E70020D6E706F104096E
:100720004DE7284652E7206ABDE8F09F83DA0000D3
:1007300070477047704770472DE9F0470D4699465E
:100740009246044600F124080168880604D5E06951
:1007500021F01001216000E00120A84201DD471BCB
:1007600000E00027A1697A1902EB0900081AA061CC
:100770002078C00602D42046FFF75EFE002608E07F
:10078000D4E901211AF806009047206A401C761C23
:1007900020624E45F4DB2078C0060AD52046FFF7DC
:1007A0004BFE06E0D4E9012130209047206A401C2E
:1007B0002062381EA7F10107F4DC07E0D4E901212B
:1007C00018F805009047206A401C2062281EA5F1F9
:1007D0000105F3DC2046FFF745FE2078000602D530
:1007E0000220BDE8F0870120FBE7000001694A1CF8
:1007F00002610878704700B58FB0CDE90131002162
:10080000059105497944CDE9031011466846FFF783
:10081000CBFE0FB000BD0000E5FFFFFF0A6802F845
:10082000010B0A60704710B5436913B1AFF3008044
:1008300001E0FFF728FE012010BD127800F124012D
:100840000A7000224A700122EDE711684FF0FF3272
:10085000E9E70000074B70B50D467B44FFF7CBFF7F
:100860000446284600F008F810B14FF0FF3070BD84
:10087000204670BD335D0000007B00F080007047B3
:10088000754600F02BF8AE4605006946534620F049
:100890000700854618B020B5FFF79AFDBDE8204057
:1008A0004FF000064FF000074FF000084FF0000B2C
:1008B00021F00701AC46ACE8C009ACE8C009ACE8DF
:1008C000C009ACE8C0098D46704710B50446AFF3C7
:1008D00000802046BDE81040FFF758BD0048704733
:1008E0003443002410B505F019F804F0C9FF03489B
:1008F000006840F004000149086010BD9CEF00E072
:1009000010B500230D4C236023461B6843EA4013B7
:10091000236023461B6843EA8113236023461B6838
:1009200043EAC213236023461B6843F480432360D9
:1009300023461B6843F00103236010BD00000248FA
:100940002DE9F04706460D4617469846DDF82090FB
:1009500000242148006840F001001F4908601E483B
:100960003038006840F001001B493039086000BF92
:100970001A48806A00F001000028F9D14B2018497C
:1009800008601648806840F474601449886021202B
:10099000C86314480863084646638563C76200BF9E
:1009A00044F4807400BF44EA892444F4805444EA47
:1009B000483444F4003400BF00BF4DB144F48024F7
:1009C00044F0100402230C220321184604F088FA94
:1009D00002488462BDE8F087D84402580000024013
:1009E000040802402800024810B50F48006900F0D2
:1009F0000100B8B105F0DAFD0B48406940F0010094
:100A0000094948610948007880F0010007490870E9
:100A100002460121064800F06BF906480078401CA8
:100A20000449087010BD0000000002489000002436
:100A300000040258880000241CB5002456480068B1
:100A400040F00100544908600846006840F0020088
:100A500008600846006840F0040008600846006826
:100A600040F0080008600846006840F08000086018
:100A7000081F006840F00100091F086001200321E1
:100A800000230222CDE900104021444800F037F94C
:100A90000120032100230222CDE900104FF46071F0
:100AA0003F4800F02CF90120032100230222CDE968
:100AB00000104FF43C613B4800F021F90120032174
:100AC00000230222CDE900100821374800F017F971
:100AD0000120032100230222CDE900100102334846
:100AE00000F00DF90D220821304800F0D9F80D2250
:100AF00006212A4800F0D4F80D220721284800F0EA
:100B0000CFF80D220621274800F0CAF80D22072150
:100B1000244800F0C5F80D220821224800F0C0F852
:100B20000D2209211F4800F0BBF80D220B211D48A2
:100B300000F0B6F80D2203211B4800F0B1F80D2299
:100B40000821174800F0ACF80D220921144800F0E4
:100B5000A7F800201649C8601F204861002088615E
:100B6000C8610862486200BF00BF00BF44F02004B3
:100B700000BF00BF00BF00BF0846C06840F00100D2
:100B8000C86044F480440846046002234E2219469B
:100B9000184604F0A5F91CBDE044025800000258B4
:100BA0000004025800080258000C0258001C0258A9
:100BB000000002482DE9F04104460D4616461F4646
:100BC00000F040F84FF6FF7000F010FB3B46324655
:100BD0002946204603F08EF93B463246002108465E
:100BE00004F082FC0021084603F0E8F803F036FB2D
:100BF0000648806A40F001000449886204480068A1
:100C000040F0010002490860BDE8F08100000240A8
:100C10000000024810B50021084603F0CFF803F0A9
:100C20001DFB0648806A40F00100044988620448C0
:100C3000006840F001000249086010BD0000024059
:100C4000000002480948006820F0010007490860D8
:100C500000BF0648006800F001000028F9D10448F0
:100C6000806A20F001000249886270470000024853
:100C70000000024010B50848006800F4006050B160
:100C80000548806840F400600349886003480068B4
:100C9000804704F0B7FD10BD000002408C00002426
:100CA00030B5CC1000F1200353F824304C07E50E8A
:100CB0000F24AC40A343CD1000F1200444F82530AC
:100CC000CC1000F1200353F824304C07E40E02FA54
:100CD00004F42343CD1000F1200444F8253030BD46
:100CE00002461069084008B1012070470020FCE767
:100CF00002F001030BB1018300E0418370472DE94D
:100D0000F0470C46DDE90867002100258C4600BF4E
:100D100060E04FF0010808FA01F504EA050CAC4563
:100D200057D1D0F800804FEA410A4FF0030909FA81
:100D30000AF928EA0908C0F80080D0F800804FEAD4
:100D4000410902FA09F948EA0908C0F80080012AB5
:100D500001D0022A27D1D0F808804FEA410A4FF08B
:100D6000030909FA0AF928EA0908C0F80880D0F846
:100D700008804FEA410906FA09F948EA0908C0F86B
:100D80000880D0F804904FF0010808FA01F829EA29
:100D90000809C0F80490D0F8048003FA01F948EA81
:100DA0000908C0F80480D0F80C804FEA410A4FF0DF
:100DB000030909FA0AF928EA0908C0F80C80D0F8F2
:100DC0000C804FEA410907FA09F948EA0908C0F816
:100DD0000C80491C10299CD3BDE8F08710B5002277
:100DE00010211248FFF784FF1048006820F440608B
:100DF0000E4908600846006840F4806008600022E0
:100E000020210A48FFF774FF022005F071FB012240
:100E100010210648FFF76CFF022005F069FB002255
:100E200010210248FFF764FF10BD0000001C0258AB
:100E30001CB50D48006840F080000B490860012097
:100E400000210B460246CDE9001030210748FFF78C
:100E500056FF012210210548FFF74AFF01222021F9
:100E60000248FFF745FF1CBDE0440258001C025831
:100E700010B5002210211248FFF73AFF1048006811
:100E800020F440600E4908600846006840F4806025
:100E90000860012220210A48FFF72AFF022005F0FE
:100EA00027FB012210210648FFF722FF022005F050
:100EB0001FFB002210210248FFF71AFF10BD00009F
:100EC000001C025870B5054600241848006820F43C
:100ED00040601649086008460068086000261AE06D
:100EE000002210211148FFF703FF022005F000FB4C
:100EF000012210210D48FFF7FBFE6006040E2021A1
:100F00000A48FFF7EDFE08B1601CC4B2012005F0ED
:100F1000EFFA701CC6B2082EE2DB15B9FFF7A8FF86
:100F200001E0FFF75BFF204670BD0000001C025887
:100F300070B504461848006820F4406016490860FF
:100F40000846006840F480600860002210211248C2
:100F5000FFF7CEFE00251BE0E20920210E48FFF737
:100F6000C7FE6006040E022005F0C2FA012210211D
:100F70000948FFF7BDFE022005F0BAFA0022102151
:100F80000548FFF7B5FE022005F0B2FA681CC5B2AD
:100F9000082DE1DB70BD0000001C025810B513489D
:100FA000006820F44060114908600846006840F479
:100FB00080600860012220210C48FFF799FE012281
:100FC00010210A48FFF794FE042005F091FA002250
:100FD00020210648FFF78CFE042005F089FA002244
:100FE00010210248FFF784FE10BD0000001C0258CB
:100FF00010B51348006820F44060114908600846A5
:10100000006840F480600860002210210C48FFF75F
:101010006FFE002220210A48FFF76AFE042005F037
:1010200067FA012210210648FFF762FE042005F04E
:101030005FFA012220210248FFF75AFE10BD00008E
:10104000001C025810B500241748006820F44060C6
:1010500015490860084600680860012220211248EE
:10106000FFF746FE012005F043FA012210210E4849
:10107000FFF73EFE012005F03BFA07E0601CC4B21A
:10108000FA2C03DDFFF7B4FF012010BD2021064834
:10109000FFF726FE0028F1D1002210210248FFF7B9
:1010A00027FE0020F1E70000001C02581CB517487D
:1010B000006840F00100154908600846006840F0EB
:1010C000040008600846006840F0800008600220C4
:1010D00000210B460A46CDE9001001210C48FFF71C
:1010E0000EFE012000210B460A46CDE90010410307
:1010F0000848FFF704FE012000210B460A46CDE90F
:1011000000100C210448FFF7FAFD1CBDE044025812
:101110000000025800080258001C025810B504468E
:1011200014B101202D4908702C480078002839D0CE
:1011300008212B48FFF7D4FD80B104212848FFF790
:10114000CFFD58B14FF400512648FFF7C9FD28B133
:1011500001212548FFF7C4FD012823D10A2005F00D
:10116000ADF900201D49087008211D48FFF7B8FDA2
:1011700008B9012010BD04211948FFF7B1FD08B9D5
:101180000220F7E74FF400511648FFF7A9FD08B910
:101190000320EFE701211448FFF7A2FD01281BD12E
:1011A0000420E7E708210E48FFF79AFD012813D134
:1011B00004210B48FFF794FD01280DD14103094894
:1011C000FFF78EFD012807D101210748FFF788FDB1
:1011D00010B90120014908700020CBE778000024F5
:1011E000001C0258000802580000025870B504465E
:1011F00000260D4805880D48006818B1204603F008
:101200005FF80FE00848408845430021084602F097
:10121000D5FD03F023F8002602E005490C80761C7A
:10122000AE42FAD370BD00000443002414430024EE
:101230000000086010B504465C4884715C48006892
:1012400050B1204603F06CF95948C08A57490880CC
:101250005748008B488010BD002C51D1F0205349D5
:1012600008804FF4A07048800846808849F24131D8
:10127000884205D04D48808845F21031884214D10B
:101280002C204A4908812A2048812B208881084641
:10129000808845F21031884206D14FF4A07043494E
:1012A00008804FF4F07048807BE04048808845F229
:1012B0001051884210D14FF430503C4908814FF40E
:1012C000285048814FF42C5088814FF4F0700880EA
:1012D0004FF44870488064E03448808841F66311D8
:1012E00088425ED12C20314908812B2048812A2058
:1012F00088814FF4F07008804FF44870488050E0C7
:101300004FF4A07029490880F02048800846808862
:1013100049F24131884205D02448808845F2103195
:10132000884207D12C20214908812A2048812B207E
:10133000888129E01D48808845F21051884210D1EB
:101340004FF43050194908814FF4285048814FF428
:101350002C5088814FF4487008804FF4F07048801A
:1013600012E01248808841F6631188420CD12C208B
:101370000E4908812A2048812B2088814FF448702B
:1013800008804FF4F07048800848808845F210319A
:10139000884206D14FF4F070044908804FF4A070E1
:1013A0004880002002F0D0FB00BF54E70443002433
:1013B0001443002470B504460D46164643480068A1
:1013C00028B132462946204603F0C0F870BD404897
:1013D000808849F24131884205D03D48808845F2F5
:1013E0001031884214D13A49488902F02BFF20126B
:1013F00002F01CFFE0B202F019FF3549888902F0C3
:1014000021FF281202F012FFE8B202F00FFF54E0B1
:101410002F48808845F21051884220D12C494889B4
:1014200002F010FF201202F001FF29494989491CEE
:1014300088B202F007FFE0B202F0F8FE2449888982
:1014400002F000FF281202F0F1FE21498989491CAF
:1014500088B202F0F7FEE8B202F0E8FE2DE01C4888
:10146000808841F66311884227D11948807920B9D4
:1014700017480088401E001B84B21549488902F0B5
:10148000E1FE201202F0D2FEE0B202F0CFFE201206
:1014900002F0CCFEE0B202F0C9FE0D49888902F0EC
:1014A000D1FE281202F0C2FEE8B202F0BFFE2812FE
:1014B00002F0BCFEE8B202F0B9FE05480089054919
:1014C0000880891C0E8000BF80E7000014430024C0
:1014D00004430024FEFF07602DE9F84F05460E4641
:1014E00017469846DDF828904FF0000B1448006826
:1014F00040B143463A4631462846CDF8009003F0C5
:101500004DF81BE0781B401C1FFA80FB344613E0AB
:101510002146284602F052FC02F0A0FE4FF0000ADD
:1015200006E00849A1F800900AF101001FFA80FACC
:10153000DA45F6DB601C84B24445E9DDBDE8F88F8E
:1015400014430024000008601CB503F0A9FBFD490A
:1015500088800846808818B103F0C4F802F078BA91
:10156000F948006840F00200F74908600846006842
:1015700040F018000860F4480C38006840F48050CF
:10158000F1490C3908600120009000230246202117
:101590000190EE48FFF7B3FB012003210023022254
:1015A000CDE900104EF2B371E948FFF7A8FB012026
:1015B000032100230222CDE900104FF68071E54897
:1015C000FFF79DFB0C220021E148FFF769FB0C228D
:1015D0000121DF48FFF764FB0C220421DC48FFF700
:1015E0005FFB0C220521DA48FFF75AFB0C2207218A
:1015F000D748FFF755FB0C220821D548FFF750FBD1
:101600000C220921D248FFF74BFB0C220A21D048BB
:10161000FFF746FB0C220D21CD48FFF741FB0C22C2
:101620000E21CB48FFF73CFB0C220F21C848FFF7E7
:1016300037FB0C220721C748FFF732FB0C22082199
:10164000C448FFF72DFB0C220921C248FFF728FBF5
:101650000C220A21BF48FFF723FB0C220B21BD48B7
:10166000FFF71EFB0C221146BA48FFF719FB0C22AC
:101670000D21B848FFF714FB0C220E21B548FFF7E7
:101680000FFB0C220F21B348FFF70AFB0020B249E1
:1016900008604860B1490860AF48006840F4805075
:1016A000AD4908600846006840F48040086008467C
:1016B000006840F01000086008464068486008462E
:1016C000406840F00F0048600846406840F49C4085
:1016D0004860A2480068C1F804010846D0F8040137
:1016E00040F00F00C1F804010846D0F8040140F4AE
:1016F0007060C1F804010846006840F0010008600D
:101700000846006840F000400860322004F0D6FE31
:10171000D32002F097FD02F0E5F98A49888002F0B3
:10172000E1F98849888002F0DDF986498880084619
:1017300080884FF6FF7101EA00208249888002F01C
:10174000D1F98049898808437E4988800846808885
:1017500049F24131884278D0D42002F073FD02F082
:10176000C1F97849888002F0BDF97649888002F095
:10177000B9F974498880084680884FF6FF7101EAFC
:1017800000207049888002F0ADF96E4989880843CD
:101790006C4988800846808845F21031884254D0D0
:1017A0004FF45A4002F04EFD02F09CF965498880E2
:1017B0004FF45B4002F046FD02F094F961498880E5
:1017C000084680884FF6FF7101EA00205D49888055
:1017D0004FF45C4002F036FD02F084F959498988E3
:1017E00008435849888008468088B0F5004F02D1E8
:1017F00045F2105088805348808845F21051884245
:1018000023D0A12002F01EFD02F06CF94D49888022
:1018100002F068F94B498880084680884FF6FF71CE
:1018200001EA00204749888002F05CF9454989882F
:101830000843444988800846808845F2617188429F
:1018400003D141F663103F4988803E48818844A017
:10185000FEF7D2FD3B48808849F24131884270D181
:10186000CF2002F0EFFC002002F0E0FCC12002F0EB
:10187000DDFC302002F0DAFCED2002F0E3FC642015
:1018800002F0D4FC032002F0D1FC122002F0CEFCC6
:10189000812002F0CBFCE82002F0D4FC852002F08D
:1018A000C5FC102002F0C2FC7A2002F0BFFCCB2065
:1018B00002F0C8FC392002F0B9FC2C2002F0B6FC82
:1018C000002002F0B3FC342002F0B0FC022002F051
:1018D000ADFCF72002F0B6FC202002F0A7FCEA20C5
:1018E00002F0B0FC002002F0A1FC002002F09EFCFF
:1018F000C02002F0A7FC1B2002F098FCC12002F0DF
:10190000A1FC012002F092FCC52002F09BFC3020DB
:1019100002F08CFC302002F089FCC72002F092FC1F
:10192000B72002F083FC362002F08CFC482002F045
:101930007DFC3A2002F086FC552002F077FCB120B5
:1019400016E0BAE004430024E044025800040258C0
:10195000000C02580010025800400052044100528E
:10196000204C43442049443A25780D0A00000000E9
:1019700002F068FC002002F059FC1A2002F056FC2C
:10198000B62002F05FFC0A2002F050FCA22002F018
:101990004DFCF22002F056FC002002F047FC26200D
:1019A00002F050FC012002F041FCE02002F04AFC71
:1019B0000F2002F03BFC2A2002F038FC282002F025
:1019C00035FC082002F032FC0E2002F02FFC08202B
:1019D00002F02CFC542002F029FCA92002F026FC85
:1019E000432002F023FC0A2002F020FC0F2002F02A
:1019F0001DFC002002F01AFC002002F017FC002061
:101A000002F014FC002002F011FCE12002F01AFCAC
:101A1000002002F00BFC152002F008FC172002F059
:101A200005FC072002F002FC112002F0FFFB06205B
:101A300002F0FCFB2B2002F0F9FB562002F0F6FB33
:101A40003C2002F0F3FB052002F0F0FB102002F036
:101A5000EDFB0F2002F0EAFB3F2002F0E7FB3F2006
:101A600002F0E4FB0F2002F0E1FB2B2002F0EAFB86
:101A7000002002F0DBFB002002F0D8FB012002F086
:101A8000D5FB3F2002F0D2FB2A2002F0DBFB002036
:101A900002F0CCFB002002F0C9FB002002F0C6FBE4
:101AA000EF2002F0C3FB112002F0CCFB782004F001
:101AB00005FD292002F0C6FB50E5FE48808845F26E
:101AC0001031884240F07C87ED2002F0BBFB012002
:101AD00002F0ACFBFE2002F0A9FBEE2002F0B2FB0C
:101AE000DE2002F0A3FB212002F0A0FBF12002F097
:101AF000A9FB012002F09AFBDF2002F0A3FB1020DB
:101B000002F094FBC42002F09DFB8F2002F08EFBBC
:101B1000C62002F097FB002002F088FBE22002F0D2
:101B200085FBE22002F082FBE22002F07FFBBF2077
:101B300002F088FBAA2002F079FBB02002F082FBC1
:101B40000D2002F073FB002002F070FB0D2002F06C
:101B50006DFB002002F06AFB112002F067FB002001
:101B600002F064FB192002F061FB002002F05EFB32
:101B7000212002F05BFB002002F058FB2D2002F038
:101B800055FB002002F052FB3D2002F04FFB0020ED
:101B900002F04CFB5D2002F049FB002002F046FB06
:101BA0005D2002F043FB002002F040FBB12002F078
:101BB00049FB802002F03AFB002002F037FB8B202B
:101BC00002F034FB002002F031FB962002F02EFBE5
:101BD000002002F02BFBB22002F034FB002002F0C8
:101BE00025FB002002F022FB022002F01FFB002058
:101BF00002F01CFB032002F019FB002002F016FB90
:101C0000B32002F01FFB002002F010FB002002F0C6
:101C10000DFB002002F00AFB002002F007FB002071
:101C200002F004FB002002F001FB002002F0FEFAAB
:101C3000002002F0FBFA002002F0F8FA002002F087
:101C4000F5FA002002F0F2FA002002F0EFFA00208C
:101C500002F0ECFA002002F0E9FA002002F0E6FAC5
:101C6000002002F0E3FA002002F0E0FA002002F087
:101C7000DDFA002002F0DAFA002002F0D7FA0020A4
:101C800002F0D4FA002002F0D1FA002002F0CEFADD
:101C9000002002F0CBFAB42002F0D4FA8B2002F03C
:101CA000C5FA002002F0C2FA962002F0BFFA002026
:101CB00002F0BCFAA12002F0B9FA002002F0B6FA54
:101CC000B52002F0BFFA022002F0B0FA002002F0C4
:101CD000ADFA032002F0AAFA002002F0A7FA0420CD
:101CE00002F0A4FA002002F0A1FAB62002F0AAFA4B
:101CF000002002F09BFA002002F098FAB72002F0D0
:101D0000A1FA002002F092FA002002F08FFA3F20A0
:101D100002F08CFA002002F089FA5E2002F086FAC6
:101D2000002002F083FA642002F080FA002002F022
:101D30007DFA8C2002F07AFA002002F077FAAC20CB
:101D400002F074FA002002F071FADC2002F06EFA60
:101D5000002002F06BFA702002F068FA002002F016
:101D600065FA902002F062FA002002F05FFAEB20A0
:101D700002F05CFA002002F059FADC2002F056FA78
:101D8000002002F053FAB82002F05CFA002002F0C2
:101D90004DFA002002F04AFA002002F047FA002033
:101DA00002F044FA002002F041FA002002F03EFA6C
:101DB000002002F03BFA002002F038FABA2002F0CC
:101DC00041FA242002F032FA002002F02FFA00201B
:101DD00002F02CFA002002F029FAC12002F032FAB7
:101DE000202002F023FA002002F020FA542002F012
:101DF0001DFA002002F01AFAFF2002F017FA002064
:101E000002F014FAC22002F01DFA0A2002F00EFAC3
:101E1000002002F00BFA042002F008FA002002F081
:101E200005FAC32002F00EFA3C2002F0FFF9002070
:101E300002F0FCF93A2002F0F9F9002002F0F6F97C
:101E4000392002F0F3F9002002F0F0F9372002F017
:101E5000EDF9002002F0EAF93C2002F0E7F9002059
:101E600002F0E4F9362002F0E1F9002002F0DEF998
:101E7000322002F0DBF9002002F0D8F92F2002F026
:101E8000D5F9002002F0D2F92C2002F0CFF9002081
:101E900002F0CCF9292002F0C9F9002002F0C6F9BD
:101EA000262002F0C3F9002002F0C0F9242002F03D
:101EB000BDF901E004430024002002F0B7F924201A
:101EC00002F0B4F9002002F0B1F9232002F0AEF9DB
:101ED000002002F0ABF93C2002F0A8F9002002F04B
:101EE000A5F9362002F0A2F9002002F09FF9322075
:101EF00002F09CF9002002F099F92F2002F096F9E7
:101F0000002002F093F92C2002F090F9002002F05A
:101F10008DF9292002F08AF9002002F087F92620A5
:101F200002F084F9002002F081F9242002F07EF909
:101F3000002002F07BF9242002F078F9002002F062
:101F400075F9232002F072F9002002F06FF9C42025
:101F500002F078F9622002F069F9002002F066F9D7
:101F6000052002F063F9002002F060F9842002F0FD
:101F70005DF9002002F05AF9F02002F057F9002034
:101F800002F054F9182002F051F9002002F04EF945
:101F9000A42002F04BF9002002F048F9182002F0CA
:101FA00045F9002002F042F9502002F03FF90020EC
:101FB00002F03CF90C2002F039F9002002F036F969
:101FC000172002F033F9002002F030F9952002F0DA
:101FD0002DF9002002F02AF9F32002F027F9002061
:101FE00002F024F9E62002F021F9002002F01EF9A7
:101FF000C52002F027F9322002F018F9002002F083
:1020000015F9442002F012F9002002F00FF96520C2
:1020100002F00CF9002002F009F9762002F006F92E
:10202000002002F003F9882002F000F9002002F0FD
:10203000FDF8C62002F006F9202002F0F7F8002093
:1020400002F0F4F8172002F0F1F8002002F0EEF8A8
:10205000012002F0EBF8002002F0E8F8C72002F0BF
:10206000F1F8002002F0E2F8002002F0DFF8002092
:1020700002F0DCF8002002F0D9F8C82002F0E2F803
:10208000002002F0D3F8002002F0D0F8002002F087
:10209000CDF8002002F0CAF8C92002F0D3F80020E1
:1020A00002F0C4F8002002F0C1F8002002F0BEF8EF
:1020B000002002F0BBF8002002F0B8F8002002F087
:1020C000B5F8002002F0B2F8002002F0AFF80020CE
:1020D00002F0ACF8002002F0A9F8002002F0A6F807
:1020E000002002F0A3F8002002F0A0F8002002F087
:1020F0009DF8002002F09AF8002002F097F8E02006
:1021000002F0A0F8162002F091F8002002F08EF8FC
:102110001C2002F08BF8002002F088F8212002F049
:1021200085F8002002F082F8362002F07FF80020C7
:1021300002F07CF8462002F079F8002002F076F8F0
:10214000522002F073F8002002F070F8642002F0D0
:102150006DF8002002F06AF87A2002F067F800209B
:1021600002F064F88B2002F061F8002002F05EF8C3
:10217000992002F05BF8002002F058F8A82002F045
:1021800055F8002002F052F8B92002F04FF8002074
:1021900002F04CF8C42002F049F8002002F046F8A2
:1021A000CA2002F043F8002002F040F8D22002F0EA
:1021B0003DF8002002F03AF8D92002F037F800206C
:1021C00002F034F8E02002F031F8002002F02EF89E
:1021D000F32002F02BF8002002F028F8E12002F0B2
:1021E00031F8162002F022F8002002F01FF81C201F
:1021F00002F01CF8002002F019F8222002F016F874
:10220000002002F013F8362002F010F8002002F04F
:102210000DF8452002F00AF8002002F007F85220DD
:1022200002F004F8002002F001F8642001F0FEFF43
:10223000002001F0FBFF7A2001F0F8FF002001F000
:10224000F5FF8B2001F0F2FF002001F0EFFF992055
:1022500001F0ECFF002001F0E9FFA82001F0E6FF0B
:10226000002001F0E3FFB92001F0E0FF002001F0C1
:10227000DDFFC42001F0DAFF002001F0D7FFCA2003
:1022800001F0D4FF002001F0D1FFD22001F0CEFFF9
:10229000002001F0CBFFD82001F0C8FF002001F0A2
:1022A000C5FFE02001F0C2FF002001F0BFFFF320D6
:1022B00001F0BCFF002001F0B9FFE22001F0C2FFF5
:1022C000052001F0B3FF002001F0B0FF0B2001F06A
:1022D000ADFF002001F0AAFF1B2001F0A7FF0020A6
:1022E00001F0A4FF342001F0A1FF002001F09EFFC7
:1022F000442001F09BFF002001F098FF4F2001F0E7
:1023000095FF002001F092FF612001F08FFF002077
:1023100001F08CFF792001F089FF002001F086FF99
:10232000882001F083FF002001F080FF972001F05A
:102330007DFF002001F07AFFA62001F077FF00204A
:1023400001F074FFB72001F071FF002001F06EFF73
:10235000C22001F06BFF002001F068FFC72001F0F0
:1023600065FF002001F062FFD12001F05FFF002037
:1023700001F05CFFD62001F059FF002001F056FF6C
:10238000DD2001F053FF002001F050FFF32001F0A9
:102390004DFF002001F04AFFE32001F053FF05202C
:1023A00001F044FF002001F041FF0A2001F03EFF50
:1023B000002001F03BFF1C2001F038FF002001F05D
:1023C00035FF332001F032FF002001F02FFF4420C1
:1023D00001F02CFF002001F029FF502001F026FF22
:1023E000002001F023FF622001F020FF002001F017
:1023F0001DFF782001F01AFF002001F017FF882050
:1024000001F014FF002001F011FF972001F00EFFF2
:10241000002001F00BFFA62001F008FF002001F0D2
:1024200005FFB72001F002FF002001F0FFFEC220EF
:1024300001F0FCFE002001F0F9FEC72001F0F6FEDD
:10244000002001F0F3FED12001F0F0FE002001F0A9
:10245000EDFED52001F0EAFE002001F0E7FEDD20D0
:1024600001F0E4FE002001F0E1FEF32001F0DEFEC9
:10247000002001F0DBFEE42001F0E4FE012001F089
:10248000D5FE002001F0D2FE012001F0CFFE002099
:1024900001F0CCFE022001F0C9FE002001F0C6FED2
:1024A0002A2001F0C3FE002001F0C0FE3C2001F014
:1024B000BDFE002001F0BAFE4B2001F0B7FE002067
:1024C00001F0B4FE5D2001F0B1FE002001F0AEFE8F
:1024D000742001F0ABFE002001F0A8FE842001F082
:1024E000A5FE002001F0A2FE932001F09FFE002037
:1024F00001F09CFEA22001F099FE002001F096FE62
:10250000B32001F093FE002001F090FEBE2001F008
:102510008DFE002001F08AFEC42001F087FE00201D
:1025200001F084FECD2001F081FE002001F07EFE4E
:10253000D32001F07BFE002001F078FEDD2001F0C9
:1025400075FE002001F072FEF32001F06FFE002006
:1025500001F06CFEE52001F075FE002001F066FE42
:10256000002001F063FE002001F060FE002001F079
:102570005DFE022001F05AFE002001F057FE2920E6
:1025800001F054FE002001F051FE3C2001F04EFE0F
:10259000002001F04BFE4B2001F048FE002001F02E
:1025A00045FE5D2001F042FE002001F03FFE742058
:1025B00001F03CFE002001F039FE842001F036FEDF
:1025C000002001F033FE932001F030FE002001F0E6
:1025D0002DFEA22001F02AFE002001F027FEB320EC
:1025E00001F024FE002001F021FEBE2001F01EFEBD
:1025F000002001F01BFEC42001F018FE002001F0B5
:1026000015FECD2001F012FE002001F00FFED320B8
:1026100001F00CFE002001F009FEDC2001F006FEB6
:10262000002001F003FEF32001F000FE002001F085
:10263000FDFDE62001F006FE112001F0F7FD00206F
:1026400001F0F4FD342001F0F1FD002001F0EEFD79
:10265000562001F0EBFD002001F0E8FD762001F0AE
:10266000E5FD002001F0E2FD772001F0DFFD002014
:1026700001F0DCFD662001F0D9FD002001F0D6FD5F
:10268000882001F0D3FD002001F0D0FD992001F059
:10269000CDFD002001F0CAFDBB2001F0C7FD0020E8
:1026A00001F0C4FD992001F0C1FD002001F0BEFD44
:1026B000662001F0BBFD002001F0B8FD552001F0BF
:1026C000B5FD002001F0B2FD552001F0AFFD002066
:1026D00001F0ACFD452001F0A9FD002001F0A6FDB0
:1026E000432001F0A3FD002001F0A0FD442001F0F3
:1026F0009DFD002001F09AFDE72001F0A3FD3220AE
:1027000001F094FD002001F091FD552001F08EFDB7
:10271000002001F08BFD762001F088FD002001F003
:1027200085FD662001F082FD002001F07FFD67201D
:1027300001F07CFD002001F079FD672001F076FDBD
:10274000002001F073FD872001F070FD002001F0F2
:102750006DFD992001F06AFD002001F067FDBB20AE
:1027600001F064FD002001F061FD992001F05EFDA3
:10277000002001F05BFD772001F058FD002001F002
:1027800055FD442001F052FD002001F04FFD562080
:1027900001F04CFD002001F049FD232001F046FD31
:1027A000002001F043FD332001F040FD002001F046
:1027B0003DFD452001F03AFD002001F037FDE82005
:1027C00001F040FD002001F031FD002001F02EFD60
:1027D000992001F02BFD002001F028FD872001F059
:1027E00025FD002001F022FD882001F01FFD0020C2
:1027F00001F01CFD772001F019FD002001F016FD0D
:10280000662001F013FD002001F010FD882001F08A
:102810000DFD002001F00AFDAA2001F007FD0020B7
:1028200001F004FDBB2001F001FD002001F0FEFCE1
:10283000992001F0FBFC002001F0F8FC662001F07B
:10284000F5FC002001F0F2FC552001F0EFFC002027
:1028500001F0ECFC552001F0E9FC002001F0E6FC61
:10286000442001F0E3FC002001F0E0FC442001F0F2
:10287000DDFC002001F0DAFC552001F0D7FC00203F
:1028800001F0D4FCE92001F0DDFCAA2001F0CEFC2F
:10289000002001F0CBFC002001F0C8FC002001F07A
:1028A000C5FC002001F0CEFCAA2001F0BFFCCF2027
:1028B00001F0C8FC002001F0B9FC002001F0B6FCDA
:1028C000002001F0B3FC002001F0B0FC002001F07A
:1028D000ADFC002001F0AAFC002001F0A7FC0020C4
:1028E00001F0A4FC002001F0A1FC002001F09EFCFE
:1028F000002001F09BFC002001F098FC002001F07A
:1029000095FC002001F092FC002001F08FFC0020DB
:1029100001F08CFC002001F089FCF02001F092FC19
:10292000002001F083FC502001F080FC002001F029
:102930007DFC002001F07AFC002001F077FCF32000
:1029400001F080FC002001F071FCF92001F07AFC1C
:10295000062001F06BFC102001F068FC292001F03A
:1029600065FC002001F062FC3A2001F06BFC552070
:1029700001F05CFC112001F065FC642003F09EFD79
:10298000292001F05FFC352001F05CFC002001F003
:102990004DFC512001F056FCFF2001F047FC532074
:1029A00001F050FC2C2001F041FC552001F04AFCC4
:1029B000822001F03BFC2C2001F044FC01F048B8DF
:1029C000FE48808845F2105188427DD155214FF450
:1029D000704001F04DFCAA214FF2010001F048FCCB
:1029E00052214FF2020001F043FC08214FF2030094
:1029F00001F03EFC01214FF2040001F039FC0D21F1
:102A00004FF4304001F034FC0D214BF2010001F095
:102A10002FFC0D214BF2020001F02AFC34214FF46F
:102A2000364001F025FC34214BF2016001F020FC1E
:102A300034214BF2026001F01BFC0D214FF43140B8
:102A400001F016FC0D214BF2011001F011FC0D21DB
:102A50004BF2021001F00CFC34214FF4374001F02E
:102A600007FC34214BF2017001F002FC34214BF2DF
:102A7000027001F0FDFB00214FF4324001F0F8FB41
:102A800000214BF2012001F0F3FB00214BF2022068
:102A900001F0EEFB24214FF4384001F0E9FB242142
:102AA0004BF6010001F0E4FB24214BF6020001F09B
:102AB000DFFB01214FF43F4001F0DAFB0F214FF41F
:102AC000334001F0D5FB00E0FDE30F214BF2013074
:102AD00001F0CEFB0F214BF2023001F0C9FB342193
:102AE0004FF4394001F0C4FB34214BF6011001F0E2
:102AF000BFFB34214BF6021001F0BAFB08214FF462
:102B0000354001F0B5FB08214BF2015001F0B0FB5C
:102B100008214BF2025001F0ABFB03214FF442407D
:102B200001F0A6FB24214FF43A4001F0A1FB24213F
:102B30004BF6012001F09CFB24214BF6022001F012
:102B400097FB00214FF43C4001F092FB78214BF6BB
:102B5000014001F08DFB00214BF6024001F088FBA3
:102B600000214FF43D4001F083FB78214BF60150EA
:102B700001F07EFB00214BF6025001F079FB0021B1
:102B80004FF43E4001F074FB64214BF6016001F00C
:102B90006FFB00214FF4514001F06AFB33214DF2ED
:102BA000011001F065FB00214DF2021001F060FB05
:102BB00034214DF2031001F05BFB00214DF20410B3
:102BC00001F056FB3A214DF2051001F051FB0021B6
:102BD0004DF2061001F04CFB4A214DF2071001F0B6
:102BE00047FB00214DF2081001F042FB5C214DF241
:102BF000091001F03DFB00214DF20A1001F038FBF5
:102C000081214DF20B1001F033FB00214DF20C102D
:102C100001F02EFBA6214DF20D1001F029FB002141
:102C20004DF20E1001F024FBE5214DF20F1001F0E2
:102C30001FFB01214DF2101001F01AFB13214DF280
:102C4000111001F015FB01214DF2121001F010FBE3
:102C500054214DF2131001F00BFB01214DF2141021
:102C600001F006FB82214DF2151001F001FB01215C
:102C70004DF2161001F0FCFACA214DF2171001F0C6
:102C8000F7FA02214DF2181001F0F2FA00214DF28C
:102C9000191001F0EDFA02214DF21A1001F0E8FAD4
:102CA00001214DF21B1001F0E3FA02214DF21C103C
:102CB00001F0DEFA34214DF21D1001F0D9FA0221A3
:102CC0004DF21E1001F0D4FA67214DF21F1001F0F1
:102CD000CFFA02214DF2201001F0CAFA84214DF200
:102CE000211001F0C5FA02214DF2221001F0C0FAC4
:102CF000A4214DF2231001F0BBFA02214DF2241061
:102D000001F0B6FAB7214DF2251001F0B1FA022117
:102D10004DF2261001F0ACFACF214DF2271001F050
:102D2000A7FA02214DF2281001F0A2FADE214DF29D
:102D3000291001F09DFA02214DF22A1001F098FAB3
:102D4000F2214DF22B1001F093FA02214DF22C10DA
:102D500001F08EFAFE214DF22D1001F089FA0321C7
:102D60004DF22E1001F084FA10214DF22F1001F0D7
:102D70007FFA03214DF2301001F07AFA33214DF23F
:102D8000311001F075FA03214DF2321001F070FAA2
:102D90006D214DF2331001F06BFA00214FF45240D7
:102DA00001F066FA33214DF2012001F061FA0021B1
:102DB0004DF2022001F05CFA342101E004430024CA
:102DC0004DF2032001F054FA00214DF2042001F0ED
:102DD0004FFA3A214DF2052001F04AFA00214DF256
:102DE000062001F045FA4A214DF2072001F040FA91
:102DF00000214DF2082001F03BFA5C214DF2092040
:102E000001F036FA00214DF20A2001F031FA812159
:102E10004DF20B2001F02CFA00214DF20C2001F0B4
:102E200027FAA6214DF20D2001F022FA00214DF2E1
:102E30000E2001F01DFAE5214DF20F2001F018FAE5
:102E400001214DF2102001F013FA13214DF211204F
:102E500001F00EFA01214DF2122001F009FA54217D
:102E60004DF2132001F004FA01214DF2142001F07B
:102E7000FFF982214DF2152001F0FAF901214DF2FE
:102E8000162001F0F5F9CA214DF2172001F0F0F9F2
:102E900002214DF2182001F0EBF900214DF219202A
:102EA00001F0E6F902214DF21A2001F0E1F90121C9
:102EB0004DF21B2001F0DCF902214DF21C2001F043
:102EC000D7F934214DF21D2001F0D2F902214DF243
:102ED0001E2001F0CDF967214DF21F2001F0C8F945
:102EE00002214DF2202001F0C3F984214DF221206E
:102EF00001F0BEF902214DF2222001F0B9F9A4211E
:102F00004DF2232001F0B4F902214DF2242001F00A
:102F1000AFF9B7214DF2252001F0AAF902214DF2B7
:102F2000262001F0A5F9CF214DF2272001F0A0F9CC
:102F300002214DF2282001F09BF9DE214DF22920DB
:102F400001F096F902214DF22A2001F091F9F221C7
:102F50004DF22B2001F08CF902214DF22C2001F0D2
:102F600087F9FE214DF22D2001F082F903214DF267
:102F70002E2001F07DF910214DF22F2001F078F97B
:102F800003214DF2302001F073F933214DF231204D
:102F900001F06EF903214DF2322001F069F96D2143
:102FA0004DF2332001F064F900214FF4534001F059
:102FB0005FF933214DF2013001F05AF900214DF251
:102FC000023001F055F934214DF2033001F050F98F
:102FD00000214DF2043001F04BF93A214DF2053059
:102FE00001F046F900214DF2063001F041F94A2185
:102FF0004DF2073001F03CF900214DF2083001F0AC
:1030000037F95C214DF2093001F032F900214DF21F
:103010000A3001F02DF981214DF20B3001F028F931
:1030200000214DF20C3001F023F9A6214DF20D30B4
:1030300001F01EF900214DF20E3001F019F9E521E1
:103040004DF20F3001F014F901214DF2103001F072
:103050000FF913214DF2113001F00AF901214DF25F
:10306000123001F005F954214DF2133001F000F94E
:1030700001214DF2143001F0FBF882214DF21530A0
:1030800001F0F6F801214DF2163001F0F1F8CA21F5
:103090004DF2173001F0ECF802214DF2183001F03A
:1030A000E7F800214DF2193001F0E2F802214DF26B
:1030B0001A3001F0DDF801214DF21B3001F0D8F893
:1030C00002214DF21C3001F0D3F834214DF21D30B5
:1030D00001F0CEF802214DF21E3001F0C9F867214F
:1030E0004DF21F3001F0C4F802214DF2203001F002
:1030F000BFF884214DF2213001F0BAF802214DF2DF
:10310000223001F0B5F8A4214DF2233001F0B0F8DF
:1031100002214DF2243001F0ABF8B7214DF22530F9
:1031200001F0A6F802214DF2263001F0A1F8CF21DE
:103130004DF2273001F09CF802214DF2283001F0C9
:1031400097F8DE214DF2293001F092F802214DF27C
:103150002A3001F08DF8F2214DF22B3001F088F881
:1031600002214DF22C3001F083F8FE214DF22D307A
:1031700001F07EF803214DF22E3001F079F8102194
:103180004DF22F3001F074F803214DF2303001F090
:103190006FF833214DF2313001F06AF803214DF21E
:1031A000323001F065F86D214DF2333001F060F8F6
:1031B00000214FF4544001F05BF833214DF20140FF
:1031C00001F056F800214DF2024001F051F834218F
:1031D0004DF2034001F04CF800214DF2044001F0A3
:1031E00047F83A214DF2054001F042F800214DF236
:1031F000064001F03DF84A214DF2074001F038F851
:1032000000214DF2084001F033F85C214DF20940F5
:1032100001F02EF800214DF20A4001F029F8812139
:103220004DF20B4001F024F800214DF20C4001F06A
:103230001FF8A6214DF20D4001F01AF800214DF2C1
:103240000E4001F015F8E5214DF20F4001F010F8A5
:1032500001214DF2104001F00BF813214DF2114005
:1032600001F006F801214DF2124001F001F854215D
:103270004DF2134000F0FCFF01214DF2144000F02C
:10328000F7FF82214DF2154000F0F2FF01214DF2CF
:10329000164000F0EDFFCA214DF2174000F0E8FFA4
:1032A00002214DF2184000F0E3FF00214DF21940D9
:1032B00000F0DEFF02214DF21A4000F0D9FF01219B
:1032C0004DF21B4000E005E300F0D2FF02214DF279
:1032D0001C4000F0CDFF34214DF21D4000F0C8FF2E
:1032E00002214DF21E4000F0C3FF67214DF21F4046
:1032F00000F0BEFF02214DF2204000F0B9FF842112
:103300004DF2214000F0B4FF02214DF2224000F0C6
:10331000AFFFA4214DF2234000F0AAFF02214DF29D
:10332000244000F0A5FFB7214DF2254000F0A0FF9A
:1033300002214DF2264000F09BFFCF214DF22740A5
:1033400000F096FF02214DF2284000F091FFDE21AF
:103350004DF2294000F08CFF02214DF22A4000F08E
:1033600087FFF2214DF22B4000F082FF02214DF247
:103370002C4000F07DFFFE214DF22D4000F078FF43
:1033800003214DF22E4000F073FF10214DF22F402B
:1033900000F06EFF03214DF2304000F069FF332151
:1033A0004DF2314000F064FF03214DF2324000F055
:1033B0005FFF6D214DF2334000F05AFF00214FF4C2
:1033C000554000F055FF33214DF2015000F050FF01
:1033D00000214DF2025000F04BFF34214DF203501A
:1033E00000F046FF00214DF2045000F041FF3A2169
:1033F0004DF2055000F03CFF00214DF2065000F068
:1034000037FF4A214DF2075000F032FF00214DF204
:10341000085000F02DFF5C214DF2095000F028FF0C
:1034200000214DF20A5000F023FF81214DF20B5094
:1034300000F01EFF00214DF20C5000F019FFA621F4
:103440004DF20D5000F014FF00214DF20E5000F02F
:103450000FFFE5214DF20F5000F00AFF01214DF260
:10346000105000F005FF13214DF2115000F000FF45
:1034700001214DF2125000F0FBFE54214DF2135089
:1034800000F0F6FE01214DF2145000F0F1FE822111
:103490004DF2155000F0ECFE01214DF2165000F0F7
:1034A000E7FECA214DF2175000F0E2FE02214DF274
:1034B000185000F0DDFE00214DF2195000F0D8FE4A
:1034C00002214DF21A5000F0D3FE01214DF21B50A3
:1034D00000F0CEFE02214DF21C5000F0C9FE342156
:1034E0004DF21D5000F0C4FE02214DF21E5000F0BE
:1034F000BFFE67214DF21F5000F0BAFE02214DF2CF
:10350000205000F0B5FE84214DF2215000F0B0FEB5
:1035100002214DF2225000F0ABFEA4214DF22350C7
:1035200000F0A6FE02214DF2245000F0A1FEB721CA
:103530004DF2255000F09CFE02214DF2265000F085
:1035400097FECF214DF2275000F092FE02214DF25E
:10355000285000F08DFEDE214DF2295000F088FE4B
:1035600002214DF22A5000F083FEF2214DF22B5041
:1035700000F07EFE02214DF22C5000F079FEFE217B
:103580004DF22D5000F074FE03214DF22E5000F04C
:103590006FFE10214DF22F5000F06AFE03214DF214
:1035A000305000F065FE33214DF2315000F060FEE6
:1035B00003214DF2325000F05BFE6D214DF233508D
:1035C00000F056FE00214FF4564000F051FE33212A
:1035D0004DF2016000F04CFE00214DF2026000F05F
:1035E00047FE34214DF2036000F042FE00214DF20F
:1035F000046000F03DFE3A214DF2056000F038FE17
:1036000000214DF2066000F033FE4A214DF20760C2
:1036100000F02EFE00214DF2086000F029FE5C2132
:103620004DF2096000F024FE00214DF20A6000F026
:103630001FFE81214DF20B6000F01AFE00214DF2B9
:103640000C6000F015FEA6214DF20D6000F010FE9A
:1036500000214DF20E6000F00BFEE5214DF20F60EF
:1036600000F006FE01214DF2106000F001FE132172
:103670004DF2116000F0FCFD01214DF2126000F0EE
:10368000F7FD54214DF2136000F0F2FD01214DF2DF
:10369000146000F0EDFD82214DF2156000F0E8FDB0
:1036A00001214DF2166000F0E3FDCA214DF21760D2
:1036B00000F0DEFD02214DF2186000F0D9FD00217E
:1036C0004DF2196000F0D4FD02214DF21A6000F0B5
:1036D000CFFD01214DF21B6000F0CAFD02214DF229
:1036E0001C6000F0C5FD34214DF21D6000F0C0FDEE
:1036F00002214DF21E6000F0BBFD67214DF21F60FC
:1037000000F0B6FD02214DF2206000F0B1FD8421F1
:103710004DF2216000F0ACFD02214DF2226000F07C
:10372000A7FDA4214DF2236000F0A2FD02214DF27D
:10373000246000F09DFDB7214DF2256000F098FD5A
:1037400002214DF2266000F093FDCF214DF227605B
:1037500000F08EFD02214DF2286000F089FDDE218F
:103760004DF2296000F084FD02214DF22A6000F044
:103770007FFDF2214DF22B6000F07AFD02214DF227
:103780002C6000F075FDFE214DF22D6000F070FD03
:1037900003214DF22E6000F06BFD10214DF22F60E1
:1037A00000F066FD03214DF2306000F061FD332131
:1037B0004DF2316000F05CFD03214DF2326000F00B
:1037C00057FD6D214DF2336000F052FD55214FF44D
:1037D000704000F04DFDAA214FF2010000F048FDBD
:1037E00052214FF2020000F043FD08214FF2030086
:1037F00000F03EFD00214FF2040000F039FDCC2125
:103800004FF4314000F034FD00214BF2011000F084
:103810002FFD05214FF4364000F02AFD70214FF4B2
:10382000374000F025FD70214BF2017000F020FDC3
:1038300001214FF4384000F01BFD03214BF601003D
:1038400000F016FD03214BF6020000F011FD0321EC
:103850004BF6030000F00CFD02214FF43C4000F059
:1038600007FD00214BF6014000F002FD00214BF660
:10387000024000F0FDFCD0214FF4494000F0F8FC7C
:1038800002214CF6011000F0F3FC50214CF602101E
:1038900000F0EEFC50214CF6031000F0E9FC502142
:1038A0004CF6041000F0E4FC00214FF4545000F0FA
:1038B000DFFC55214FF4685000F0DAFC4FF48850DB
:1038C00000F0C0FC782002F013FE4FF4245000F00A
:1038D000B9FCBDE07F48808841F663118842F8D189
:1038E000E22000F0AFFC1D2000F0A0FC022000F060
:1038F0009DFC042000F09AFC642002F0F9FDE02019
:1039000000F0A0FC012000F091FC0A2002F0D6FD9E
:10391000E02000F097FC032000F088FC0C2002F06F
:10392000CDFD012000F08EFC0A2002F0C7FDE6204C
:1039300000F088FC2F2000F079FCFF2000F076FCDE
:10394000FF2000F073FCB02000F07CFC202000F091
:103950006DFC002000F06AFC032000F067FC40F2E0
:103960001F3000F063FC012000F060FC40F2DF102B
:1039700000F05CFC002000F059FCB42000F062FC78
:10398000042000F053FC40F21F4000F04FFC0020E8
:1039900000F04CFC2E2000F049FC002000F046FC1A
:1039A000002000F043FC002000F040FC002000F06C
:1039B0003DFCB62000F046FC022000F037FC4FF43E
:1039C000037000F033FC002000F030FC172000F002
:1039D0002DFC152000F02AFC002000F027FC002020
:1039E00000F024FCF02000F02DFC032000F01EFC71
:1039F000292000F027FCD02000F024FC002000F05B
:103A000015FCBE2000F01EFC052000F00FFCFE207F
:103A100000F00CFC012000F009FC002000F006FC86
:103A2000002000F003FC002000F000FCB82000F0B3
:103A300009FC032000F0FAFB012000F0F7FBBA209C
:103A400000F000FC012000F0F1FB642000F054F8CD
:103A50002048808849F24131884211D01D48808831
:103A600045F2103188420BD01A48808845F2105137
:103A7000884205D01748808841F6631188421BD1DF
:103A80001548006820F00F001449C1F804010846E9
:103A9000D0F8040120F47060C1F804010846D0F8A1
:103AA000040140F00400C1F804010846D0F8040104
:103AB00040F48060C1F804010020FDF7BBFB012247
:103AC00020210748FDF714F94FF6FF70FDF78EFB34
:103AD0001CBD000004430024044100520040005279
:103AE0000004025808B5034800880090BDF80000A3
:103AF00008BD00000000086000B50246BE2000F0CE
:103B0000A1FB052000F092FB00EE102AB8EE400B5E
:103B10009FED0B1B20EE010BBCEEC00B10EE101A3C
:103B200088B200F083FB012000F080FBFF2000F052
:103B30007DFB002000F07AFB002000F077FB00BD49
:103B40006666666666660440F0B505460024002792
:103B500099488079012805D19748808841F66311FA
:103B6000884208D194488079F0B99348808841F61A
:103B70006311884218D1082D15D2DFE805F004063C
:103B8000080A0C0E101206250DE007250BE004258F
:103B900009E0052507E0012505E0002503E00325F0
:103BA00001E0022500BF00BF8348808849F241310F
:103BB000884211D08048808845F2103188420BD06D
:103BC0007D48808845F21051884205D07A48808827
:103BD00041F6631188427DD1082D1CD2DFE805F043
:103BE0000406090C0F12151800BF14E044F08004FD
:103BF00011E044F040040EE044F0C0040BE044F057
:103C0000200408E044F0600405E044F0A00402E071
:103C100044F0E00400BF00BF6748808845F21051BF
:103C2000884202D14FF4585700E036276248808816
:103C300045F2103188420DD05F48808845F210511E
:103C4000884207D05C48808841F66311884201D0E1
:103C500044F008042146384600F00AFB56488088A4
:103C600041F6631188421DD004F0200068B152482B
:103C7000008851494988884214DA4F4806884088AC
:103C80004D490880084646800CE04B4800884A4968
:103C90004988884206DD48480688408846490880A9
:103CA000084646804448808845F21051884254D1E5
:103CB0004149488900F0C6FA002000F0B7FA3E49B1
:103CC0004989491C88B200F0BDFA002000F0AEFA24
:103CD000394900E06FE04989891C88B200F0B2FAE6
:103CE00035490988491EC1F30F2000F09FFA324977
:103CF0004989C91C88B200F0A5FA2F490978491EE4
:103D0000C8B200F093FA2C49888900F09BFA002091
:103D100000F08CFA28498989491C88B200F092FA8F
:103D2000002000F083FA24498989891C88B200F0B8
:103D300089FA21494988491EC1F30F2000F076FA1B
:103D40001D498989C91C88B200F07CFA1A49897812
:103D5000491EC8B200F06AFA2DE01749488900F000
:103D600071FA002000F062FA002000F05FFA1249B8
:103D70000988491EC1F30F2000F058FA0E4909784E
:103D8000491EC8B200F052FA0B49888900F05AFA6D
:103D9000002000F04BFA002000F048FA064949885C
:103DA000491EC1F30F2000F041FA03498978491EEA
:103DB000C8B200F03BFAF0BD0443002410B502463F
:103DC0000C464B48808849F24131884205D048482A
:103DD000808845F21031884214D14549488900F065
:103DE00031FA101200F022FAD0B200F01FFA404966
:103DF000888900F027FA201200F018FAE0B200F0EB
:103E000015FA73E03A48808841F66311884247D139
:103E100037488079A8B936480088401E801A82B297
:103E20003349488900F00EFA002000F0FFF9002025
:103E300000F0FCF9101200F0F9F9D0B200F0F6F938
:103E400016E02B49488900F0FDF9101200F0EEF958
:103E5000D0B200F0EBF926490988491EC1F30F20C2
:103E600000F0E4F922490978491EC8B200F0DEF9F1
:103E70001F49888900F0E6F9201200F0D7F9E0B276
:103E800000F0D4F91A494988491EC1F30F2000F007
:103E9000CDF917498978491EC8B200F0C7F925E065
:103EA0001348808845F2105188421FD11049488933
:103EB00000F0C8F9101200F0B9F90D494989491C00
:103EC00088B200F0BFF9D0B200F0B0F90849888993
:103ED00000F0B8F9201200F0A9F905498989491CB8
:103EE00088B200F0AFF9E0B200F0A0F910BD000018
:103EF000044300242DE9F04104460D461E46A01857
:103F0000401E87B2A819401E1FFA80F85D488088BD
:103F100049F2413188420FD05A48808845F2103129
:103F2000884209D057488079012828D1554880888F
:103F300041F66311884222D15249488900F082F942
:103F4000201200F073F9E0B200F070F9381200F0BE
:103F50006DF9F8B200F06AF94A49888900F072F9FF
:103F6000281200F063F9E8B200F060F94FEA282067
:103F700000F05CF908F0FF0000F058F97FE04148DC
:103F8000808841F6631188422DD13E480088801A0E
:103F9000001B84B2A819401E86B23A49488900F035
:103FA00051F9201200F042F9E0B200F03FF9A118F7
:103FB000491EC1F30F2000F039F9A118491EC8B2FB
:103FC00000F034F92F49888900F03CF9281200F0FC
:103FD0002DF9E8B200F02AF9301200F027F9F0B21A
:103FE00000F024F94BE02748808845F210518842C0
:103FF00045D12449488900F025F9201200F016F92E
:1040000020494989491C88B200F01CF9E0B200F04F
:104010000DF91C494989891C88B200F013F938123E
:1040200000F004F917494989C91C88B200F00AF95F
:10403000F8B200F0FBF81349888900F003F9281260
:1040400000F0F4F80F498989491C88B200F0FAF8A9
:10405000E8B200F0EBF80B498989891C88B200F0BE
:10406000F1F84FEA282000F0E1F806498989C91CD7
:1040700088B200F0E7F808F0FF0000F0D7F8BDE8DC
:10408000F0810000044300242DE9F84F80460F46DC
:1040900016461C46BB462046E31704EB5373DB1061
:1040A00021464FEAE47C04EB5C7C4FEAEC0CA4EB89
:1040B000CC0CBCF1000F02D04FF0010C01E04FF02E
:1040C000000C6344224604EBD27C4FEA6C0C03FBE9
:1040D0000CF3DBB20093A6F12000C6B200255EE02F
:1040E0000C2C07D106EB46002F4901EB800010F89D
:1040F00005901BE0102C05D12C4800EB061010F8A1
:10410000059013E0182C07D106EBC600284901EBF7
:10411000800010F8059009E0202C05D1254800EB1F
:10412000C61010F8059001E0BDE8F88F4FF0000AC6
:104130002FE009F0800030B11F4839460268404640
:10414000FDF738F907E00A9828B91C483946026893
:104150004046FDF72FF94FEA49604FEA1069781C95
:1041600087B217484088B84200DCDDE7A7EB0B00B8
:10417000A0420AD15F4608F101001FFA80F81048FA
:104180000088404500DCCFE706E00AF1010000F0BE
:10419000FF0ABAF1080FCCDB00BF681CC5B200985B
:1041A00085429DDB00BFBFE7CA8300083E88000848
:1041B0002E8E00088A9B0008680000246C000024F2
:1041C000044300242DE9F84F04460D4690469946D5
:1041D000DDE90A6704F0FF0A08EB04001FFA80F823
:1041E00009EB05001FFA80F916E0444502DB54464E
:1041F000A81985B24D4500DB14E0002000903A7804
:10420000334629462046FFF73FFF304606EBD07184
:1042100004EB61018CB27F1C38787E2802DC387890
:104220002028E2DA00BFBDE8F88F000001B5BDF834
:1042300000000090BDF800000149088008BD0000A2
:104240000000086001B5BDF800000090BDF8000056
:104250000149088008BD0000FEFF07600248008990
:10426000024908807047000004430024FEFF0760F5
:10427000024A1080921C118070470000FEFF076008
:104280001CB50D48006840F002000B490860012091
:10429000009000230246032101900848FCF72FFDFF
:1042A000012202210548FCF723FD012211460348A3
:1042B000FCF71EFD1CBD0000E0440258000402583B
:1042C00018B5044606480094008B401E83B204488B
:1042D000C08A401E82B20021084600F05FF918BD76
:1042E0001443002470B503460C4600210020364DCF
:1042F0002D6825F08055344E356001E04D1CA9B283
:10430000314D2D6805F000551DB141F6FF75A942EC
:10431000F4DB41F6FF75A94201D1012052E02A4D9C
:1043200028352D6825F07C75274E283635603546B2
:104330002D6845EA04553560234D40352D686FF3EF
:104340000805214E4036356035462D685E1E3543E2
:104350001D4E4036356035462D6825F0FE453560EA
:1043600035462E68551E46EA0565174E40363560BF
:10437000154D2C352D6825F47065134E2C3635609F
:1043800035462D68356035462D68356035462D68D3
:1043900045F0807535600C4D2D6845F080550A4E0E
:1043A000356001E04D1CA9B2074D2D6805F00055A0
:1043B0001DB941F6FF75A942F4DB41F6FF75A9422C
:1043C00000D1022070BD0000004402582DE9F04FDA
:1043D00004460D4616464FF0000CDFF8349199F86C
:1043E0001590B9F1000F04D02046294632461F46E9
:1043F00011E02846DFF81891D9F80490A9EB0609D6
:10440000A9F101011A46DFF80891D9F80490A9EB47
:104410000409A9F10107DFF8F890B9F80090A2EBC0
:10442000000A0AF1010AA9EB0A091FFA89F8DFF864
:10443000E09099F81490DFF8DCA05AF82990DFF8A2
:10444000D0A0DAF81CA0DFF8C8B0DBF800B00BFB96
:10445000010B0AFB0B9EDFF8C090D9F8009049F0E1
:104460001009DFF8B4A0CAF80090DFF8B090D9F8CE
:10447000009029F00109DFF8A4A0CAF800904FF0DD
:104480000009CAF800904FF00209CAF81C904FF0DA
:104490000009CAF81090D146C9F84080DDF8249090
:1044A000CAF80C90D146C9F83CE0A7EB010909F124
:1044B0000109A2EB000A0AF1010A49EA0A49DFF8F8
:1044C0005CA0CAF84490D146D9F8009049F001099F
:1044D000CAF8009005E00CF1010CBCF5001F00D3F8
:1044E00008E0DFF83890D9F8049009F00209B9F132
:1044F000000FF0D000BFDFF82490D9F8089049F001
:104500000209DFF818A0CAF80890BDE8F08F000093
:104510001443002470000024D444025800100052B8
:104520000949487530B98988074AD18211460988F6
:10453000118308E0012806D103490988024AD18283
:1045400011468988118370471443002470B5114BBC
:104550005B7D6BB10F4BDB690E4D2D6805FB0105D3
:104560006B430C4D2D7D0C4E56F82550EA520FE052
:10457000084B1D685B681B1A5B1E05FB0313054D8A
:10458000ED696B43034D2D7D034E56F82550EA52DD
:1045900070BD000014430024700000242DE9F04F8A
:1045A00004460D4616464FF0000CDFF8289199F8A6
:1045B0001590B9F1000F04D02046294632461F4617
:1045C00011E02846DFF80C91D9F80490A9EB060910
:1045D000A9F101011A46DFF8FC90D9F80490A9EB83
:1045E0000409A9F10107DFF8EC90B9F80090A2EBFB
:1045F000000A0AF1010AA9EB0A091FFA89F8DFF893
:10460000D49099F81490DFF8D0A05AF82990DFF8E8
:10461000C4A0DAF81CA0DFF8BCB0DBF800B00BFBDC
:10462000010B0AFB0B9EDFF8B490D9F8009049F01B
:104630001009DFF8A8A0CAF80090DFF8A490D9F814
:10464000009029F00109DFF898A0CAF800904FF413
:104650004039CAF800904FF00209CAF83490D146A8
:10466000C9F84080C9F83CE0A7EB010909F101094C
:10467000A2EB000A0AF1010A49EA0A49DFF860A040
:10468000CAF84490DDF82490CAF83890D146D9F899
:10469000009049F00109CAF8009005E00CF1010C06
:1046A000BCF5001F00D308E0DFF83490D9F804907F
:1046B00009F00209B9F1000FF0D000BFDFF8209037
:1046C000D9F8089049F00209DFF814A0CAF8089058
:1046D000BDE8F08F1443002470000024D444025835
:1046E000001000527FB50024002500F0D9FA0546DD
:1046F00005B97FBD01F0CEFBE348006840F008003B
:10470000E1490860081F006840F00200091F0860C6
:104710000846006840F4F070086001200090002313
:10472000024620210190D948FCF7E9FA0120032133
:1047300000230222CDE900108102D548FCF7DFFA00
:104740000120032100230222CDE900104FF40C6167
:10475000D048FCF7D4FA0120032100230222CDE93E
:1047600000104FF47E41CC48FCF7C9FA0120032128
:1047700000230222CDE9001040F2F761C748FCF7A0
:10478000BEFA0E220A21C248FCF78AFA0E2206213E
:10479000C048FCF785FA0E220721BE48FCF780FAD4
:1047A0000E220B21BB48FCF77BFA0E220921BA48E6
:1047B000FCF776FA0E220A21B748FCF771FA0E22AE
:1047C0000B21B548FCF76CFA0E220C21B248FCF71D
:1047D00067FA0E220D21B048FCF762FA0E2211464C
:1047E000AD48FCF75DFA0E220F21AB48FCF758FAF2
:1047F0000E220021A948FCF753FA0E220121A748F6
:10480000FCF74EFA0E220221A448FCF749FA0E22C8
:104810000421A248FCF744FA0E2205219F48FCF728
:104820003FFA0E2206219D48FCF73AFA0E22072194
:104830009A48FCF735FA0E2209219848FCF730FA1D
:104840000E220A219548FCF72BFA44F242308542A9
:1048500018D14FF4F070924908604FF488704860A6
:10486000012008814881282088810820C8810520EE
:10487000088208204882212219214FF49670FFF700
:1048800031FD6BE047F28400854218D14FF4487047
:10489000834908604FF4F070486001200881488126
:1048A0002E2088811720C881D220088216204882B5
:1048B000092219214FF49670FFF714FD4EE047F2DC
:1048C0001600854219D14FF48060754908604FF495
:1048D0001670486014200881032048818C2088814C
:1048E0001420C881A02008820C20488206221921A9
:1048F0004FF49670FFF7F6FC30E047F2180085425F
:1049000007D14FF4A060664908604FF448704860D2
:1049100024E048F21600854206D140116049086043
:104920004FF41670486019E041F21800854215D125
:104930004FF4A0605A4908604FF4487048608C20DA
:1049400088810A2008820881C88148820320488122
:10495000062219214FF49670FFF7C4FC002441F29F
:104960001800854201D14FF0805400BF00BF00BF46
:104970004C4884614A484089441E49480089401E89
:1049800044EA004447488460454840894449C9890D
:104990000844441E42480089414989890844401E10
:1049A00044EA00443F48C4603D4840893C49C989C5
:1049B00008443B4949680844441E3948008938493D
:1049C00089890844364909880844401E44EA00445D
:1049D00034480461324840893149C9890844304922
:1049E000496808442E49498A0844441E2C480089D5
:1049F0002B49898908442A49098808442849098A91
:104A00000844401E44EA00442648446100202549E9
:104A1000C862012000F09EF9234824490860022062
:104A20001F49C861002007210622CDE90002CDE917
:104A300002101E48FF2302220168002000F03AF80D
:104A400002211748808880B2CDE90001144800880F
:104A500083B200221146104600F090F810480088FA
:104A6000134908800E4880884880002000F06CF9C7
:104A7000012220210548FCF73BF94FF0FF30FFF7FA
:104A80001FFC00BF35E60000E44402580004025851
:104A90000014025800180258001C02580020025846
:104AA0001443002400100050000000C070000024D7
:104AB000044300242DE9F04106ACF0CC90B9DFF8B6
:104AC0004CC0CCF8AC10CCF89420CCF8983047EA25
:104AD000046CDFF83880C8F89CC046EA052CC8F89A
:104AE000A0C011E0DFF824C0CCF82C11CCF81421C0
:104AF000CCF8183147EA046CDFF81080C8F81CC104
:104B000046EA052CC8F820C1BDE8F081001000502D
:104B1000012913D140B9184A126842F00102164B1C
:104B2000843BC3F884201DE0134A8032126842F0AF
:104B30000102114B843BC3F8042113E091B940B941
:104B40000D4A126822F001020B4B843BC3F884200B
:104B500008E0094A8032126822F00102064B843BC9
:104B6000C3F80421044A843A526A42F00102024B1B
:104B7000843B5A6270470000841000502DE9F047D2
:104B800082460F4690461E46DDE90894BAF1000FB2
:104B90003ED1B8194049C968C1F30B410844050426
:104BA0003D48C068C0F30B403844401C28433A4994
:104BB0008831086008EB09003749C968C1F30A0168
:104BC000084405043448C068C0F30A004044401C4F
:104BD00028433149C1F88C000CB904250AE0012CA6
:104BE00001D1032506E0052C01D0062C01D10125B9
:104BF00000E0022506FB05F0C01D06FB05F140EABA
:104C000001402549B03108602348C0F8B4903CE029
:104C1000B8192149C968C1F30B41084405041E486D
:104C2000C068C0F30B403844401C28431B4908604F
:104C300008EB09001849C968C1F30A0108440504D2
:104C40001548C068C0F30A004044401C284312497C
:104C5000C1F80C010CB904250AE0012C01D103258F
:104C600006E0052C01D0062C01D1012500E002252B
:104C700006FB05F0C01D06FB05F140EA01400749AF
:104C8000283108600448C0F8349101215046FFF7EC
:104C90003FFFBDE8F08700000010005008110050F1
:104CA0001CB500242548006840F4A0702349086022
:104CB000012000210B460A46CDE900104021204882
:104CC000FCF71DF8012000210B460A46CDE9001033
:104CD00084211C48FCF713F8322001F0EFFB40213F
:104CE0001748FBF7FDFF044604211648FBF7F8FFC1
:104CF00044EA4000C4B280211248FBF7F1FF44EAC5
:104D00008000C4B2062C16D2DFE804F00306090CBA
:104D10000F1244F242301CBD47F28400FBE747F219
:104D20001600F8E747F21800F5E748F21600F2E738
:104D300041F21800EFE70020EDE70000E0440258E0
:104D400000180258002002580149087570470000F9
:104D500014430024012806D10749896941F0010163
:104D6000054A916106E028B90349896921F00101EA
:104D7000014A916170470000001000500146002078
:104D800002E04908421CD0B20129FAD17047000064
:104D90000748006820F480300549086004487030F6
:104DA000006820F00100024970310860704700007F
:104DB00024ED00E0052005490860044870380068CB
:104DC00040F48030014970390860704794ED00E08C
:104DD0000EB501200022CDE9002003230246410444
:104DE0000290400700F046F801200022CDE90020A3
:104DF00003230222C10402904FF0105000F03AF851
:104E000001200022CDE9002003231A46C1040290AC
:104E1000180700F02FF801200022CDE9002003231D
:104E20000422010402904FF0605000F023F80020AB
:104E300000900190032305224FF0806102905807F3
:104E400000F018F801200022CDE9002003230622FB
:104E500041060290500700F00DF8002000900190EC
:104E6000032307224FF080510290C80000F002F89F
:104E70000EBD00002DE9F04F05460C4616461F46B4
:104E8000DDE90A9ADDF8248000239B4604F01F0028
:104E900000B914B90120BDE8F08F2046FFF76EFF7E
:104EA000401E00F0FF0BFFF773FF0C480660001D6B
:104EB000056000BF43EA076300BF43EA884343EA53
:104EC000494343EA0A4300BF43EA4B0343F001036B
:104ED000001D0360FFF76EFF0020DCE798ED00E0A7
:104EE0002DE9F0410746884614461D46284600F045
:104EF00033F8C5F1040007FA00F60F20284100EA54
:104F00000800064306F00F06E21704EBD2625211C6
:104F1000920002F1E022D2F800212146E31704EBCF
:104F2000D3635B11A4EB431C012303FA0CF31A4374
:104F30002046E31704EBD3635B119B0003F1E023EE
:104F4000C3F800210348005D40EA061001490855F6
:104F5000BDE8F08100E400E00146072323EA0102F6
:104F60001202054B18684FF6FF031840034B184315
:104F70001043014B186070470CED00E00000FA058B
:104F80004A0A52020243014B1A60704708ED00E0E2
:104F900010B5002201210A48FBF7AAFE09A0FBF781
:104FA0002BFA4FF47A7001F089FA0CA0FBF724FA7F
:104FB0004FF47A7001F082FA01F006F910BD00009A
:104FC000000402584D656D2041636365737320458D
:104FD00072726F7221210D0A00000000536F667417
:104FE000205265736574696E672E2E2E0D0A0000BF
:104FF00070B50446042C03DAC4F10400C5B201E024
:10500000201FC5B2032143F2122000F07CFB2807C9
:10501000010E45F2875000F076FB042C05DA0921D9
:1050200045F2885000F06FFB04E0012145F2885002
:1050300000F069FB132143F2122000F064FBA3216E
:1050400043F2122000F05FFB70BD000070B5054612
:10505000032143F2122000F056FB1C2145F281305F
:1050600000F051FB5A2145F2823000F04CFB062142
:1050700045F2833000F047FB00240CE005EB4502CD
:10508000104B03EB4202115D45F28432A01800F090
:105090003AFB601CC4B2062CF0DB982145F28B3041
:1050A00000F031FB012145F28A3000F02CFB132186
:1050B00043F2122000F027FBA32143F2122000F05C
:1050C00022FB70BDD8DF000870B5044600252026FD
:1050D000072C1AD2DFE804F004080C19101316008C
:1050E00014200546064610E01820054606460CE04A
:1050F0001C200546064608E01025242605E0182554
:10510000282602E01C252C2600BF00BF032143F205
:10511000122000F0F8FA294645F2855000F0F3FA23
:10512000314645F2865000F0EEFA132143F2122088
:1051300000F0E9FAA32143F2122000F0E4FA70BD76
:1051400010B50446022143F2160000F0DCFA0221F9
:1051500043F21C0000F0D7FA2CB1022143F21900EF
:1051600000F0D1FA04E0002143F2190000F0CBFA7C
:1051700010BD70B500250024012143F2230000F08A
:10518000C2FA082143F2220000F0BDFA00BF43F248
:10519000230000F0F0F90546601C84B2B4F57A7F74
:1051A00001DD022070BD052001F088F9002DEED14F
:1051B000012143F2230000F0A6FA042143F2220069
:1051C00000F0A1FA002400BF43F2230000F0D3F95D
:1051D0000546601C84B2B4F57A7F01DD0220E1E768
:1051E000052001F06BF9002DEED10020DAE7000078
:1051F00070B54FF400458F2620214FF4405000F049
:1052000082FA002408E02748015D284600F07BFA76
:10521000681C85B2601C84B240F6ED708442F2D303
:10522000002143F2220000F06EFA002143F2230035
:1052300000F069FA002143F2240000F064FA002132
:1052400043F2250000F05FFA002143F2260000F04F
:105250005AFA002143F2270000F055FA002143F2E8
:10526000280000F050FA7F2143F2290000F04BFAA9
:1052700000214FF4405000F046FA002400BF43F2F2
:10528000290000F078F90646052001F017F9601CA6
:1052900084B2B4F57A7F01DD012070BD702EEED1AD
:1052A0000020FAE79ECF000870B50025032143F2E5
:1052B000220000F028FA11E0681C85B243F22900B0
:1052C00000F059F90446102C00D108E0052001F047
:1052D000F5F8B5F57A7F01DD012070BDECE700BF80
:1052E0000020FAE72DE9F05F04460D469046994606
:1052F00026462F4604EB0800401E1FFA80FA05EBF5
:105300000900401E1FFA80FB032143F2122000F027
:10531000FAF931124FF4605000F0F5F9F1B243F6AA
:10532000010000F0F0F9391243F6020000F0EBF949
:10533000F9B243F6030000F0E6F94FEA2A2143F6FA
:10534000040000F0E0F90AF0FF0143F6050000F068
:10535000DAF94FEA2B2143F6060000F0D4F90BF0FE
:10536000FF0143F6070000F0CEF9132143F21220AB
:1053700000F0C9F9A32143F2122000F0C4F9002083
:10538000BDE8F09F7CB500243648006840F001007D
:1053900034490860012000210B460246CDE9001087
:1053A000C1033148FBF7ABFC00F0CCF900224FF40D
:1053B00000412D48FBF79CFC142001F07FF80020F1
:1053C00000F0D2F8052001F079F80122D103264837
:1053D000FBF78EFC142001F071F800F0E3FA0520D1
:1053E00001F06CF843F20A0000F0C5F805464FF6EC
:1053F000FF7000EA052543F20B0000F0BCF80543FE
:1054000045F24060854205D0294618A0FAF7F4FF1E
:1054100001207CBD112143F2031000F074F98221B8
:1054200043F2080000F06FF90A2001F047F8002469
:105430000AE0104A02EB840291780E4A32F8240006
:1054400000F061F9601C84B2CF2CF2D30120FFF789
:1054500077FE322001F032F80020FFF771FE0020C5
:10546000D7E70000E04402580000025849443A25BA
:10547000640D0A0062CC000810B5002400BF0AE0E9
:10548000064A02EB84029178044A32F8240000F0C4
:105490003AF9601C84B2292CF2D310BD0ACB000863
:1054A00070B50546032143F2122000F02CF90024C8
:1054B0000AE0C5EBC5020B4B1A44115D04F55050D0
:1054C00000F021F9601CC4B2072CF2DB132143F277
:1054D000122000F018F9A32143F2122000F013F972
:1054E00070BD0000B5DF00082DE9F04104460D460F
:1054F00016461F46032143F2122000F004F9311230
:1055000043F6080000F0FFF8F1B243F6090000F09E
:10551000FAF8391243F60A0000F0F5F8F9B243F64A
:105520000B0000F0F0F8211243F6100000F0EBF849
:10553000E1B243F6110000F0E6F8291243F612003A
:1055400000F0E1F8E9B243F6130000F0DCF81321B3
:1055500043F2122000F0D7F8A32143F2122000F00A
:10556000D2F80020BDE8F08110B5044621460220A3
:1055700000F021F910BD70B50446002500F092FA44
:10558000782000F0C5FA201200F0C2FAE0B200F074
:10559000BFFA00F0A3FA00F085FA792000F0B8FA1B
:1055A00000F048FA054600F025FA00F097FA284680
:1055B00070BD000010B5002400BF0AE00A4A02EBEB
:1055C00084029178084A32F8240000F09CF8601CAC
:1055D00084B22D2CF2D30548006820B1062143F691
:1055E000210000F090F810BDAECB00081443002459
:1055F00010B50446212C0ADA652145F2083000F086
:1056000082F8214645F2023000F07DF82CE0252199
:1056100045F2083000F077F808214FF4A64000F07A
:1056200072F8302145F2013000F06DF8102145F29A
:10563000023000F068F8002145F2033000F063F812
:10564000082145F2093000F05EF8302145F20A30B9
:1056500000F059F8042145F20B3000F054F806210F
:1056600045F20C3000F04FF810BD000010B50446B4
:10567000032143F2122000F046F804EB4400144AE0
:10568000115C4FF4AB4000F03EF804EB4400104ACC
:105690001044417845F2835000F035F804EB4400A3
:1056A0000B4A1044817845F2845000F02CF8082110
:1056B00045F2030000F027F8132143F2122000F016
:1056C00022F8A32143F2122000F01DF810BD0000C3
:1056D00002E0000810B504462CB9002145F23D0057
:1056E00000F011F80EE0012C05D1802145F23D00BB
:1056F00000F009F806E0022C04D1822145F23D00B9
:1057000000F001F810BD70B504460D46002600F00B
:10571000C9F9782000F0FCF900B10126201200F050
:10572000F7F900B10126E0B200F0F2F900B101266C
:10573000284600F0EDF900B1012600F0CFF930461F
:1057400070BD00001CB500241048006840F0020045
:105750000E490860012000210B460A46CDE90010E1
:1057600001030B48FBF7CBFAFBF762FBFBF716FCD8
:105770004020FBF7DDFBFBF765FC0446FBF738FC3C
:10578000FF2000F02BF820461CBD0000E04402582A
:105790000004025810B50024FBF700FC4120FBF781
:1057A000C7FBFBF74FFC0020FBF78CFB0446FBF725
:1057B0001FFC204610BD70B504460E46FFF7EAFFF9
:1057C00005461EB90120A040854303E00120A0400A
:1057D0002843C5B2284600F001F870BD10B5044654
:1057E000FBF7DCFB4020FBF7A3FBFBF72BFC204681
:1057F000FBF79EFBFBF726FCFBF7FAFB0A2000F009
:105800005DFE10BD10B500231B4C236000BF00BF20
:1058100000BFBFF34F8F00BF00BF00BF231F18683A
:10582000C0F34E3100BFC0F3C90200BF43F6E073BE
:1058300003EA41134FF0404404EA827423430F4CBF
:10584000236000BF00BF131EA2F10102EED10B1EA8
:10585000A1F10101E7D100BF00BF00BFBFF34F8F2F
:1058600000BF00BF00BF00BF00BF00BFBFF36F8F0E
:1058700000BF00BF00BF10BD84ED00E074EF00E08A
:1058800010B50023234C236000BF00BF00BFBFF34F
:105890004F8F00BF00BF00BF231F1868C0F34E31F9
:1058A00000BFC0F3C90200BF43F6E07303EA41132F
:1058B0004FF0404404EA82742343174C236000BF36
:1058C00000BF131EA2F10102EED10B1EA1F10101D6
:1058D000E7D100BF00BF00BFBFF34F8F00BF00BFC5
:1058E00000BF0C4B703B1B6843F48033094C703C89
:1058F000236000BF00BF00BFBFF34F8F00BF00BFDA
:1059000000BF00BF00BF00BFBFF36F8F00BF00BF6D
:1059100000BF10BD84ED00E060EF00E000BF00BFFD
:1059200000BFBFF34F8F00BF00BF00BF00BF00BF6D
:1059300000BFBFF36F8F00BF00BF00BF002014493E
:10594000086000BF00BF00BFBFF34F8F00BF00BFA4
:1059500000BF00BF00BF00BFBFF36F8F00BF00BF1D
:1059600000BF0C48006840F400300A49086000BFDE
:1059700000BF00BFBFF34F8F00BF00BF00BF00BF1D
:1059800000BF00BFBFF36F8F00BF00BF00BF7047F5
:1059900050EF00E014ED00E010B5052000F0A8FD88
:1059A00010BD00001CB51148006840F002000F490E
:1059B00008600120009000230246182101900C4845
:1059C000FBF79DF90A481430006840F018000849B8
:1059D000143108600648006820F0C00004490860DF
:1059E0000846006840F0400008601CBDE0440258D2
:1059F0000004025810B5FFF7CFFF012208210C4820
:105A0000FBF776F9012210210948FBF771F9FFF73E
:105A1000C3FF002210210648FBF76AF9FFF7BCFF1D
:105A2000002208210248FBF763F9FFF7B5FF10BD1C
:105A30000004025870B500241948006820F0C00026
:105A400017490860084600680860082518E0FFF755
:105A5000A3FF012210211248FBF74AF96006040E49
:105A600008210F48FBF73CF908B1601CC4B2FFF7EE
:105A700093FF002210210A48FBF73AF9681EC5B2CD
:105A8000002DE4DC0648006820F0C00004490860EE
:105A90000846006840F040000860204670BD0000E5
:105AA0000004025810B5012208210B48FBF720F929
:105AB000012210210848FBF71BF9FFF76DFF0022B8
:105AC00008210548FBF714F9FFF766FF00221021B3
:105AD0000148FBF70DF910BD0004025810B5002273
