:020000040800F2
:1000000098B0072499030008BD030008BF03000847
:1000100085590008C3030008C5030008000000005C
:10002000000000000000000000000000C7030008FE
:10003000C903000800000000CB030008CD0300083E
:10004000CF030008CF030008CF030008CF03000848
:10005000CF030008CF030008CF030008CF03000838
:10006000CF030008CF030008CF030008CF03000828
:10007000CF030008CF030008CF030008CF03000818
:10008000CF030008CF030008CF030008CF03000808
:10009000CF030008CF030008CF030008CF030008F8
:1000A000CF030008CF030008CF030008CF030008E8
:1000B000CF030008CF0300085D880008CF030008C5
:1000C000CF030008CF030008CF030008CF030008C8
:1000D000CF030008E9880008CF030008CF03000819
:1000E000CF030008CF03000800000000CF03000882
:1000F000CF030008CF030008CF030008CF03000898
:10010000CF030008CF030008CF030008CF03000887
:10011000CF030008CF030008CF030008CF03000877
:10012000CF030008CF030008CF030008990C000894
:10013000CF030008CF030008CF030008CF03000857
:1001400000000000000000000000000000000000AF
:10015000C90C0008CF030008CF030008CF03000834
:10016000CF030008CF030008CF030008CF03000827
:10017000CF030008CF030008CF03000800000000F1
:10018000CF030008CF030008CF030008CF03000807
:10019000CF030008CF030008CF030008CF030008F7
:1001A000CF030008CF030008CF030008CF030008E7
:1001B000CF030008CF030008CF030008CF030008D7
:1001C000CF03000881820008CF030008CF03000896
:1001D000CF030008CF030008CF030008CF030008B7
:1001E000CF030008CF030008CF030008CF030008A7
:1001F000CF030008CF030008CF030008CF03000897
:10020000CF030008CF030008CF030008CF03000886
:10021000CF030008CF030008CF030008CF03000876
:10022000CF030008CF030008CF0300080000000040
:10023000CF030008CF03000800000000CF03000830
:10024000CF030008CF030008CF030008CF03000846
:10025000CF030008CF030008CF030008CF03000836
:10026000CF030008CF030008CF030008CF03000826
:10027000CF030008CF030008CF03000800000000F0
:10028000CF03000800000000CF03000800000000BA
:1002900000000000CF03000800F002F800F06DF845
:1002A0000AA090E8000C82448344AAF10107DA45D1
:1002B00001D100F062F8AFF2090EBAE80F0013F0B6
:1002C000010F18BFFB1A43F0010318478CFA000016
:1002D000ACFA00000A444FF0000C10F8013B13F098
:1002E000070408BF10F8014B1D1108BF10F8015B8F
:1002F000641E05D010F8016B641E01F8016BF9D182
:1003000013F0080F1EBF10F8014BAD1C0C1B09D1D8
:100310006D1E58BF01F801CBFAD505E014F8016B4A
:1003200001F8016B6D1EF9D59142D6D370470000DC
:100330000023002400250026103A28BF78C1FBD8EE
:10034000520728BF30C148BF0B607047642900F0D6
:10035000C380752900F0C080782900F0F9806329F6
:1003600000F0F982732900F0FE82002070471FB56B
:100370000AF0DAFF1FBD10B510BD00F041FB1146B9
:10038000FFF7F5FF09F04AFB00F05FFB03B4FFF74E
:10039000F2FF03BC08F081FEDFF84000016841F481
:1003A00070010160BFF34F8FDFF83400016821F066
:1003B00040410160BFF36F8F0A480047FEE7FEE748
:1003C000FEE7FEE7FEE7FEE7FEE7FEE7FEE7FEE705
:1003D00005480649044A064B7047000088ED00E0D6
:1003E00034EF00E09902000898A8072498B0072489
:1003F00098A80724704700000FB4044910B503AA59
:10040000029800F0B5FA10BC5DF814FB040000245B
:100410000FB41CB5074B06AA7B44694600900598AB
:1004200000F077FA0020694600F086FA1CBC5DF8FF
:1004300014FB00001D05000070B5044685690068C6
:10044000C10601D5302600E02026C00707D070BDC8
:10045000D4E9012130469047206A401C20626D1E7D
:10046000F6D570BD70B5044685690078C00707D120
:1004700070BDD4E9012120209047206A401C2062F1
:100480006D1EF6D570BD70B50C460546012A05D027
:100490002878800600D5EA69002302E0012305E000
:1004A0005B1C934202D2E05C0028F9D1A869E618EF
:1004B000C01AA861286A184428622846FFF7BCFFC2
:1004C00004E0D5E9012114F8010B9047B442F8D3B8
:1004D0002846FFF7C7FF70BD2DE9F041064600240E
:1004E00010687529314616A510D0AFF3008000289A
:1004F00002DA404213A507E031688A0701D512A548
:1005000002E0490704D511A5012401E0AFF3008002
:1005100000210A2206F1240709E0B0FBF2FCB0FB3F
:10052000F2F302FB1C00303078541846491C0028B6
:10053000F3D123462A463046BDE8F04100F08AB99F
:10054000000000002D0000002B0000002000000033
:1005500070B504460D4621461068AFF3008021882F
:10056000090502D50F4A7A4402E00E4A7A440E3257
:10057000002104F1240305E000F00F060009965D58
:100580005E54491C0028F7D120780023000704D5C9
:10059000702D02D009B1022311322046BDE870400F
:1005A00000F058B9BAF500002DE9F05F894604461D
:1005B0004FF0000ADFF874B1FB44C0F820A02046D9
:1005C000E1688847002874D0252806D0D4E90121A5
:1005D0009047206A401C2062F1E700265F462046D3
:1005E000E16888472028054607DB312D05D27819B8
:1005F00010F8200C08B10643F1E7B00701D526F04A
:100600000406C4F81CA00027C4F818A02A2D09D09D
:10061000284608F03BFD38B304EB8708303DC8F8A6
:10062000185019E059F8041B204604EB8702916129
:10063000E1688847012F054618D1E069002820DAD3
:1006400026F020061DE0D8F8180000EB800005EB2E
:1006500040003038C8F818002046E1688847054651
:1006600008F014FD0028EED1012F0AD02E2D08D15C
:100670002046E16888477F1C0546022F46F0200689
:10068000C4DBA069002803DA404246F00106A061FD
:10069000F00701D026F010066C2D0BD0682D09D084
:1006A0004C2D39D06A2D35D0742D35D07A2D33D0DC
:1006B00016E038E0E1682F4620468847B8420546F4
:1006C00009D16C2F26D04FF48060E16806432046A4
:1006D0008847054604E06C2F1AD04FF4807006431B
:1006E0000DB3A5F14100192802D8203546F4006663
:1006F0004A462946204626604E46FFF727FE80B12F
:1007000001280BD0F61D26F0070000F1080956E776
:100710004020E4E78020D8E70020D6E706F104096E
:100720004DE7284652E7206ABDE8F09F90F50000AB
:10073000032A40F2308010F0030C00F0158011F80D
:10074000013BBCF1020F624498BF11F801CB00F8E5
:10075000013B38BF11F8013BA2F1040298BF00F839
:1007600001CB38BF00F8013B11F0030300F0128108
:10077000083AC0F0088051F8043B083A51F804CB1D
:10078000A0E80810F5E7121D5CBF51F8043B40F8E3
:10079000043BAFF30080D20724BF11F8013B11F8EE
:1007A00001CB48BF11F8012B24BF00F8013B00F832
:1007B00001CB48BF00F8012B70474FF0000204291D
:1007C000C0F0128010F0030C00F01B80CCF1040C80
:1007D000BCF1020F18BF00F8012BA8BF20F8022BB4
:1007E000A1EB0C0100F00DB85FEAC17C24BF00F85A
:1007F000012B00F8012B48BF00F8012B70474FF088
:10080000000200B5134694469646203922BFA0E860
:100810000C50A0E80C50B1F12001BFF4F7AF09076C
:1008200028BFA0E80C5048BF0CC05DF804EB89005D
:1008300028BF40F8042B08BF704748BF20F8022BA0
:1008400011F0804F18BF00F8012B704770477047B8
:10085000704770472DE9F0470D4699469246044689
:1008600000F124080168880604D5E06921F0100130
:10087000216000E00120A84201DD471B00E00027C5
:10088000A1697A1902EB0900081AA0612078C00654
:1008900002D42046FFF7D0FD002608E0D4E901216C
:1008A0001AF806009047206A401C761C20624E45CC
:1008B000F4DB2078C0060AD52046FFF7BDFD06E030
:1008C000D4E9012130209047206A401C2062381E64
:1008D000A7F10107F4DC07E0D4E9012118F80500CD
:1008E0009047206A401C2062281EA5F10105F3DC18
:1008F0002046FFF7B7FD2078000602D50220BDE8AC
:10090000F0870120FBE7000001694A1C02610878BA
:10091000704700B58FB0CDE901310021059105493F
:100920007944CDE9031011466846FFF73DFE0FB04C
:1009300000BD0000E5FFFFFF0A6802F8010B0A6036
:10094000704710B5436913B1AFF3008001E0FFF7C2
:100950009AFD012010BD127800F124010A700022D6
:100960004A700122EDE711684FF0FF32E9E700001D
:10097000074B70B50D467B44FFF7CBFF0446284676
:1009800000F03AF810B14FF0FF3070BD204670BD56
:10099000B38F000010B5203AC0F00B80B1E81850BA
:1009A000203AA0E81850B1E81850A0E81850BFF459
:1009B000F5AF5FEA027C24BFB1E81850A0E81850F8
:1009C00044BF18C918C0BDE810405FEA827C24BF4C
:1009D00051F8043B40F8043B08BF7047D20728BFDA
:1009E00031F8023B48BF11F8012B28BF20F8023B29
:1009F00048BF00F8012B7047007B00F08000704773
:100A0000754600F02BF8AE4605006946534620F0C7
:100A10000700854618B020B5FFF7DAFCBDE8204096
:100A20004FF000064FF000074FF000084FF0000BAA
:100A300021F00701AC46ACE8C009ACE8C009ACE85D
:100A4000C009ACE8C0098D46704710B50446AFF345
:100A500000802046BDE81040FFF798BC0048704772
:100A600038A8072410B506F027FA06F0D7F903488E
:100A7000006840F004000149086010BD9CEF00E0F0
:100A800000224FF4803105E00948406B00F08000FF
:100A900000B103E0081EA1F10101F5D100BF09B9C1
:100AA000032070470348024B98631046F9E70000A3
:100AB00000700052FF0FE01F024605E01348416B33
:100AC00001F0450000B100E0F8E700BF01F00400CC
:100AD00030B104200D4B98630D4898630320704794
:100AE00001F0010018B10120084B9863F7E70748AF
:100AF0000069904201D01020F1E70548034B98634C
:100B00001846406908231840C0B2E8E70070005258
:100B1000FF0FE01F10B500204FF4803205E0134BAB
:100B2000596B01F0450303B103E0131EA2F101026A
:100B3000F5D100BF12B101F004033BB103200B4B10
:100B40009B6B43F00403094CA36310BD01F0010348
:100B500033B10120054B9B6B43F00103034CA363AE
:100B6000034B024CA36300BFEFE70000007000528C
:100B7000FF0FE01F05E00C48416B01F0450000B19C
:100B800000E0F8E700BF01F0040038B10648806BD0
:100B900040F00400044A9063032070470348024A6F
:100BA00090630020F9E7000000700052FF0FE01F83
:100BB00070B503460C46002505E02048426B02F064
:100BC000450000B100E0F8E700BF02F0040038B1D2
:100BD0001A48806B40F00400184EB063032070BDCB
:100BE00002F0010038B11548806B40F00100134E4F
:100BF000B0630120F3E711480069984201D010204A
:100C0000EDE70F480D4EB0633046416901F4604096
:100C100018B9080C20802846E1E701F4005008B11B
:100C20001320DCE701F4804008B11020D7E701F47D
:100C3000004008B10F20D2E72846D0E700700052EC
:100C4000FF0FE01F10B500204FF4803205E0114B7C
:100C5000596B01F0450303B103E0131EA2F1010239
:100C6000F5D100BF12B101F004033BB10320094BE1
:100C70009B6B43F00403074CA36310BD01F04003DA
:100C800033B10020034B9B6B43F04003014CA36343
:100C900000BFF2E70070005210B50948006800F08C
:100CA000006060B106480830006840F00060044908
:100CB0000831086003480068804706F071F810BDED
:100CC000000402403000002410B50948006800F418
:100CD000006060B106480830006840F400600449D4
:100CE0000831086003480068804706F059F810BDD5
:100CF000040402403400002438B504464FF0AA3002
:100D000000900949897901FB04F004236A46002117
:100D100005F0F6FC044989796143481C04236A46BE
:100D2000002105F0EDFC38BD782300242DE9FC47B7
:100D300004460D4600275DE04FF0000820E001A8C2
:100D400030490090B1F802904FEAE97109EB9171D6
:100D50008B102C49897901FB04F02A46002105F00B
:100D6000FFFA28494888C11700EB9171BDF80420AB
:100D7000B2EBA10F00D007E008F101001FFA80F8E4
:100D8000204880794045DADC00BF1E488079404524
:100D900002D10020BDE8FC87204605F01FF806467A
:100DA00026B1394618A0FFF727FB21E0681CF8B1EF
:100DB0000020019016E01349B1F802904FEAE97162
:100DC00009EB91718B100F498979BDF8042004FB60
:100DD00001200022114605F05BFCBDF80400401C18
:100DE00080B2019007488079BDF804108842E2DCA7
:100DF000781C87B2032F9FDB214609A0FFF7FCFA7E
:100E00000120C7E7782300246572726F7220657233
:100E100061736520626C6F636B3A25640D0A000094
:100E200062616420626C6F636B20636865636B65ED
:100E3000643A25640D0A000038B50446002000908D
:100E40000F49897901FB04F001236A46002105F06E
:100E5000D1FA9DF80000FF2810D109498979614332
:100E6000481C01236A46002105F0C4FA9DF80000E1
:100E7000FF2801D1002038BD0120FCE70220FAE75D
:100E8000782300242DE9FE4F81460F4692461D46E9
:100E90000024002002908046019000263B48807983
:100EA000B9FBF0F839488079B9FBF0F100FB1190FB
:100EB000019000BF404600F0E1F806463348408903
:100EC000B04202D20120BDE8FE8F00243AE0019832
:100ED000844221D305B32D484088C01BA84205D2C7
:100EE0002A484088C01B1FFA80FB01E01FFA85FBDF
:100EF000264ACDF800B0927906FB0241234A927946
:100F000008FB024053463A4604F06CFD029000276D
:100F1000DA44A5EB0B050AE01C4A927906FB024174
:100F20001A4A927908FB024004F06AFE0290029885
:100F300030B13046FFF7E0FE012000F029F8B9E7B4
:100F4000601C84B211488079A042C0DC0F488079CF
:100F5000A04219D1304600F005FB404604F03EFFA8
:100F600000240CE00948406930F81400404504D1E1
:100F70000649496921F8146005E0601C84B2034801
:100F80004089A042EEDC00BF00209CE778230024CB
:100F9000F8B505460026002406E04FF6FF703049FC
:100FA000496921F81400641C2D484089A042F4D8F6
:100FB00000202B498881002433E02949897901FBED
:100FC00004F004236A46002105F014FA9DF800009D
:100FD000FF2809D145B1224989796143481C012381
:100FE0006A46002105F006FA9DF80000FF2813D19B
:100FF0009DF802009DF8031000EB01261848408977
:10100000B04203D91649496921F81640144880892D
:10101000401C1349888103E0214612A0FFF7ECF938
:10102000641C0F484089A042C7D800240BE00C483C
:10103000406930F814000A494989884202DB0849AE
:10104000CC8104E0641C06484089A042EFD800BF70
:101050000348C089642801DA0220F8BD0020FCE7BB
:101060007823002462616420626C6F636B20696E78
:101070006465783A25640D0A0000000070B50546E5
:10108000002418484089401E17490968884204D244
:1010900014484089401E1449086005F001011248B7
:1010A000006800F023F80446601C90B90D484089A0
:1010B000401E0D49096888420BD90A484089401EE4
:1010C0000949086005F001010748006800F00EF8C2
:1010D0000446601C10B94FF0FF3070BD0248046038
:1010E0002046FAE77823002420000024F8B50546BE
:1010F0000E460020009000246C1C14E0601E00F0DE
:101100000100B0420ED1611E094A927901FB02F042
:1011100004236A46002105F06DF90098401C08B9C7
:10112000601EF8BD641E002CE8D1601EF9E70000C7
:1011300078230024F8B5002600202D49888100245A
:1011400017E02046FFF778FE05468DB9204604F0EB
:1011500045FE05463DB1214626A0FFF74DF9204644
:10116000FFF7CAFD04E022488089401C204988819D
:10117000641C1F484089A042E3D81D48818921A0F2
:10118000FFF73AF91A488089642801DA0120F8BD8E
:1011900017488089C0EB401000EB4000642190FBB1
:1011A000F1F600200090002415E02046FFF744FEF1
:1011B00005467DB90E49897901FB04F002236A4690
:1011C000194605F09DFA0098401C00900098B04226
:1011D00000D104E0641C06484089A042E5D800BF65
:1011E0000120FFF7D5FE08B10220D0E70020CEE7AE
:1011F0007823002442616420626C6F636B3A25643B
:101200000D0A0000676F6F645F626C6F636B6E75D1
:101210006D3A25640D0A000010B504F00FFE08B108
:10122000012010BD2148406920B1204841690020BB
:1012300008F092FE1D4840894100002008F09EFE03
:101240001A4948610A4652895100184A5069FFF705
:10125000B4FA1648406908B90120E2E70120FFF717
:1012600097FE04468CB112A0FFF7C6F8FFF762FFA5
:101270000446002C18D00D484169002008F06CFE8F
:1012800011A0FFF7B9F80220CBE70848418913A065
:10129000FFF7B2F80548818916A0FFF7ADF80348BB
:1012A000C18919A0FFF7A8F80020BAE77823002425
:1012B000666F726D6174206E616E6420666C61731E
:1012C000682E2E2E0D0A0000666F726D6174206606
:1012D00061696C6564210D0A00000000746F74611F
:1012E0006C20626C6F636B206E756D3A25640D0A1D
:1012F00000000000676F6F6420626C6F636B206E8C
:10130000756D3A25640D0A0076616C696420626C23
:101310006F636B206E756D3A25640D0A0000000046
:10132000014600220648C089884202D24FF6FF706B
:1013300070470348406930F811201046F8E7000074
:10134000782300242DE9FF4F85B014469B460025E5
:10135000A8460020039000BFEFE07A48408890FB49
:10136000F4F078498979484306994144B1FBF0F09B
:1013700002900298FFF7D4FF824672484189514596
:1013800003D8012009B0BDE8F08F6E48408890FB7B
:10139000F4F06C498979484306994144B1FBF0F275
:1013A00000FB121060430190664841880198B0FB31
:1013B000F1F0644989790AFB010662484188019885
:1013C000B0FBF1F201FB12095E484088A0EB090076
:1013D000B0FBF4F087B2ABEB0800B84202D2ABEB43
:1013E000080087B207FB04F083B21FFA89F1304688
:1013F000059A04F05FFE0546032D39D107FB04F082
:1014000083B21FFA89F13046059A04F053FE05466F
:10141000032D2DD107FB04F31FFA89F13046059AFD
:10142000FFF730FD47488079B6FBF0F0291F0090A8
:10143000FFF77CFC05467DB942488079B6FBF0F0A9
:1014400000210090FFF772FC05463E488079B6FB0C
:10145000F0F0009004F0C2FC4DB13A488079B6FB40
:10146000F0F00090FFF748FC0120FFF791FD002508
:10147000042D57D13349897901FB0AF0042304AACA
:10148000002104F0B7FF0020039048E09DF8110010
:10149000FF2840D007FB04F083B21FFA89F13046E1
:1014A000059A04F007FE0546032D2ED107FB04F331
:1014B0001FFA89F13046059AFFF7E4FC214880794C
:1014C000B6FBF0F0291F0090FFF730FC05467DB910
:1014D0001C488079B6FBF0F000210090FFF726FC55
:1014E000054618488079B6FBF0F0009004F076FCD1
:1014F0004DB114488079B6FBF0F00090FFF7FCFB8B
:101500000120FFF745FD002506E0042D04D10EA0C3
:10151000FEF772FF00E000250398401C039003983B
:101520000028B3D00DB102202CE7059804FB07007A
:101530000590781E804408F10108D845FFF40DAFEE
:1015400000201FE7782300243262697420656363FA
:10155000206572726F72206F72206D6F72650D0A56
:101560000000000038B50446CC2000900025064954
:10157000897901FB04F001236A46194605F0C0F899
:101580000546284638BD0000782300242DE9FF4F8A
:1015900087B014469A464FF0000B0025681E029053
:1015A00000BFA7E05648408890FBF4F05449897981
:1015B000484308992944B1FBF0F005900598FFF7DE
:1015C000AFFE06464E484189B14203D801200BB018
:1015D000BDE8F08F4A48408890FBF4F0484989798B
:1015E000484308992944B1FBF0F200FB1210604314
:1015F0000390434841880398B0FBF1F04049897952
:1016000006FB010004903E4841880398B0FBF1F2CC
:1016100001FB12093A484088A0EB090080B206900D
:10162000BDF8180090FBF4F080B20690AAEB05001C
:1016300087B2BDF81800874201DBBDF8187007FBC0
:1016400004F806A81FFA89F1C8F38F034FF0FF32A0
:101650000090049804F084FE8346BBF1000F01D093
:101660000220B4E7BDF81800B0EB980F09D11FFABB
:1016700088F31FFA89F1079A049804F03DFF834626
:1016800001E04FF0010BBBF1000F07D10298B0420F
:1016900004D03046FFF766FF83460296BBF1000F89
:1016A00022D0174880791649498848430399401A3F
:1016B000B0FBF4F080B20690AAEB050087B2BDF84B
:1016C0001800874201DBBDF8187007FB04F81FFA09
:1016D00089F14346079A0498FFF7D4FB8346BBF190
:1016E000000F01D0032072E7781E0544079840449C
:1016F00007906D1C5545FFF455AF002067E70000CB
:10170000782300247CB506460D4600240020009076
:10171000019008220121102005F056FC1020FFF74F
:10172000CBF904460CB120467CBD320401213720A0
:1017300005F04AFC3720FFF7BFF904460CB12046FC
:10174000F2E7012303220821101F05F04FFC0022BD
:101750000121332005F038FC3320FFF7ADF90446B2
:101760000CB12046E0E70DE03048406B00F400206B
:1017700040B92E488030006800902C48D0F8800096
:10178000019006E02948406B40F22A5108400028A9
:10179000EAD000BF2548406B00F0080038B123486C
:1017A000806B40F00800214988630420BCE71F4893
:1017B000406B00F0020038B11C48806B40F0020022
:1017C0001A4988630220AFE71848406B00F02000F8
:1017D00038B11648806B40F0200014498863062019
:1017E000A2E713481149886300980006009901F4A4
:1017F0007F4140EA0120009901F47F0140EA112075
:10180000009940EA1160686001980006019901F4AE
:101810007F4140EA0120019901F47F0140EA112053
:10182000019940EA1160286020467DE7007000526F
:10183000FF0FE01F30B5CC1000F1200353F8243027
:101840004C07E50E0F24AC40A343CD1000F120045B
:1018500044F82530CC1000F1200353F824304C0715
:10186000E40E02FA04F42343CD1000F1200444F8FE
:10187000253030BD02461069084008B1012070478C
:101880000020FCE702F001030BB1018300E041837B
:1018900070472DE9F0470C46DDE908670021002577
:1018A0008C4600BF60E04FF0010808FA01F504EA39
:1018B000050CAC4557D1D0F800804FEA410A4FF0F3
:1018C000030909FA0AF928EA0908C0F80080D0F8E3
:1018D00000804FEA410902FA09F948EA0908C0F80C
:1018E0000080012A01D0022A27D1D0F808804FEACF
:1018F000410A4FF0030909FA0AF928EA0908C0F871
:101900000880D0F808804FEA410906FA09F948EA48
:101910000908C0F80880D0F804904FF0010808FAD0
:1019200001F829EA0809C0F80490D0F8048003FA05
:1019300001F948EA0908C0F80480D0F80C804FEAA1
:10194000410A4FF0030909FA0AF928EA0908C0F820
:101950000C80D0F80C804FEA410907FA09F948EAEF
:101960000908C0F80C80491C10299CD3BDE8F087F9
:101970002DE9F05F8246884614462046E21704EBC4
:101980005272D2102146E31704EB5373DB10A4EB21
:10199000C3030BB1012300E000231A44624302F0A9
:1019A000FF099AF800600AF1010082460578812E4D
:1019B00005DB402D03DBFF2D01D0FF2E0DD14FF0B5
:1019C000000B06E0002008F8010B0BF1010000F00D
:1019D000FF0BCB45F6DBBDE8F09F7F2D03DAA5F1C9
:1019E0004000C5B202E0A5F14100C5B2A6F18100F8
:1019F000C6B2BE2010FB065000FB09F70C2C06D027
:101A0000102C0DD0182C14D0202C24D11AE01348FF
:101A1000D0F80900C1194A46404607F009F81AE013
:101A20000E48D0F81100C1194A46404607F000F8A8
:101A300011E00A48D0F81900C1194A46404606F09C
:101A4000F7FF08E00548D0F82100C1194A46404692
:101A500006F0EEFF00BF00BF00BFBCE70CA80724E4
:101A60001CB50D48006840F080000B49086001205B
:101A700000210B460246CDE9001030210748FFF750
:101A800008FF012210210548FFF7FCFE012220215A
:101A90000248FFF7F7FE1CBDE0440258001C025844
:101AA00070B504461848006820F440601649086084
:101AB0000846006840F48060086000221021124847
:101AC000FFF7E0FE00251BE0E20920210E48FFF7AA
:101AD000D9FE6006040E022007F066FB01221021E9
:101AE0000948FFF7CFFE022007F05EFB002210211D
:101AF0000548FFF7C7FE022007F056FB681CC5B279
:101B0000082DE1DB70BD0000001C025810B5134821
:101B1000006820F44060114908600846006840F4FD
:101B200080600860012220210C48FFF7ABFE0122F3
:101B300010210A48FFF7A6FE042007F035FB00221B
:101B400020210648FFF79EFE042007F02DFB00220F
:101B500010210248FFF796FE10BD0000001C02583D
:101B600010B51348006820F4406011490860084629
:101B7000006840F480600860002210210C48FFF7E4
:101B800081FE002220210A48FFF77CFE042007F096
:101B90000BFB012210210648FFF774FE042007F01A
:101BA00003FB012220210248FFF76CFE10BD00005C
:101BB000001C025810B500241748006820F440604B
:101BC0001549086008460068086001222021124873
:101BD000FFF758FE012007F0E7FA012210210E4816
:101BE000FFF750FE012007F0DFFA07E0601CC4B2E7
:101BF000FA2C03DDFFF7B4FF012010BD20210648B9
:101C0000FFF738FE0028F1D1002210210248FFF72B
:101C100039FE0020F1E70000001C025872B6704740
:101C200062B670471CB504460020019000901E4823
:101C30000088020401210D2005F0C6F91B48406B05
:101C4000009002E01948406B0090009800F04500B9
:101C50000028F7D0009800F0010038B11348806BDD
:101C600040F001001149886301201CBD009800F07C
:101C7000040038B10D48806B40F004000B498863C4
:101C80000320F2E7094800690D2801D01020ECE795
:101C90000748064988630846406901900198C0F3E7
:101CA000432020700020E0E728000024007000524C
:101CB000FF0FE01F1CB51748006840F001001549F0
:101CC00008600846006840F00400086008460068A4
:101CD00040F080000860022000210B460A46CDE952
:101CE000001001210C48FFF7D4FD012000210B4614
:101CF0000A46CDE9001041030848FFF7CAFD01205C
:101D000000210B460A46CDE900100C210448FFF7DC
:101D1000C0FD1CBDE04402580000025800080258F3
:101D2000001C025810B5044614B101202D4908705A
:101D30002C480078002839D008212B48FFF79AFD5D
:101D400080B104212848FFF795FD58B14FF40051A8
:101D50002648FFF78FFD28B101212548FFF78AFDAE
:101D6000012823D10A2007F005FA00201D49087038
:101D700008211D48FFF77EFD08B9012010BD042190
:101D80001948FFF777FD08B90220F7E74FF4005133
:101D90001648FFF76FFD08B90320EFE7012114484B
:101DA000FFF768FD01281BD10420E7E708210E4852
:101DB000FFF760FD012813D104210B48FFF75AFDFE
:101DC00001280DD141030948FFF754FD012807D12F
:101DD00001210748FFF74EFD10B9012001490870A5
:101DE0000020CBE71C000024001C02580008025809
:101DF0000000025870B5044600260D4805880D48BD
:101E0000006818B1204602F0FFFF0FE00848408844
:101E100045430021084602F0E1FD02F0C3FF002621
:101E200002E005490C80761CAE42FAD370BD00007A
:101E300048230024582300240000086010B50446FD
:101E40005C4884715C48006850B1204603F062F839
:101E50005948C08A574908805748008B488010BDB0
:101E6000002C51D1F020534908804FF4A0704880D5
:101E70000846808849F24131884205D04D48808823
:101E800045F21031884214D12C204A4908812A2079
:101E900048812B2088810846808845F2103188428D
:101EA00006D14FF4A070434908804FF4F070488089
:101EB0007BE04048808845F21051884210D14FF4B1
:101EC00030503C4908814FF4285048814FF42C5041
:101ED00088814FF4F07008804FF44870488064E0C7
:101EE0003448808841F6631188425ED12C20314904
:101EF00008812B2048812A2088814FF4F0700880C7
:101F00004FF44870488050E04FF4A0702949088091
:101F1000F02048800846808849F24131884205D047
:101F20002448808845F21031884207D12C2021496D
:101F300008812A2048812B20888129E01D4880883B
:101F400045F21051884210D14FF4305019490881A0
:101F50004FF4285048814FF42C5088814FF448703A
:101F600008804FF4F070488012E01248808841F6F3
:101F7000631188420CD12C200E4908812A20488107
:101F80002B2088814FF4487008804FF4F07048800F
:101F90000848808845F21031884206D14FF4F0702D
:101FA000044908804FF4A0704880002002F0DCFB58
:101FB00000BF54E7482300245823002470B504468A
:101FC0000D4616464348006828B132462946204649
:101FD00002F0B6FF70BD4048808849F24131884226
:101FE00005D03D48808845F21031884214D13A49E5
:101FF000488902F0CBFE201202F0BCFEE0B202F0F3
:10200000B9FE3549888902F0C1FE281202F0B2FEFD
:10201000E8B202F0AFFE54E02F48808845F210513C
:10202000884220D12C49488902F0B0FE201202F0EB
:10203000A1FE29494989491C88B202F0A7FEE0B2F5
:1020400002F098FE2449888902F0A0FE281202F0CE
:1020500091FE21498989491C88B202F097FEE8B2B5
:1020600002F088FE2DE01C48808841F6631188420A
:1020700027D11948807920B917480088401E001BD5
:1020800084B21549488902F081FE201202F072FEE6
:10209000E0B202F06FFE201202F06CFEE0B202F03D
:1020A00069FE0D49888902F071FE281202F062FE75
:1020B000E8B202F05FFE281202F05CFEE8B202F025
:1020C00059FE0548008905490880891C0E8000BF1B
:1020D00080E700005823002448230024FEFF076007
:1020E0002DE9F84F05460E4617469846DDF828902C
:1020F0004FF0000B1448006840B143463A46314661
:102100002846CDF8009002F043FF1BE0781B401CEE
:102110001FFA80FB344613E02146284602F05EFC9D
:1021200002F040FE4FF0000A06E00849A1F80090D6
:102130000AF101001FFA80FADA45F6DB601C84B26E
:102140004445E9DDBDE8F88F58230024000008600D
:102150001CB503F09FFAFD4988800846808818B1B5
:1021600002F0BAFF02F078BAF948006840F00200C5
:10217000F74908600846006840F018000860F44815
:102180000C38006840F48050F1490C390860012097
:1021900000900023024620210190EE48FFF779FBD2
:1021A0000120032100230222CDE900104EF2B37179
:1021B000E948FFF76EFB0120032100230222CDE94D
:1021C00000104FF68071E548FFF763FB0C220021F9
:1021D000E148FFF72FFB0C220121DF48FFF72AFB24
:1021E0000C220421DC48FFF725FB0C220521DA48EC
:1021F000FFF720FB0C220721D748FFF71BFB0C221F
:102200000821D548FFF716FB0C220921D248FFF719
:1022100011FB0C220A21D048FFF70CFB0C220D21E8
:10222000CD48FFF707FB0C220E21CB48FFF702FB3E
:102230000C220F21C848FFF7FDFA0C220721C748DE
:10224000FFF7F8FA0C220821C448FFF7F3FA0C2232
:102250000921C248FFF7EEFA0C220A21BF48FFF716
:10226000E9FA0C220B21BD48FFF7E4FA0C221146D3
:10227000BA48FFF7DFFA0C220D21B848FFF7DAFA67
:102280000C220E21B548FFF7D5FA0C220F21B348D6
:10229000FFF7D0FA0020B24908604860B1490860F1
:1022A000AF48006840F48050AD49086008460068B7
:1022B00040F4804008600846006840F01000086064
:1022C0000846406848600846406840F00F00486093
:1022D0000846406840F49C404860A2480068C1F845
:1022E00004010846D0F8040140F00F00C1F80401D1
:1022F0000846D0F8040140F47060C1F804010846B3
:10230000006840F0010008600846006840F00040A6
:102310000860322006F02EFFD32002F037FD02F0D5
:10232000F1F98A49888002F0EDF98849888002F045
:10233000E9F986498880084680884FF6FF7101EAEE
:1023400000208249888002F0DDF9804989880843AD
:102350007E4988800846808849F24131884278D099
:10236000D42002F013FD02F0CDF97849888002F004
:10237000C9F97649888002F0C5F974498880084611
:1023800080884FF6FF7101EA00207049888002F0D2
:10239000B9F96E49898808436C4988800846808865
:1023A00045F21031884254D04FF45A4002F0EEFC0E
:1023B00002F0A8F9654988804FF45B4002F0E6FC22
:1023C00002F0A0F961498880084680884FF6FF71C5
:1023D00001EA00205D4988804FF45C4002F0D6FCA1
:1023E00002F090F95949898808435849888008467D
:1023F0008088B0F5004F02D145F2105088805348D4
:10240000808845F21051884223D0A12002F0BEFC02
:1024100002F078F94D49888002F074F94B498880C0
:10242000084680884FF6FF7101EA002047498880FE
:1024300002F068F94549898808434449888008467C
:10244000808845F26171884203D141F663103F49AB
:1024500088803E48818844A0FDF7CEFF3B488088B5
:1024600049F24131884270D1CF2002F08FFC002028
:1024700002F080FCC12002F07DFC302002F07AFCEA
:10248000ED2002F083FC642002F074FC032002F0D3
:1024900071FC122002F06EFC812002F06BFCE8203F
:1024A00002F074FC852002F065FC102002F062FC52
:1024B0007A2002F05FFCCB2002F068FC392002F0A9
:1024C00059FC2C2002F056FC002002F053FC342072
:1024D00002F050FC022002F04DFCF72002F056FC06
:1024E000202002F047FCEA2002F050FC002002F01D
:1024F00041FC002002F03EFCC02002F047FC1B2003
:1025000002F038FCC12002F041FC012002F032FC54
:10251000C52002F03BFC302002F02CFC302002F001
:1025200029FCC72002F032FCB72002F023FC362041
:1025300002F02CFC482002F01DFC3A2002F026FCA0
:10254000552002F017FCB12016E0BAE04823002421
:10255000E044025800040258000C025800100258CF
:102560000040005204410052204C43442049443A68
:1025700025780D0A0000000002F008FC002002F09F
:10258000F9FB1A2002F0F6FBB62002F0FFFB0A204E
:1025900002F0F0FBA22002F0EDFBF22002F0F6FBCD
:1025A000002002F0E7FB262002F0F0FB012002F001
:1025B000E1FBE02002F0EAFB0F2002F0DBFB2A2027
:1025C00002F0D8FB282002F0D5FB082002F0D2FB55
:1025D0000E2002F0CFFB082002F0CCFB542002F0CA
:1025E000C9FBA92002F0C6FB432002F0C3FB0A206E
:1025F00002F0C0FB0F2002F0BDFB002002F0BAFB8E
:10260000002002F0B7FB002002F0B4FB002002F033
:10261000B1FBE12002F0BAFB002002F0ABFB152079
:1026200002F0A8FB172002F0A5FB072002F0A2FB96
:10263000112002F09FFB062002F09CFB2B2002F0F1
:1026400099FB562002F096FB3C2002F093FB0520FC
:1026500002F090FB102002F08DFB0F2002F08AFBAD
:102660003F2002F087FB3F2002F084FB0F2002F0A6
:1026700081FB2B2002F08AFB002002F07BFB002074
:1026800002F078FB012002F075FB3F2002F072FBA4
:102690002A2002F07BFB002002F06CFB002002F0FD
:1026A00069FB002002F066FBEF2002F063FB1120C3
:1026B00002F06CFB782006F05DFD292002F066FB3D
:1026C00050E5FE48808845F21031884240F07C8712
:1026D000ED2002F05BFB012002F04CFBFE2002F03B
:1026E00049FBEE2002F052FBDE2002F043FB2120EA
:1026F00002F040FBF12002F049FB012002F03AFB1E
:10270000DF2002F043FB102002F034FBC42002F073
:102710003DFB8F2002F02EFBC62002F037FB00208D
:1027200002F028FBE22002F025FBE22002F022FB6F
:10273000E22002F01FFBBF2002F028FBAA2002F0DB
:1027400019FBB02002F022FB0D2002F013FB002049
:1027500002F010FB0D2002F00DFB002002F00AFB3E
:10276000112002F007FB002002F004FB192002F008
:1027700001FB002002F0FEFA212002F0FBFA00200B
:1027800002F0F8FA2D2002F0F5FA002002F0F2FA39
:102790003D2002F0EFFA002002F0ECFA5D2002F09A
:1027A000E9FA002002F0E6FA5D2002F0E3FA0020E8
:1027B00002F0E0FAB12002F0E9FA802002F0DAFA41
:1027C000002002F0D7FA8B2002F0D4FA002002F0A9
:1027D000D1FA962002F0CEFA002002F0CBFAB22015
:1027E00002F0D4FA002002F0C5FA002002F0C2FA8A
:1027F000022002F0BFFA002002F0BCFA032002F02F
:10280000B9FA002002F0B6FAB32002F0BFFA0020B5
:1028100002F0B0FA002002F0ADFA002002F0AAFAAD
:10282000002002F0A7FA002002F0A4FA002002F033
:10283000A1FA002002F09EFA002002F09BFA00208C
:1028400002F098FA002002F095FA002002F092FAC5
:10285000002002F08FFA002002F08CFA002002F033
:1028600089FA002002F086FA002002F083FA0020A4
:1028700002F080FA002002F07DFA002002F07AFADD
:10288000002002F077FA002002F074FA002002F033
:1028900071FA002002F06EFA002002F06BFAB42008
:1028A00002F074FA8B2002F065FA002002F062FA5E
:1028B000962002F05FFA002002F05CFAA12002F0FC
:1028C00059FA002002F056FAB52002F05FFA022011
:1028D00002F050FA002002F04DFA032002F04AFA0A
:1028E000002002F047FA042002F044FA002002F02F
:1028F00041FAB62002F04AFA002002F03BFA00202A
:1029000002F038FAB72002F041FA002002F032FA61
:10291000002002F02FFA3F2002F02CFA002002F0F3
:1029200029FA5E2002F026FA002002F023FA642041
:1029300002F020FA002002F01DFA8C2002F01AFAB0
:10294000002002F017FAAC2002F014FA002002F086
:1029500011FADC2002F00EFA002002F00BFA7020CF
:1029600002F008FA002002F005FA902002F002FAC4
:10297000002002F0FFF9EB2002F0FCF9002002F049
:10298000F9F9DC2002F0F6F9002002F0F3F9B820A2
:1029900002F0FCF9002002F0EDF9002002F0EAF963
:1029A000002002F0E7F9002002F0E4F9002002F034
:1029B000E1F9002002F0DEF9002002F0DBF900204E
:1029C00002F0D8F9BA2002F0E1F9242002F0D2F99D
:1029D000002002F0CFF9002002F0CCF9002002F034
:1029E000C9F9C12002F0D2F9202002F0C3F9002079
:1029F00002F0C0F9542002F0BDF9002002F0BAF94B
:102A0000FF2002F0B7F9002002F0B4F9C22002F072
:102A1000BDF90A2002F0AEF9002002F0ABF9042063
:102A200002F0A8F9002002F0A5F9C32002F0AEF9E7
:102A30003C2002F09FF9002002F09CF93A2002F0BD
:102A400099F9002002F096F9392002F093F900205C
:102A500002F090F9372002F08DF9002002F08AF997
:102A60003C2002F087F9002002F084F9362002F0C1
:102A700081F9002002F07EF9322002F07BF900207B
:102A800002F078F92F2002F075F9002002F072F9B7
:102A90002C2002F06FF9002002F06CF9292002F0DE
:102AA00069F9002002F066F9262002F063F900209F
:102AB00002F060F9242002F05DF901E048230024CF
:102AC000002002F057F9242002F054F9002002F00F
:102AD00051F9232002F04EF9002002F04BF93C207E
:102AE00002F048F9002002F045F9362002F042F9E0
:102AF000002002F03FF9322002F03CF9002002F001
:102B000039F92F2002F036F9002002F033F92C2099
:102B100002F030F9002002F02DF9292002F02AF904
:102B2000002002F027F9262002F024F9002002F00C
:102B300021F9242002F01EF9002002F01BF92420C4
:102B400002F018F9002002F015F9232002F012F922
:102B5000002002F00FF9C42002F018F9622002F000
:102B600009F9002002F006F9052002F003F900201F
:102B700002F000F9842002F0FDF8002002F0FAF8DB
:102B8000F02002F0F7F8002002F0F4F8182002F02C
:102B9000F1F8002002F0EEF8A42002F0EBF800209B
:102BA00002F0E8F8182002F0E5F8002002F0E2F860
:102BB000502002F0DFF8002002F0DCF80C2002F0D8
:102BC000D9F8002002F0D6F8172002F0D3F8002040
:102BD00002F0D0F8952002F0CDF8002002F0CAF8FB
:102BE000F32002F0C7F8002002F0C4F8E62002F05B
:102BF000C1F8002002F0BEF8C52002F0C7F832206C
:102C000002F0B8F8002002F0B5F8442002F0B2F863
:102C1000002002F0AFF8652002F0ACF8002002F0CE
:102C2000A9F8762002F0A6F8002002F0A3F8882088
:102C300002F0A0F8002002F09DF8C62002F0A6F8ED
:102C4000202002F097F8002002F094F8172002F0FC
:102C500091F8002002F08EF8012002F08BF800209D
:102C600002F088F8C72002F091F8002002F082F804
:102C7000002002F07FF8002002F07CF8002002F033
:102C800079F8C82002F082F8002002F073F80020E2
:102C900002F070F8002002F06DF8002002F06AF8EF
:102CA000C92002F073F8002002F064F8002002F05E
:102CB00061F8002002F05EF8002002F05BF80020CE
:102CC00002F058F8002002F055F8002002F052F807
:102CD000002002F04FF8002002F04CF8002002F033
:102CE00049F8002002F046F8002002F043F80020E6
:102CF00002F040F8002002F03DF8002002F03AF81F
:102D0000002002F037F8E02002F040F8162002F030
:102D100031F8002002F02EF81C2002F02BF80020E1
:102D200002F028F8212002F025F8002002F022F815
:102D3000362002F01FF8002002F01CF8462002F0B6
:102D400019F8002002F016F8522002F013F80020C3
:102D500002F010F8642002F00DF8002002F00AF8EA
:102D60007A2002F007F8002002F004F88B2002F02D
:102D700001F8002001F0FEFF992001F0FBFF002088
:102D800001F0F8FFA82001F0F5FF002001F0F2FFAC
:102D9000B92001F0EFFF002001F0ECFFC42001F0AA
:102DA000E9FF002001F0E6FFCA2001F0E3FF002068
:102DB00001F0E0FFD22001F0DDFF002001F0DAFF9A
:102DC000D92001F0D7FF002001F0D4FFE02001F06E
:102DD000D1FF002001F0CEFFF32001F0CBFF002057
:102DE00001F0C8FFE12001F0D1FF162001F0C2FF81
:102DF000002001F0BFFF1C2001F0BCFF002001F00B
:102E0000B9FF222001F0B6FF002001F0B3FF362009
:102E100001F0B0FF002001F0ADFF452001F0AAFF56
:102E2000002001F0A7FF522001F0A4FF002001F0D4
:102E3000A1FF642001F09EFF002001F09BFF7A209B
:102E400001F098FF002001F095FF8B2001F092FF28
:102E5000002001F08FFF992001F08CFF002001F08D
:102E600089FFA82001F086FF002001F083FFB92030
:102E700001F080FF002001F07DFFC42001F07AFF07
:102E8000002001F077FFCA2001F074FF002001F05C
:102E900071FFD22001F06EFF002001F06BFFD820FF
:102EA00001F068FF002001F065FFE02001F062FF03
:102EB000002001F05FFFF32001F05CFF002001F033
:102EC00059FFE22001F062FF052001F053FF0020CE
:102ED00001F050FF0B2001F04DFF002001F04AFFF0
:102EE0001B2001F047FF002001F044FF342001F0D7
:102EF00041FF002001F03EFF442001F03BFF002095
:102F000001F038FF4F2001F035FF002001F032FFC3
:102F1000612001F02FFF002001F02CFF792001F04B
:102F200029FF002001F026FF882001F023FF002068
:102F300001F020FF972001F01DFF002001F01AFF93
:102F4000A62001F017FF002001F014FFB72001F0C8
:102F500011FF002001F00EFFC22001F00BFF002046
:102F600001F008FFC72001F005FF002001F002FF7B
:102F7000D12001F0FFFE002001F0FCFED62001F080
:102F8000F9FE002001F0F6FEDD2001F0F3FE002046
:102F900001F0F0FEF32001F0EDFE002001F0EAFE6A
:102FA000E32001F0F3FE052001F0E4FE002001F033
:102FB000E1FE0A2001F0DEFE002001F0DBFE1C2015
:102FC00001F0D8FE002001F0D5FE332001F0D2FE42
:102FD000002001F0CFFE442001F0CCFE002001F0E3
:102FE000C9FE502001F0C6FE002001F0C3FE6220A1
:102FF00001F0C0FE002001F0BDFE782001F0BAFE15
:10300000002001F0B7FE882001F0B4FE002001F09E
:10301000B1FE972001F0AEFE002001F0ABFEA6202D
:1030200001F0A8FE002001F0A5FEB72001F0A2FEED
:10303000002001F09FFEC22001F09CFE002001F064
:1030400099FEC72001F096FE002001F093FED120EA
:1030500001F090FE002001F08DFED52001F08AFEE7
:10306000002001F087FEDD2001F084FE002001F049
:1030700081FEF32001F07EFE002001F07BFEE420C3
:1030800001F084FE012001F075FE002001F072FEC7
:10309000012001F06FFE002001F06CFE022001F023
:1030A00069FE002001F066FE2A2001F063FE002088
:1030B00001F060FE3C2001F05DFE002001F05AFEB0
:1030C0004B2001F057FE002001F054FE5D2001F07E
:1030D00051FE002001F04EFE742001F04BFE002056
:1030E00001F048FE842001F045FE002001F042FE80
:1030F000932001F03FFE002001F03CFEA22001F0F1
:1031000039FE002001F036FEB32001F033FE00202E
:1031100001F030FEBE2001F02DFE002001F02AFE5D
:10312000C42001F027FE002001F024FECD2001F094
:1031300021FE002001F01EFED32001F01BFE002026
:1031400001F018FEDD2001F015FE002001F012FE56
:10315000F32001F00FFE002001F00CFEE52001F04D
:1031600015FE002001F006FE002001F003FE002005
:1031700001F000FE002001F0FDFD022001F0FAFD4B
:10318000002001F0F7FD292001F0F4FD002001F0FE
:10319000F1FD3C2001F0EEFD002001F0EBFD4B20A5
:1031A00001F0E8FD002001F0E5FD5D2001F0E2FD09
:1031B000002001F0DFFD742001F0DCFD002001F0B3
:1031C000D9FD842001F0D6FD002001F0D3FD93202D
:1031D00001F0D0FD002001F0CDFDA22001F0CAFDDC
:1031E000002001F0C7FDB32001F0C4FD002001F074
:1031F000C1FDBE2001F0BEFD002001F0BBFDC420DA
:1032000001F0B8FD002001F0B5FDCD2001F0B2FDC8
:10321000002001F0AFFDD32001F0ACFD002001F053
:10322000A9FDDC2001F0A6FD002001F0A3FDF320A4
:1032300001F0A0FD002001F09DFDE62001F0A6FDBB
:10324000112001F097FD002001F094FD342001F0E1
:1032500091FD002001F08EFD562001F08BFD002035
:1032600001F088FD762001F085FD002001F082FD4F
:10327000772001F07FFD002001F07CFD662001F049
:1032800079FD002001F076FD882001F073FD00201B
:1032900001F070FD992001F06DFD002001F06AFD44
:1032A000BB2001F067FD002001F064FD992001F0D2
:1032B00061FD002001F05EFD662001F05BFD002055
:1032C00001F058FD552001F055FD002001F052FDA0
:1032D000552001F04FFD002001F04CFD452001F08C
:1032E00049FD002001F046FD432001F043FD002090
:1032F00001F040FD442001F03DFD002001F03AFDC9
:10330000E72001F043FD322001F034FD002001F000
:1033100031FD552001F02EFD002001F02BFD76201F
:1033200001F028FD002001F025FD662001F022FDBE
:10333000002001F01FFD672001F01CFD002001F0BE
:1033400019FD672001F016FD002001F013FD872014
:1033500001F010FD002001F00DFD992001F00AFDA3
:10336000002001F007FDBB2001F004FD002001F06A
:1033700001FD992001F0FEFC002001F0FBFC77200C
:1033800001F0F8FC002001F0F5FC442001F0F2FC13
:10339000002001F0EFFC562001F0ECFC002001F0D1
:1033A000E9FC232001F0E6FC002001F0E3FC3320DF
:1033B00001F0E0FC002001F0DDFC452001F0DAFC2A
:1033C000002001F0D7FCE82001F0E0FC002001F033
:1033D000D1FC002001F0CEFC992001F0CBFC0020B4
:1033E00001F0C8FC872001F0C5FC002001F0C2FC00
:1033F000882001F0BFFC002001F0BCFC772001F028
:10340000B9FC002001F0B6FC662001F0B3FC0020FE
:1034100001F0B0FC882001F0ADFC002001F0AAFC16
:10342000AA2001F0A7FC002001F0A4FCBB2001F0C1
:10343000A1FC002001F09EFC992001F09BFC0020E3
:1034400001F098FC662001F095FC002001F092FC50
:10345000552001F08FFC002001F08CFC552001F07C
:1034600089FC002001F086FC442001F083FC002050
:1034700001F080FC442001F07DFC002001F07AFC8A
:10348000552001F077FC002001F074FCE92001F0E8
:103490007DFCAA2001F06EFC002001F06BFC0020F6
:1034A00001F068FC002001F065FC002001F06EFCDA
:1034B000AA2001F05FFCCF2001F068FC002001F0A1
:1034C00059FC002001F056FC002001F053FC0020C4
:1034D00001F050FC002001F04DFC002001F04AFCFE
:1034E000002001F047FC002001F044FC002001F026
:1034F00041FC002001F03EFC002001F03BFC0020DC
:1035000001F038FC002001F035FC002001F032FC15
:10351000002001F02FFC002001F02CFC002001F025
:1035200029FCF02001F032FC002001F023FC5020A7
:1035300001F020FC002001F01DFC002001F01AFC2D
:10354000002001F017FCF32001F020FC002001F026
:1035500011FCF92001F01AFC062001F00BFC1020F0
:1035600001F008FC292001F005FC002001F002FC1C
:103570003A2001F00BFC552001F0FCFB112001F07A
:1035800005FC642005F0F6FD292001F0FFFB352045
:1035900001F0FCFB002001F0EDFB512001F0F6FBF7
:1035A000FF2001F0E7FB532001F0F0FB2C2001F09D
:1035B000E1FB552001F0EAFB822001F0DBFB2C202F
:1035C00001F0E4FB01F048B8FE48808845F2105154
:1035D00088427DD155214FF4704001F0EDFBAA21C6
:1035E0004FF2010001F0E8FB52214FF2020001F01E
:1035F000E3FB08214FF2030001F0DEFB01214FF253
:10360000040001F0D9FB0D214FF4304001F0D4FB50
:103610000D214BF2010001F0CFFB0D214BF2020016
:1036200001F0CAFB34214FF4364001F0C5FB3421D0
:103630004BF2016001F0C0FB34214BF2026001F05B
:10364000BBFB0D214FF4314001F0B6FB0D214BF2D5
:10365000011001F0B1FB0D214BF2021001F0ACFBA7
:1036600034214FF4374001F0A7FB34214BF20170B5
:1036700001F0A2FB34214BF2027001F09DFB00210E
:103680004FF4324001F098FB00214BF2012001F091
:1036900093FB00214BF2022001F08EFB24214FF41A
:1036A000384001F089FB24214BF6010001F084FB36
:1036B00024214BF6020001F07FFB01214FF43F4033
:1036C00001F07AFB0F214FF4334001F075FB00E06D
:1036D000FDE30F214BF2013001F06EFB0F214BF2A5
:1036E000023001F069FB34214FF4394001F064FBF2
:1036F00034214BF6011001F05FFB34214BF6021030
:1037000001F05AFB08214FF4354001F055FB082128
:103710004BF2015001F050FB08214BF2025001F036
:103720004BFB03214FF4424001F046FB24214FF4B0
:103730003A4001F041FB24214BF6012001F03CFB13
:1037400024214BF6022001F037FB00214FF43C40CE
:1037500001F032FB78214BF6014001F02DFB0021F6
:103760004BF6024001F028FB00214FF43D4001F0F0
:1037700023FB78214BF6015001F01EFB00214BF694
:10378000025001F019FB00214FF43E4001F014FB00
:1037900064214BF6016001F00FFB00214FF4514012
:1037A00001F00AFB33214DF2011001F005FB00216D
:1037B0004DF2021001F000FB34214DF2031001F034
:1037C000FBFA00214DF2041001F0F6FA3A214DF215
:1037D000051001F0F1FA00214DF2061001F0ECFAAB
:1037E0004A214DF2071001F0E7FA00214DF20810CE
:1037F00001F0E2FA5C214DF2091001F0DDFA00213E
:103800004DF20A1001F0D8FA81214DF20B1001F0AF
:10381000D3FA00214DF20C1001F0CEFAA6214DF2A0
:103820000D1001F0C9FA00214DF20E1001F0C4FA9A
:10383000E5214DF20F1001F0BFFA01214DF21010F9
:1038400001F0BAFA13214DF2111001F0B5FA01217D
:103850004DF2121001F0B0FA54214DF2131001F0A4
:10386000ABFA01214DF2141001F0A6FA82214DF2BB
:10387000151001F0A1FA01214DF2161001F09CFA89
:10388000CA214DF2171001F097FA02214DF21810DB
:1038900001F092FA00214DF2191001F08DFA022187
:1038A0004DF21A1001F088FA01214DF21B1001F0BF
:1038B00083FA02214DF21C1001F07EFA34214DF200
:1038C0001D1001F079FA02214DF21E1001F074FA78
:1038D00067214DF21F1001F06FFA02214DF2201006
:1038E00001F06AFA84214DF2211001F065FA0221FB
:1038F0004DF2221001F060FAA4214DF2231001F0E4
:103900005BFA02214DF2241001F056FAB7214DF274
:10391000251001F051FA02214DF2261001F04CFA67
:10392000CF214DF2271001F047FA02214DF2281065
:1039300001F042FADE214DF2291001F03DFA022198
:103940004DF22A1001F038FAF2214DF22B1001F05D
:1039500033FA02214DF22C1001F02EFAFE214DF225
:103960002D1001F029FA03214DF22E1001F024FA56
:1039700010214DF22F1001F01FFA03214DF23010EB
:1039800001F01AFA33214DF2311001F015FA03213A
:103990004DF2321001F010FA6D214DF2331001F0AA
:1039A0000BFA00214FF4524001F006FA33214DF298
:1039B000012001F001FA00214DF2022001F0FCF992
:1039C000342101E0482300244DF2032001F0F4F9F2
:1039D00000214DF2042001F0EFF93A214DF20520CB
:1039E00001F0EAF900214DF2062001F0E5F94A2143
:1039F0004DF2072001F0E0F900214DF2082001F01E
:103A0000DBF95C214DF2092001F0D6F900214DF2DD
:103A10000A2001F0D1F981214DF20B2001F0CCF9FF
:103A200000214DF20C2001F0C7F9A6214DF20D2026
:103A300001F0C2F900214DF20E2001F0BDF9E5219F
:103A40004DF20F2001F0B8F901214DF2102001F0E4
:103A5000B3F913214DF2112001F0AEF901214DF21D
:103A6000122001F0A9F954214DF2132001F0A4F91C
:103A700001214DF2142001F09FF982214DF2152011
:103A800001F09AF901214DF2162001F095F9CA21B1
:103A90004DF2172001F090F902214DF2182001F0AB
:103AA0008BF900214DF2192001F086F902214DF227
:103AB0001A2001F081F901214DF21B2001F07CF95F
:103AC00002214DF21C2001F077F934214DF21D2026
:103AD00001F072F902214DF21E2001F06DF967210B
:103AE0004DF21F2001F068F902214DF2202001F073
:103AF00063F984214DF2212001F05EF902214DF29B
:103B0000222001F059F9A4214DF2232001F054F9AB
:103B100002214DF2242001F04FF9B7214DF225206A
:103B200001F04AF902214DF2262001F045F9CF219A
:103B30004DF2272001F040F902214DF2282001F03A
:103B40003BF9DE214DF2292001F036F902214DF238
:103B50002A2001F031F9F2214DF22B2001F02CF94D
:103B600002214DF22C2001F027F9FE214DF22D20EB
:103B700001F022F903214DF22E2001F01DF9102150
:103B80004DF22F2001F018F903214DF2302001F001
:103B900013F933214DF2312001F00EF903214DF2DA
:103BA000322001F009F96D214DF2332001F004F9C2
:103BB00000214FF4534001F0FFF833214DF2013062
:103BC00001F0FAF800214DF2023001F0F5F834214D
:103BD0004DF2033001F0F0F800214DF2043001F015
:103BE000EBF83A214DF2053001F0E6F800214DF2F4
:103BF000063001F0E1F84A214DF2073001F0DCF81F
:103C000000214DF2083001F0D7F85C214DF2093067
:103C100001F0D2F800214DF20A3001F0CDF88121F7
:103C20004DF20B3001F0C8F800214DF20C3001F0DC
:103C3000C3F8A6214DF20D3001F0BEF800214DF27F
:103C40000E3001F0B9F8E5214DF20F3001F0B4F873
:103C500001214DF2103001F0AFF813214DF2113077
:103C600001F0AAF801214DF2123001F0A5F854211B
:103C70004DF2133001F0A0F801214DF2143001F0A3
:103C80009BF882214DF2153001F096F801214DF29A
:103C9000163001F091F8CA214DF2173001F08CF87E
:103CA00002214DF2183001F087F800214DF2193051
:103CB00001F082F802214DF21A3001F07DF8012165
:103CC0004DF21B3001F078F802214DF21C3001F06A
:103CD00073F834214DF21D3001F06EF802214DF2DF
:103CE0001E3001F069F867214DF21F3001F064F8D1
:103CF00002214DF2203001F05FF884214DF2213095
:103D000001F05AF802214DF2223001F055F8A421B9
:103D10004DF2233001F050F802214DF2243001F031
:103D20004BF8B7214DF2253001F046F802214DF253
:103D3000263001F041F8CF214DF2273001F03CF858
:103D400002214DF2283001F037F8DE214DF2293002
:103D500001F032F802214DF22A3001F02DF8F22163
:103D60004DF22B3001F028F802214DF22C3001F0F9
:103D700023F8FE214DF22D3001F01EF803214DF203
:103D80002E3001F019F810214DF22F3001F014F807
:103D900003214DF2303001F00FF833214DF2313074
:103DA00001F00AF803214DF2323001F005F86D21DF
:103DB0004DF2333001F000F800214FF4544000F090
:103DC000FBFF33214DF2014000F0F6FF00214DF2E0
:103DD000024000F0F1FF34214DF2034000F0ECFF0F
:103DE00000214DF2044000F0E7FF3A214DF205407A
:103DF00000F0E2FF00214DF2064000F0DDFF4A2115
:103E00004DF2074000F0D8FF00214DF2084000F0CD
:103E1000D3FF5C214DF2094000F0CEFF00214DF2AE
:103E20000A4000F0C9FF81214DF20B4000F0C4FFB1
:103E300000214DF20C4000F0BFFFA6214DF20D40D5
:103E400000F0BAFF00214DF20E4000F0B5FFE52171
:103E50004DF20F4000F0B0FF01214DF2104000F094
:103E6000ABFF13214DF2114000F0A6FF01214DF2EE
:103E7000124000F0A1FF54214DF2134000F09CFFCE
:103E800001214DF2144000F097FF82214DF21540C0
:103E900000F092FF01214DF2164000F08DFFCA2183
:103EA0004DF2174000F088FF02214DF2184000F05B
:103EB00083FF00214DF2194000F07EFF02214DF2F8
:103EC0001A4000F079FF01214DF21B4000E005E3AC
:103ED00000F072FF02214DF21C4000F06DFF342112
:103EE0004DF21D4000F068FF02214DF21E4000F02F
:103EF00063FF67214DF21F4000F05EFF02214DF28B
:103F0000204000F059FF84214DF2214000F054FF81
:103F100002214DF2224000F04FFFA4214DF2234038
:103F200000F04AFF02214DF2244000F045FFB72186
:103F30004DF2254000F040FF02214DF2264000F0F6
:103F40003BFFCF214DF2274000F036FF02214DF21A
:103F5000284000F031FFDE214DF2294000F02CFF17
:103F600002214DF22A4000F027FFF2214DF22B40B2
:103F700000F022FF02214DF22C4000F01DFFFE2137
:103F80004DF22D4000F018FF03214DF22E4000F0BD
:103F900013FF10214DF22F4000F00EFF03214DF2D0
:103FA000304000F009FF33214DF2314000F004FFB2
:103FB00003214DF2324000F0FFFE6D214DF23340FF
:103FC00000F0FAFE00214FF4554000F0F5FE3321D9
:103FD0004DF2015000F0F0FE00214DF2025000F0D1
:103FE000EBFE34214DF2035000F0E6FE00214DF2CD
:103FF000045000F0E1FE3A214DF2055000F0DCFEE5
:1040000000214DF2065000F0D7FE4A214DF2075034
:1040100000F0D2FE00214DF2085000F0CDFE5C21F0
:104020004DF2095000F0C8FE00214DF20A5000F098
:10403000C3FE81214DF20B5000F0BEFE00214DF277
:104040000C5000F0B9FEA6214DF20D5000F0B4FE68
:1040500000214DF20E5000F0AFFEE5214DF20F5061
:1040600000F0AAFE01214DF2105000F0A5FE132130
:104070004DF2115000F0A0FE01214DF2125000F05F
:104080009BFE54214DF2135000F096FE01214DF29B
:10409000145000F091FE82214DF2155000F08CFE7C
:1040A00001214DF2165000F087FECA214DF2175043
:1040B00000F082FE02214DF2185000F07DFE00213A
:1040C0004DF2195000F078FE02214DF21A5000F026
:1040D00073FE01214DF21B5000F06EFE02214DF2E5
:1040E0001C5000F069FE34214DF21D5000F064FEBA
:1040F00002214DF21E5000F05FFE67214DF21F506D
:1041000000F05AFE02214DF2205000F055FE8421AD
:104110004DF2215000F050FE02214DF2225000F0ED
:104120004BFEA4214DF2235000F046FE02214DF239
:10413000245000F041FEB7214DF2255000F03CFE26
:1041400002214DF2265000F037FECF214DF22750CC
:1041500000F032FE02214DF2285000F02DFEDE214B
:104160004DF2295000F028FE02214DF22A5000F0B5
:1041700023FEF2214DF22B5000F01EFE02214DF2E3
:104180002C5000F019FEFE214DF22D5000F014FECF
:1041900003214DF22E5000F00FFE10214DF22F5052
:1041A00000F00AFE03214DF2305000F005FE3321ED
:1041B0004DF2315000F000FE03214DF2325000F07C
:1041C000FBFD6D214DF2335000F0F6FD00214FF460
:1041D000564000F0F1FD33214DF2016000F0ECFD9E
:1041E00000214DF2026000F0E7FD34214DF2036042
:1041F00000F0E2FD00214DF2046000F0DDFD3A2107
:104200004DF2056000F0D8FD00214DF2066000F08F
:10421000D3FD4A214DF2076000F0CEFD00214DF2A2
:10422000086000F0C9FD5C214DF2096000F0C4FD9A
:1042300000214DF20A6000F0BFFD81214DF20B60BC
:1042400000F0BAFD00214DF20C6000F0B5FDA62192
:104250004DF20D6000F0B0FD00214DF20E6000F057
:10426000ABFDE5214DF20F6000F0A6FD01214DF2FE
:10427000106000F0A1FD13214DF2116000F09CFDD3
:1042800001214DF2126000F097FD54214DF21360B0
:1042900000F092FD01214DF2146000F08DFD8221AD
:1042A0004DF2156000F088FD01214DF2166000F01E
:1042B00083FDCA214DF2176000F07EFD02214DF210
:1042C000186000F079FD00214DF2196000F074FDD6
:1042D00002214DF21A6000F06FFD01214DF21B60CA
:1042E00000F06AFD02214DF21C6000F065FD3421F2
:1042F0004DF21D6000F060FD02214DF21E6000F0E5
:104300005BFD67214DF21F6000F056FD02214DF26A
:10431000206000F051FD84214DF2216000F04CFD41
:1043200002214DF2226000F047FDA4214DF22360EE
:1043300000F042FD02214DF2246000F03DFDB72166
:104340004DF2256000F038FD02214DF2266000F0AC
:1043500033FDCF214DF2276000F02EFD02214DF2FA
:10436000286000F029FDDE214DF2296000F024FDD7
:1043700002214DF22A6000F01FFDF2214DF22B6068
:1043800000F01AFD02214DF22C6000F015FDFE2117
:104390004DF22D6000F010FD03214DF22E6000F073
:1043A0000BFD10214DF22F6000F006FD03214DF2B0
:1043B000306000F001FD33214DF2316000F0FCFC73
:1043C00003214DF2326000F0F7FC6D214DF23360B5
:1043D00000F0F2FC55214FF4704000F0EDFCAA21F2
:1043E0004FF2010000F0E8FC52214FF2020000F011
:1043F000E3FC08214FF2030000F0DEFC00214FF245
:10440000040000F0D9FCCC214FF4314000F0D4FC82
:1044100000214BF2011000F0CFFC05214FF4364093
:1044200000F0CAFC70214FF4374000F0C5FC702149
:104430004BF2017000F0C0FC01214FF4384000F055
:10444000BBFC03214BF6010000F0B6FC03214BF648
:10445000020000F0B1FC03214BF6030000F0ACFCBD
:1044600002214FF43C4000F0A7FC00214BF6014034
:1044700000F0A2FC00214BF6024000F09DFCD02190
:104480004FF4494000F098FC02214CF6011000F076
:1044900093FC50214CF6021000F08EFC50214CF69B
:1044A000031000F089FC50214CF6041000F084FC4D
:1044B00000214FF4545000F07FFC55214FF4685018
:1044C00000F07AFC4FF4885000F060FC782004F093
:1044D0006BFE4FF4245000F059FCBDE07F4880880B
:1044E00041F663118842F8D1E22000F04FFC1D2014
:1044F00000F040FC022000F03DFC042000F03AFCFB
:10450000642004F051FEE02000F040FC012000F0A7
:1045100031FC0A2004F02EFEE02000F037FC0320DE
:1045200000F028FC0C2004F025FE012000F02EFCF9
:104530000A2004F01FFEE62000F028FC2F2000F0E7
:1045400019FCFF2000F016FCFF2000F013FCB02047
:1045500000F01CFC202000F00DFC002000F00AFC04
:10456000032000F007FC40F21F3000F003FC0120A4
:1045700000F000FC40F2DF1000F0FCFB002000F037
:10458000F9FBB42000F002FC042000F0F3FB40F241
:104590001F4000F0EFFB002000F0ECFB2E2000F0AD
:1045A000E9FB002000F0E6FB002000F0E3FB002028
:1045B00000F0E0FB002000F0DDFBB62000F0E6FBA1
:1045C000022000F0D7FB4FF4037000F0D3FB002073
:1045D00000F0D0FB172000F0CDFB152000F0CAFB47
:1045E000002000F0C7FB002000F0C4FBF02000F02A
:1045F000CDFB032000F0BEFB292000F0C7FBD0203C
:1046000000F0C4FB002000F0B5FBBE2000F0BEFBB4
:10461000052000F0AFFBFE2000F0ACFB012000F015
:10462000A9FB002000F0A6FB002000F0A3FB002067
:1046300000F0A0FBB82000F0A9FB032000F09AFBDB
:10464000012000F097FBBA2000F0A0FB012000F051
:1046500091FB642000F060F82048808849F24131E5
:10466000884211D01D48808845F2103188420BD015
:104670001A48808845F21051884205D01748808832
:1046800041F6631188421BD11548006820F00F00E5
:104690001449C1F804010846D0F8040120F4706000
:1046A000C1F804010846D0F8040140F00400C1F844
:1046B00004010846D0F8040140F48060C1F8040108
:1046C0000020FDF7BBFB012220210748FDF7DAF8A7
:1046D0004FF6FF70FDF78EFB1CBD00004823002441
:1046E00004410052004000520004025810B5024636
:1046F000012000E050430B1EA1F10104E1B2F9D109
:1047000010BD000008B5034800880090BDF8000007
:1047100008BD00000000086000B50246BE2000F0A1
:1047200035FB052000F026FB00EE102AB8EE400B0A
:104730009FED0B1B20EE010BBCEEC00B10EE101A10
:1047400088B200F017FB012000F014FBFF2000F0FE
:1047500011FB002000F00EFB002000F00BFB00BD61
:104760006666666666660440F0B505460024002766
:1047700099488079012805D19748808841F66311CE
:10478000884208D194488079F0B99348808841F6EE
:104790006311884218D1082D15D2DFE805F0040610
:1047A000080A0C0E101206250DE007250BE0042563
:1047B00009E0052507E0012505E0002503E00325C4
:1047C00001E0022500BF00BF8348808849F24131E3
:1047D000884211D08048808845F2103188420BD041
:1047E0007D48808845F21051884205D07A488088FB
:1047F00041F6631188427DD1082D1CD2DFE805F017
:104800000406090C0F12151800BF14E044F08004D0
:1048100011E044F040040EE044F0C0040BE044F02A
:10482000200408E044F0600405E044F0A00402E045
:1048300044F0E00400BF00BF6748808845F2105193
:10484000884202D14FF4585700E0362762488088EA
:1048500045F2103188420DD05F48808845F21051F2
:10486000884207D05C48808841F66311884201D0B5
:1048700044F008042146384600F09EFA56488088E5
:1048800041F6631188421DD004F0200068B15248FF
:10489000008851494988884214DA4F480688408880
:1048A0004D490880084646800CE04B4800884A493C
:1048B0004988884206DD484806884088464908807D
:1048C000084646804448808845F21051884254D1B9
:1048D0004149488900F05AFA002000F04BFA3E495D
:1048E0004989491C88B200F051FA002000F042FAD0
:1048F000394900E06FE04989891C88B200F046FA26
:1049000035490988491EC1F30F2000F033FA3249B6
:104910004989C91C88B200F039FA2F490978491E23
:10492000C8B200F027FA2C49888900F02FFA00203D
:1049300000F020FA28498989491C88B200F026FA3B
:10494000002000F017FA24498989891C88B200F0F8
:104950001DFA21494988491EC1F30F2000F00AFAC7
:104960001D498989C91C88B200F010FA1A49897852
:10497000491EC8B200F0FEF92DE01749488900F041
:1049800005FA002000F0F6F9002000F0F3F91249D2
:104990000988491EC1F30F2000F0ECF90E4909788F
:1049A000491EC8B200F0E6F90B49888900F0EEF91B
:1049B000002000F0DFF9002000F0DCF9064949880A
:1049C000491EC1F30F2000F0D5F903498978491E2B
:1049D000C8B200F0CFF9F0BD4823002410B502465C
:1049E0000C464B48808849F24131884205D04848FE
:1049F000808845F21031884214D14549488900F039
:104A0000C5F9101200F0B6F9D0B200F0B3F9404980
:104A1000888900F0BBF9201200F0ACF9E0B200F098
:104A2000A9F973E03A48808841F66311884247D17A
:104A300037488079A8B936480088401E801A82B26B
:104A40003349488900F0A2F9002000F093F90020D2
:104A500000F090F9101200F08DF9D0B200F08AF950
:104A600016E02B49488900F091F9101200F082F904
:104A7000D0B200F07FF926490988491EC1F30F2002
:104A800000F078F922490978491EC8B200F072F99D
:104A90001F49888900F07AF9201200F06BF9E0B222
:104AA00000F068F91A494988491EC1F30F2000F047
:104AB00061F917498978491EC8B200F05BF925E011
:104AC0001348808845F2105188421FD11049488907
:104AD00000F05CF9101200F04DF90D494989491CAC
:104AE00088B200F053F9D0B200F044F9084988893F
:104AF00000F04CF9201200F03DF905498989491C64
:104B000088B200F043F9E0B200F034F910BD0000C3
:104B1000482300242DE9F84F80460F4616461C46D0
:104B2000BB462046E31704EB5373DB1021464FEAE4
:104B3000E47C04EB5C7C4FEAEC0CA4EBCC0CBCF109
:104B4000000F02D04FF0010C01E04FF0000C634465
:104B5000224604EBD27C4FEA6C0C03FB0CF3DBB275
:104B60000093A6F12000C6B200255EE00C2C07D110
:104B700006EB46002F4901EB800010F805901BE082
:104B8000102C05D12C4800EB061010F8059013E00E
:104B9000182C07D106EBC600284901EB800010F85D
:104BA000059009E0202C05D1254800EBC61010F82F
:104BB000059001E0BDE8F88F4FF0000A2FE009F002
:104BC000800030B11F48394602684046FDF7F6F9CB
:104BD00007E00A9828B91C48394602684046FDF7A4
:104BE000EDF94FEA49604FEA1069781C87B217481F
:104BF0004088B84200DCDDE7A7EB0B00A0420AD1F9
:104C00005F4608F101001FFA80F81048008840450F
:104C100000DCCFE706E00AF1010000F0FF0ABAF17C
:104C2000080FCCDB00BF681CC5B2009885429DDB35
:104C300000BFBFE732B30008A6B7000896BD000862
:104C4000F2CA00080C0000241000002448230024AD
:104C50002DE9F84F04460D4690469946DDE90A676E
:104C600004F0FF0A08EB04001FFA80F809EB0500C6
:104C70001FFA80F916E0444502DB5446A81985B2B4
:104C80004D4500DB14E0002000903A783346294679
:104C90002046FFF73FFF304606EBD07104EB610181
:104CA0008CB27F1C38787E2802DC38782028E2DA43
:104CB00000BFBDE8F88F2DE9FF4F83B0064692464E
:104CC0001F46DDE910480020029000254DE0781BCA
:104CD000401EC1B20A20FFF709FDBAFBF0F00A211D
:104CE000B0FBF1F201FB1209029850BB781EA842FA
:104CF00027DDB9F1000F22D108F0800078B108F06B
:104D00000100A34604EBDB71491001FB0561009033
:104D100088B2234630220499FFF7FCFE0EE008F02B
:104D20000100A34604EBDB71491001FB0561009013
:104D300088B2234620220499FFF7ECFE13E00120FD
:104D4000029008F00100A34604EBDB71491001FB5F
:104D50000561009088B209F13001CAB22346049976
:104D6000FFF7D8FE00BF681CC5B2BD42AFDB07B07D
:104D7000BDE8F08F01B5BDF800000090BDF800005F
:104D80000149088008BD00000000086001B5BDF8B9
:104D900000000090BDF800000149088008BD000037
:104DA000FEFF076002480089024908807047000042
:104DB00048230024FEFF0760024A1080921C1180E5
:104DC00070470000FEFF07601CB50D48006840F00A
:104DD00002000B49086001200090002302460321D5
:104DE00001900848FCF755FD012202210548FCF717
:104DF00049FD012211460348FCF744FD1CBD00009B
:104E0000E04402580004025818B5044606480094CD
:104E1000008B401E83B20448C08A401E82B200212B
:104E2000084600F0B5F818BD5823002470B50346B5
:104E30000C4600210020364D2D6825F08055344E5B
:104E4000356001E04D1CA9B2314D2D6805F00055CB
:104E50001DB141F6FF75A942F4DB41F6FF75A94289
:104E600001D1012052E02A4D28352D6825F07C75AE
:104E7000274E2836356035462D6845EA045535609D
:104E8000234D40352D686FF30805214E40363560BF
:104E900035462D685E1E35431D4E4036356035461D
:104EA0002D6825F0FE45356035462E68551E46EACC
:104EB0000565174E40363560154D2C352D6825F4A7
:104EC0007065134E2C36356035462D683560354695
:104ED0002D68356035462D6845F0807535600C4D80
:104EE0002D6845F080550A4E356001E04D1CA9B291
:104EF000074D2D6805F000551DB941F6FF75A94213
:104F0000F4DB41F6FF75A94200D1022070BD00001C
:104F1000004402580949487530B98988074AD18246
:104F200011460988118308E0012806D10349098840
:104F3000024AD18211468988118370475823002480
:104F400070B5114B5B7D6BB10F4BDB690E4D2D685E
:104F500005FB01056B430C4D2D7D0C4E56F825507D
:104F6000EA520FE0084B1D685B681B1A5B1E05FBCD
:104F70000313054DED696B43034D2D7D034E56F82C
:104F80002550EA5270BD000058230024140000246C
:104F90002DE9F04F04460D4616464FF0000CDFF8A1
:104FA000289199F81590B9F1000F04D020462946B0
:104FB00032461F4611E02846DFF80C91D9F80490DC
:104FC000A9EB0609A9F101011A46DFF8FC90D9F80E
:104FD0000490A9EB0409A9F10107DFF8EC90B9F8F6
:104FE0000090A2EB000A0AF1010AA9EB0A091FFAD4
:104FF00089F8DFF8D49099F81490DFF8D0A05AF827
:105000002990DFF8C4A0DAF81CA0DFF8BCB0DBF808
:1050100000B00BFB010B0AFB0B9EDFF8B490D9F834
:10502000009049F01009DFF8A8A0CAF80090DFF856
:10503000A490D9F8009029F00109DFF898A0CAF8E7
:1050400000904FF44039CAF800904FF00209CAF8B6
:105050003490D146C9F84080C9F83CE0A7EB01097B
:1050600009F10109A2EB000A0AF1010A49EA0A4919
:10507000DFF860A0CAF84490DDF82490CAF83890B0
:10508000D146D9F8009049F00109CAF8009005E02E
:105090000CF1010CBCF5001F00D308E0DFF83490E0
:1050A000D9F8049009F00209B9F1000FF0D000BF5F
:1050B000DFF82090D9F8089049F00209DFF814A031
:1050C000CAF80890BDE8F08F58230024140000248B
:1050D000D4440258001000527FB50024002500F08F
:1050E000D9FA054605B97FBD02F008F9E348006822
:1050F00040F00800E1490860081F006840F0020025
:10510000091F08600846006840F4F070086001203C
:1051100000900023024620210190D948FCF7B9FBFA
:105120000120032100230222CDE900108102D5488D
:10513000FCF7AFFB0120032100230222CDE9001080
:105140004FF40C61D048FCF7A4FB0120032100239D
:105150000222CDE900104FF47E41CC48FCF799FBC8
:105160000120032100230222CDE9001040F2F76163
:10517000C748FCF78EFB0E220A21C248FCF75AFBF7
:105180000E220621C048FCF755FB0E220721BE481F
:10519000FCF750FB0E220B21BB48FCF74BFB0E2209
:1051A0000921BA48FCF746FB0E220A21B748FCF752
:1051B00041FB0E220B21B548FCF73CFB0E220C21D3
:1051C000B248FCF737FB0E220D21B048FCF732FB4A
:1051D0000E221146AD48FCF72DFB0E220F21AB48E5
:1051E000FCF728FB0E220021A948FCF723FB0E2226
:1051F0000121A748FCF71EFB0E220221A448FCF760
:1052000019FB0E220421A248FCF714FB0E220521F3
:105210009F48FCF70FFB0E2206219D48FCF70AFB76
:105220000E2207219A48FCF705FB0E220921984817
:10523000FCF700FB0E220A219548FCF7FBFA44F22A
:105240004230854218D14FF4F070924908604FF413
:1052500088704860012008814881282088810820C2
:10526000C8810520088208204882212219214FF494
:105270009670FFF7DBFD6BE047F28400854218D1A2
:105280004FF44870834908604FF4F0704860012083
:10529000088148812E2088811720C881D220088269
:1052A00016204882092219214FF49670FFF7BEFD9F
:1052B0004EE047F21600854219D14FF480607549DF
:1052C00008604FF41670486014200881032048815C
:1052D0008C2088811420C881A02008820C2048825C
:1052E000062219214FF49670FFF7A0FD30E047F237
:1052F0001800854207D14FF4A060664908604FF45A
:105300004870486024E048F21600854206D14011FA
:10531000604908604FF41670486019E041F21800C7
:10532000854215D14FF4A0605A4908604FF4487087
:1053300048608C2088810A2008820881C8814882C0
:1053400003204881062219214FF49670FFF76EFD65
:10535000002441F21800854201D14FF0805400BF73
:1053600000BF00BF4C4884614A484089441E4948F8
:105370000089401E44EA004447488460454840890B
:105380004449C9890844441E4248008941498989E1
:105390000844401E44EA00443F48C4603D484089F8
:1053A0003C49C98908443B4949680844441E394876
:1053B0000089384989890844364909880844401ECB
:1053C00044EA004434480461324840893149C9897B
:1053D00008443049496808442E49498A0844441E13
:1053E0002C4800892B49898908442A49098808449E
:1053F0002849098A0844401E44EA0044264844617A
:1054000000202549C862012000F09EF92348244964
:10541000086002201F49C861002007210622CDE94B
:105420000002CDE902101E48FF230222016800207D
:1054300000F03AF802211748808880B2CDE90001D7
:105440001448008883B200221146104600F090F8FC
:1054500010480088134908800E4880884880002042
:1054600000F06CF9012220210548FCF70BFA4FF0FF
:10547000FF30FFF7C9FC00BF35E60000E4440258E6
:10548000000402580014025800180258001C025868
:10549000002002585823002400100050000000C0D3
:1054A00014000024482300242DE9F04106ACF0CC80
:1054B00090B9DFF84CC0CCF8AC10CCF89420CCF804
:1054C000983047EA046CDFF83880C8F89CC046EA98
:1054D000052CC8F8A0C011E0DFF824C0CCF82C11CE
:1054E000CCF81421CCF8183147EA046CDFF81080AE
:1054F000C8F81CC146EA052CC8F820C1BDE8F081F7
:1055000000100050012913D140B9184A126842F026
:105510000102164B843BC3F884201DE0134A8032FD
:10552000126842F00102114B843BC3F8042113E0DE
:1055300091B940B90D4A126822F001020B4B843B2D
:10554000C3F8842008E0094A8032126822F0010280
:10555000064B843BC3F80421044A843A526A42F061
:105560000102024B843B5A627047000084100050D5
:105570002DE9F04782460F4690461E46DDE9089425
:10558000BAF1000F3ED1B8194049C968C1F30B41C7
:10559000084405043D48C068C0F30B403844401C33
:1055A00028433A498831086008EB09003749C9683F
:1055B000C1F30A01084405043448C068C0F30A0076
:1055C0004044401C28433149C1F88C000CB90425E3
:1055D0000AE0012C01D1032506E0052C01D0062CA0
:1055E00001D1012500E0022506FB05F0C01D06FBE8
:1055F00005F140EA01402549B03108602348C0F870
:10560000B4903CE0B8192149C968C1F30B41084482
:1056100005041E48C068C0F30B403844401C2843B2
:105620001B49086008EB09001849C968C1F30A0161
:10563000084405041548C068C0F30A004044401CF3
:1056400028431249C1F80C010CB904250AE0012CC9
:1056500001D1032506E0052C01D0062C01D101253E
:1056600000E0022506FB05F0C01D06FB05F140EA3F
:1056700001400749283108600448C0F834910121ED
:105680005046FFF73FFFBDE8F087000000100050D4
:10569000081100501CB500242548006840F4A07093
:1056A00023490860012000210B460A46CDE900107D
:1056B00040212048FCF7EDF8012000210B460A4666
:1056C000CDE9001084211C48FCF7E3F8322003F0F8
:1056D00051FD40211748FCF7CDF804460421164837
:1056E000FCF7C8F844EA4000C4B280211248FCF735
:1056F000C1F844EA8000C4B2062C16D2DFE804F0F8
:105700000306090C0F1244F242301CBD47F284001C
:10571000FBE747F21600F8E747F21800F5E748F212
:105720001600F2E741F21800EFE70020EDE7000075
:10573000E044025800180258002002580149087538
:105740007047000058230024012806D107498969C1
:1057500041F00101054A916106E028B903498969D0
:1057600021F00101014A91617047000000100050D2
:105770000146002002E04908421CD0B20129FAD1BA
:10578000704700000748006820F480300549086031
:1057900004487030006820F0010002497031086050
:1057A0007047000024ED00E005200549086004482A
:1057B0007038006840F480300149703908607047E3
:1057C00094ED00E00EB501200022CDE90020032376
:1057D000024641040290400700F046F801200022F2
:1057E000CDE9002003230222C10402904FF01050A3
:1057F00000F03AF801200022CDE9002003231A46E8
:10580000C1040290180700F02FF801200022CDE912
:10581000002003230422010402904FF0605000F0A6
:1058200023F8002000900190032305224FF08061AF
:105830000290580700F018F801200022CDE900205E
:105840000323062241060290500700F00DF80020C5
:1058500000900190032307224FF080510290C8006E
:1058600000F002F80EBD00002DE9F04F05460C4691
:1058700016461F46DDE90A9ADDF8248000239B4680
:1058800004F01F0000B914B90120BDE8F08F2046D4
:10589000FFF76EFF401E00F0FF0BFFF773FF0C4891
:1058A0000660001D056000BF43EA076300BF43EACE
:1058B000884343EA494343EA0A4300BF43EA4B03B0
:1058C00043F00103001D0360FFF76EFF0020DCE7DB
:1058D00098ED00E02DE9F0410746884614461D4644
:1058E000284600F033F8C5F1040007FA00F60F204F
:1058F000284100EA0800064306F00F06E21704EB11
:10590000D2625211920002F1E022D2F80021214627
:10591000E31704EBD3635B11A4EB431C012303FAED
:105920000CF31A432046E31704EBD3635B119B008F
:1059300003F1E023C3F800210348005D40EA0610AC
:1059400001490855BDE8F08100E400E00146072365
:1059500023EA01021202054B18684FF6FF031840B4
:10596000034B18431043014B186070470CED00E0E7
:105970000000FA054A0A52020243014B1A607047BE
:1059800008ED00E010B5002201210A48FBF77AFF7C
:1059900009A0FAF731FD4FF47A7003F0EBFB0CA08D
:1059A000FAF72AFD4FF47A7003F0E4FB02F04EFFA1
:1059B00010BD0000000402584D656D204163636511
:1059C0007373204572726F7221210D0A000000006E
:1059D000536F6674205265736574696E672E2E2E40
:1059E0000D0A00002DE9FE4F8046894617461D46E8
:1059F0000C9C002600200290019083460090824675
:105A00007B488079B8FBF0F080B2019078488079CB
:105A1000B9FBF0F01FFA80FB5846019901EBD172F7
:105A20005210A1EB42020BEBD0735B10ABEB4303C4
:105A30009A4202D00120BDE8FE8F00206D49087017
:105A40006D490870087081F800804FEA18200870CE
:105A50004FEA18400870352066490870002000F0B1
:105A600023FD06460EB10220E5E7012000F01CFDF3
:105A700006460EB10220DEE785205E4908705E49C9
:105A80000F703812087081F800904FEA19200870E2
:105A90004FEA194008701E2000F016F9E11704EBD8
:105AA000D1514912A4EB412199B101F03BF90020F9
:105AB000029009E015F8010B4FF000410870BDF8A5
:105AC0000800401C80B20290BDF80800A042F1DB43
:105AD00080E02046E11704EBD151C1F3472100914A
