:020000040800F2
:10000000B085072499030008BD030008BF0300085A
:100010006D690008C3030008C50300080000000064
:10002000000000000000000000000000C7030008FE
:10003000C903000800000000CB030008CD0300083E
:10004000CF030008CF030008CF030008A16E00080B
:10005000CF030008CF030008CF030008CF03000838
:10006000CF030008CF030008CF030008CF03000828
:10007000CF030008CF030008CF030008CF03000818
:10008000CF030008CF030008CF030008CF03000808
:10009000CF030008CF030008CF030008CF030008F8
:1000A000CF030008CF030008CF030008CF030008E8
:1000B000CF030008D177000875780008CF03000847
:1000C000CF030008CF030008CF030008CF030008C8
:1000D000CF030008817A0008CF030008CF0300088F
:1000E000CF030008196B000800000000CF030008D0
:1000F000CF030008CF030008CF030008CF03000898
:10010000CF030008CF030008B1780008CF03000830
:10011000CF030008CF030008CF030008CF03000877
:10012000CF030008CF030008CF030008CF03000867
:10013000CF03000865110008CF030008CF030008B3
:1001400000000000000000000000000000000000AF
:10015000CF030008CF030008CF030008CF03000837
:10016000CF030008CF030008CF030008CF03000827
:10017000CF030008CF030008CF03000800000000F1
:10018000CF030008CF030008CF030008CF03000807
:10019000CF030008CF030008CF030008CF030008F7
:1001A000CF030008CF030008CF030008CF030008E7
:1001B000CF030008CF030008CF030008CF030008D7
:1001C000CF030008CF030008CF030008CF030008C7
:1001D000CF030008CF030008CF030008CF030008B7
:1001E000CF030008CF030008CF030008CF030008A7
:1001F000CF030008CF030008CF030008CF03000897
:10020000CF030008CF030008CF030008CF03000886
:10021000CF030008CF030008CF030008CF03000876
:10022000CF030008CF030008CF0300080000000040
:10023000CF030008CF03000800000000CF03000830
:10024000CF030008CF030008CF030008CF03000846
:10025000CF030008CF030008CF030008CF03000836
:10026000CF030008CF030008CF030008CF03000826
:10027000CF030008CF030008CF03000800000000F0
:10028000CF03000800000000CF03000800000000BA
:1002900000000000CF03000800F002F800F06DF845
:1002A0000AA090E8000C82448344AAF10107DA45D1
:1002B00001D100F062F8AFF2090EBAE80F0013F0B6
:1002C000010F18BFFB1A43F00103184778560300CB
:1002D000985603000A444FF0000C10F8013B13F04D
:1002E000070408BF10F8014B1D1108BF10F8015B8F
:1002F000641E05D010F8016B641E01F8016BF9D182
:1003000013F0080F1EBF10F8014BAD1C0C1B09D1D8
:100310006D1E58BF01F801CBFAD505E014F8016B4A
:1003200001F8016B6D1EF9D59142D6D370470000DC
:100330000023002400250026103A28BF78C1FBD8EE
:10034000520728BF30C148BF0B607047642900F0D6
:10035000C380752900F0C080782900F0F9806329F6
:1003600000F01184732900F01684002070471FB537
:1003700016F0D0FF1FBD10B510BD00F027FC1146D0
:10038000FFF7F5FF0DF014FD00F045FC03B4FFF797
:10039000F2FF03BC07F0C1FBDFF84000016841F445
:1003A00070010160BFF34F8FDFF83400016821F066
:1003B00040410160BFF36F8F0A480047FEE7FEE748
:1003C000FEE7FEE7FEE7FEE7FEE7FEE7FEE7FEE705
:1003D00005480649044A064B7047000088ED00E0D6
:1003E00034EF00E099020008B07D0724B0850724AF
:1003F000B07D0724704700000FB4044910B503AA6C
:10040000029800F0CDFB10BC5DF814FB0400002442
:100410000FB41CB5074B06AA7B44694600900598AB
:1004200000F08FFB0020694600F09EFB1CBC5DF8CD
:1004300014FB00004D07000070B504468569006894
:10044000C10601D5302600E02026C00707D070BDC8
:10045000D4E9012130469047206A401C20626D1E7D
:10046000F6D570BD70B5044685690078C00707D120
:1004700070BDD4E9012120209047206A401C2062F1
:100480006D1EF6D570BD70B50C460546012A05D027
:100490002878800600D5EA69002302E0012305E000
:1004A0005B1C934202D2E05C0028F9D1A869E618EF
:1004B000C01AA861286A184428622846FFF7BCFFC2
:1004C00004E0D5E9012114F8010B9047B442F8D3B8
:1004D0002846FFF7C7FF70BD2DE9F041064600240E
:1004E00010687529314616A510D0AFF3008000289A
:1004F00002DA404213A507E031688A0701D512A548
:1005000002E0490704D511A5012401E0AFF3008002
:1005100000210A2206F1240709E0B0FBF2FCB0FB3F
:10052000F2F302FB1C00303078541846491C0028B6
:10053000F3D123462A463046BDE8F04100F0A2BA86
:10054000000000002D0000002B0000002000000033
:1005500070B504460D4621461068AFF3008021882F
:10056000090502D50F4A7A4402E00E4A7A440E3257
:10057000002104F1240305E000F00F060009965D58
:100580005E54491C0028F7D120780023000704D5C9
:10059000702D02D009B1022311322046BDE870400F
:1005A00000F070BA3E5003002DE9F05F8946044622
:1005B0004FF0000ADFF874B1FB44C0F820A02046D9
:1005C000E1688847002874D0252806D0D4E90121A5
:1005D0009047206A401C2062F1E700265F462046D3
:1005E000E16888472028054607DB312D05D27819B8
:1005F00010F8200C08B10643F1E7B00701D526F04A
:100600000406C4F81CA00027C4F818A02A2D09D09D
:10061000284607F07BFA38B304EB8708303DC8F86A
:10062000185019E059F8041B204604EB8702916129
:10063000E1688847012F054618D1E069002820DAD3
:1006400026F020061DE0D8F8180000EB800005EB2E
:1006500040003038C8F818002046E1688847054651
:1006600007F054FA0028EED1012F0AD02E2D08D120
:100670002046E16888477F1C0546022F46F0200689
:10068000C4DBA069002803DA404246F00106A061FD
:10069000F00701D026F010066C2D0BD0682D09D084
:1006A0004C2D39D06A2D35D0742D35D07A2D33D0DC
:1006B00016E038E0E1682F4620468847B8420546F4
:1006C00009D16C2F26D04FF48060E16806432046A4
:1006D0008847054604E06C2F1AD04FF4807006431B
:1006E0000DB3A5F14100192802D8203546F4006663
:1006F0004A462946204626604E46FFF727FE80B12F
:1007000001280BD0F61D26F0070000F1080956E776
:100710004020E4E78020D8E70020D6E706F104096E
:100720004DE7284652E7206ABDE8F09F14500300C9
:10073000401ECAB210F8011F8A4202D00029F9D126
:100740000020704730B505460B462A4613F8014B8A
:1007500012F8010B08B1A042F8D01CB1002802D059
:100760006D1CF1E7284630BD40EA010310B59B0738
:100770000FD1042A0DD310C808C9121F9C42F8D00B
:1007800020BA19BA884201D9012010BD4FF0FF30BC
:1007900010BD1AB1D30703D0521C07E0002010BDD2
:1007A00010F8013B11F8014B1B1B07D110F8013B5E
:1007B00011F8014B1B1B01D1921EF1D1184610BD3F
:1007C00010B5431C02E010F8011B71B18107FAD18A
:1007D0004FF0013202C88C1A8C4314EAC211F9D0CE
:1007E000C01A0A0603D0C01E10BDC01A10BD0A04EC
:1007F00001D0801E10BD0902FCD0401E10BD40EA91
:10080000010370B59B072ED14FF00136042A2AD37D
:1008100008C810C99D1B9D43121F15EAC61517D0A5
:10082000D8B2E1B2401A50EA056110D198B2A1B233
:10083000401A50EA05410AD123F07F4024F07F415D
:10084000401A50EA052102D1180EA0EB146070BDC9
:10085000A342DBD018BA21BA884201D9012070BD69
:100860004FF0FF3070BD0AB9002070BD10F8013B99
:1008700011F8014B63B1A3420AD1521E08D010F8FF
:10088000013B11F8014B1BB1A34201D1521EEDD126
:10089000181B70BD032A40F2308010F0030C00F0EA
:1008A000158011F8013BBCF1020F624498BF11F8AA
:1008B00001CB00F8013B38BF11F8013BA2F1040263
:1008C00098BF00F801CB38BF00F8013B11F00303DB
:1008D00000F02580083AC0F0088051F8043B083A3F
:1008E00051F804CBA0E80810F5E7121D5CBF51F8E1
:1008F000043B40F8043BAFF30080D20724BF11F85B
:10090000013B11F801CB48BF11F8012B24BF00F8BF
:10091000013B00F801CB48BF00F8012B704710B530
:10092000203AC0F00B80B1E81850203AA0E81850E7
:10093000B1E81850A0E81850BFF4F5AF5FEA027CA8
:1009400024BFB1E81850A0E8185044BF18C918C017
:10095000BDE810405FEA827C24BF51F8043B40F8B8
:10096000043B08BF7047D20728BF31F8023B48BF9D
:1009700011F8012B28BF20F8023B48BF00F8012BDB
:1009800070474FF000020429C0F0128010F0030CF1
:1009900000F01B80CCF1040CBCF1020F18BF00F872
:1009A000012BA8BF20F8022BA1EB0C0100F00DB821
:1009B0005FEAC17C24BF00F8012B00F8012B48BF7F
:1009C00000F8012B70474FF0000200B51346944623
:1009D0009646203922BFA0E80C50A0E80C50B1F197
:1009E0002001BFF4F7AF090728BFA0E80C5048BFAB
:1009F0000CC05DF804EB890028BF40F8042B08BF49
:100A0000704748BF20F8022B11F0804F18BF00F844
:100A1000012B70474FF0013C50F8042B51F8043B78
:100A20009A4215D1A2EB0C03934313EACC130BD1DA
:100A300050F8042B51F8043B9A4209D1A2EB0C0365
:100A4000934313EACC13E7D04FF00000704700BF88
:100A5000D01A01BAB1FA81F101F0180122FA01F0BD
:100A6000CB40C1F12001DBB2C0B2C01A2CFA01F3B5
:100A7000D11A914311EAC311E6D17047704770470C
:100A8000704770472DE9F0470D4699469246044657
:100A900000F124080168880604D5E06921F01001FE
:100AA000216000E00120A84201DD471B00E0002793
:100AB000A1697A1902EB0900081AA0612078C00622
:100AC00002D42046FFF7B8FC002608E0D4E9012153
:100AD0001AF806009047206A401C761C20624E459A
:100AE000F4DB2078C0060AD52046FFF7A5FC06E017
:100AF000D4E9012130209047206A401C2062381E32
:100B0000A7F10107F4DC07E0D4E9012118F805009A
:100B10009047206A401C2062281EA5F10105F3DCE5
:100B20002046FFF79FFC2078000602D50220BDE892
:100B3000F0870120FBE7000001694A1C0261087888
:100B4000704700B58FB0CDE901310021059105490D
:100B50007944CDE9031011466846FFF725FD0FB033
:100B600000BD0000E5FFFFFF0A6802F8010B0A6004
:100B7000704710B5436913B1AFF3008001E0FFF790
:100B800082FC012010BD127800F124010A700022BD
:100B90004A700122EDE711684FF0FF32E9E70000EB
:100BA000074B70B50D467B44FFF7CBFF0446284644
:100BB00000F008F810B14FF0FF3070BD204670BD56
:100BC000AB9C0000007B00F080007047754600F091
:100BD0002BF8AE4605006946534620F007008546CF
:100BE00018B020B5FFF7F4FBBDE820404FF0000639
:100BF0004FF000074FF000084FF0000B21F0070105
:100C0000AC46ACE8C009ACE8C009ACE8C009ACE847
:100C1000C0098D46704710B50446AFF300802046EA
:100C2000BDE81040FFF7B2BB004870474C7D072479
:100C30002DE9F047044600BF00BF00BF00BF00BF62
:100C40000A21132000F041FF054600EE105AB8EECD
:100C5000400B9FED211B20EE010BBCEEC00B10EEF4
:100C6000105A4FF47A70B5FBF0F0C6B206EB4600AE
:100C7000C0EBC610A5EBC0006421B0FBF1F0C7B219
:100C80004FF47A7016FB00F007EBC70101EB071178
:100C900000EB8100281A0A21B0FBF1F8E82016FBCE
:100CA00000F007EBC70101EB071100EB810008EB37
:100CB000880100EB4100A5EB000906F1300020702F
:100CC00007F13000607008F13000A07009F13000C9
:100CD000E070BDE8F08700009A9999999999A93F29
:100CE00010B54848006840F08070464908604548A3
:100CF0005838006840F0807042495839086008460A
:100D0000006820F0807008603E488838006820F451
:100D100040303C49883908600846006840F400309B
:100D200008603948006840F480203849C1F8080359
:100D30000846D0F8080340F400003349086000205A
:100D4000324988600846806840F0805088600A20F8
:100D500006F002FF2D48806840F480702B498860BF
:100D60000846C06820F40050C8600846C06840F4D7
:100D70008050C8600846C06820F44060C8600846DB
:100D8000C06820F01C00C8600846C068C8600846FB
:100D9000006920F070400861084600691C4908405D
:100DA0001A4908610846806820F08040886008463B
:100DB000806840F4803088600846806840F00040D9
:100DC000886000BF1148806800F000400028F9D119
:100DD0000E48006B20F00F000C4908630846006BBA
:100DE00008630846806920F0E060886108468069F1
:100DF00040F0E06088610846806840F0010088604B
:100E000010BD0000E0440258086302580060025818
:100E1000FFFF00FC1CB54C48006840F020004A4928
:100E2000086049480830006840F001004649083130
:100E300008600020009003460322202101904348CF
:100E400000F075FD40485838006840F020003E49E9
:100E5000583908600846006820F0200008603A48C9
:100E60008038006820F440303749803908600846EF
:100E7000006840F4003008603548006840F4802085
:100E80003449C1F80803002088600846806840F0B3
:100E9000805088600A2006F05FFE2E48806840F48B
:100EA00080702C4988600846C06820F40050C860F3
:100EB0000846C06840F48050C8600846C06820F406
:100EC0004060C8600846C06820F01C00C860084642
:100ED000C068C8600846006920F070400861084694
:100EE00000691D4908401B4908610846806820F0D8
:100EF000804088600846806840F4803088600846FA
:100F0000806840F00040886000BF1248806800F0B0
:100F100000400028F9D10F48006B20F00F000D4968
:100F200008630846006B08630846806920F060503B
:100F300088610846806940F0605088610846806892
:100F400040F0010088601CBDD844025800000258DF
:100F50000823024000200240FFFF00FC2DE9F0477B
:100F600082460F469046994600243A46414623A0C1
:100F700000F098FC82460AF1010020B30121002014
:100F800005F06AFD00BF1CE058F824001BA1FFF724
:100F900041FDA0B959F824001AA1FFF73BFD20B983
:100FA0000021084605F058FD09E059F8240017A172
:100FB000FFF730FD18B90121002005F04DFD601C40
:100FC000C4B2BC42E0DB002005F028FD064601214A
:100FD000104800F09DFC054625B9012E02D10EA057
:100FE000BDE8F08715B90EB913A0F9E7012D02D1BC
:100FF0000EB918A0F4E71FA0F2E7000042454550E3
:1010000000000000424545504F4E0000424545500B
:101010004F464600000402582F53544D33325F4C64
:1010200045445F4F4E5F424545505F4F46462E73E5
:1010300068746D6C000000002F53544D33325F4CC8
:1010400045445F4F4E5F424545505F4F4E2E73689B
:10105000746D6C002F53544D33325F4C45445F4FD9
:1010600046465F424545505F4F4E2E7368746D6C27
:10107000000000002F53544D33325F4C45445F4F06
:1010800046465F424545505F4F46462E7368746D35
:101090006C00000010B506F02BF805F0DBFF0348EC
:1010A000006840F004000149086010BD9CEF00E0BA
:1010B00010B5002210E002EB4204036903EBC40107
:1010C00000230B604B608B60CB600B614B6100F1C8
:1010D0002C0343F82210521C042AECD30024C463CE
:1010E00004644464C46484640324036803F5805383
:1010F000C3F83041036803F580530469C3F81C4109
:1011000003694833046804F58054C4F8283110BDDD
:1011100010B500220EE002EB4204C36803EBC401E9
:1011200000230B604B608B60CB6000F1180343F829
:101130002210521C042AEED3002484620324036884
:1011400003F58053C3F82C41036803F58053C4684A
:10115000C3F81441036803F58053C468C3F8204101
:1011600010BD000010B50CF073FC4FF400410A48AC
:10117000006800F58050C0F8601140210648006802
:1011800000F58050C0F8601101210348006800F5A7
:101190008050C0F8601110BD9803002410B5A2B0B3
:1011A000044601208DF83300002012908DF8410094
:1011B0008DF8430001208DF828008DF856008DF839
:1011C000320000208DF84C0001208DF8840040038F
:1011D0000F9000208DF85C0018908DF885008DF838
:1011E00086004FF4C360169000208DF830000B90FD
:1011F00001208DF8350000208DF836008DF8400074
:101200001D901B9014908DF864008DF87A000120D9
:101210008DF842002020209001208DF8440000200D
:101220008DF855004FF0405009904FF480400E90DB
:1012300000208DF8310002201F9000208DF87800EA
:101240008DF879008DF8540001208DF834000020CD
:101250001A9001208DF8700009A9204600F058FA74
:1012600001208DF804000290002000908DF81C00F1
:101270008DF80D008DF80C004FF400100690002042
:101280008DF814004FF40010049000208DF81D001C
:101290004FF4067008906946204600F0DBF922B052
:1012A00010BD000002461368D3F8000220F47060FD
:1012B0001449154B994205D3144B994202D240F47C
:1012C00000701AE0114B994205D3114B994202D29A
:1012D00040F4407011E00E4B994203D30D4B9942FC
:1012E00000D20AE00B4B994205D30B4B994202D234
:1012F00040F4807001E040F480601368C3F800029D
:101300007047000000C2EB0B002D3101C00E160229
:101310000087930300E1F50580D1F0082DE9F0473F
:1013200006460B46914606F118052A69D5F810C005
:10133000002755F822109C68C86800F00040B0F102
:10134000004F02D10220BDE8F087187800F00400B9
:10135000C8B3C8686FF30F00D3F824A040EA0A00AE
:10136000C860C86840F48030C8603068006E40F4DF
:101370008010D6F800A0CAF86000187800F00800C5
:1013800008B3B3F82CA088686AF31F408860C86867
:1013900040F40030C860C86820F44020D3F830A082
:1013A00040EA0A00C8603068406E40F48010D6F809
:1013B00000A0CAF864003068006D40F08060D6F884
:1013C00000A0CAF85000187800F0100058B18868E2
:1013D0006FF30D00D3F818A040EA0A008860C868CF
:1013E00040F08060C860187800F0040018B91878E0
:1013F00000F01000F0B1C86840F08040C860C868D4
:1014000040F00040C86000BF521C042A00D3121FE5
:1014100000BF55F822107F1CC86800F00040B0F1F2
:10142000004F07D155F82C10C86820F00040C86064
:10143000022088E77F1C2068086088686FF30D0031
:10144000D4F804A040EA0A008860A06868B1A468E3
:10145000206848608868DFF8F8A100EA0A00B4F85C
:1014600004A040EA0A40886007E0002048608868DD
:10147000DFF8DCA100EA0A008860187800F01000AC
:10148000A0B1C86820F4F000B3F820A040EACA4038
:10149000C860C8686FF31100D3F81CA040EA0A00C6
:1014A000C860C86840F48020C8601FE0C8686FF357
:1014B0000E00D3F804A040EA0A00C860187800F0D3
:1014C000010038B1C86820F44030D3F814A040EAD5
:1014D0000A00C860187800F0200038B1C86820F011
:1014E0004060D3F810A040EA0A00C860187800F005
:1014F000040038B1886820F44040D3F828A040EABE
:101500000A008860C86840F00050C860C86820F0D1
:101510008040C860C86840F00040C860187800F09B
:10152000020038B1C86820F06070D3F80CA040EA1F
:101530000A00C86076E000BF521C042A00D3121FC4
:1015400000BF55F82210C86800F00040B0F1004F0D
:1015500017D1624655F822104FF000080DE0C86818
:1015600020F00040C86000BF521C042A00D3121FA4
:1015700000BF55F8221008F10108B845EFD302204A
:10158000E1E67F1CA4682068086088686FF30D009E
:10159000D4F804A040EA0A008860A06868B1A46892
:1015A000206848608868DFF8A8A000EA0A00B4F85C
:1015B00004A040EA0A40886007E00020486088688C
:1015C000DFF88CA000EA0A008860187800F01000AC
:1015D00060B1C8686FF31100D3F81CA040EA0A009C
:1015E000C860C86840F48020C86013E0C8686FF322
:1015F0000E00D3F804A040EA0A00C860187800F092
:10160000010038B1C86820F44030D3F814A040EA93
:101610000A00C860C86840F00040C860C86820F090
:101620008040C860A068002885D1B9F1000F04D0BF
:10163000886840F00040886003E0886820F000403F
:101640008860C86840F08050C8602A6100207AE64F
:10165000FFFF00C010B5036803F580531B6847F611
:101660000204A3430C682343046804F580542360F8
:101670000C798B6843EA04330C7B43EAC432036879
:1016800003F580535B684DF20104A34313430468E0
:1016900004F5805463604C7B0B6A43EA04420368A0
:1016A00003F58053D3F80031164C234013430468EC
:1016B00004F58054C4F800310C7D0B6943EA04132F
:1016C0004C7F43EA0432036803F58053D3F80431B6
:1016D0000D4C23401343046804F58054C4F80431CE
:1016E0000C7F8B6943EAC472036803F58053D3F817
:1016F0000831064C23401343046804F58054C4F8B1
:10170000083110BD00C0FEFFEFEFC0FFFFFFC07F3C
:1017100010B50C688B6823430C7943EAC4630C7BD7
:1017200043EAC4534C7B43EA84538C7B43EA4453DF
:10173000CC7B43EA04530C7C0CB9012400E0002468
:1017400043EAC4434C7C0CB9012400E0002443EA82
:1017500044438C7C43EA04434C6923438C69234310
:101760000C7F43EA04334C7F43EAC4238C7F0CB9DB
:10177000012400E0002443EA8423CC7F43EA44238D
:1017800091F820400CB9012400E0002443EA04232E
:1017900051F8244F23430C7943EA04138C6843EA3D
:1017A000040203681B683D4C234013430468236014
:1017B0000B7E5B060C7D43EA04630C7B43EA8443A7
:1017C0004C7B43EA44438C7B24390CB9012400E070
:1017D000002443EA04434C6B43EA040203685B6859
:1017E0002F4C234013430468636091F840404B6CD6
:1017F00043EA04220368DB6840F20F14A343134357
:101800000468E36091F854400B6D43EA440391F897
:101810004C400CB9012400E0002443EAC41331F821
:10182000484F43EA044203681B6F4FF60D74234090
:101830001343046823678B7B4C7B43EA44020368B1
:10184000D3F8903023F0030313430468C4F89030B6
:101850000368D3F8003D23F072030C692343046846
:10186000C4F8003D0C7E4B6948390CB9012400E0F6
:10187000002443EA841391F8614043EA041391F889
:10188000624043EAC4020368D3F8303D23F07B038F
:1018900013430468C4F8303D10BD00008380040089
:1018A0000080F8C02DE9F04107460D461646002499
:1018B00009E055F824103846FFF7ACF810B9204677
:1018C000BDE8F081641CB442F3DB4FF0FF30F7E772
:1018D00030B5CC1000F1200353F824304C07E50E4E
:1018E0000F24AC40A343CD1000F1200444F8253070
:1018F000CC1000F1200353F824304C07E40E02FA18
:1019000004F42343CD1000F1200444F8253030BD09
:1019100002461069084008B1012070470020FCE72A
:1019200002F001030BB1018300E0418370472DE910
:10193000F0470C46DDE90867002100258C4600BF12
:1019400060E04FF0010808FA01F504EA050CAC4527
:1019500057D1D0F800804FEA410A4FF0030909FA45
:101960000AF928EA0908C0F80080D0F800804FEA98
:10197000410902FA09F948EA0908C0F80080012A79
:1019800001D0022A27D1D0F808804FEA410A4FF04F
:10199000030909FA0AF928EA0908C0F80880D0F80A
:1019A00008804FEA410906FA09F948EA0908C0F82F
:1019B0000880D0F804904FF0010808FA01F829EAED
:1019C0000809C0F80490D0F8048003FA01F948EA45
:1019D0000908C0F80480D0F80C804FEA410A4FF0A3
:1019E000030909FA0AF928EA0908C0F80C80D0F8B6
:1019F0000C804FEA410907FA09F948EA0908C0F8DA
:101A00000C80491C10299CD3BDE8F0870146104882
:101A1000C06901228A4010430D4AD0611046006B14
:101A200020F4F86010631046006B40EA81101063E8
:101A30001046806840F00400906000BF04480068D1
:101A400000F004000028F9D00148006C80B2704713
:101A50000020024001461048C06901228A4010431C
:101A60000D4AD0611046006B20F4F86010631046F8
:101A7000006B40EA811010631046806840F004005B
:101A8000906000BF0448006800F004000028F9D00E
:101A90000148006C80B27047006002582DE9F041A7
:101AA00007460C460025002608E03846FFF7D2FF1F
:101AB0000544052006F050F8701CC6B2A642F4DBBF
:101AC000B5FBF4F080B2BDE8F0812DE9F0410746A6
:101AD0000C460025002608E03846FFF797FF05442E
:101AE000052006F039F8701CC6B2A642F4DBB5FB3F
:101AF000F4F080B2BDE8F0812DE9F0412DED048BCA
:101B00009FED1B0AB0EE408A1A480488194820301D
:101B10000788381B00EE100AB8EEC00B9FED161BAD
:101B200081EE002BB7EEC20BB0EE408A0A211220E4
:101B3000FFF7B4FF0546281B00EE100AF8EE400A36
:101B4000B3EE0E0A08EE200AB7EEC00AB0EE409BD4
:101B50009FED0B0B29EE000BB0EE409BBDEEC00BD2
:101B600010EE100A06B23046BDEC048BBDE8F081E1
:101B70000000000020E8F11F0000000000005440B9
:101B8000000000000000594070B5054605F12C0228
:101B9000536952F823109669906908B9012070BD05
:101BA000D06900B1761C002423E0086908604FF07A
:101BB0008070C860486928B148698860C86840F08A
:101BC0000070C860C86840F00040C860106A18B172
:101BD000C86840F08040C8609069401EA04207D9A4
:101BE00000BF5B1C042B00D31B1F00BF52F8231047
:101BF000641CB442D9D3286800F58050C0F828117D
:101C00000020906100BFCAE730B504460D4604F1DC
:101C10002C0050F825100AB1042D02D30120606574
:101C200030BD0A600A61C86840F08070C8602BB19E
:101C30008B604B61C86840F00070C860C86840F0B5
:101C40000040C8600020EBE7024609B90120704758
:101C50001068006800F00C00C86210680068C0F3EB
:101C6000001081F828001068006800F060004862E9
:101C700010680068C0F3002080F0010081F82000A7
:101C800010680068C0F34020C87710680068C0F38F
:101C9000802080F00100887710680068C0F3C020C1
:101CA000487710680068C0F3003008771068006853
:101CB00000F4005088611068006800F480404861BA
:101CC00010680068C0F30040887410680068C0F3B2
:101CD000404080F00100487410680068C0F3C040C4
:101CE00080F00100087410680068C0F30050C873E9
:101CF00010680068C0F34050887310680068C0F333
:101D00008050487310680068C0F3C05008731068B2
:101D1000006800F0E060886010680068C0F3C06090
:101D200008711068006800F0E040086010684068C2
:101D3000C0F30D00486310684068C0F3004080F0B5
:101D4000010081F8320010684068C0F3404081F81B
:101D5000310010684068C0F3804081F8300010689E
:101D60004068C0F3006081F8380010684068C0F334
:101D70004460C8631068C068C0F3002081F8400068
:101D80001068C06800F00F0048641068006FC0F36E
:101D9000400081F854001068006FC0F3C01080F05C
:101DA000010081F84C001068006F00F070000865B9
:101DB0001068006F000C88641068D0F8900000F084
:101DC000010081F856001068D0F89000C0F3400080
:101DD00081F855001068D0F8000D00F07200886599
:101DE0001068D0F8300D00F02300C8651068D0F8F6
:101DF000300DC0F3C00081F862001068D0F8300DDB
:101E0000C0F3001081F861001068D0F8300DC0F305
:101E1000801080F0010081F86000002017E72DE9B4
:101E2000F84F06468B4606F12C07D7F814800020A1
:101E3000009057F828505C46B86930B9304600F039
:101E400002F910B90120BDE8F88F4FF0000A27E031
:101E5000686978B10CB90120F5E7286920607069DC
:101E60006060A4680CB90120EDE7686920607069C2
:101E7000606003E02869206070696060E868C0F312
:101E80000E00009000BF08F10108B8F1040F01D363
:101E9000A8F1040800BF57F82850A4680AF1010A05
:101EA000B869401E5045D3D80CB90120CBE7E8688B
:101EB000C0F30E010098A1EB00097069484504D3F6
:101EC00028692060C4F8049012E0686970B128693C
:101ED000206070696060A4680CB90120B3E768698C
:101EE00020607069A9EB0000606001E00120AAE7B2
:101EF0000020A8E72DE9F04180460E4608F12C04A9
:101F00006569A06930B9404600F09DF810B901201C
:101F1000BDE8F08100BFA069401E0544042D00D338
:101F20002D1F00BF54F82570F868C0F30E00306014
:101F30000020EDE770B504460CB9012070BD94F89F
:101F4000510010B9204600F0FDF8232084F851001C
:101F5000206800F58050006840F00101206800F51D
:101F60008050016000250AE06D1CB5F5FA7F06D9A6
:101F700004206065E02084F851000120DEE720683D
:101F800000F58050006800F001000028ECD12046E8
:101F9000FFF788F9C7202168C1F8DC002046FFF769
:101FA000FDF8206800F58050D0F8000120F4E01022
:101FB00040F40021206800F58050C0F80011207D19
:101FC00000F0030030B101206065E02084F851008A
:101FD0000120B3E7206800F58050D0F8080147F6EB
:101FE000FE718843616940EA4101206800F5805034
:101FF000C0F808112046FFF78BF82046FFF758F885
:10200000606800796168497940EA01202168C1F877
:1020100000036068C07800066168897840EA014082
:102020006168497840EA01206168097808432168BD
:10203000C1F8040300206065102084F8510084F882
:10204000520000207AE7F0B5074607F12C03196922
:1020500053F82120002500240026986908B10020AB
:10206000F0BD3DE06D1CD06800F0805000B3641CF2
:10207000012C00D10E4600BF491C042900D3091FC2
:1020800000BF53F82120D06800F0004058B9D06854
:1020900000F0804038B10120D86100BF491C0429FC
:1020A00000D3091F00BF19615E619C610120D7E761
:1020B000D06800F0005050B10E46012400BF491C0A
:1020C000042900D3091F00BF53F8212008E0641C35
:1020D00000BF491C042900D3091F00BF53F8212069
:1020E000D06800F0004008B9042DBBD334B33146AA
:1020F00053F8212000251FE0106910604FF0807018
:10210000D060506928B150699060D06840F000708C
:10211000D060D06840F00040D060186A18B1D06834
:1021200040F08040D06000BF491C042900D3091F43
:1021300000BF53F821206D1CA542DDD3002098611B
:1021400000BF8DE71CB504464348006840F460308A
:102150004149086040480830006840F001003E49AD
:10216000083108600846006840F002000860084630
:10217000006840F0040008600846006840F0400035
:10218000086035481C30006840F0020032491C31BC
:1021900008603248006840F40000304908600120BF
:1021A000032100230222CDE9001086212C48FFF7ED
:1021B000BEFB0120032100230222CDE900103221C1
:1021C0002848FFF7B4FB0120032100230222CDE9B8
:1021D000001049032448FFF7AAFB01200321002334
:1021E0000222CDE90010C1022048FFF7A0FB0B221C
:1021F00001211B48FFF76CFB0B2202211848FFF757
:1022000067FB0B2207211648FFF762FB0B221146E2
:102210001648FFF75DFB0B2201211248FFF758FB20
:102220000B2204210F48FFF753FB0B2205210D4819
:10223000FFF74EFB0B220D210B48FFF749FB0B224A
:102240000E210948FFF744FB02233D2200210846E6
:1022500004F034FB1CBD0000D844025804040058AC
:1022600000000258000802580018025800040258E2
:1022700070B504460D4616462068D0F8000200F0FE
:10228000010008B1012070BD2068D0F8001221F0D3
:10229000787040EA455121F4F81040EA064141F0D7
:1022A0000C0141F001012068C0F80012002205E095
:1022B000521CB2F57A7F01D90120E4E72068D0F8FA
:1022C000000200F001000028F2D12068D0F80402DA
:1022D00080B218600020D6E770B504460D460DB9EF
:1022E000012070BD94F85200102805D129462046DF
:1022F000FFF70EFA0020F4E70120F2E70246136828
:10230000D3F8000220F470601449154B994205D3AC
:10231000144B994202D240F400701AE0114B9942DA
:1023200005D3114B994202D240F4407011E00E4B9C
:10233000994203D30D4B994200D20AE00B4B9942CC
:1023400005D30B4B994202D240F4807001E040F477
:1023500080601368C3F800027047000000C2EB0BF6
:10236000002D3101C00E16020087930300E1F50530
:1023700080D1F00830B50146002201F12C0050F860
:10238000224091F85100102864D1232081F8510097
:1023900000230EE0E06840F08040E06000BF521C87
:1023A000042A00D3121F00BF01F12C0050F8224074
:1023B0005B1C042BEED30125CD640868006840F057
:1023C00002000D6828600868006840F001000D6890
:1023D00028600868D0F8000D40F001000D68C5F8CD
:1023E000000D086800F58050D0F8040140F00105A8
:1023F000086800F58050C0F80451086800F5805066
:10240000D0F8080140F00105086800F58050C0F8D8
:102410000851086800F58050D0F8600140F48175DB
:10242000086800F58050C0F86051102081F8510014
:10243000222081F85200086800F58050D0F834015D
:102440004DF2410528430D6805F58055C5F8340166
:10245000002030BD0120FCE72DE9F04104460F4685
:10246000154637B9606D40F0010060650120BDE898
:10247000F08194F85100102858D1002239462046A6
:10248000FEF74CFF28B1606D40F00200606501204E
:10249000EDE704F11800A16A50F8218000BFA06A9E
:1024A000401CA062A06A042802D3A06A001FA06298
:1024B00000BF04F11800A16A50F82110206800F54F
:1024C0008050C0F82011002625E0206800F58050DB
:1024D000D0F8600100F4805070B1606D40F00800E9
:1024E0006065206800F58050D0F86001A065E020AC
:1024F00084F851000120BAE7761C681C58B1AE423E
:1025000000D845B9606D40F004006065102084F883
:1025100051000120ABE7D8F80C0000F00040002883
:10252000D3D1102084F851000020A0E701209EE7BD
:10253000F0B504460D4616462068D0F8000200F0BB
:10254000010008B10120F0BD2068D0F8001221F090
:10255000787040EA455121F4F81040EA064121F034
:102560000C00011D41F0010198B20B4F38600B487F
:10257000C0F80012002205E0521CB2F57A7F01D9A2
:102580000120E0E72068D0F8000200F001000028F8
:10259000F2D100BFD7E70000048202400080024071
:1025A00010B5002210211248FFF7BAF91048006850
:1025B00020F440600E4908600846006840F48060DE
:1025C0000860002220210A48FFF7AAF9022005F03E
:1025D000DDFA012210210648FFF7A2F9022005F0DA
:1025E000D5FA002210210248FFF79AF910BD000029
:1025F000001C02581CB50D48006840F080000B49D3
:102600000860012000210B460246CDE90010302170
:102610000748FFF78CF9012210210548FFF780F9E0
:10262000012220210248FFF77BF91CBDE04402583B
:10263000001C025810B5002210211248FFF770F953
:102640001048006820F440600E49086008460068A1
:1026500040F480600860012220210A48FFF760F9F9
:10266000022005F093FA012210210648FFF758F9DD
:10267000022005F08BFA002210210248FFF750F9E2
:1026800010BD0000001C025870B505460024184813
:10269000006820F440601649086008460068086039
:1026A00000261AE0002210211148FFF739F9022014
:1026B00005F06CFA012210210D48FFF731F9600690
:1026C000040E20210A48FFF723F908B1601CC4B2A8
:1026D000012005F05BFA701CC6B2082EE2DB15B9CA
:1026E000FFF7A8FF01E0FFF75BFF204670BD000089
:1026F000001C025870B504461848006820F4406079
:10270000164908600846006840F4806008600022AE
:1027100010211248FFF704F900251BE0E2092021EF
:102720000E48FFF7FDF86006040E022005F02EFAB1
:10273000012210210948FFF7F3F8022005F026FADC
:10274000002210210548FFF7EBF8022005F01EFAE1
:10275000681CC5B2082DE1DB70BD0000001C0258EA
:1027600010B51348006820F440601149086008461D
:10277000006840F480600860012220210C48FFF7C7
:10278000CFF8012210210A48FFF7CAF8042005F00B
:10279000FDF9002220210648FFF7C2F8042005F0C9
:1027A000F5F9002210210248FFF7BAF810BD000029
:1027B000001C025810B51348006820F4406011490D
:1027C00008600846006840F480600860002210211C
:1027D0000C48FFF7A5F8002220210A48FFF7A0F8CF
:1027E000042005F0D3F9012210210648FFF798F8DC
:1027F000042005F0CBF9012220210248FFF790F8D0
:1028000010BD0000001C025810B5002417480068D5
:1028100020F44060154908600846006808600122FD
:1028200020211248FFF77CF8012005F0AFF90122C2
:1028300010210E48FFF774F8012005F0A7F907E012
:10284000601CC4B2FA2C03DDFFF7B4FF012010BDF9
:1028500020210648FFF75CF80028F1D10022102162
:102860000248FFF75DF80020F1E70000001C025865
:102870001CB51748006840F001001549086008467B
:10288000006840F0040008600846006840F08000DE
:102890000860022000210B460A46CDE90010012104
:1028A0000C48FFF744F8012000210B460A46CDE909
:1028B000001041030848FFF73AF8012000210B46B9
:1028C0000A46CDE900100C210448FFF730F81CBD82
:1028D000E04402580000025800080258001C025848
:1028E00010B5044614B101202D4908702C48007819
:1028F000002839D008212B48FFF70AF880B10421BD
:102900002848FFF705F858B14FF400512648FEF764
:10291000FFFF28B101212548FEF7FAFF012823D146
:102920000A2005F019F900201D49087008211D48EA
:10293000FEF7EEFF08B9012010BD04211948FEF78B
:10294000E7FF08B90220F7E74FF400511648FEF7F9
:10295000DFFF08B90320EFE701211448FEF7D8FF95
:1029600001281BD10420E7E708210E48FEF7D0FF1D
:10297000012813D104210B48FEF7CAFF01280DD10D
:1029800041030948FEF7C4FF012807D10121074888
:10299000FEF7BEFF10B90120014908700020CBE707
:1029A0001C000024001C02580008025800000258B5
:1029B00008B5002000906946012000F043F96946FF
:1029C000012000F03FF9009800F0040008B9012050
:1029D00008BD6946002000F035F9009800F48050E9
:1029E000B0F5805F1FD0009800F40050B0F5005F94
:1029F00007D1009800F48070B0F5807F01D10220EB
:102A0000E6E7009800F40050B0F5005F01D1032024
:102A1000DEE7009800F48070B0F5807F01D10420DB
:102A2000D6E70520D4E769461F2000F00BF900988F
:102A300000F4805008B90620CAE7009800F01C0096
:102A4000182801D10220C3E7009800F01C000828D4
:102A500001D10320BCE7009800F01C00142801D12C
:102A60000420B5E70520B3E770B586B00024002048
:102A70000390002600250121072003F0EDFF6420CC
:102A800005F06AF80021072003F0E6FF642005F056
:102A900063F801200021009103230822CDE90110F1
:102AA0000102444803F0D4FE434800788DF810003A
:102AB000414840788DF811003F4880788DF8120029
:102AC0003D48C0788DF813003B4800798DF814001C
:102AD000394840798DF8150038483949086004A80C
:102AE0004860012136480172364901613649C160AA
:102AF0004FF4BF614161FFF71DFA3148FFF7FEFB5C
:102B00004FF40041002000F0BFF8002818DB00BFA0
:102B100000BF03A9002000F095F8002802DA6FF04A
:102B200004050CE00A2005F017F8641CB4F5FA7FE0
:102B300000D304E0039800F400400028E9D101E04C
:102B40006FF0030500F090F81DB94FF47A7005F0AE
:102B500003F8002408E00A2004F0FEFF641CB4F52A
:102B6000FA7F01D3012503E0FFF722FF0128F2D904
:102B700000BFFFF71DFF0646022E06D0032E08D029
:102B8000042E0AD0052E10D10BE010A0FDF734FC66
:102B90000BE016A0FDF730FC07E01CA0FDF72CFCB5
:102BA00003E021A0FDF728FC00BF00BF284606B0C7
:102BB00070BD000000000430007407240080024053
:102BC0009803002400000430600004304C414E386B
:102BD0003732303A3130304D622F732046756C6C8D
:102BE0004475706C65780D0A000000004C414E3849
:102BF0003732303A3130304D622F732048616C6685
:102C00004475706C65780D0A000000004C414E3828
:102C10003732303A31304D622F732046756C6C4438
:102C200075706C65780D0A004C414E383732303A79
:102C300031304D622F732048616C664475706C654D
:102C4000780D0A0070B504460D462B462246002139
:102C50000448FFF70DFB10B14FF0FF3070BD0020AE
:102C6000FCE700009803002408B5002000906946A6
:102C7000FFF7E8FF009840F480500090009881B280
:102C8000002000F001F808BD70B504460D462E4640
:102C90003346224600210448FFF74AFC10B14FF0AA
:102CA000FF3070BD0020FCE79803002470B5044697
:102CB00000260D4805880D48006818B1204603F02D
:102CC00097F80FE00848408845430021084602F085
:102CD000E1FD02F0C3FF002602E005490C80761CEE
:102CE000AE42FAD370BD00006803002478030024CC
:102CF0000000086010B504465C4884715C480068B8
:102D000050B1204603F0FAF85948C08A5749088064
:102D10005748008B488010BD002C51D1F0205349FA
:102D200008804FF4A07048800846808849F24131FD
:102D3000884205D04D48808845F21031884214D130
:102D40002C204A4908812A2048812B208881084666
:102D5000808845F21031884206D14FF4A070434973
:102D600008804FF4F07048807BE04048808845F24E
:102D70001051884210D14FF430503C4908814FF433
:102D8000285048814FF42C5088814FF4F07008800F
:102D90004FF44870488064E03448808841F66311FD
:102DA00088425ED12C20314908812B2048812A207D
:102DB00088814FF4F07008804FF44870488050E0EC
:102DC0004FF4A07029490880F02048800846808888
:102DD00049F24131884205D02448808845F21031BB
:102DE000884207D12C20214908812A2048812B20A4
:102DF000888129E01D48808845F21051884210D111
:102E00004FF43050194908814FF4285048814FF44D
:102E10002C5088814FF4487008804FF4F07048803F
:102E200012E01248808841F6631188420CD12C20B0
:102E30000E4908812A2048812B2088814FF4487050
:102E400008804FF4F07048800848808845F21031BF
:102E5000884206D14FF4F070044908804FF4A07006
:102E60004880002002F0DCFB00BF54E76803002428
:102E70007803002470B504460D46164643480068A2
:102E800028B132462946204603F04EF870BD40482E
:102E9000808849F24131884205D03D48808845F21A
:102EA0001031884214D13A49488902F0CBFE2012F1
:102EB00002F0BCFEE0B202F0B9FE3549888902F0AA
:102EC000C1FE281202F0B2FEE8B202F0AFFE54E0FA
:102ED0002F48808845F21051884220D12C494889DA
:102EE00002F0B0FE201202F0A1FE29494989491CD6
:102EF00088B202F0A7FEE0B202F098FE2449888969
:102F000002F0A0FE281202F091FE21498989491C95
:102F100088B202F097FEE8B202F088FE2DE01C486D
:102F2000808841F66311884227D11948807920B9F9
:102F300017480088401E001B84B21549488902F0DA
:102F400081FE201202F072FEE0B202F06FFE20124B
:102F500002F06CFEE0B202F069FE0D49888902F0D1
:102F600071FE281202F062FEE8B202F05FFE281243
:102F700002F05CFEE8B202F059FE054800890549FE
:102F80000880891C0E8000BF80E7000078030024C1
:102F900068030024FEFF07602DE9F84F05460E4642
:102FA00017469846DDF828904FF0000B144800684B
:102FB00040B143463A4631462846CDF8009002F0EB
:102FC000DBFF1BE0781B401C1FFA80FB344613E03C
:102FD0002146284602F05EFC02F040FE4FF0000A57
:102FE00006E00849A1F800900AF101001FFA80FAF2
:102FF000DA45F6DB601C84B24445E9DDBDE8F88FB4
:1030000078030024000008601CB503F037FBFD497D
:1030100088800846808818B103F052F802F078BA28
:10302000F948006840F00200F74908600846006867
:1030300040F018000860F4480C38006840F48050F4
:10304000F1490C390860012000900023024620213C
:103050000190EE48FEF76BFC0120032100230222C1
:10306000CDE900104EF2B371E948FEF760FC012093
:10307000032100230222CDE900104FF68071E548BC
:10308000FEF755FC0C220021E148FEF721FC0C2242
:103090000121DF48FEF71CFC0C220421DC48FEF76E
:1030A00017FC0C220521DA48FEF712FC0C2207213E
:1030B000D748FEF70DFC0C220821D548FEF708FC86
:1030C0000C220921D248FEF703FC0C220A21D04829
:1030D000FEF7FEFB0C220D21CD48FEF7F9FB0C227A
:1030E0000E21CB48FEF7F4FB0C220F21C848FEF757
:1030F000EFFB0C220721C748FEF7EAFB0C22082150
:10310000C448FEF7E5FB0C220921C248FEF7E0FBAC
:103110000C220A21BF48FEF7DBFB0C220B21BD4825
:10312000FEF7D6FB0C221146BA48FEF7D1FB0C2263
:103130000D21B848FEF7CCFB0C220E21B548FEF756
:10314000C7FB0C220F21B348FEF7C2FB0020B24997
:1031500008604860B1490860AF48006840F480509A
:10316000AD4908600846006840F4804008600846A1
:10317000006840F010000860084640684860084653
:10318000406840F00F0048600846406840F49C40AA
:103190004860A2480068C1F804010846D0F804015C
:1031A00040F00F00C1F804010846D0F8040140F4D3
:1031B0007060C1F804010846006840F00100086032
:1031C0000846006840F000400860322004F0C4FC6B
:1031D000D32002F037FD02F0F1F98A49888002F02D
:1031E000EDF98849888002F0E9F986498880084627
:1031F00080884FF6FF7101EA00208249888002F042
:10320000DDF98049898808437E498880084680889E
:1032100049F24131884278D0D42002F013FD02F007
:10322000CDF97849888002F0C9F97649888002F0A2
:10323000C5F974498880084680884FF6FF7101EA15
:1032400000207049888002F0B9F96E4989880843E6
:103250006C4988800846808845F21031884254D0F5
:103260004FF45A4002F0EEFC02F0A8F9654988805C
:103270004FF45B4002F0E6FC02F0A0F9614988805F
:10328000084680884FF6FF7101EA00205D4988807A
:103290004FF45C4002F0D6FC02F090F9594989885D
:1032A00008435849888008468088B0F5004F02D10D
:1032B00045F2105088805348808845F2105188426A
:1032C00023D0A12002F0BEFC02F078F94D4988809D
:1032D00002F074F94B498880084680884FF6FF71E8
:1032E00001EA00204749888002F068F94549898849
:1032F0000843444988800846808845F261718842C5
:1033000003D141F663103F4988803E48818844A03C
:10331000FDF772F83B48808849F24131884270D10C
:10332000CF2002F08FFC002002F080FCC12002F0D0
:103330007DFC302002F07AFCED2002F083FC64205A
:1033400002F074FC032002F071FC122002F06EFC0B
:10335000812002F06BFCE82002F074FC852002F072
:1033600065FC102002F062FC7A2002F05FFCCB20AA
:1033700002F068FC392002F059FC2C2002F056FCC7
:10338000002002F053FC342002F050FC022002F036
:103390004DFCF72002F056FC202002F047FCEA200A
:1033A00002F050FC002002F041FC002002F03EFC44
:1033B000C02002F047FC1B2002F038FCC12002F0C4
:1033C00041FC012002F032FCC52002F03BFC302021
:1033D00002F02CFC302002F029FCC72002F032FC65
:1033E000B72002F023FC362002F02CFC482002F02B
:1033F0001DFC3A2002F026FC552002F017FCB120FB
:1034000016E0BAE068030024E044025800040258C1
:10341000000C0258001002580040005204410052B3
:10342000204C43442049443A25780D0A000000000E
:1034300002F008FC002002F0F9FB1A2002F0F6FB73
:10344000B62002F0FFFB0A2002F0F0FBA22002F0FF
:10345000EDFBF22002F0F6FB002002F0E7FB262055
:1034600002F0F0FB012002F0E1FBE02002F0EAFBB9
:103470000F2002F0DBFB2A2002F0D8FB282002F00C
:10348000D5FB082002F0D2FB0E2002F0CFFB082073
:1034900002F0CCFB542002F0C9FBA92002F0C6FBCD
:1034A000432002F0C3FB0A2002F0C0FB0F2002F011
:1034B000BDFB002002F0BAFB002002F0B7FB0020A9
:1034C00002F0B4FB002002F0B1FBE12002F0BAFBF5
:1034D000002002F0ABFB152002F0A8FB172002F041
:1034E000A5FB072002F0A2FB112002F09FFB0620A3
:1034F00002F09CFB2B2002F099FB562002F096FB79
:103500003C2002F093FB052002F090FB102002F01B
:103510008DFB0F2002F08AFB3F2002F087FB3F204B
:1035200002F084FB0F2002F081FB2B2002F08AFBCB
:10353000002002F07BFB002002F078FB012002F06B
:1035400075FB3F2002F072FB2A2002F07BFB00207B
:1035500002F06CFB002002F069FB002002F066FB29
:10356000EF2002F063FB112002F06CFB782004F0E6
:10357000F3FA292002F066FB50E5FE48808845F208
:103580001031884240F07C87ED2002F05BFB012087
:1035900002F04CFBFE2002F049FBEE2002F052FB51
:1035A000DE2002F043FB212002F040FBF12002F07C
:1035B00049FB012002F03AFBDF2002F043FB102020
:1035C00002F034FBC42002F03DFB8F2002F02EFB02
:1035D000C62002F037FB002002F028FBE22002F0B8
:1035E00025FBE22002F022FBE22002F01FFBBF20BD
:1035F00002F028FBAA2002F019FBB02002F022FB07
:103600000D2002F013FB002002F010FB0D2002F051
:103610000DFB002002F00AFB112002F007FB002046
:1036200002F004FB192002F001FB002002F0FEFA78
:10363000212002F0FBFA002002F0F8FA2D2002F01F
:10364000F5FA002002F0F2FA3D2002F0EFFA002035
:1036500002F0ECFA5D2002F0E9FA002002F0E6FA4E
:103660005D2002F0E3FA002002F0E0FAB12002F05F
:10367000E9FA802002F0DAFA002002F0D7FA8B2073
:1036800002F0D4FA002002F0D1FA962002F0CEFA2D
:10369000002002F0CBFAB22002F0D4FA002002F0AF
:1036A000C5FA002002F0C2FA022002F0BFFA0020A0
:1036B00002F0BCFA032002F0B9FA002002F0B6FAD8
:1036C000B32002F0BFFA002002F0B0FA002002F0AE
:1036D000ADFA002002F0AAFA002002F0A7FA0020BA
:1036E00002F0A4FA002002F0A1FA002002F09EFAF3
:1036F000002002F09BFA002002F098FA002002F06D
:1037000095FA002002F092FA002002F08FFA0020D1
:1037100002F08CFA002002F089FA002002F086FA0A
:10372000002002F083FA002002F080FA002002F06C
:103730007DFA002002F07AFA002002F077FA0020E9
:1037400002F074FA002002F071FA002002F06EFA22
:10375000002002F06BFAB42002F074FA8B2002F021
:1037600065FA002002F062FA962002F05FFA00206B
:1037700002F05CFAA12002F059FA002002F056FA99
:10378000B52002F05FFA022002F050FA002002F0A9
:103790004DFA032002F04AFA002002F047FA042012
:1037A00002F044FA002002F041FAB62002F04AFA90
:1037B000002002F03BFA002002F038FAB72002F0B5
:1037C00041FA002002F032FA002002F02FFA3F20E6
:1037D00002F02CFA002002F029FA5E2002F026FA0C
:1037E000002002F023FA642002F020FA002002F008
:1037F0001DFA8C2002F01AFA002002F017FAAC2011
:1038000002F014FA002002F011FADC2002F00EFAA5
:10381000002002F00BFA702002F008FA002002F0FB
:1038200005FA902002F002FA002002F0FFF9EB20E6
:1038300002F0FCF9002002F0F9F9DC2002F0F6F9C0
:10384000002002F0F3F9B82002F0FCF9002002F0A9
:10385000EDF9002002F0EAF9002002F0E7F900207B
:1038600002F0E4F9002002F0E1F9002002F0DEF9B4
:10387000002002F0DBF9002002F0D8F9BA2002F0B3
:10388000E1F9242002F0D2F9002002F0CFF9002063
:1038900002F0CCF9002002F0C9F9C12002F0D2F9FF
:1038A000202002F0C3F9002002F0C0F9542002F0F9
:1038B000BDF9002002F0BAF9FF2002F0B7F90020AC
:1038C00002F0B4F9C22002F0BDF90A2002F0AEF90C
:1038D000002002F0ABF9042002F0A8F9002002F069
:1038E000A5F9C32002F0AEF93C2002F09FF90020B8
:1038F00002F09CF93A2002F099F9002002F096F9C2
:10390000392002F093F9002002F090F9372002F0FC
:103910008DF9002002F08AF93C2002F087F900209E
:1039200002F084F9362002F081F9002002F07EF9DD
:10393000322002F07BF9002002F078F92F2002F00B
:1039400075F9002002F072F92C2002F06FF90020C6
:1039500002F06CF9292002F069F9002002F066F902
:10396000262002F063F9002002F060F9242002F022
:103970005DF901E068030024002002F057F92420DB
:1039800002F054F9002002F051F9232002F04EF920
:10399000002002F04BF93C2002F048F9002002F030
:1039A00045F9362002F042F9002002F03FF93220BA
:1039B00002F03CF9002002F039F92F2002F036F92C
:1039C000002002F033F92C2002F030F9002002F040
:1039D0002DF9292002F02AF9002002F027F92620EB
:1039E00002F024F9002002F021F9242002F01EF94F
:1039F000002002F01BF9242002F018F9002002F048
:103A000015F9232002F012F9002002F00FF9C4206A
:103A100002F018F9622002F009F9002002F006F91C
:103A2000052002F003F9002002F000F9842002F0E2
:103A3000FDF8002002F0FAF8F02002F0F7F800207C
:103A400002F0F4F8182002F0F1F8002002F0EEF88D
:103A5000A42002F0EBF8002002F0E8F8182002F0B1
:103A6000E5F8002002F0E2F8502002F0DFF8002034
:103A700002F0DCF80C2002F0D9F8002002F0D6F8B1
:103A8000172002F0D3F8002002F0D0F8952002F0C1
:103A9000CDF8002002F0CAF8F32002F0C7F80020A9
:103AA00002F0C4F8E62002F0C1F8002002F0BEF8EF
:103AB000C52002F0C7F8322002F0B8F8002002F06A
:103AC000B5F8442002F0B2F8002002F0AFF865200B
:103AD00002F0ACF8002002F0A9F8762002F0A6F877
:103AE000002002F0A3F8882002F0A0F8002002F0E5
:103AF0009DF8C62002F0A6F8202002F097F80020DA
:103B000002F094F8172002F091F8002002F08EF8ED
:103B1000012002F08BF8002002F088F8C72002F0A4
:103B200091F8002002F082F8002002F07FF80020D7
:103B300002F07CF8002002F079F8C82002F082F848
:103B4000002002F073F8002002F070F8002002F06C
:103B50006DF8002002F06AF8C92002F073F8002026
:103B600002F064F8002002F061F8002002F05EF834
:103B7000002002F05BF8002002F058F8002002F06C
:103B800055F8002002F052F8002002F04FF8002013
:103B900002F04CF8002002F049F8002002F046F84C
:103BA000002002F043F8002002F040F8002002F06C
:103BB0003DF8002002F03AF8002002F037F8E0204B
:103BC00002F040F8162002F031F8002002F02EF842
:103BD0001C2002F02BF8002002F028F8212002F02F
:103BE00025F8002002F022F8362002F01FF800200D
:103BF00002F01CF8462002F019F8002002F016F836
:103C0000522002F013F8002002F010F8642002F0B5
:103C10000DF8002002F00AF87A2002F007F80020E0
:103C200002F004F88B2002F001F8002001F0FEFF02
:103C3000992001F0FBFF002001F0F8FFA82001F01F
:103C4000F5FF002001F0F2FFB92001F0EFFF0020A6
:103C500001F0ECFFC42001F0E9FF002001F0E6FFD5
:103C6000CA2001F0E3FF002001F0E0FFD22001F0C4
:103C7000DDFF002001F0DAFFD92001F0D7FF00209E
:103C800001F0D4FFE02001F0D1FF002001F0CEFFD1
:103C9000F32001F0CBFF002001F0C8FFE12001F08C
:103CA000D1FF162001F0C2FF002001F0BFFF1C2051
:103CB00001F0BCFF002001F0B9FF222001F0B6FFA7
:103CC000002001F0B3FF362001F0B0FF002001F02A
:103CD000ADFF452001F0AAFF002001F0A7FF522010
:103CE00001F0A4FF002001F0A1FF642001F09EFF7D
:103CF000002001F09BFF7A2001F098FF002001F0E6
:103D000095FF8B2001F092FF002001F08FFF99209A
:103D100001F08CFF002001F089FFA82001F086FF50
:103D2000002001F083FFB92001F080FF002001F0A6
:103D30007DFFC42001F07AFF002001F077FFCA2048
:103D400001F074FF002001F071FFD22001F06EFF3E
:103D5000002001F06BFFD82001F068FF002001F087
:103D600065FFE02001F062FF002001F05FFFF3201B
:103D700001F05CFF002001F059FFE22001F062FF3A
:103D8000052001F053FF002001F050FF0B2001F04F
:103D90004DFF002001F04AFF1B2001F047FF0020EB
:103DA00001F044FF342001F041FF002001F03EFF0C
:103DB000442001F03BFF002001F038FF4F2001F0CC
:103DC00035FF002001F032FF612001F02FFF0020BD
:103DD00001F02CFF792001F029FF002001F026FFDF
:103DE000882001F023FF002001F020FF972001F040
:103DF0001DFF002001F01AFFA62001F017FF002090
:103E000001F014FFB72001F011FF002001F00EFFB8
:103E1000C22001F00BFF002001F008FFC72001F0D5
:103E200005FF002001F002FFD12001F0FFFE00207D
:103E300001F0FCFED62001F0F9FE002001F0F6FEB4
:103E4000DD2001F0F3FE002001F0F0FEF32001F090
:103E5000EDFE002001F0EAFEE32001F0F3FE052074
:103E600001F0E4FE002001F0E1FE0A2001F0DEFE98
:103E7000002001F0DBFE1C2001F0D8FE002001F044
:103E8000D5FE332001F0D2FE002001F0CFFE442009
:103E900001F0CCFE002001F0C9FE502001F0C6FE6A
:103EA000002001F0C3FE622001F0C0FE002001F0FE
:103EB000BDFE782001F0BAFE002001F0B7FE882098
:103EC00001F0B4FE002001F0B1FE972001F0AEFE3B
:103ED000002001F0ABFEA62001F0A8FE002001F0BA
:103EE000A5FEB72001F0A2FE002001F09FFEC22037
:103EF00001F09CFE002001F099FEC72001F096FE23
:103F0000002001F093FED12001F090FE002001F08E
:103F10008DFED52001F08AFE002001F087FEDD2015
:103F200001F084FE002001F081FEF32001F07EFE0E
:103F3000002001F07BFEE42001F084FE012001F06E
:103F400075FE002001F072FE012001F06FFE0020DE
:103F500001F06CFE022001F069FE002001F066FE17
:103F60002A2001F063FE002001F060FE3C2001F0F9
:103F70005DFE002001F05AFE4B2001F057FE0020AC
:103F800001F054FE5D2001F051FE002001F04EFED4
:103F9000742001F04BFE002001F048FE842001F067
:103FA00045FE002001F042FE932001F03FFE00207C
:103FB00001F03CFEA22001F039FE002001F036FEA7
:103FC000B32001F033FE002001F030FEBE2001F0EE
:103FD0002DFE002001F02AFEC42001F027FE002063
:103FE00001F024FECD2001F021FE002001F01EFE94
:103FF000D32001F01BFE002001F018FEDD2001F0AF
:1040000015FE002001F012FEF32001F00FFE00204B
:1040100001F00CFEE52001F015FE002001F006FE87
:10402000002001F003FE002001F000FE002001F05E
:10403000FDFD022001F0FAFD002001F0F7FD29202E
:1040400001F0F4FD002001F0F1FD3C2001F0EEFD57
:10405000002001F0EBFD4B2001F0E8FD002001F015
:10406000E5FD5D2001F0E2FD002001F0DFFD7420A0
:1040700001F0DCFD002001F0D9FD842001F0D6FD27
:10408000002001F0D3FD932001F0D0FD002001F0CD
:10409000CDFDA22001F0CAFD002001F0C7FDB32034
:1040A00001F0C4FD002001F0C1FDBE2001F0BEFD05
:1040B000002001F0BBFDC42001F0B8FD002001F09C
:1040C000B5FDCD2001F0B2FD002001F0AFFDD32001
:1040D00001F0ACFD002001F0A9FDDC2001F0A6FDFF
:1040E000002001F0A3FDF32001F0A0FD002001F06D
:1040F0009DFDE62001F0A6FD112001F097FD0020B6
:1041000001F094FD342001F091FD002001F08EFDBE
:10411000562001F08BFD002001F088FD762001F093
:1041200085FD002001F082FD772001F07FFD002059
:1041300001F07CFD662001F079FD002001F076FDA4
:10414000882001F073FD002001F070FD992001F03E
:104150006DFD002001F06AFDBB2001F067FD00202D
:1041600001F064FD992001F061FD002001F05EFD89
:10417000662001F05BFD002001F058FD552001F0A4
:1041800055FD002001F052FD552001F04FFD0020AB
:1041900001F04CFD452001F049FD002001F046FDF5
:1041A000432001F043FD002001F040FD442001F0D8
:1041B0003DFD002001F03AFDE72001F043FD3220F3
:1041C00001F034FD002001F031FD552001F02EFDFD
:1041D000002001F02BFD762001F028FD002001F0E9
:1041E00025FD662001F022FD002001F01FFD672063
:1041F00001F01CFD002001F019FD672001F016FD03
:10420000002001F013FD872001F010FD002001F0D7
:104210000DFD992001F00AFD002001F007FDBB20F3
:1042200001F004FD002001F001FD992001F0FEFCE9
:10423000002001F0FBFC772001F0F8FC002001F0E9
:10424000F5FC442001F0F2FC002001F0EFFC5620C8
:1042500001F0ECFC002001F0E9FC232001F0E6FC79
:10426000002001F0E3FC332001F0E0FC002001F02D
:10427000DDFC452001F0DAFC002001F0D7FCE8204D
:1042800001F0E0FC002001F0D1FC002001F0CEFCA8
:10429000992001F0CBFC002001F0C8FC872001F040
:1042A000C5FC002001F0C2FC882001F0BFFC00200A
:1042B00001F0BCFC772001F0B9FC002001F0B6FC55
:1042C000662001F0B3FC002001F0B0FC882001F072
:1042D000ADFC002001F0AAFCAA2001F0A7FC002000
:1042E00001F0A4FCBB2001F0A1FC002001F09EFC29
:1042F000992001F09BFC002001F098FC662001F061
:1043000095FC002001F092FC552001F08FFC00206C
:1043100001F08CFC552001F089FC002001F086FCA6
:10432000442001F083FC002001F080FC442001F0D7
:104330007DFC002001F07AFC552001F077FC002084
:1043400001F074FCE92001F07DFCAA2001F06EFC74
:10435000002001F06BFC002001F068FC002001F05F
:1043600065FC002001F06EFCAA2001F05FFCCF206C
:1043700001F068FC002001F059FC002001F056FC1F
:10438000002001F053FC002001F050FC002001F05F
:104390004DFC002001F04AFC002001F047FC002009
:1043A00001F044FC002001F041FC002001F03EFC43
:1043B000002001F03BFC002001F038FC002001F05F
:1043C00035FC002001F032FC002001F02FFC002021
:1043D00001F02CFC002001F029FCF02001F032FC5F
:1043E000002001F023FC502001F020FC002001F00F
:1043F0001DFC002001F01AFC002001F017FCF32046
:1044000001F020FC002001F011FCF92001F01AFC61
:10441000062001F00BFC102001F008FC292001F01F
:1044200005FC002001F002FC3A2001F00BFC5520B5
:1044300001F0FCFB112001F005FC642003F08CFB73
:10444000292001F0FFFB352001F0FCFB002001F0EA
:10445000EDFB512001F0F6FBFF2001F0E7FB5320BC
:1044600001F0F0FB2C2001F0E1FB552001F0EAFB0C
:10447000822001F0DBFB2C2001F0E4FB01F048B8C6
:10448000FE48808845F2105188427DD155214FF475
:10449000704001F0EDFBAA214FF2010001F0E8FBB2
:1044A00052214FF2020001F0E3FB08214FF203001A
:1044B00001F0DEFB01214FF2040001F0D9FB0D21D8
:1044C0004FF4304001F0D4FB0D214BF2010001F01C
:1044D000CFFB0D214BF2020001F0CAFB34214FF457
:1044E000364001F0C5FB34214BF2016001F0C0FB06
:1044F00034214BF2026001F0BBFB0D214FF431403F
:1045000001F0B6FB0D214BF2011001F0B1FB0D21C2
:104510004BF2021001F0ACFB34214FF4374001F0B4
:10452000A7FB34214BF2017001F0A2FB34214BF2C6
:10453000027001F09DFB00214FF4324001F098FB26
:1045400000214BF2012001F093FB00214BF20220ED
:1045500001F08EFB24214FF4384001F089FB242127
:104560004BF6010001F084FB24214BF6020001F020
:104570007FFB01214FF43F4001F07AFB0F214FF404
:10458000334001F075FB00E0FDE30F214BF20130F9
:1045900001F06EFB0F214BF2023001F069FB342178
:1045A0004FF4394001F064FB34214BF6011001F067
:1045B0005FFB34214BF6021001F05AFB08214FF447
:1045C000354001F055FB08214BF2015001F050FB42
:1045D00008214BF2025001F04BFB03214FF4424003
:1045E00001F046FB24214FF43A4001F041FB242125
:1045F0004BF6012001F03CFB24214BF6022001F098
:1046000037FB00214FF43C4001F032FB78214BF6A0
:10461000014001F02DFB00214BF6024001F028FB88
:1046200000214FF43D4001F023FB78214BF601506F
:1046300001F01EFB00214BF6025001F019FB002196
:104640004FF43E4001F014FB64214BF6016001F091
:104650000FFB00214FF4514001F00AFB33214DF2D2
:10466000011001F005FB00214DF2021001F000FBEA
:1046700034214DF2031001F0FBFA00214DF2041039
:1046800001F0F6FA3A214DF2051001F0F1FA00219D
:104690004DF2061001F0ECFA4A214DF2071001F03C
:1046A000E7FA00214DF2081001F0E2FA5C214DF228
:1046B000091001F0DDFA00214DF20A1001F0D8FADC
:1046C00081214DF20B1001F0D3FA00214DF20C10B4
:1046D00001F0CEFAA6214DF20D1001F0C9FA002129
:1046E0004DF20E1001F0C4FAE5214DF20F1001F069
:1046F000BFFA01214DF2101001F0BAFA13214DF268
:10470000111001F0B5FA01214DF2121001F0B0FACA
:1047100054214DF2131001F0ABFA01214DF21410A7
:1047200001F0A6FA82214DF2151001F0A1FA012143
:104730004DF2161001F09CFACA214DF2171001F04B
:1047400097FA02214DF2181001F092FA00214DF271
:10475000191001F08DFA02214DF21A1001F088FAB9
:1047600001214DF21B1001F083FA02214DF21C10C1
:1047700001F07EFA34214DF21D1001F079FA022188
:104780004DF21E1001F074FA67214DF21F1001F076
:104790006FFA02214DF2201001F06AFA84214DF2E5
:1047A000211001F065FA02214DF2221001F060FAA9
:1047B000A4214DF2231001F05BFA02214DF22410E6
:1047C00001F056FAB7214DF2251001F051FA0221FD
:1047D0004DF2261001F04CFACF214DF2271001F0D6
:1047E00047FA02214DF2281001F042FADE214DF283
:1047F000291001F03DFA02214DF22A1001F038FA99
:10480000F2214DF22B1001F033FA02214DF22C105F
:1048100001F02EFAFE214DF22D1001F029FA0321AC
:104820004DF22E1001F024FA10214DF22F1001F05C
:104830001FFA03214DF2301001F01AFA33214DF224
:10484000311001F015FA03214DF2321001F010FA87
:104850006D214DF2331001F00BFA00214FF452405C
:1048600001F006FA33214DF2012001F001FA002196
:104870004DF2022001F0FCF9342101E0680300242C
:104880004DF2032001F0F4F900214DF2042001F073
:10489000EFF93A214DF2052001F0EAF900214DF23D
:1048A000062001F0E5F94A214DF2072001F0E0F978
:1048B00000214DF2082001F0DBF95C214DF20920C6
:1048C00001F0D6F900214DF20A2001F0D1F9812141
:1048D0004DF20B2001F0CCF900214DF20C2001F03B
:1048E000C7F9A6214DF20D2001F0C2F900214DF2C9
:1048F0000E2001F0BDF9E5214DF20F2001F0B8F9CD
:1049000001214DF2102001F0B3F913214DF21120D5
:1049100001F0AEF901214DF2122001F0A9F9542164
:104920004DF2132001F0A4F901214DF2142001F001
:104930009FF982214DF2152001F09AF901214DF2E3
:10494000162001F095F9CA214DF2172001F090F9D7
:1049500002214DF2182001F08BF900214DF21920AF
:1049600001F086F902214DF21A2001F081F90121AE
:104970004DF21B2001F07CF902214DF21C2001F0C8
:1049800077F934214DF21D2001F072F902214DF228
:104990001E2001F06DF967214DF21F2001F068F92A
:1049A00002214DF2202001F063F984214DF22120F3
:1049B00001F05EF902214DF2222001F059F9A42103
:1049C0004DF2232001F054F902214DF2242001F090
:1049D0004FF9B7214DF2252001F04AF902214DF29D
:1049E000262001F045F9CF214DF2272001F040F9B2
:1049F00002214DF2282001F03BF9DE214DF2292061
:104A000001F036F902214DF22A2001F031F9F221AC
:104A10004DF22B2001F02CF902214DF22C2001F057
:104A200027F9FE214DF22D2001F022F903214DF24C
:104A30002E2001F01DF910214DF22F2001F018F960
:104A400003214DF2302001F013F933214DF23120D2
:104A500001F00EF903214DF2322001F009F96D2128
:104A60004DF2332001F004F900214FF4534001F0DE
:104A7000FFF833214DF2013001F0FAF800214DF238
:104A8000023001F0F5F834214DF2033001F0F0F876
:104A900000214DF2043001F0EBF83A214DF20530DF
:104AA00001F0E6F800214DF2063001F0E1F84A216C
:104AB0004DF2073001F0DCF800214DF2083001F032
:104AC000D7F85C214DF2093001F0D2F800214DF207
:104AD0000A3001F0CDF881214DF20B3001F0C8F819
:104AE00000214DF20C3001F0C3F8A6214DF20D303B
:104AF00001F0BEF800214DF20E3001F0B9F8E521C9
:104B00004DF20F3001F0B4F801214DF2103001F0F8
:104B1000AFF813214DF2113001F0AAF801214DF246
:104B2000123001F0A5F854214DF2133001F0A0F835
:104B300001214DF2143001F09BF882214DF2153025
:104B400001F096F801214DF2163001F091F8CA21DA
:104B50004DF2173001F08CF802214DF2183001F0BF
:104B600087F800214DF2193001F082F802214DF250
:104B70001A3001F07DF801214DF21B3001F078F878
:104B800002214DF21C3001F073F834214DF21D303A
:104B900001F06EF802214DF21E3001F069F8672134
:104BA0004DF21F3001F064F802214DF2203001F087
:104BB0005FF884214DF2213001F05AF802214DF2C4
:104BC000223001F055F8A4214DF2233001F050F8C5
:104BD00002214DF2243001F04BF8B7214DF225307F
:104BE00001F046F802214DF2263001F041F8CF21C4
:104BF0004DF2273001F03CF802214DF2283001F04F
:104C000037F8DE214DF2293001F032F802214DF261
:104C10002A3001F02DF8F2214DF22B3001F028F866
:104C200002214DF22C3001F023F8FE214DF22D30FF
:104C300001F01EF803214DF22E3001F019F8102179
:104C40004DF22F3001F014F803214DF2303001F015
:104C50000FF833214DF2313001F00AF803214DF203
:104C6000323001F005F86D214DF2333001F000F8DB
:104C700000214FF4544000F0FBFF33214DF201407E
:104C800000F0F6FF00214DF2024000F0F1FF342168
:104C90004DF2034000F0ECFF00214DF2044000F023
:104CA000E7FF3A214DF2054000F0E2FF00214DF20E
:104CB000064000F0DDFF4A214DF2074000F0D8FF2A
:104CC00000214DF2084000F0D3FF5C214DF2094075
:104CD00000F0CEFF00214DF20A4000F0C9FF812113
:104CE0004DF20B4000F0C4FF00214DF20C4000F0EB
:104CF000BFFFA6214DF20D4000F0BAFF00214DF29A
:104D00000E4000F0B5FFE5214DF20F4000F0B0FF7E
:104D100001214DF2104000F0ABFF13214DF2114084
:104D200000F0A6FF01214DF2124000F0A1FF542136
:104D30004DF2134000F09CFF01214DF2144000F0B1
:104D400097FF82214DF2154000F092FF01214DF2B4
:104D5000164000F08DFFCA214DF2174000F088FF89
:104D600002214DF2184000F083FF00214DF219405E
:104D700000F07EFF02214DF21A4000F079FF012180
:104D80004DF21B4000E005E300F072FF02214DF2FE
:104D90001C4000F06DFF34214DF21D4000F068FF13
:104DA00002214DF21E4000F063FF67214DF21F40CB
:104DB00000F05EFF02214DF2204000F059FF8421F7
:104DC0004DF2214000F054FF02214DF2224000F04C
:104DD0004FFFA4214DF2234000F04AFF02214DF283
:104DE000244000F045FFB7214DF2254000F040FF80
:104DF00002214DF2264000F03BFFCF214DF227402B
:104E000000F036FF02214DF2284000F031FFDE2194
:104E10004DF2294000F02CFF02214DF22A4000F013
:104E200027FFF2214DF22B4000F022FF02214DF22C
:104E30002C4000F01DFFFE214DF22D4000F018FF28
:104E400003214DF22E4000F013FF10214DF22F40B0
:104E500000F00EFF03214DF2304000F009FF332136
:104E60004DF2314000F004FF03214DF2324000F0DA
:104E7000FFFE6D214DF2334000F0FAFE00214FF4A9
:104E8000554000F0F5FE33214DF2015000F0F0FEE8
:104E900000214DF2025000F0EBFE34214DF20350A0
:104EA00000F0E6FE00214DF2045000F0E1FE3A2150
:104EB0004DF2055000F0DCFE00214DF2065000F0EE
:104EC000D7FE4A214DF2075000F0D2FE00214DF2EC
:104ED000085000F0CDFE5C214DF2095000F0C8FEF4
:104EE00000214DF20A5000F0C3FE81214DF20B501B
:104EF00000F0BEFE00214DF20C5000F0B9FEA621DC
:104F00004DF20D5000F0B4FE00214DF20E5000F0B5
:104F1000AFFEE5214DF20F5000F0AAFE01214DF247
:104F2000105000F0A5FE13214DF2115000F0A0FE2C
:104F300001214DF2125000F09BFE54214DF213500E
:104F400000F096FE01214DF2145000F091FE8221F6
:104F50004DF2155000F08CFE01214DF2165000F07C
:104F600087FECA214DF2175000F082FE02214DF259
:104F7000185000F07DFE00214DF2195000F078FE2F
:104F800002214DF21A5000F073FE01214DF21B5028
:104F900000F06EFE02214DF21C5000F069FE34213B
:104FA0004DF21D5000F064FE02214DF21E5000F043
:104FB0005FFE67214DF21F5000F05AFE02214DF2B4
:104FC000205000F055FE84214DF2215000F050FE9B
:104FD00002214DF2225000F04BFEA4214DF223504D
:104FE00000F046FE02214DF2245000F041FEB721B0
:104FF0004DF2255000F03CFE02214DF2265000F00B
:1050000037FECF214DF2275000F032FE02214DF243
:10501000285000F02DFEDE214DF2295000F028FE30
:1050200002214DF22A5000F023FEF2214DF22B50C6
:1050300000F01EFE02214DF22C5000F019FEFE2160
:105040004DF22D5000F014FE03214DF22E5000F0D1
:105050000FFE10214DF22F5000F00AFE03214DF2F9
:10506000305000F005FE33214DF2315000F000FECB
:1050700003214DF2325000F0FBFD6D214DF2335013
:1050800000F0F6FD00214FF4564000F0F1FD332111
:105090004DF2016000F0ECFD00214DF2026000F0E5
:1050A000E7FD34214DF2036000F0E2FD00214DF2F6
:1050B000046000F0DDFD3A214DF2056000F0D8FDFE
:1050C00000214DF2066000F0D3FD4A214DF2076049
:1050D00000F0CEFD00214DF2086000F0C9FD5C211A
:1050E0004DF2096000F0C4FD00214DF20A6000F0AD
:1050F000BFFD81214DF20B6000F0BAFD00214DF2A1
:105100000C6000F0B5FDA6214DF20D6000F0B0FD81
:1051100000214DF20E6000F0ABFDE5214DF20F6075
:1051200000F0A6FD01214DF2106000F0A1FD132159
:105130004DF2116000F09CFD01214DF2126000F073
:1051400097FD54214DF2136000F092FD01214DF2C4
:10515000146000F08DFD82214DF2156000F088FD95
:1051600001214DF2166000F083FDCA214DF2176057
:1051700000F07EFD02214DF2186000F079FD002163
:105180004DF2196000F074FD02214DF21A6000F03A
:105190006FFD01214DF21B6000F06AFD02214DF20E
:1051A0001C6000F065FD34214DF21D6000F060FDD3
:1051B00002214DF21E6000F05BFD67214DF21F6081
:1051C00000F056FD02214DF2206000F051FD8421D7
:1051D0004DF2216000F04CFD02214DF2226000F002
:1051E00047FDA4214DF2236000F042FD02214DF263
:1051F000246000F03DFDB7214DF2256000F038FD40
:1052000002214DF2266000F033FDCF214DF22760E0
:1052100000F02EFD02214DF2286000F029FDDE2174
:105220004DF2296000F024FD02214DF22A6000F0C9
:105230001FFDF2214DF22B6000F01AFD02214DF20C
:105240002C6000F015FDFE214DF22D6000F010FDE8
:1052500003214DF22E6000F00BFD10214DF22F6066
:1052600000F006FD03214DF2306000F001FD332116
:105270004DF2316000F0FCFC03214DF2326000F091
:10528000F7FC6D214DF2336000F0F2FC55214FF434
:10529000704000F0EDFCAA214FF2010000F0E8FCA4
:1052A00052214FF2020000F0E3FC08214FF203000C
:1052B00000F0DEFC00214FF2040000F0D9FCCC210C
:1052C0004FF4314000F0D4FC00214BF2011000F00B
:1052D000CFFC05214FF4364000F0CAFC70214FF49A
:1052E000374000F0C5FC70214BF2017000F0C0FCAB
:1052F00001214FF4384000F0BBFC03214BF60100C4
:1053000000F0B6FC03214BF6020000F0B1FC0321D3
:105310004BF6030000F0ACFC02214FF43C4000F0DF
:10532000A7FC00214BF6014000F0A2FC00214BF647
:10533000024000F09DFCD0214FF4494000F098FC61
:1053400002214CF6011000F093FC50214CF60210A3
:1053500000F08EFC50214CF6031000F089FC502127
:105360004CF6041000F084FC00214FF4545000F07F
:105370007FFC55214FF4685000F07AFC4FF48850C0
:1053800000F060FC782002F001FC4FF4245000F0A3
:1053900059FCBDE07F48808841F663118842F8D10E
:1053A000E22000F04FFC1D2000F040FC022000F045
:1053B0003DFC042000F03AFC642002F0E7FBE02012
:1053C00000F040FC012000F031FC0A2002F0C4FB98
:1053D000E02000F037FC032000F028FC0C2002F055
:1053E000BBFB012000F02EFC0A2002F0B5FBE620FA
:1053F00000F028FC2F2000F019FCFF2000F016FC24
:10540000FF2000F013FCB02000F01CFC202000F076
:105410000DFC002000F00AFC032000F007FC40F225
:105420001F3000F003FC012000F000FC40F2DF1010
:1054300000F0FCFB002000F0F9FBB42000F002FCBF
:10544000042000F0F3FB40F21F4000F0EFFB0020CF
:1054500000F0ECFB2E2000F0E9FB002000F0E6FB62
:10546000002000F0E3FB002000F0E0FB002000F053
:10547000DDFBB62000F0E6FB022000F0D7FB4FF486
:10548000037000F0D3FB002000F0D0FB172000F0E9
:10549000CDFB152000F0CAFB002000F0C7FB002068
:1054A00000F0C4FBF02000F0CDFB032000F0BEFBB9
:1054B000292000F0C7FBD02000F0C4FB002000F042
:1054C000B5FBBE2000F0BEFB052000F0AFFBFE20C8
:1054D00000F0ACFB012000F0A9FB002000F0A6FBCF
:1054E000002000F0A3FB002000F0A0FBB82000F09B
:1054F000A9FB032000F09AFB012000F097FBBA20E3
:1055000000F0A0FB012000F091FB642000F060F8A7
:105510002048808849F24131884211D01D48808856
:1055200045F2103188420BD01A48808845F210515C
:10553000884205D01748808841F6631188421BD104
:105540001548006820F00F001449C1F8040108460E
:10555000D0F8040120F47060C1F804010846D0F8C6
:10556000040140F00400C1F804010846D0F8040129
:1055700040F48060C1F804010020FDF7BBFB01226C
:1055800020210748FCF7CCF94FF6FF70FDF78EFBA2
:105590001CBD00006803002404410052004000527A
:1055A0000004025810B50246012000E050430B1ED3
:1055B000A1F10104E1B2F9D110BD000008B5034822
:1055C00000880090BDF8000008BD000000000860E1
:1055D00000B50246BE2000F035FB052000F026FB9A
:1055E00000EE102AB8EE400B9FED0B1B20EE010BD6
:1055F000BCEEC00B10EE101A88B200F017FB0120B1
:1056000000F014FBFF2000F011FB002000F00EFB67
:10561000002000F00BFB00BD66666666666604400F
:10562000F0B505460024002799488079012805D166
:105630009748808841F66311884208D19448807960
:10564000F0B99348808841F66311884218D1082D3B
:1056500015D2DFE805F00406080A0C0E1012062524
:105660000DE007250BE0042509E0052507E00125ED
:1056700005E0002503E0032501E0022500BF00BF8F
:105680008348808849F24131884211D0804880881F
:1056900045F2103188420BD07D48808845F2105188
:1056A000884205D07A48808841F6631188427DD1CE
:1056B000082D1CD2DFE805F00406090C0F1215189E
:1056C00000BF14E044F0800411E044F040040EE018
:1056D00044F0C0040BE044F0200408E044F060040F
:1056E00005E044F0A00402E044F0E00400BF00BF85
:1056F0006748808845F21051884202D14FF45857CC
:1057000000E036276248808845F2103188420DD08B
:105710005F48808845F21051884207D05C488088F5
:1057200041F66311884201D044F00804214638460E
:1057300000F09EFA5648808841F6631188421DD0D9
:1057400004F0200068B152480088514949888842D5
:1057500014DA4F48068840884D490880084646803C
:105760000CE04B4800884A494988884206DD484891
:105770000688408846490880084646804448808814
:1057800045F21051884254D14149488900F05AFAF3
:10579000002000F04BFA3E494989491C88B200F0CC
:1057A00051FA002000F042FA394900E06FE04989DF
:1057B000891C88B200F046FA35490988491EC1F3B0
:1057C0000F2000F033FA32494989C91C88B200F031
:1057D00039FA2F490978491EC8B200F027FA2C4936
:1057E000888900F02FFA002000F020FA28498989E2
:1057F000491C88B200F026FA002000F017FA24496C
:105800008989891C88B200F01DFA21494988491EFE
:10581000C1F30F2000F00AFA1D498989C91C88B21A
:1058200000F010FA1A498978491EC8B200F0FEF952
:105830002DE01749488900F005FA002000F0F6F93C
:10584000002000F0F3F912490988491EC1F30F2026
:1058500000F0ECF90E490978491EC8B200F0E6F9EB
:105860000B49888900F0EEF9002000F0DFF90020F4
:1058700000F0DCF906494988491EC1F30F2000F009
:10588000D5F903498978491EC8B200F0CFF9F0BDB7
:105890006803002410B502460C464B48808849F244
:1058A0004131884205D04848808845F2103188420D
:1058B00014D14549488900F0C5F9101200F0B6F935
:1058C000D0B200F0B3F94049888900F0BBF920124A
:1058D00000F0ACF9E0B200F0A9F973E03A48808832
:1058E00041F66311884247D137488079A8B93648D4
:1058F0000088401E801A82B23349488900F0A2F91C
:10590000002000F093F9002000F090F9101200F050
:105910008DF9D0B200F08AF916E02B49488900F0E1
:1059200091F9101200F082F9D0B200F07FF9264907
:105930000988491EC1F30F2000F078F9224909783F
:10594000491EC8B200F072F91F49888900F07AF93F
:10595000201200F06BF9E0B200F068F91A494988AA
:10596000491EC1F30F2000F061F917498978491EDB
:10597000C8B200F05BF925E01348808845F2105169
:1059800088421FD11049488900F05CF9101200F0DC
:105990004DF90D494989491C88B200F053F9D0B23C
:1059A00000F044F90849888900F04CF9201200F011
:1059B0003DF905498989491C88B200F043F9E0B2F4
:1059C00000F034F910BD0000680300242DE9F84F01
:1059D00080460F4616461C46BB462046E31704EB9E
:1059E0005373DB1021464FEAE47C04EB5C7C4FEA06
:1059F000EC0CA4EBCC0CBCF1000F02D04FF0010C6E
:105A000001E04FF0000C6344224604EBD27C4FEAE5
:105A10006C0C03FB0CF3DBB20093A6F12000C6B2C2
:105A200000255EE00C2C07D106EB46002F4901EB68
:105A3000800010F805901BE0102C05D12C4800EBDD
:105A4000061010F8059013E0182C07D106EBC600DD
:105A5000284901EB800010F8059009E0202C05D1C1
:105A6000254800EBC61010F8059001E0BDE8F88F5E
:105A70004FF0000A2FE009F0800030B11F4839468E
:105A800002684046FDF7F6F907E00A9828B91C4875
:105A9000394602684046FDF7EDF94FEA49604FEAA2
:105AA0001069781C87B217484088B84200DCDDE7EF
:105AB000A7EB0B00A0420AD15F4608F101001FFAD4
:105AC00080F810480088404500DCCFE706E00AF186
:105AD000010000F0FF0ABAF1080FCCDB00BF681C20
