:020000040800F2
:10000000C80900244D0300087103000873030008A9
:10001000A55A0008770300087903000800000000D3
:100020000000000000000000000000007B0300084A
:100030007D030008000000007F0300088103000822
:100040008303000883030008830300088303000878
:100050008303000883030008830300088303000868
:100060008303000883030008830300088303000858
:100070008303000883030008830300088303000848
:100080008303000883030008830300088303000838
:100090008303000883030008830300088303000828
:1000A0008303000883030008830300088303000818
:1000B0008303000883030008830300088303000808
:1000C00083030008830300088303000883030008F8
:1000D00083030008257200088303000883030008D7
:1000E0008303000883030008000000008303000866
:1000F00083030008830300088303000883030008C8
:1001000083030008830300088303000883030008B7
:1001100083030008830300088303000883030008A7
:100120008303000883030008830300088303000897
:100130008303000883030008830300088303000887
:1001400000000000000000000000000000000000AF
:100150008303000883030008830300088303000867
:100160008303000883030008830300088303000857
:1001700083030008830300088303000800000000D5
:100180008303000883030008830300088303000837
:100190008303000883030008830300088303000827
:1001A0008303000883030008830300088303000817
:1001B0008303000883030008830300088303000807
:1001C00083030008830300088303000883030008F7
:1001D00083030008830300088303000883030008E7
:1001E00083030008830300088303000883030008D7
:1001F00083030008830300088303000883030008C7
:1002000083030008830300088303000883030008B6
:1002100083030008830300088303000883030008A6
:100220008303000883030008830300080000000024
:100230008303000883030008000000008303000814
:100240008303000883030008830300088303000876
:100250008303000883030008830300088303000866
:100260008303000883030008830300088303000856
:1002700083030008830300088303000800000000D4
:100280008303000800000000830300080000000052
:10029000000000008303000800F002F800F047F8B7
:1002A0000AA090E8000C82448344AAF10107DA45D1
:1002B00001D100F03CF8AFF2090EBAE80F0013F0DC
:1002C000010F18BFFB1A43F001031847ACC0000030
:1002D000CCC00000103A24BF78C878C1FAD85207C1
:1002E00024BF30C830C144BF04680C6070470000B0
:1002F0000023002400250026103A28BF78C1FBD82F
:10030000520728BF30C148BF0B607047642900F016
:10031000B780782900F0F080732900F0C7810020B1
:1003200070471FB507F058FB1FBD10B510BD00F09A
:10033000F7F91146FFF7F5FF07F000FA00F015FA9C
:1003400003B4FFF7F2FF03BC06F0E5FFDFF840005F
:10035000016841F470010160BFF34F8FDFF8340092
:10036000016821F040410160BFF36F8F0A480047E8
:10037000FEE7FEE7FEE7FEE7FEE7FEE7FEE7FEE755
:10038000FEE7FEE705480649044A064B70470000B1
:1003900088ED00E034EF00E099020008C801002475
:1003A000C8090024C8010024704700000FB40449A4
:1003B00010B503AA029800F07DF910BC5DF814FB9B
:1003C000040000242DE9F0410E460446002020627E
:1003D0002046E168884730B3252805D0D4E90121BB
:1003E0009047206A401CF2E7E168204600278847D2
:1003F000050018D0A5F14100192802D820354FF486
:1004000000673246294620462760FFF77FFF40B14C
:10041000012804D0F61D26F007060836D8E7361D59
:10042000D6E72846DAE7206ABDE8F08170B50C46C9
:100430000546012A05D02878800600D5EA69002300
:1004400002E0012305E05B1C934202D2E05C00283D
:10045000F9D1A869E618C01AA861286A1844286268
:100460002846AFF3008004E0D5E9012114F8010B20
:100470009047B442F8D32846AFF3008070BD000027
:100480002DE9F0410646002410687529314616A56D
:1004900010D0AFF30080002802DA404213A507E035
:1004A00031688A0701D512A502E0490704D511A5D4
:1004B000012401E0AFF3008000210A2206F12407A5
:1004C00009E0B0FBF2FCB0FBF2F302FB1C003030A1
:1004D00078541846491C0028F3D123462A46304652
:1004E000BDE8F04100F077B8000000002D000000EA
:1004F0002B0000002000000070B504460D46214688
:100500001068AFF300802188090502D50F4A7A44AC
:1005100002E00E4A7A440E32002104F1240305E081
:1005200000F00F060009965D5E54491C0028F7D1C3
:1005300020780023000704D5702D02D009B10223D2
:1005400011322046BDE8704000F045B8C2BD000041
:100550004FF0013C50F8042B51F8043B9A4215D15E
:10056000A2EB0C03934313EACC130BD150F8042BEA
:1005700051F8043B9A4209D1A2EB0C03934313EACE
:10058000CC13E7D04FF00000704700BFD01A01BA7B
:10059000B1FA81F101F0180122FA01F0CB40C1F16A
:1005A0002001DBB2C0B2C01A2CFA01F3D11A914378
:1005B00011EAC311E6D17047704770477047704722
:1005C00010B500F089F8006810BD10B5044600F0C1
:1005D00083F8046010BD2DE9F0470D469946924618
:1005E000044600F124080168880604D5E06921F07A
:1005F0001001216000E00120A84201DD471B00E05E
:100600000027A1697A1902EB0900081AA061207875
:10061000C00602D42046AFF30080002608E0D4E9EB
:1006200001211AF806009047206A401C761C2062BF
:100630004E45F4DB2078C0060AD52046AFF3008093
:1006400006E0D4E9012130209047206A401C206256
:10065000381EA7F10107F4DC07E0D4E9012118F8FE
:1006600005009047206A401C2062281EA5F1010564
:10067000F3DC2046AFF300802078000602D502208C
:10068000BDE8F0870120FBE710B5436913B1AFF374
:10069000008001E0FFF7CAFE012010BD127800F1D2
:1006A00024010A7000224A700122EDE711684FF020
:1006B000FF32E9E7074B70B50D467B4400F015F8B3
:1006C0000446284600F024F810B14FF0FF3070BD0A
:1006D000204670BD8F6E0000004870476401002402
:1006E00001694A1C02610878704700B58FB0CDE9F6
:1006F00001310021059105497944CDE903101146E6
:100700006846FFF75FFE0FB000BD0000E5FFFFFF8A
:10071000007B00F0800070470048704764010024AF
:100720007546FFF7F9FFAE4605006946534620F0CF
:100730000700854618B020B5FFF724FEBDE820402D
:100740004FF000064FF000074FF000084FF0000B8D
:1007500021F00701AC46ACE8C009ACE8C009ACE840
:10076000C009ACE8C0098D46704710B50446AFF328
:1007700000802046BDE81040FFF7E2BD10B501F053
:100780001DF910BD2DE9F04107460C460026002555
:1007900009E036023919491B491E88B200F008F8F1
:1007A0000644681CC5B2A542F3DB3046BDE8F081C3
:1007B00070B50446002601F0B7F92546E11704EBB1
:1007C00011610912A02202EB4101C8B201F076F9D1
:1007D00001F0FEF9E11704EB11610912A4EB01210C
:1007E000C8B201F06BF901F0F3F901F09DF9A12015
:1007F00001F064F901F0ECF9002001F029F9064656
:1008000001F0BCF9304670BD2DE9F04105460E46B9
:100810001746002409E0E20026FA02F2D1B22A19B2
:1008200090B200F006F8601CC4B2BC42F3DBBDE835
:10083000F08170B504460E4601F076F92546E117C1
:1008400004EB11610912A02202EB4101C8B201F0D0
:1008500035F901F0BDF9E11704EB11610912A4EBC0
:100860000121C8B201F02AF901F0B2F9304601F0D5
:1008700025F901F0ADF901F081F90A2006F0FCFD3F
:1008800070BD10B5022006F011FE10BD10B500229B
:100890004021114800F045FB1048006820F0C000DE
:1008A0000E4908600846006840F0400008600022D9
:1008B00008210A4800F035FBFFF7E3FF0122402141
:1008C000054800F02EFBFFF7DCFF00224021024824
:1008D00000F027FB10BD0000001C02580020025849
:1008E0001CB51448006840F08000124908600846B2
:1008F000006840F4807008600120009000230246E8
:10090000402101900C4800F013FB012000900023CF
:10091000024608210190094800F00AFB0122082143
:10092000064800F0FEFA01224021034800F0F9FADF
:100930001CBD0000E0440258001C02580020025870
:1009400010B500224021114800F0EBFA1048006871
:1009500020F0C0000E4908600846006840F04000E2
:100960000860012208210A4800F0DBFAFFF789FF3E
:1009700001224021054800F0D4FAFFF782FF00224F
:100980004021024800F0CDFA10BD0000001C0258C2
:100990000020025870B5054600241848006820F071
:1009A000C000164908600846006808601E2006F06E
:1009B0007DFD002618E000224021114800F0B1FA28
:1009C000FFF75FFF012240210D4800F0AAFA600600
:1009D000040E0821094800F09CFA08B1601CC4B25A
:1009E000FFF74FFF701CC6B2082EE4DB15B9FFF706
:1009F000A7FF01E0FFF74AFF204670BD0020025824
:100A0000001C025870B504461648006820F0C0006B
:100A1000144908600846006840F040000860002261
:100A20004021114800F07DFA002518E0E209082174
:100A30000C4800F076FA6006040EFFF722FF012250
:100A40004021094800F06DFAFFF71BFF002240210A
:100A5000054800F066FAFFF714FF681CC5B2082DC0
:100A6000E4DB70BD00200258001C025810B512488B
:100A7000006820F0C000104908600846006840F097
:100A800040000860012208210B4800F04AFA0122C8
:100A900040210A4800F045FA1E2006F007FD00221A
:100AA0000821054800F03DFAFFF7EBFE0022402147
:100AB000024800F036FA10BD00200258001C02580F
:100AC00010B51248006820F0C000104908600846C0
:100AD000006840F040000860002240210C4800F00F
:100AE00020FA00220821094800F01BFA1E2006F017
:100AF000DDFC01224021064800F013FAFFF7C1FE99
:100B000001220821014800F00CFA10BD0020025813
:100B1000001C025810B500241648006820F0C000E0
:100B2000144908600846006808600122082111483D
:100B300000F0F7F9012240210F4800F0F2F9FFF729
:100B4000A0FE09E0601CC4B2FA2C03DDFFF7B8FF79
:100B5000012010BDFFF795FE0821064800F0D9F9E5
:100B60000028EFD100224021034800F0DAF90020EC
:100B7000EFE7000000200258001C025810B505F0F5
:100B80000FF804F0BFFF0348006840F0040001497B
:100B9000086010BD9CEF00E00EB53748006840F0DB
:100BA0008000354908600846006840F4807008609D
:100BB000012000210B460A46CDE9001080212F4874
:100BC00000F0B6F9012000900023024601020190D6
:100BD0002B4800F0ADF9FFF783FE00224FF480713F
:100BE000274800F09EF9142006F046FC012211026D
:100BF000234800F096F9322006F03EFC00208DF8E4
:100C00000800012202A900F03BF9012202A9A42058
:100C100000F036F916208DF80800012202A9802084
:100C200000F02EF90C208DF80800012202A988207E
:100C300000F026F9022202A9A12000F029F89DF86F
:100C40000800302803D19DF80900032807D09DF83B
:100C50000900012803D09DF8090002280AD19DF857
:100C600009009DF8082000EB022106A0FFF79EFB7B
:100C700000200EBD0120FCE7E0440258001C025891
:100C8000002002584354502049443A25780D0A0068
:100C90002DE9F04106460F461546FFF7E7FE7020A6
:100CA000FFF7B0FEFFF736FFF0B2FFF7ABFEFFF73E
:100CB00031FFFFF7DBFE7120FFF7A4FEFFF72AFFED
:100CC00000240BE0691EA14201D0012100E00021B7
:100CD0000846FFF75FFE3855601CC4B2AC42F1DB3A
:100CE000FFF7EEFEBDE8F08171B581B0002400266B
:100CF0005F480078401C5E490870084600780A2169
:100D000090FBF1F201FB120018B1594800780A2853
:100D10007EDA012201A90220FFF7BAFF9DF8040044
:100D200000F00F0000287FD09DF8040000F00F00B5
:100D3000062879DA9DF8040000F00F014FF6FF70E5
:100D4000884085B2E84380B240F4404049498886F3
:100D5000002459E04748808E0121A1400840E0B3BB
:100D6000454931F8140004226946FFF791FF4148D4
:100D700090F8440000F00100C0B19DF801009DF81A
:100D8000001001F00F0100EB01213A48203020F85B
:100D900014109DF803009DF8021001F00F0100EB04
:100DA000012034490C3121F814001DE09DF80100A8
:100DB0009DF8001001F00F0100EB01202F49098878
:100DC000081A81B22B480C3020F814109DF803004B
:100DD0009DF8021001F00F0100E013E000EB01208C
:100DE0002449203121F814009DF8000000F0F000A3
:100DF000802807D000211F48203020F81410143814
:100E000020F81410601CC4B2052CA3DB012600E0FE
:100E10000AE01848808920B91648008C08B90020DB
:100E200001900020124908709DF8040000F01F0096
:100E3000A8B91048808E00F4004030B10D48808E73
:100E400020F400400B49888609E04FF6FF700949FD
:100E5000888108840846808E00F4604088860448B3
:100E60000078F02802DD0A200149087030467CBD78
:100E70001D0000242000002436C100083401002495
:100E80002DE9F04105460E4617464FF00008FFF7E2
:100E9000EDFD7020FFF7B6FDFFF73CFEE8B2FFF76F
:100EA000B1FDFFF737FE00240BE0305DFFF7AAFD30
:100EB000FFF730FE8046B8F1000F00D003E0601C61
:100EC000C4B2BC42F1DB00BFFFF7FAFD4046BDE80B
:100ED000F08130B5CC1000F1200353F824304C07DA
:100EE000E50E0F24AC40A343CD1000F1200444F8DC
:100EF0002530CC1000F1200353F824304C07E40EC9
:100F000002FA04F42343CD1000F1200444F8253004
:100F100030BD02461069084008B10120704700202A
:100F2000FCE702F001030BB1018300E0418370474D
:100F30002DE9F0470C46DDE90867002100258C46C5
:100F400000BF60E04FF0010808FA01F504EA050C63
:100F5000AC4557D1D0F800804FEA410A4FF0030961
:100F600009FA0AF928EA0908C0F80080D0F80080D8
:100F70004FEA410902FA09F948EA0908C0F8008075
:100F8000012A01D0022A27D1D0F808804FEA410A6D
:100F90004FF0030909FA0AF928EA0908C0F808809D
:100FA000D0F808804FEA410906FA09F948EA090829
:100FB000C0F80880D0F804904FF0010808FA01F852
:100FC00029EA0809C0F80490D0F8048003FA01F96E
:100FD00048EA0908C0F80480D0F80C804FEA410ABA
:100FE0004FF0030909FA0AF928EA0908C0F80C8049
:100FF000D0F80C804FEA410907FA09F948EA0908D4
:10100000C0F80C80491C10299CD3BDE8F087000073
:101010001FB54148006840F080003F49086008461D
:10102000006840F480700860012000210B460A46E9
:10103000CDE9001080213948FFF77AFF01200090A8
:1010400000230246010201903548FFF771FFFFF7C8
:1010500047FC00224FF480713148FFF762FF0A20FD
:1010600006F00AFA012211022D48FFF75AFF0A2062
:1010700006F002FA0020009003460246802101900B
:101080002648FFF755FF642006F0F6F9042202A96E
:1010900048F2401000F05CF800208DF80C0002A926
:1010A00020A0FFF783F922A102A8FFF751FA78BB2D
:1010B00002208DF80800012202A948F2400000F049
:1010C000F9F9012202A948F2470000F041F89DF821
:1010D000080060280DDA9DF8081017A0FFF766F9E0
:1010E0001A48808845F21051884202D1012000F050
:1010F000B3F90A2006F0C0F900208DF8080001229B
:1011000002A948F2400000F0D5F9002004B010BD5B
:10111000FFE70120FAE70000E0440258001C0258F3
:10112000002002584354502049443A25730D0A00C8
:10113000393134370000000044656661756C7420F5
:101140005665723A25640D0A00000000340100243F
:101150002DE9F04105460F461646FFF787FC28208B
:10116000FFF750FCFFF7D6FC2812FFF74BFCFFF708
:10117000D1FCE8B2FFF746FCFFF7CCFCFFF776FCAA
:101180002920FFF73FFCFFF7C5FC00240BE0711E90
:10119000A14201D0012100E000210846FFF7FAFB3F
:1011A0003855601CC4B2B442F1DBFFF789FCBDE8DE
:1011B000F081000071B583B0002001900026A248A4
:1011C0000078401CA0490870084600780A2190FB6E
:1011D000F1F201FB120018B19B4800780A2877DA77
:1011E000012203A948F24E10FFF7B2FF9DF80C0050
:1011F00000F0800068B19DF80C0000F00F00062898
:1012000007DA00200190012201A948F24E1000F0F7
:1012100051F99DF80C0000F00F00002858D09DF8FF
:101220000C0000F00F000628D9DA9DF80C0000F041
:101230000F014FF6FF70884084B28448858EE043EA
:1012400080B240F440408149888608468189818285
:10125000018C0185002001909EE07C48808E9DF8E5
:101260000420012191400840002830D078499DF8A1
:10127000042031F81200042202A9FFF769FF754823
:10128000808845F2105188423ED1704890F8440061
:1012900000F00100E8B19DF808009DF8091000EB8E
:1012A000012081B2694820309DF8042020F81210F6
:1012B0009DF80A009DF80B1000EB0120C0F5487066
:1012C00081B262480C309DF8042020F812105EE0D4
:1012D00094E09DF808009DF8091000EB012081B210
:1012E0005A480C309DF8042020F812109DF80A008E
:1012F0009DF80B1000EB012081B2544820309DF87E
:10130000042020F8121042E05248808844F2423112
:1013100088423CD14D4890F8440000F00100D0B123
:101320009DF808009DF8091000EB012081B24748A4
:101330000C309DF8042020F812109DF80A009DF84A
:101340000B1000EB012081B2404820309DF80420B2
:1013500020F812101BE09DF808009DF8091000EB22
:10136000012081B2394820309DF8042020F8121065
:101370009DF80A009DF80B1000EB0120C0F5887065
:1013800081B232480C309DF8042020F812109DF8EC
:101390000400401CC0B201909DF804000528FFF62F
:1013A0005CAF0126294880892A490988884205DCE2
:1013B0002648008C2749498888421CDD9DF80C008E
:1013C00000F00F0001280ADD2048C0891F498881EC
:1013D0000846408C088400201B4908700EE01B481A
:1013E000808A1A4988810846008D088480200390ED
:1013F0000846858602E00020134908709DF80C001D
:1014000000F08F00802815D11048808E00F4004035
:1014100030B10E48808E20F400400C49888609E0E7
:101420004FF6FF700949888108840846808E00F4D1
:101430006040888604480078F02802DD0A200249CE
:101440000870304604B070BD1E0000242000002447
:10145000F8C100083401002438B5054600240020F6
:101460008DF800008DF8015000BF09E09DF80000E4
:101470000F49095D0844C0B28DF80000601CC4B279
:10148000B82CF3D39DF80000C043401CC0B28DF8C7
:101490000000B822064948F2470000F00BF802228B
:1014A000694648F2FF0000F005F8002038BD000052
:1014B00040C100082DE9F04104460E4617464FF0A2
:1014C0000008FFF7D3FA2820FFF79CFAFFF722FB6A
:1014D0002012FFF797FAFFF71DFBE0B2FFF792FA31
:1014E000FFF718FB00250BE0705DFFF78BFAFFF7A5
:1014F00011FB8046B8F1000F00D003E0681CC5B2B4
:10150000BD42F1DB00BFFFF7DBFA4046BDE8F081EA
:101510001FB53D48006840F080003B490860084620
:10152000006840F480700860012000210B460A46E4
:10153000CDE9001080213548FFF7FAFC012000902A
:1015400000230246010201903148FFF7F1FCFFF74A
:10155000C7F900224FF480712D48FFF7E2FC0A2002
:1015600005F08AFF012211022948FFF7DAFC0A2060
:1015700005F082FF00200090034602468021019082
:101580002248FFF7D5FC642005F076FF042202A96B
:1015900048F2401000F054F800208DF80C0002A929
:1015A0001CA0FEF703FF1FA102A8FEF7D1FF48BB56
:1015B00002208DF80800012202A948F24000FFF73E
:1015C00079FF012202A948F24700FFF7C1FD9DF80B
:1015D0000800412807DA9DF8081014A0FEF7E6FE7F
:1015E000012000F065F90A2005F046FF00208DF883
:1015F0000800012202A948F24000FFF75BFF00202B
:1016000004B010BD0120FBE7E0440258001C025862
:10161000002002584354502049443A25730D0A0DC6
:101620000A0000003932373100000000446566616D
:10163000756C74205665723A25640D0A000000002E
:101640002DE9F04105460F461646FFF70FFA282010
:10165000FFF7D8F9FFF75EFA2812FFF7D3F9FFF783
:1016600059FAE8B2FFF7CEF9FFF754FAFFF7FEF99F
:101670002920FFF7C7F9FFF74DFA00240BE0711E90
:10168000A14201D0012100E000210846FFF782F9C4
:101690003855601CC4B2B442F1DBFFF711FABDE863
:1016A000F081000071B583B00020019000267C48D5
:1016B0000078401C7A490870084600780A2190FB9F
:1016C000F1F201FB120018B1754800780A286EDAB1
:1016D000012203A948F24E10FFF7B2FF9DF80C005B
:1016E00000F0800068B19DF80C0000F00F000B289E
:1016F00007DA00200190012201A948F24E1000F003
:1017000005F99DF80C0000F00F0000284FD09DF85F
:101710000C0000F00F000B28D9DA9DF80C0000F047
:101720000F014FF6FF70884084B25E48858EE0431B
:1017300080B240F440405B49888608468189C18375
:10174000018C41860020019053E05648808E9DF820
:10175000042001219140084040B353499DF80420E2
:1017600031F81200062202A9FFF76AFF4D4890F8EF
:10177000440000F00100D8B19DF80A009DF80B105C
:1017800000EB012081B2474820309DF8042020F86A
:1017900012109DF808009DF8091000EB012081B29D
:1017A00040480C309DF8042020F812101CE051E055
:1017B0009DF80A009DF80B1000EB0120C0F5487061
:1017C00081B238480C309DF8042020F812109DF8A2
:1017D00008009DF8091000EB012081B2314820304B
:1017E0009DF8042020F812109DF80400401CC0B29F
:1017F00001909DF804000A28A7DB0126294880896A
:101800002A490988884205DC2648008C27494988EE
:1018100088421CDD9DF80C0000F00F0001280ADD55
:101820002048C0891F4988810846408C08840020D0
:101830001B4908700EE01B48C08B1A498881084676
:10184000408E0884802003900846858602E00020B0
:10185000134908709DF80C0000F08F00802815D106
:101860001048808E00F4004030B10E48808E20F485
:1018700000400C49888609E04FF6FF7009498881CD
:1018800008840846808E00F460408886044800780A
:10189000F02802DD0A2002490870304604B070BD0D
:1018A0001F00002420000024BCC2000834010024D2
:1018B00038B50546002400208DF800008DF8015051
:1018C00000BF09E09DF800000F49095D0844C0B25F
:1018D0008DF80000601CC4B2B82CF3D39DF8000052
:1018E000C043401CC0B28DF80000BA22064948F23D
:1018F000470000F00BF80222694648F2FF0000F0B2
:1019000005F8002038BD000002C200082DE9F041B2
:1019100004460E4617464FF00008FFF7A7F82820A8
:10192000FFF770F8FFF7F6F82012FFF76BF8FFF7F4
:10193000F1F8E0B2FFF766F8FFF7ECF800250BE0EE
:10194000705DFFF75FF8FFF7E5F88046B8F1000F2C
:1019500000D003E0681CC5B2BD42F1DB00BFFFF759
:10196000AFF84046BDE8F08110B5002210211248C2
:10197000FFF7D7FA1048006820F440600E4908606D
:101980000846006840F480600860002220210A4870
:10199000FFF7C7FA022005F089FD01221021064851
:1019A000FFF7BFFA022005F081FD00221021024856
:1019B000FFF7B7FA10BD0000001C02581CB50D4817
:1019C000006840F080000B490860012000210B46B0
:1019D0000246CDE9001030210748FFF7A9FA01229D
:1019E00010210548FFF79DFA012220210248FFF748
:1019F00098FA1CBDE0440258001C025810B50022A1
:101A000010211248FFF78DFA1048006820F440605A
:101A10000E4908600846006840F4806008600122B2
:101A200020210A48FFF77DFA022005F03FFD012240
:101A300010210648FFF775FA022005F037FD002255
:101A400010210248FFF76DFA10BD0000001C02587B
:101A500070B5054600241848006820F44060164917
:101A6000086008460068086000261AE0002210217D
:101A70001148FFF756FA022005F018FD0122102147
:101A80000D48FFF74EFA6006040E20210A48FFF7C2
:101A900040FA08B1601CC4B2012005F007FD701CBB
:101AA000C6B2082EE2DB15B9FFF7A8FF01E0FFF789
:101AB0005BFF204670BD0000001C025870B5044654
:101AC0001848006820F4406016490860084600681D
:101AD00040F480600860002210211248FFF721FACC
:101AE00000251BE0E20920210E48FFF71AFA6006E4
:101AF000040E022005F0DAFC012210210948FFF74C
:101B000010FA022005F0D2FC002210210548FFF750
:101B100008FA022005F0CAFC681CC5B2082DE1DBFA
:101B200070BD0000001C025810B51348006820F476
:101B30004060114908600846006840F48060086011
:101B4000012220210C48FFF7ECF9012210210A485C
:101B5000FFF7E7F9042005F0A9FC00222021064840
:101B6000FFF7DFF9042005F0A1FC00221021024854
:101B7000FFF7D7F910BD0000001C025810B513483C
:101B8000006820F44060114908600846006840F48D
:101B900080600860002210210C48FFF7C2F9002283
:101BA00020210A48FFF7BDF9042005F07FFC01223F
:101BB00010210648FFF7B5F9042005F077FC012253
:101BC00020210248FFF7ADF910BD0000001C0258AB
:101BD00010B500241748006820F4406015490860DB
:101BE000084600680860012220211248FFF799F991
:101BF000012005F05BFC012210210E48FFF791F94E
:101C0000012005F053FC07E0601CC4B2FA2C03DD90
:101C1000FFF7B4FF012010BD20210648FFF779F936
:101C20000028F1D1002210210248FFF77AF90020A4
:101C3000F1E70000001C02581CB51748006840F08E
:101C40000100154908600846006840F0040008607B
:101C50000846006840F080000860022000210B4622
:101C60000A46CDE9001001210C48FFF761F9012077
:101C700000210B460A46CDE9001041030848FFF752
:101C800057F9012000210B460A46CDE900100C212E
:101C90000448FFF74DF91CBDE0440258000002580B
:101CA00000080258001C025810B5044614B1012067
:101CB0002D4908702C480078002839D008212B487D
:101CC000FFF727F980B104212848FFF722F958B11E
:101CD0004FF400512648FFF71CF928B1012125488F
:101CE000FFF717F9012823D10A2005F0C5FB0020D2
:101CF0001D49087008211D48FFF70BF908B901209C
:101D000010BD04211948FFF704F908B90220F7E7CC
:101D10004FF400511648FFF7FCF808B90320EFE72D
:101D200001211448FFF7F5F801281BD10420E7E74B
:101D300008210E48FFF7EDF8012813D104210B48C4
:101D4000FFF7E7F801280DD141030948FFF7E1F853
:101D5000012807D101210748FFF7DBF810B901205E
:101D6000014908700020CBE71C000024001C025829
:101D7000000802580000025870B5044600260D48BD
:101D800005880D48006818B1204603F0ADF80FE053
:101D90000848408845430021084602F0A3FE03F0AE
:101DA00071F8002602E005490C80761CAE42FAD399
:101DB00070BD0000340100244401002400000860CC
:101DC00010B504465C4884715C48006850B12046F8
:101DD00003F010F95948C08A574908805748008BCA
:101DE000488010BD002C51D1F020534908804FF499
:101DF000A07048800846808849F24131884205D069
:101E00004D48808845F21031884214D12C204A492F
:101E100008812A2048812B2088810846808845F245
:101E20001031884206D14FF4A070434908804FF426
:101E3000F07048807BE04048808845F2105188422D
:101E400010D14FF430503C4908814FF4285048815C
:101E50004FF42C5088814FF4F07008804FF4487094
:101E6000488064E03448808841F6631188425ED13E
:101E70002C20314908812B2048812A2088814FF469
:101E8000F07008804FF44870488050E04FF4A07024
:101E900029490880F02048800846808849F241316D
:101EA000884205D02448808845F21031884207D105
:101EB0002C20214908812A2048812B20888129E073
:101EC0001D48808845F21051884210D14FF430509F
:101ED000194908814FF4285048814FF42C508881CB
:101EE0004FF4487008804FF4F070488012E01248B8
:101EF000808841F6631188420CD12C200E4908815C
:101F00002A2048812B2088814FF4487008804FF4A4
:101F1000F07048800848808845F21031884206D128
:101F20004FF4F070044908804FF4A07048800020FE
:101F300002F09EFC00BF54E7340100244401002459
:101F40002DE9FF4F85B081468A460020049003901A
:101F50000798A0EB09050898A0EB0A06CDF80890B1
:101F6000CDF804A0002D01DD012705E00DB9002703
:101F700002E04FF0FF376D42002E02DD4FF0010806
:101F800006E016B94FF0000802E04FF0FF38764245
:101F9000B54201DD2C4600E034464FF0000B21E055
:101FA000019A91B2029A90B200F022F80498284463
:101FB00004900398304403900498A04205DD0498EF
:101FC000001B04900298384402900398A04205DD5B
:101FD0000398001B03900198404401900BF101000D
:101FE0001FFA80FB601C8345DADD09B0BDE8F08F85
:101FF00070B504460D460A48006830B109482946C4
:102000000268204603F00CF809E02946204602F059
:1020100069FD02F037FF034800880349088070BD5E
:10202000440100240C000024000008602DE9F04762
:1020300006460F469046002445460320A0EB48097B
:102040003CE07A1B91B2321990B2FFF7D1FF3A1BF4
:1020500091B2721990B2FFF7CBFF3A1991B272198F
:1020600090B2FFF7C5FF7A1991B2321990B2FFF71B
:10207000BFFF7A1991B2321B90B2FFF7B9FF3A193C
:1020800091B2721B90B2FFF7B3FF7A1B91B2321B71
:1020900090B2FFF7ADFF3A1B91B2721B90B2FFF7FF
:1020A000A7FF641CB9F1000F03DAA000801D814472
:1020B00004E0601B80000A3081446D1EAC42C0DD2C
:1020C000BDE8F08770B504460D46164643480068E3
:1020D00028B132462946204602F0A2FF70BD404892
:1020E000808849F24131884205D03D48808845F2D8
:1020F0001031884214D13A49488902F0B7FE2012C3
:1021000002F0A8FEE0B202F0A5FE3549888902F08F
:10211000ADFE281202F09EFEE8B202F09BFE54E0F3
:102120002F48808845F21051884220D12C49488997
:1021300002F09CFE201202F08DFE29494989491CBB
:1021400088B202F093FEE0B202F084FE244988894E
:1021500002F08CFE281202F07DFE21498989491C7B
:1021600088B202F083FEE8B202F074FE2DE01C4853
:10217000808841F66311884227D11948807920B9B7
:1021800017480088401E001B84B21549488902F098
:102190006DFE201202F05EFEE0B202F05BFE201245
:1021A00002F058FEE0B202F055FE0D49888902F0B7
:1021B0005DFE281202F04EFEE8B202F04BFE28123D
:1021C00002F048FEE8B202F045FE054800890549E4
:1021D0000880891C0E8000BF80E7000044010024B5
:1021E00034010024FEFF07602DE9F84F05460E4636
:1021F00017469846DDF828904FF0000B1448006809
:1022000040B143463A4631462846CDF8009002F0A8
:102210002FFF1BE0781B401C1FFA80FB344613E0A5
:102220002146284602F05EFC02F02CFE4FF0000A28
:1022300006E00849A1F800900AF101001FFA80FAAF
:10224000DA45F6DB601C84B24445E9DDBDE8F88F71
:1022500044010024000008601CB503F08BFAFD491E
:1022600088800846808818B102F0A6FF02F078BA8C
:10227000F948006840F00200F74908600846006825
:1022800040F018000860F4480C38006840F48050B2
:10229000F1490C39086001200090002302462021FA
:1022A0000190EE48FEF744FE0120032100230222A4
:1022B000CDE900104EF2B371E948FEF739FE012076
:1022C000032100230222CDE900104FF68071E5487A
:1022D000FEF72EFE0C220021E148FEF7FAFD0C224B
:1022E0000121DF48FEF7F5FD0C220421DC48FEF752
:1022F000F0FD0C220521DA48FEF7EBFD0C22072148
:10230000D748FEF7E6FD0C220821D548FEF7E1FD8F
:102310000C220921D248FEF7DCFD0C220A21D0480C
:10232000FEF7D7FD0C220D21CD48FEF7D2FD0C2281
:102330000E21CB48FEF7CDFD0C220F21C848FEF739
:10234000C8FD0C220721C748FEF7C3FD0C22082157
:10235000C448FEF7BEFD0C220921C248FEF7B9FDB4
:102360000C220A21BF48FEF7B4FD0C220B21BD4808
:10237000FEF7AFFD0C221146BA48FEF7AAFD0C226B
:102380000D21B848FEF7A5FD0C220E21B548FEF739
:10239000A0FD0C220F21B348FEF79BFD0020B2499F
:1023A00008604860B1490860AF48006840F4805058
:1023B000AD4908600846006840F48040086008465F
:1023C000006840F010000860084640684860084611
:1023D000406840F00F0048600846406840F49C4068
:1023E0004860A2480068C1F804010846D0F804011A
:1023F00040F00F00C1F804010846D0F8040140F491
:102400007060C1F804010846006840F001000860EF
:102410000846006840F000400860322005F02CF8C3
:10242000D32002F023FD02F0F1F98A49888002F0FE
:10243000EDF98849888002F0E9F9864988800846E4
:1024400080884FF6FF7101EA00208249888002F0FF
:10245000DDF98049898808437E498880084680885C
:1024600049F24131884278D0D42002F0FFFC02F0DA
:10247000CDF97849888002F0C9F97649888002F060
:10248000C5F974498880084680884FF6FF7101EAD3
:1024900000207049888002F0B9F96E4989880843A4
:1024A0006C4988800846808845F21031884254D0B3
:1024B0004FF45A4002F0DAFC02F0A8F9654988802E
:1024C0004FF45B4002F0D2FC02F0A0F96149888031
:1024D000084680884FF6FF7101EA00205D49888038
:1024E0004FF45C4002F0C2FC02F090F9594989882F
:1024F00008435849888008468088B0F5004F02D1CB
:1025000045F2105088805348808845F21051884227
:1025100023D0A12002F0AAFC02F078F94D4988806E
:1025200002F074F94B498880084680884FF6FF71A5
:1025300001EA00204749888002F068F94549898806
:102540000843444988800846808845F26171884282
:1025500003D141F663103F4988803E48818844A0FA
:10256000FDF724FF3B48808849F24131884270D111
:10257000CF2002F07BFC002002F06CFCC12002F0B6
:1025800069FC302002F066FCED2002F06FFC642054
:1025900002F060FC032002F05DFC122002F05AFC05
:1025A000812002F057FCE82002F060FC852002F058
:1025B00051FC102002F04EFC7A2002F04BFCCB20A4
:1025C00002F054FC392002F045FC2C2002F042FCC1
:1025D000002002F03FFC342002F03CFC022002F01C
:1025E00039FCF72002F042FC202002F033FCEA2004
:1025F00002F03CFC002002F02DFC002002F02AFC3E
:10260000C02002F033FC1B2002F024FCC12002F0A9
:102610002DFC012002F01EFCC52002F027FC30201A
:1026200002F018FC302002F015FCC72002F01EFC5E
:10263000B72002F00FFC362002F018FC482002F010
:1026400009FC3A2002F012FC552002F003FCB120F4
:1026500016E0BAE034010024E044025800040258B5
:10266000000C025800100258004000520441005271
:10267000204C43442049443A25780D0A00000000CC
:1026800002F0F4FB002002F0E5FB1A2002F0E2FB6E
:10269000B62002F0EBFB0A2002F0DCFBA22002F0E5
:1026A000D9FBF22002F0E2FB002002F0D3FB26204F
:1026B00002F0DCFB012002F0CDFBE02002F0D6FBB3
:1026C0000F2002F0C7FB2A2002F0C4FB282002F0F2
:1026D000C1FB082002F0BEFB0E2002F0BBFB08206D
:1026E00002F0B8FB542002F0B5FBA92002F0B2FBC7
:1026F000432002F0AFFB0A2002F0ACFB0F2002F0F7
:10270000A9FB002002F0A6FB002002F0A3FB0020A2
:1027100002F0A0FB002002F09DFBE12002F0A6FBEE
:10272000002002F097FB152002F094FB172002F026
:1027300091FB072002F08EFB112002F08BFB06209C
:1027400002F088FB2B2002F085FB562002F082FB72
:102750003C2002F07FFB052002F07CFB102002F001
:1027600079FB0F2002F076FB3F2002F073FB3F2045
:1027700002F070FB0F2002F06DFB2B2002F076FBC5
:10278000002002F067FB002002F064FB012002F051
:1027900061FB3F2002F05EFB2A2002F067FB002075
:1027A00002F058FB002002F055FB002002F052FB23
:1027B000EF2002F04FFB112002F058FB782004F0CC
:1027C0005BFE292002F052FB50E5FE48808845F26E
:1027D0001031884240F07C87ED2002F047FB012059
:1027E00002F038FBFE2002F035FBEE2002F03EFB4B
:1027F000DE2002F02FFB212002F02CFBF12002F062
:1028000035FB012002F026FBDF2002F02FFB102019
:1028100002F020FBC42002F029FB8F2002F01AFBFB
:10282000C62002F023FB002002F014FBE22002F09D
:1028300011FBE22002F00EFBE22002F00BFBBF20B6
:1028400002F014FBAA2002F005FBB02002F00EFB00
:102850000D2002F0FFFA002002F0FCFA0D2002F039
:10286000F9FA002002F0F6FA112002F0F3FA002043
:1028700002F0F0FA192002F0EDFA002002F0EAFA74
:10288000212002F0E7FA002002F0E4FA2D2002F005
:10289000E1FA002002F0DEFA3D2002F0DBFA00202F
:1028A00002F0D8FA5D2002F0D5FA002002F0D2FA48
:1028B0005D2002F0CFFA002002F0CCFAB12002F045
:1028C000D5FA802002F0C6FA002002F0C3FA8B206D
:1028D00002F0C0FA002002F0BDFA962002F0BAFA27
:1028E000002002F0B7FAB22002F0C0FA002002F095
:1028F000B1FA002002F0AEFA022002F0ABFA00209A
:1029000002F0A8FA032002F0A5FA002002F0A2FAD1
:10291000B32002F0ABFA002002F09CFA002002F093
:1029200099FA002002F096FA002002F093FA0020B3
:1029300002F090FA002002F08DFA002002F08AFAEC
:10294000002002F087FA002002F084FA002002F052
:1029500081FA002002F07EFA002002F07BFA0020CB
:1029600002F078FA002002F075FA002002F072FA04
:10297000002002F06FFA002002F06CFA002002F052
:1029800069FA002002F066FA002002F063FA0020E3
:1029900002F060FA002002F05DFA002002F05AFA1C
:1029A000002002F057FAB42002F060FA8B2002F007
:1029B00051FA002002F04EFA962002F04BFA002065
:1029C00002F048FAA12002F045FA002002F042FA93
:1029D000B52002F04BFA022002F03CFA002002F08F
:1029E00039FA032002F036FA002002F033FA04200C
:1029F00002F030FA002002F02DFAB62002F036FA8A
:102A0000002002F027FA002002F024FAB72002F09A
:102A10002DFA002002F01EFA002002F01BFA3F20DF
:102A200002F018FA002002F015FA5E2002F012FA05
:102A3000002002F00FFA642002F00CFA002002F0ED
:102A400009FA8C2002F006FA002002F003FAAC200A
:102A500002F000FA002002F0FDF9DC2002F0FAF9A1
:102A6000002002F0F7F9702002F0F4F9002002F0E3
:102A7000F1F9902002F0EEF9002002F0EBF9EB20E2
:102A800002F0E8F9002002F0E5F9DC2002F0E2F9BA
:102A9000002002F0DFF9B82002F0E8F9002002F08F
:102AA000D9F9002002F0D6F9002002F0D3F9002075
:102AB00002F0D0F9002002F0CDF9002002F0CAF9AE
:102AC000002002F0C7F9002002F0C4F9BA2002F099
:102AD000CDF9242002F0BEF9002002F0BBF900205D
:102AE00002F0B8F9002002F0B5F9C12002F0BEF9F9
:102AF000202002F0AFF9002002F0ACF9542002F0DF
:102B0000A9F9002002F0A6F9FF2002F0A3F90020A5
:102B100002F0A0F9C22002F0A9F90A2002F09AF905
:102B2000002002F097F9042002F094F9002002F04E
:102B300091F9C32002F09AF93C2002F08BF90020B1
:102B400002F088F93A2002F085F9002002F082F9BB
:102B5000392002F07FF9002002F07CF9372002F0E2
:102B600079F9002002F076F93C2002F073F9002098
:102B700002F070F9362002F06DF9002002F06AF9D7
:102B8000322002F067F9002002F064F92F2002F0F1
:102B900061F9002002F05EF92C2002F05BF90020C0
:102BA00002F058F9292002F055F9002002F052F9FC
:102BB000262002F04FF9002002F04CF9242002F008
:102BC00049F901E034010024002002F043F92420F7
:102BD00002F040F9002002F03DF9232002F03AF91A
:102BE000002002F037F93C2002F034F9002002F016
:102BF00031F9362002F02EF9002002F02BF93220B4
:102C000002F028F9002002F025F92F2002F022F925
:102C1000002002F01FF92C2002F01CF9002002F025
:102C200019F9292002F016F9002002F013F92620E4
:102C300002F010F9002002F00DF9242002F00AF948
:102C4000002002F007F9242002F004F9002002F02D
:102C500001F9232002F0FEF8002002F0FBF8C42066
:102C600002F004F9622002F0F5F8002002F0F2F818
:102C7000052002F0EFF8002002F0ECF8842002F0CA
:102C8000E9F8002002F0E6F8F02002F0E3F8002076
:102C900002F0E0F8182002F0DDF8002002F0DAF887
:102CA000A42002F0D7F8002002F0D4F8182002F097
:102CB000D1F8002002F0CEF8502002F0CBF800202E
:102CC00002F0C8F80C2002F0C5F8002002F0C2F8AB
:102CD000172002F0BFF8002002F0BCF8952002F0A7
:102CE000B9F8002002F0B6F8F32002F0B3F80020A3
:102CF00002F0B0F8E62002F0ADF8002002F0AAF8E9
:102D0000C52002F0B3F8322002F0A4F8002002F04F
:102D1000A1F8442002F09EF8002002F09BF8652004
:102D200002F098F8002002F095F8762002F092F870
:102D3000002002F08FF8882002F08CF8002002F0CA
:102D400089F8C62002F092F8202002F083F80020D3
:102D500002F080F8172002F07DF8002002F07AF8E7
:102D6000012002F077F8002002F074F8C72002F08A
:102D70007DF8002002F06EF8002002F06BF80020D1
:102D800002F068F8002002F065F8C82002F06EF842
:102D9000002002F05FF8002002F05CF8002002F052
:102DA00059F8002002F056F8C92002F05FF8002020
:102DB00002F050F8002002F04DF8002002F04AF82E
:102DC000002002F047F8002002F044F8002002F052
:102DD00041F8002002F03EF8002002F03BF800200D
:102DE00002F038F8002002F035F8002002F032F846
:102DF000002002F02FF8002002F02CF8002002F052
:102E000029F8002002F026F8002002F023F8E02044
:102E100002F02CF8162002F01DF8002002F01AF83B
:102E20001C2002F017F8002002F014F8212002F014
:102E300011F8002002F00EF8362002F00BF8002006
:102E400002F008F8462002F005F8002002F002F82F
:102E5000522001F0FFFF002001F0FCFF642001F090
:102E6000F9FF002001F0F6FF7A2001F0F3FF0020C7
:102E700001F0F0FF8B2001F0EDFF002001F0EAFFF0
:102E8000992001F0E7FF002001F0E4FFA82001F005
:102E9000E1FF002001F0DEFFB92001F0DBFF0020A0
:102EA00001F0D8FFC42001F0D5FF002001F0D2FFCF
:102EB000CA2001F0CFFF002001F0CCFFD22001F0AA
:102EC000C9FF002001F0C6FFD92001F0C3FF002098
:102ED00001F0C0FFE02001F0BDFF002001F0BAFFCB
:102EE000F32001F0B7FF002001F0B4FFE12001F072
:102EF000BDFF162001F0AEFF002001F0ABFF1C204B
:102F000001F0A8FF002001F0A5FF222001F0A2FFA0
:102F1000002001F09FFF362001F09CFF002001F00F
:102F200099FF452001F096FF002001F093FF522009
:102F300001F090FF002001F08DFF642001F08AFF76
:102F4000002001F087FF7A2001F084FF002001F0CB
:102F500081FF8B2001F07EFF002001F07BFF992094
:102F600001F078FF002001F075FFA82001F072FF4A
:102F7000002001F06FFFB92001F06CFF002001F08C
:102F800069FFC42001F066FF002001F063FFCA2042
:102F900001F060FF002001F05DFFD22001F05AFF38
:102FA000002001F057FFD82001F054FF002001F06D
:102FB00051FFE02001F04EFF002001F04BFFF32015
:102FC00001F048FF002001F045FFE22001F04EFF34
:102FD000052001F03FFF002001F03CFF0B2001F035
:102FE00039FF002001F036FF1B2001F033FF0020E5
:102FF00001F030FF342001F02DFF002001F02AFF06
:10300000442001F027FF002001F024FF4F2001F0B1
:1030100021FF002001F01EFF612001F01BFF0020B6
:1030200001F018FF792001F015FF002001F012FFD8
:10303000882001F00FFF002001F00CFF972001F025
:1030400009FF002001F006FFA62001F003FF002089
:1030500001F000FFB72001F0FDFE002001F0FAFEB4
:10306000C22001F0F7FE002001F0F4FEC72001F0BD
:10307000F1FE002001F0EEFED12001F0EBFE002079
:1030800001F0E8FED62001F0E5FE002001F0E2FEAE
:10309000DD2001F0DFFE002001F0DCFEF32001F076
:1030A000D9FE002001F0D6FEE32001F0DFFE05206E
:1030B00001F0D0FE002001F0CDFE0A2001F0CAFE92
:1030C000002001F0C7FE1C2001F0C4FE002001F02A
:1030D000C1FE332001F0BEFE002001F0BBFE442003
:1030E00001F0B8FE002001F0B5FE502001F0B2FE64
:1030F000002001F0AFFE622001F0ACFE002001F0E4
:10310000A9FE782001F0A6FE002001F0A3FE882091
:1031100001F0A0FE002001F09DFE972001F09AFE34
:10312000002001F097FEA62001F094FE002001F09F
:1031300091FEB72001F08EFE002001F08BFEC22030
:1031400001F088FE002001F085FEC72001F082FE1C
:10315000002001F07FFED12001F07CFE002001F074
:1031600079FED52001F076FE002001F073FEDD200F
:1031700001F070FE002001F06DFEF32001F06AFE08
:10318000002001F067FEE42001F070FE012001F054
:1031900061FE002001F05EFE012001F05BFE0020D8
:1031A00001F058FE022001F055FE002001F052FE11
:1031B0002A2001F04FFE002001F04CFE3C2001F0DF
:1031C00049FE002001F046FE4B2001F043FE0020A6
:1031D00001F040FE5D2001F03DFE002001F03AFECE
:1031E000742001F037FE002001F034FE842001F04D
:1031F00031FE002001F02EFE932001F02BFE002076
:1032000001F028FEA22001F025FE002001F022FEA0
:10321000B32001F01FFE002001F01CFEBE2001F0D3
:1032200019FE002001F016FEC42001F013FE00205C
:1032300001F010FECD2001F00DFE002001F00AFE8D
:10324000D32001F007FE002001F004FEDD2001F094
:1032500001FE002001F0FEFDF32001F0FBFD002047
:1032600001F0F8FDE52001F001FE002001F0F2FD83
:10327000002001F0EFFD002001F0ECFD002001F046
:10328000E9FD022001F0E6FD002001F0E3FD292028
:1032900001F0E0FD002001F0DDFD3C2001F0DAFD51
:1032A000002001F0D7FD4B2001F0D4FD002001F0FB
:1032B000D1FD5D2001F0CEFD002001F0CBFD74209A
:1032C00001F0C8FD002001F0C5FD842001F0C2FD21
:1032D000002001F0BFFD932001F0BCFD002001F0B3
:1032E000B9FDA22001F0B6FD002001F0B3FDB3202E
:1032F00001F0B0FD002001F0ADFDBE2001F0AAFDFF
:10330000002001F0A7FDC42001F0A4FD002001F081
:10331000A1FDCD2001F09EFD002001F09BFDD320FA
:1033200001F098FD002001F095FDDC2001F092FDF8
:10333000002001F08FFDF32001F08CFD002001F052
:1033400089FDE62001F092FD112001F083FD0020AF
:1033500001F080FD342001F07DFD002001F07AFDB8
:10336000562001F077FD002001F074FD762001F079
:1033700071FD002001F06EFD772001F06BFD002053
:1033800001F068FD662001F065FD002001F062FD9E
:10339000882001F05FFD002001F05CFD992001F024
:1033A00059FD002001F056FDBB2001F053FD002027
:1033B00001F050FD992001F04DFD002001F04AFD83
:1033C000662001F047FD002001F044FD552001F08A
:1033D00041FD002001F03EFD552001F03BFD0020A5
:1033E00001F038FD452001F035FD002001F032FDEF
:1033F000432001F02FFD002001F02CFD442001F0BE
:1034000029FD002001F026FDE72001F02FFD3220EC
:1034100001F020FD002001F01DFD552001F01AFDF6
:10342000002001F017FD762001F014FD002001F0CE
:1034300011FD662001F00EFD002001F00BFD67205C
:1034400001F008FD002001F005FD672001F002FDFC
:10345000002001F0FFFC872001F0FCFC002001F0BF
:10346000F9FC992001F0F6FC002001F0F3FCBB20F0
:1034700001F0F0FC002001F0EDFC992001F0EAFCE5
:10348000002001F0E7FC772001F0E4FC002001F0CF
:10349000E1FC442001F0DEFC002001F0DBFC5620C2
:1034A00001F0D8FC002001F0D5FC232001F0D2FC73
:1034B000002001F0CFFC332001F0CCFC002001F013
:1034C000C9FC452001F0C6FC002001F0C3FCE82047
:1034D00001F0CCFC002001F0BDFC002001F0BAFCA2
:1034E000992001F0B7FC002001F0B4FC872001F026
:1034F000B1FC002001F0AEFC882001F0ABFC002004
:1035000001F0A8FC772001F0A5FC002001F0A2FC4E
:10351000662001F09FFC002001F09CFC882001F057
:1035200099FC002001F096FCAA2001F093FC0020F9
:1035300001F090FCBB2001F08DFC002001F08AFC22
:10354000992001F087FC002001F084FC662001F046
:1035500081FC002001F07EFC552001F07BFC002066
:1035600001F078FC552001F075FC002001F072FCA0
:10357000442001F06FFC002001F06CFC442001F0BD
:1035800069FC002001F066FC552001F063FC00207E
:1035900001F060FCE92001F069FCAA2001F05AFC6E
:1035A000002001F057FC002001F054FC002001F045
:1035B00051FC002001F05AFCAA2001F04BFCCF2066
:1035C00001F054FC002001F045FC002001F042FC19
:1035D000002001F03FFC002001F03CFC002001F045
:1035E00039FC002001F036FC002001F033FC002003
:1035F00001F030FC002001F02DFC002001F02AFC3D
:10360000002001F027FC002001F024FC002001F044
:1036100021FC002001F01EFC002001F01BFC00201A
:1036200001F018FC002001F015FCF02001F01EFC58
:10363000002001F00FFC502001F00CFC002001F0F4
:1036400009FC002001F006FC002001F003FCF3203F
:1036500001F00CFC002001F0FDFBF92001F006FC5C
:10366000062001F0F7FB102001F0F4FB292001F007
:10367000F1FB002001F0EEFB3A2001F0F7FB5520B2
:1036800001F0E8FB112001F0F1FB642003F0F4FEEF
:10369000292001F0EBFB352001F0E8FB002001F0D0
:1036A000D9FB512001F0E2FBFF2001F0D3FB5320B6
:1036B00001F0DCFB2C2001F0CDFB552001F0D6FB06
:1036C000822001F0C7FB2C2001F0D0FB01F048B8AC
:1036D000FE48808845F2105188427DD155214FF433
:1036E000704001F0D9FBAA214FF2010001F0D4FB98
:1036F00052214FF2020001F0CFFB08214FF20300EC
:1037000001F0CAFB01214FF2040001F0C5FB0D21BD
:103710004FF4304001F0C0FB0D214BF2010001F0ED
:10372000BBFB0D214BF2020001F0B6FB34214FF43C
:10373000364001F0B1FB34214BF2016001F0ACFBEB
:1037400034214BF2026001F0A7FB0D214FF4314010
:1037500001F0A2FB0D214BF2011001F09DFB0D21A8
:103760004BF2021001F098FB34214FF4374001F086
:1037700093FB34214BF2017001F08EFB34214BF2AC
:10378000027001F089FB00214FF4324001F084FB0C
:1037900000214BF2012001F07FFB00214BF20220BF
:1037A00001F07AFB24214FF4384001F075FB24210D
:1037B0004BF6010001F070FB24214BF6020001F0F2
:1037C0006BFB01214FF43F4001F066FB0F214FF4EA
:1037D000334001F061FB00E0FDE30F214BF20130CB
:1037E00001F05AFB0F214BF2023001F055FB34215E
:1037F0004FF4394001F050FB34214BF6011001F039
:103800004BFB34214BF6021001F046FB08214FF42C
:10381000354001F041FB08214BF2015001F03CFB27
:1038200008214BF2025001F037FB03214FF44240D4
:1038300001F032FB24214FF43A4001F02DFB24210A
:103840004BF6012001F028FB24214BF6022001F069
:1038500023FB00214FF43C4001F01EFB78214BF686
:10386000014001F019FB00214BF6024001F014FB6E
:1038700000214FF43D4001F00FFB78214BF6015041
:1038800001F00AFB00214BF6025001F005FB00217C
:103890004FF43E4001F000FB64214BF6016001F063
:1038A000FBFA00214FF4514001F0F6FA33214DF2BA
:1038B000011001F0F1FA00214DF2021001F0ECFAD2
:1038C00034214DF2031001F0E7FA00214DF204100B
:1038D00001F0E2FA3A214DF2051001F0DDFA002183
:1038E0004DF2061001F0D8FA4A214DF2071001F00E
:1038F000D3FA00214DF2081001F0CEFA5C214DF20E
:10390000091001F0C9FA00214DF20A1001F0C4FAC1
:1039100081214DF20B1001F0BFFA00214DF20C1085
:1039200001F0BAFAA6214DF20D1001F0B5FA00210E
:103930004DF20E1001F0B0FAE5214DF20F1001F03A
:10394000ABFA01214DF2101001F0A6FA13214DF24D
:10395000111001F0A1FA01214DF2121001F09CFAB0
:1039600054214DF2131001F097FA01214DF2141079
:1039700001F092FA82214DF2151001F08DFA012129
:103980004DF2161001F088FACA214DF2171001F01D
:1039900083FA02214DF2181001F07EFA00214DF257
:1039A000191001F079FA02214DF21A1001F074FA9F
:1039B00001214DF21B1001F06FFA02214DF21C1093
:1039C00001F06AFA34214DF21D1001F065FA02216E
:1039D0004DF21E1001F060FA67214DF21F1001F048
:1039E0005BFA02214DF2201001F056FA84214DF2CB
:1039F000211001F051FA02214DF2221001F04CFA8F
:103A0000A4214DF2231001F047FA02214DF22410B7
:103A100001F042FAB7214DF2251001F03DFA0221E2
:103A20004DF2261001F038FACF214DF2271001F0A7
:103A300033FA02214DF2281001F02EFADE214DF268
:103A4000291001F029FA02214DF22A1001F024FA7E
:103A5000F2214DF22B1001F01FFA02214DF22C1031
:103A600001F01AFAFE214DF22D1001F015FA032192
:103A70004DF22E1001F010FA10214DF22F1001F02E
:103A80000BFA03214DF2301001F006FA33214DF20A
:103A9000311001F001FA03214DF2321001F0FCF96E
:103AA0006D214DF2331001F0F7F900214FF452402F
:103AB00001F0F2F933214DF2012001F0EDF900217E
:103AC0004DF2022001F0E8F9342101E03401002434
:103AD0004DF2032001F0E0F900214DF2042001F045
:103AE000DBF93A214DF2052001F0D6F900214DF223
:103AF000062001F0D1F94A214DF2072001F0CCF95E
:103B000000214DF2082001F0C7F95C214DF2092097
:103B100001F0C2F900214DF20A2001F0BDF9812126
:103B20004DF20B2001F0B8F900214DF20C2001F00C
:103B3000B3F9A6214DF20D2001F0AEF900214DF2AE
:103B40000E2001F0A9F9E5214DF20F2001F0A4F9B2
:103B500001214DF2102001F09FF913214DF21120A7
:103B600001F09AF901214DF2122001F095F954214A
:103B70004DF2132001F090F901214DF2142001F0D3
:103B80008BF982214DF2152001F086F901214DF2C9
:103B9000162001F081F9CA214DF2172001F07CF9BD
:103BA00002214DF2182001F077F900214DF2192081
:103BB00001F072F902214DF21A2001F06DF9012194
:103BC0004DF21B2001F068F902214DF21C2001F09A
:103BD00063F934214DF21D2001F05EF902214DF20E
:103BE0001E2001F059F967214DF21F2001F054F910
:103BF00002214DF2202001F04FF984214DF22120C5
:103C000001F04AF902214DF2222001F045F9A421E8
:103C10004DF2232001F040F902214DF2242001F061
:103C20003BF9B7214DF2252001F036F902214DF282
:103C3000262001F031F9CF214DF2272001F02CF997
:103C400002214DF2282001F027F9DE214DF2292032
:103C500001F022F902214DF22A2001F01DF9F22192
:103C60004DF22B2001F018F902214DF22C2001F029
:103C700013F9FE214DF22D2001F00EF903214DF232
:103C80002E2001F009F910214DF22F2001F004F946
:103C900003214DF2302001F0FFF833214DF23120A5
:103CA00001F0FAF803214DF2322001F0F5F86D2110
:103CB0004DF2332001F0F0F800214FF4534001F0B1
:103CC000EBF833214DF2013001F0E6F800214DF21E
:103CD000023001F0E1F834214DF2033001F0DCF85C
:103CE00000214DF2043001F0D7F83A214DF20530B1
:103CF00001F0D2F800214DF2063001F0CDF84A2152
:103D00004DF2073001F0C8F800214DF2083001F003
:103D1000C3F85C214DF2093001F0BEF800214DF2EC
:103D20000A3001F0B9F881214DF20B3001F0B4F8FE
:103D300000214DF20C3001F0AFF8A6214DF20D300C
:103D400001F0AAF800214DF20E3001F0A5F8E521AE
:103D50004DF20F3001F0A0F801214DF2103001F0CA
:103D60009BF813214DF2113001F096F801214DF22C
:103D7000123001F091F854214DF2133001F08CF81B
:103D800001214DF2143001F087F882214DF21530F7
:103D900001F082F801214DF2163001F07DF8CA21C0
:103DA0004DF2173001F078F802214DF2183001F091
:103DB00073F800214DF2193001F06EF802214DF236
:103DC0001A3001F069F801214DF21B3001F064F85E
:103DD00002214DF21C3001F05FF834214DF21D300C
:103DE00001F05AF802214DF21E3001F055F867211A
:103DF0004DF21F3001F050F802214DF2203001F059
:103E00004BF884214DF2213001F046F802214DF2A9
:103E1000223001F041F8A4214DF2233001F03CF8AA
:103E200002214DF2243001F037F8B7214DF2253050
:103E300001F032F802214DF2263001F02DF8CF21A9
:103E40004DF2273001F028F802214DF2283001F020
:103E500023F8DE214DF2293001F01EF802214DF247
:103E60002A3001F019F8F2214DF22B3001F014F84C
:103E700002214DF22C3001F00FF8FE214DF22D30D1
:103E800001F00AF803214DF22E3001F005F810215F
:103E90004DF22F3001F000F803214DF2303000F0E8
:103EA000FBFF33214DF2313000F0F6FF03214DF2DC
:103EB000323000F0F1FF6D214DF2333000F0ECFFB5
:103EC00000214FF4544000F0E7FF33214DF2014050
:103ED00000F0E2FF00214DF2024000F0DDFF34214E
:103EE0004DF2034000F0D8FF00214DF2044000F0F5
:103EF000D3FF3A214DF2054000F0CEFF00214DF2F4
:103F0000064000F0C9FF4A214DF2074000F0C4FF0F
:103F100000214DF2084000F0BFFF5C214DF2094046
:103F200000F0BAFF00214DF20A4000F0B5FF8121F8
:103F30004DF20B4000F0B0FF00214DF20C4000F0BC
:103F4000ABFFA6214DF20D4000F0A6FF00214DF27F
:103F50000E4000F0A1FFE5214DF20F4000F09CFF64
:103F600001214DF2104000F097FF13214DF2114056
:103F700000F092FF01214DF2124000F08DFF54211C
:103F80004DF2134000F088FF01214DF2144000F083
:103F900083FF82214DF2154000F07EFF01214DF29A
:103FA000164000F079FFCA214DF2174000F074FF6F
:103FB00002214DF2184000F06FFF00214DF2194030
:103FC00000F06AFF02214DF21A4000F065FF012166
:103FD0004DF21B4000E005E300F05EFF02214DF2D0
:103FE0001C4000F059FF34214DF21D4000F054FFF9
:103FF00002214DF21E4000F04FFF67214DF21F409D
:1040000000F04AFF02214DF2204000F045FF8421DC
:104010004DF2214000F040FF02214DF2224000F01D
:104020003BFFA4214DF2234000F036FF02214DF268
:10403000244000F031FFB7214DF2254000F02CFF65
:1040400002214DF2264000F027FFCF214DF22740FC
:1040500000F022FF02214DF2284000F01DFFDE217A
:104060004DF2294000F018FF02214DF22A4000F0E5
:1040700013FFF2214DF22B4000F00EFF02214DF212
:104080002C4000F009FFFE214DF22D4000F004FF0E
:1040900003214DF22E4000F0FFFE10214DF22F4083
:1040A00000F0FAFE03214DF2304000F0F5FE33211E
:1040B0004DF2314000F0F0FE03214DF2324000F0AD
:1040C000EBFE6D214DF2334000F0E6FE00214FF48F
:1040D000554000F0E1FE33214DF2015000F0DCFECE
:1040E00000214DF2025000F0D7FE34214DF2035072
:1040F00000F0D2FE00214DF2045000F0CDFE3A2136
:104100004DF2055000F0C8FE00214DF2065000F0BF
:10411000C3FE4A214DF2075000F0BEFE00214DF2D1
:10412000085000F0B9FE5C214DF2095000F0B4FED9
:1041300000214DF20A5000F0AFFE81214DF20B50EC
:1041400000F0AAFE00214DF20C5000F0A5FEA621C1
:104150004DF20D5000F0A0FE00214DF20E5000F087
:104160009BFEE5214DF20F5000F096FE01214DF22D
:10417000105000F091FE13214DF2115000F08CFE12
:1041800001214DF2125000F087FE54214DF21350E0
:1041900000F082FE01214DF2145000F07DFE8221DC
:1041A0004DF2155000F078FE01214DF2165000F04E
:1041B00073FECA214DF2175000F06EFE02214DF23F
:1041C000185000F069FE00214DF2195000F064FE15
:1041D00002214DF21A5000F05FFE01214DF21B50FA
:1041E00000F05AFE02214DF21C5000F055FE342121
:1041F0004DF21D5000F050FE02214DF21E5000F015
:104200004BFE67214DF21F5000F046FE02214DF299
:10421000205000F041FE84214DF2215000F03CFE80
:1042200002214DF2225000F037FEA4214DF223501E
:1042300000F032FE02214DF2245000F02DFEB72195
:104240004DF2255000F028FE02214DF2265000F0DC
:1042500023FECF214DF2275000F01EFE02214DF229
:10426000285000F019FEDE214DF2295000F014FE16
:1042700002214DF22A5000F00FFEF2214DF22B5098
:1042800000F00AFE02214DF22C5000F005FEFE2146
:104290004DF22D5000F000FE03214DF22E5000F0A3
:1042A000FBFD10214DF22F5000F0F6FD03214DF2E1
:1042B000305000F0F1FD33214DF2315000F0ECFDB3
:1042C00003214DF2325000F0E7FD6D214DF23350E5
:1042D00000F0E2FD00214FF4564000F0DDFD3321F7
:1042E0004DF2016000F0D8FD00214DF2026000F0B7
:1042F000D3FD34214DF2036000F0CEFD00214DF2DC
:10430000046000F0C9FD3A214DF2056000F0C4FDE3
:1043100000214DF2066000F0BFFD4A214DF207601A
:1043200000F0BAFD00214DF2086000F0B5FD5C21FF
:104330004DF2096000F0B0FD00214DF20A6000F07E
:10434000ABFD81214DF20B6000F0A6FD00214DF286
:104350000C6000F0A1FDA6214DF20D6000F09CFD67
:1043600000214DF20E6000F097FDE5214DF20F6047
:1043700000F092FD01214DF2106000F08DFD13213F
:104380004DF2116000F088FD01214DF2126000F045
:1043900083FD54214DF2136000F07EFD01214DF2AA
:1043A000146000F079FD82214DF2156000F074FD7B
:1043B00001214DF2166000F06FFDCA214DF2176029
:1043C00000F06AFD02214DF2186000F065FD002149
:1043D0004DF2196000F060FD02214DF21A6000F00C
:1043E0005BFD01214DF21B6000F056FD02214DF2F4
:1043F0001C6000F051FD34214DF21D6000F04CFDB9
:1044000002214DF21E6000F047FD67214DF21F6052
:1044100000F042FD02214DF2206000F03DFD8421BC
:104420004DF2216000F038FD02214DF2226000F0D3
:1044300033FDA4214DF2236000F02EFD02214DF248
:10444000246000F029FDB7214DF2256000F024FD25
:1044500002214DF2266000F01FFDCF214DF22760B2
:1044600000F01AFD02214DF2286000F015FDDE215A
:104470004DF2296000F010FD02214DF22A6000F09B
:104480000BFDF2214DF22B6000F006FD02214DF2F2
:104490002C6000F001FDFE214DF22D6000F0FCFCCF
:1044A00003214DF22E6000F0F7FC10214DF22F6039
:1044B00000F0F2FC03214DF2306000F0EDFC3321FE
:1044C0004DF2316000F0E8FC03214DF2326000F063
:1044D000E3FC6D214DF2336000F0DEFC55214FF41A
:1044E000704000F0D9FCAA214FF2010000F0D4FC8A
:1044F00052214FF2020000F0CFFC08214FF20300DE
:1045000000F0CAFC00214FF2040000F0C5FCCC21F1
:104510004FF4314000F0C0FC00214BF2011000F0DC
:10452000BBFC05214FF4364000F0B6FC70214FF47F
:10453000374000F0B1FC70214BF2017000F0ACFC90
:1045400001214FF4384000F0A7FC03214BF6010095
:1045500000F0A2FC03214BF6020000F09DFC0321B9
:104560004BF6030000F098FC02214FF43C4000F0B1
:1045700093FC00214BF6014000F08EFC00214BF62D
:10458000024000F089FCD0214FF4494000F084FC47
:1045900002214CF6011000F07FFC50214CF6021075
:1045A00000F07AFC50214CF6031000F075FC50210D
:1045B0004CF6041000F070FC00214FF4545000F051
:1045C0006BFC55214FF4685000F066FC4FF48850A6
:1045D00000F04CFC782002F069FF4FF4245000F00A
:1045E00045FCBDE07F48808841F663118842F8D1E0
:1045F000E22000F03BFC1D2000F02CFC022000F02B
:1046000029FC042000F026FC642002F04FFFE0208B
:1046100000F02CFC012000F01DFC0A2002F02CFF11
:10462000E02000F023FC032000F014FC0C2002F03A
:1046300023FF012000F01AFC0A2002F01DFFE620F3
:1046400000F014FC2F2000F005FCFF2000F002FC1D
:10465000FF2000F0FFFBB02000F008FC202000F05D
:10466000F9FB002000F0F6FB032000F0F3FB40F222
:104670001F3000F0EFFB012000F0ECFB40F2DF10F8
:1046800000F0E8FB002000F0E5FBB42000F0EEFBBA
:10469000042000F0DFFB40F21F4000F0DBFB0020B5
:1046A00000F0D8FB2E2000F0D5FB002000F0D2FB5C
:1046B000002000F0CFFB002000F0CCFB002000F039
:1046C000C9FBB62000F0D2FB022000F0C3FB4FF480
:1046D000037000F0BFFB002000F0BCFB172000F0CF
:1046E000B9FB152000F0B6FB002000F0B3FB002062
:1046F00000F0B0FBF02000F0B9FB032000F0AAFBB3
:10470000292000F0B3FBD02000F0B0FB002000F027
:10471000A1FBBE2000F0AAFB052000F09BFBFE20C1
:1047200000F098FB012000F095FB002000F092FBC8
:10473000002000F08FFB002000F08CFBB82000F080
:1047400095FB032000F086FB012000F083FBBA20DC
:1047500000F08CFB012000F07DFB642000F060F88D
:104760002048808849F24131884211D01D48808814
:1047700045F2103188420BD01A48808845F210511A
:10478000884205D01748808841F6631188421BD1C2
:104790001548006820F00F001449C1F804010846CC
:1047A000D0F8040120F47060C1F804010846D0F884
:1047B000040140F00400C1F804010846D0F80401E7
:1047C00040F48060C1F804010020FDF7F9FA0122ED
:1047D00020210748FCF7A5FB4FF6FF70FDF7CCFA48
:1047E0001CBD00003401002404410052004000526E
:1047F0000004025810B50246012000E050430B1E91
:10480000A1F10104E1B2F9D110BD000008B50348DF
:1048100000880090BDF8000008BD0000000008609E
:1048200000B50246BE2000F021FB052000F012FB7F
:1048300000EE102AB8EE400B9FED0B1B20EE010B93
:10484000BCEEC00B10EE101A88B200F003FB012082
:1048500000F000FBFF2000F0FDFA002000F0FAFA63
:10486000002000F0F7FA00BD6666666666660440E2
:10487000F0B505460024002799488079012805D124
:104880009748808841F66311884208D1944880791E
:10489000F0B99348808841F66311884218D1082DF9
:1048A00015D2DFE805F00406080A0C0E10120625E2
:1048B0000DE007250BE0042509E0052507E00125AB
:1048C00005E0002503E0032501E0022500BF00BF4D
:1048D0008348808849F24131884211D080488088DD
:1048E00045F2103188420BD07D48808845F2105146
:1048F000884205D07A48808841F6631188427DD18C
:10490000082D1CD2DFE805F00406090C0F1215185B
:1049100000BF14E044F0800411E044F040040EE0D5
:1049200044F0C0040BE044F0200408E044F06004CC
:1049300005E044F0A00402E044F0E00400BF00BF42
:104940006748808845F21051884202D14FF4585789
:1049500000E036276248808845F2103188420DD049
:104960005F48808845F21051884207D05C488088B3
:1049700041F66311884201D044F0080421463846CC
:1049800000F08AFA5648808841F6631188421DD0AB
:1049900004F0200068B15248008851494988884293
:1049A00014DA4F48068840884D49088008464680FA
:1049B0000CE04B4800884A494988884206DD48484F
:1049C00006884088464908800846468044488088D2
:1049D00045F21051884254D14149488900F046FAC5
:1049E000002000F037FA3E494989491C88B200F09E
:1049F0003DFA002000F02EFA394900E06FE04989C5
:104A0000891C88B200F032FA35490988491EC1F381
:104A10000F2000F01FFA32494989C91C88B200F002
:104A200025FA2F490978491EC8B200F013FA2C491B
:104A3000888900F01BFA002000F00CFA28498989C7
:104A4000491C88B200F012FA002000F003FA244951
:104A50008989891C88B200F009FA21494988491ED0
:104A6000C1F30F2000F0F6F91D498989C91C88B2ED
:104A700000F0FCF91A498978491EC8B200F0EAF939
:104A80002DE01749488900F0F1F9002000F0E2F923
:104A9000002000F0DFF912490988491EC1F30F20F8
:104AA00000F0D8F90E490978491EC8B200F0D2F9D1
:104AB0000B49888900F0DAF9002000F0CBF90020DA
:104AC00000F0C8F906494988491EC1F30F2000F0DB
:104AD000C1F903498978491EC8B200F0BBF9F0BD9D
:104AE0003401002410B502460C464B48808849F238
:104AF0004131884205D04848808845F210318842CB
:104B000014D14549488900F0B1F9101200F0A2F91A
:104B1000D0B200F09FF94049888900F0A7F920122F
:104B200000F098F9E0B200F095F973E03A48808817
:104B300041F66311884247D137488079A8B9364891
:104B40000088401E801A82B23349488900F08EF9ED
:104B5000002000F07FF9002000F07CF9101200F036
:104B600079F9D0B200F076F916E02B49488900F0C7
:104B70007DF9101200F06EF9D0B200F06BF9264901
:104B80000988491EC1F30F2000F064F92249097811
:104B9000491EC8B200F05EF91F49888900F066F925
:104BA000201200F057F9E0B200F054F91A49498890
:104BB000491EC1F30F2000F04DF917498978491EAD
:104BC000C8B200F047F925E01348808845F210513B
:104BD00088421FD11049488900F048F9101200F0AE
:104BE00039F90D494989491C88B200F03FF9D0B222
:104BF00000F030F90849888900F038F9201200F0F7
:104C000029F905498989491C88B200F02FF9E0B2D9
:104C100000F020F910BD0000340100242DE9F84F08
:104C200080460F4616461C46BB462046E31704EB5B
:104C30005373DB1021464FEAE47C04EB5C7C4FEAC3
:104C4000EC0CA4EBCC0CBCF1000F02D04FF0010C2B
:104C500001E04FF0000C6344224604EBD27C4FEAA3
:104C60006C0C03FB0CF3DBB20093A6F12000C6B280
:104C700000255EE00C2C07D106EB46002F4901EB26
:104C8000800010F805901BE0102C05D12C4800EB9B
:104C9000061010F8059013E0182C07D106EBC6009B
:104CA000284901EB800010F8059009E0202C05D17F
:104CB000254800EBC61010F8059001E0BDE8F88F1C
:104CC0004FF0000A2FE009F0800030B11F4839464C
:104CD00002684046FDF7F6F907E00A9828B91C4833
:104CE000394602684046FDF7EDF94FEA49604FEA60
:104CF0001069781C87B217484088B84200DCDDE7AD
:104D0000A7EB0B00A0420AD15F4608F101001FFA91
:104D100080F810480088404500DCCFE706E00AF143
:104D2000010000F0FF0ABAF1080FCCDB00BF681CDD
:104D3000C5B2009885429DDB00BFBFE7F679000849
:104D40006A7E00085A840008B69100080C0000240E
:104D500010000024340100242DE9FF4F81B00746E4
:104D600091461E460E9D4FF0000A002439E0301B8C
:104D7000401EC1B20A20FFF73DFDB9FBF0F00A2149
:104D8000B0FBF1F201FB1208BAF1000F16D1701E50
:104D9000A04213DDB8F1000F0ED10020AB4605EBA9
:104DA000DB71491001FB0471009088B22B46202270
:104DB0000299FFF733FF12E04FF0010A0020AB46E3
:104DC00005EBDB71491001FB0471009088B208F11A
:104DD0003001CAB22B460299FFF720FF00BF601CCA
:104DE000C4B2B442C3DB05B0BDE8F08F2DE9F84F83
:104DF00004460D4690469946DDE90A6704F0FF0A2D
:104E000008EB04001FFA80F809EB05001FFA80F98F
:104E100016E0444502DB5446A81985B24D4500DB37
:104E200014E0002000903A78334629462046FFF7E8
:104E3000F5FE304606EBD07104EB61018CB27F1CAD
:104E400038787E2802DC38782028E2DA00BFBDE816
:104E5000F88F000001B5BDF800000090BDF800001B
:104E60000149088008BD00000000086001B5BDF8D8
:104E700000000090BDF800000149088008BD000056
:104E8000FEFF076002480089024908807047000061
:104E900034010024FEFF0760024A1080921C11803A
:104EA00070470000FEFF07601CB50D48006840F029
:104EB00002000B49086001200090002302460321F4
:104EC00001900848FCF734F8012202210548FCF75C
:104ED00028F8012211460348FCF723F81CBD000006
:104EE000E04402580004025818B5044606480094ED
:104EF000008B401E83B20448C08A401E82B200214B
:104F0000084600F0B5F818BD4401002470B503460A
:104F10000C4600210020364D2D6825F08055344E7A
:104F2000356001E04D1CA9B2314D2D6805F00055EA
:104F30001DB141F6FF75A942F4DB41F6FF75A942A8
:104F400001D1012052E02A4D28352D6825F07C75CD
:104F5000274E2836356035462D6845EA04553560BC
:104F6000234D40352D686FF30805214E40363560DE
:104F700035462D685E1E35431D4E4036356035463C
:104F80002D6825F0FE45356035462E68551E46EAEB
:104F90000565174E40363560154D2C352D6825F4C6
:104FA0007065134E2C36356035462D6835603546B4
:104FB0002D68356035462D6845F0807535600C4D9F
:104FC0002D6845F080550A4E356001E04D1CA9B2B0
:104FD000074D2D6805F000551DB941F6FF75A94232
:104FE000F4DB41F6FF75A94200D1022070BD00003C
:104FF000004402580949487530B98988074AD18266
:1050000011460988118308E0012806D1034909885F
:10501000024AD182114689881183704744010024D5
:1050200070B5114B5B7D6BB10F4BDB690E4D2D687D
:1050300005FB01056B430C4D2D7D0C4E56F825509C
:10504000EA520FE0084B1D685B681B1A5B1E05FBEC
:105050000313054DED696B43034D2D7D034E56F84B
:105060002550EA5270BD00004401002414000024C1
:105070002DE9F04F04460D4616464FF0000CDFF8C0
:10508000289199F81590B9F1000F04D020462946CF
:1050900032461F4611E02846DFF80C91D9F80490FB
:1050A000A9EB0609A9F101011A46DFF8FC90D9F82D
:1050B0000490A9EB0409A9F10107DFF8EC90B9F815
:1050C0000090A2EB000A0AF1010AA9EB0A091FFAF3
:1050D00089F8DFF8D49099F81490DFF8D0A05AF846
:1050E0002990DFF8C4A0DAF81CA0DFF8BCB0DBF828
:1050F00000B00BFB010B0AFB0B9EDFF8B490D9F854
:10510000009049F01009DFF8A8A0CAF80090DFF875
:10511000A490D9F8009029F00109DFF898A0CAF806
:1051200000904FF44039CAF800904FF00209CAF8D5
:105130003490D146C9F84080C9F83CE0A7EB01099A
:1051400009F10109A2EB000A0AF1010A49EA0A4938
:10515000DFF860A0CAF84490DDF82490CAF83890CF
:10516000D146D9F8009049F00109CAF8009005E04D
:105170000CF1010CBCF5001F00D308E0DFF83490FF
:10518000D9F8049009F00209B9F1000FF0D000BF7E
:10519000DFF82090D9F8089049F00209DFF814A050
:1051A000CAF80890BDE8F08F4401002414000024E0
:1051B000D4440258001000527FB50024002500F0AE
:1051C000D9FA054605B97FBD00F096FEE3480068B0
:1051D00040F00800E1490860081F006840F0020044
:1051E000091F08600846006840F4F070086001205C
:1051F00000900023024620210190D948FBF798FE39
:105200000120032100230222CDE900108102D548AC
:10521000FBF78EFE0120032100230222CDE90010BE
:105220004FF40C61D048FBF783FE012003210023DB
:105230000222CDE900104FF47E41CC48FBF778FE06
:105240000120032100230222CDE9001040F2F76182
:10525000C748FBF76DFE0E220A21C248FBF739FE54
:105260000E220621C048FBF734FE0E220721BE485D
:10527000FBF72FFE0E220B21BB48FBF72AFE0E2266
:105280000921BA48FBF725FE0E220A21B748FBF791
:1052900020FE0E220B21B548FBF71BFE0E220C212F
:1052A000B248FBF716FE0E220D21B048FBF711FEA7
:1052B0000E221146AD48FBF70CFE0E220F21AB4823
:1052C000FBF707FE0E220021A948FBF702FE0E2283
:1052D0000121A748FBF7FDFD0E220221A448FBF7A0
:1052E000F8FD0E220421A248FBF7F3FD0E22052152
:1052F0009F48FBF7EEFD0E2206219D48FBF7E9FDD6
:105300000E2207219A48FBF7E4FD0E220921984856
:10531000FBF7DFFD0E220A219548FBF7DAFD44F288
:105320004230854218D14FF4F070924908604FF432
:1053300088704860012008814881282088810820E1
:10534000C8810520088208204882212219214FF4B3
:105350009670FFF7DBFD6BE047F28400854218D1C1
:105360004FF44870834908604FF4F07048600120A2
:10537000088148812E2088811720C881D220088288
:1053800016204882092219214FF49670FFF7BEFDBE
:105390004EE047F21600854219D14FF480607549FE
:1053A00008604FF41670486014200881032048817B
:1053B0008C2088811420C881A02008820C2048827B
:1053C000062219214FF49670FFF7A0FD30E047F256
:1053D0001800854207D14FF4A060664908604FF479
:1053E0004870486024E048F21600854206D140111A
:1053F000604908604FF41670486019E041F21800E7
:10540000854215D14FF4A0605A4908604FF44870A6
:1054100048608C2088810A2008820881C8814882DF
:1054200003204881062219214FF49670FFF76EFD84
:10543000002441F21800854201D14FF0805400BF92
:1054400000BF00BF4C4884614A484089441E494817
:105450000089401E44EA004447488460454840892A
:105460004449C9890844441E424800894149898900
:105470000844401E44EA00443F48C4603D48408917
:105480003C49C98908443B4949680844441E394895
:105490000089384989890844364909880844401EEA
:1054A00044EA004434480461324840893149C9899A
:1054B00008443049496808442E49498A0844441E32
:1054C0002C4800892B49898908442A4909880844BD
:1054D0002849098A0844401E44EA00442648446199
:1054E00000202549C862012000F09EF92348244984
:1054F000086002201F49C861002007210622CDE96B
:105500000002CDE902101E48FF230222016800209C
:1055100000F03AF802211748808880B2CDE90001F6
:105520001448008883B200221146104600F090F81B
:1055300010480088134908800E4880884880002061
:1055400000F06CF9012220210548FBF7EAFC4FF03E
:10555000FF30FFF7C9FC00BF35E60000E444025805
:10556000000402580014025800180258001C025887
:10557000002002584401002400100050000000C028
:1055800014000024340100242DE9F04106ACF0CCD5
:1055900090B9DFF84CC0CCF8AC10CCF89420CCF823
:1055A000983047EA046CDFF83880C8F89CC046EAB7
:1055B000052CC8F8A0C011E0DFF824C0CCF82C11ED
:1055C000CCF81421CCF8183147EA046CDFF81080CD
:1055D000C8F81CC146EA052CC8F820C1BDE8F08116
:1055E00000100050012913D140B9184A126842F046
:1055F0000102164B843BC3F884201DE0134A80321D
:10560000126842F00102114B843BC3F8042113E0FD
:1056100091B940B90D4A126822F001020B4B843B4C
:10562000C3F8842008E0094A8032126822F001029F
:10563000064B843BC3F80421044A843A526A42F080
:105640000102024B843B5A627047000084100050F4
:105650002DE9F04782460F4690461E46DDE9089444
:10566000BAF1000F3ED1B8194049C968C1F30B41E6
:10567000084405043D48C068C0F30B403844401C52
:1056800028433A498831086008EB09003749C9685E
:10569000C1F30A01084405043448C068C0F30A0095
:1056A0004044401C28433149C1F88C000CB9042502
:1056B0000AE0012C01D1032506E0052C01D0062CBF
:1056C00001D1012500E0022506FB05F0C01D06FB07
:1056D00005F140EA01402549B03108602348C0F88F
:1056E000B4903CE0B8192149C968C1F30B410844A2
:1056F00005041E48C068C0F30B403844401C2843D2
:105700001B49086008EB09001849C968C1F30A0180
:10571000084405041548C068C0F30A004044401C12
:1057200028431249C1F80C010CB904250AE0012CE8
:1057300001D1032506E0052C01D0062C01D101255D
:1057400000E0022506FB05F0C01D06FB05F140EA5E
:1057500001400749283108600448C0F8349101210C
:105760005046FFF73FFFBDE8F087000000100050F3
:10577000081100501CB500242548006840F4A070B2
:1057800023490860012000210B460A46CDE900109C
:1057900040212048FBF7CCFB012000210B460A46A4
:1057A000CDE9001084211C48FBF7C2FB322001F038
:1057B00063FE40211748FBF7ACFB04460421164862
:1057C000FBF7A7FB44EA4000C4B280211248FBF774
:1057D000A0FB44EA8000C4B2062C16D2DFE804F035
:1057E0000306090C0F1244F242301CBD47F284003C
:1057F000FBE747F21600F8E747F21800F5E748F232
:105800001600F2E741F21800EFE70020EDE7000094
:10581000E044025800180258002002580149087557
:105820007047000044010024012806D10749896916
:1058300041F00101054A916106E028B903498969EF
:1058400021F00101014A91617047000000100050F1
:105850001CB54FF6FF70FCF78FFA1F20094908604E
:1058600009A01021CDE9001008490988183988B22B
:105870001023C8220021FFF7B9FA4FF478400149FC
:1058800008601CBD0C000024525354003401002455
:105890000146002002E04908421CD0B20129FAD199
:1058A000704700000748006820F480300549086010
:1058B00004487030006820F001000249703108602F
:1058C0007047000024ED00E0052005490860044809
:1058D0007038006840F480300149703908607047C2
:1058E00094ED00E00EB501200022CDE90020032355
:1058F000024641040290400700F046F801200022D1
:10590000CDE9002003230222C10402904FF0105081
:1059100000F03AF801200022CDE9002003231A46C6
:10592000C1040290180700F02FF801200022CDE9F1
:10593000002003230422010402904FF0605000F085
:1059400023F8002000900190032305224FF080618E
:105950000290580700F018F801200022CDE900203D
:105960000323062241060290500700F00DF80020A4
:1059700000900190032307224FF080510290C8004D
:1059800000F002F80EBD00002DE9F04F05460C4670
:1059900016461F46DDE90A9ADDF8248000239B465F
:1059A00004F01F0000B914B90120BDE8F08F2046B3
:1059B000FFF76EFF401E00F0FF0BFFF773FF0C4870
:1059C0000660001D056000BF43EA076300BF43EAAD
:1059D000884343EA494343EA0A4300BF43EA4B038F
:1059E00043F00103001D0360FFF76EFF0020DCE7BA
:1059F00098ED00E02DE9F0410746884614461D4623
:105A0000284600F033F8C5F1040007FA00F60F202D
:105A1000284100EA0800064306F00F06E21704EBEF
:105A2000D2625211920002F1E022D2F80021214606
:105A3000E31704EBD3635B11A4EB431C012303FACC
:105A40000CF31A432046E31704EBD3635B119B006E
:105A500003F1E023C3F800210348005D40EA06108B
:105A600001490855BDE8F08100E400E00146072344
:105A700023EA01021202054B18684FF6FF03184093
:105A8000034B18431043014B186070470CED00E0C6
:105A90000000FA054A0A52020243014B1A6070479D
:105AA00008ED00E010B5002201210A48FBF739FAA1
:105AB00009A0FAF77BFC4FF47A7001F0DDFC0CA032
:105AC000FAF774FC4FF47A7001F0D6FC00F0AEFBEC
:105AD00010BD0000000402584D656D2041636365F0
