:020000040800F2
:10000000B0730324090400080B650008DB31000805
:1000100009650008B10A000801730008000000002B
:100020000000000000000000000000004D03000878
:100030008D0C000800000000A1030008A969000859
:1000400023040008230400082304000823040008F4
:1000500023040008230400082304000823040008E4
:1000600023040008230400082304000823040008D4
:1000700023040008230400082304000823040008C4
:1000800023040008230400082304000823040008B4
:1000900023040008230400082304000823040008A4
:1000A0002304000823040008230400082304000894
:1000B00023040008456A00082304000823040008FC
:1000C0002304000823040008230400082304000874
:1000D0002304000889720008230400082304000890
:1000E0002304000823040008000000002304000883
:1000F0002304000823040008230400082304000844
:100100002304000823040008230400082304000833
:100110002304000823040008230400082304000823
:100120002304000823040008230400082304000813
:100130002304000823040008230400082304000803
:1001400000000000000000000000000000000000AF
:1001500023040008230400082304000823040008E3
:1001600023040008230400082304000823040008D3
:1001700023040008230400082304000800000000F2
:1001800023040008230400082304000823040008B3
:1001900023040008230400082304000823040008A3
:1001A0002304000823040008230400082304000893
:1001B0002304000823040008230400082304000883
:1001C0002304000823040008230400082304000873
:1001D0002304000823040008230400082304000863
:1001E0002304000823040008230400082304000853
:1001F0002304000823040008230400082304000843
:100200002304000823040008230400082304000832
:100210002304000823040008230400082304000822
:100220002304000823040008230400080000000041
:100230002304000823040008000000002304000831
:1002400023040008230400082304000823040008F2
:1002500023040008230400082304000823040008E2
:1002600023040008230400082304000823040008D2
:1002700023040008230400082304000800000000F1
:100280002304000800000000230400080000000010
:10029000000000002304000800F002F800F047F816
:1002A0000AA090E8000C82448344AAF10107DA45D1
:1002B00001D100F03CF8AFF2090EBAE80F0013F0DC
:1002C000010F18BFFB1A43F001031847CC9300003D
:1002D000EC930000103A24BF78C878C1FAD85207CE
:1002E00024BF30C830C144BF04680C6070470000B0
:1002F0000023002400250026103A28BF78C1FBD82F
:10030000520728BF30C148BF0B607047642900F016
:100310009181782900F0CA81732900F0548300206C
:1003200070471FB509F078F91FBD10B510BD00F07A
:100330008CFB1146FFF7F5FF07F066F800F0AAFB0B
:1003400003B4FFF7F2FF03BC06F0EBFF2B4B196879
:100350000868B0E8F04F80F30988BFF36F8F4FF063
:10036000000080F311887047000000000648006814
:10037000006880F3088862B661B6BFF34F8FBFF3A1
:100380006F8F00DF00BF00BF08ED00E0DFF80C005A
:10039000016841F470010160704700BF88ED00E022
:1003A000EFF30980BFF36F8F144B1A681EF0100F24
:1003B00008BF20ED108A20E9F04F106008B44FF01C
:1003C000500072B680F31188BFF34F8FBFF36F8F69
:1003D00062B608F09BFA4FF0000080F3118808BC69
:1003E00019680868B0E8F04F1EF0100F08BFB0ECB5
:1003F000108A80F30988BFF36F8F70476C00002468
:10040000EFF305807047000009488047094800471E
:10041000FEE7FEE7FEE7FEE7FEE7FEE7FEE7FEE7B4
:10042000FEE7FEE704480549054A064B7047000011
:10043000C169000899020008B0670324B07303245F
:10044000B0690324B069032453EA020C00F0698008
:100450002DE9F04B4FF00006002B1FBFB3FA83F5D8
:1004600003FA05F424FA05F65E4012BF1643B2FA09
:1004700082F502FA05F4C5F120051EBF22FA05FC3B
:1004800044EA0C04203556EA044C4FEA144418BFE1
:10049000641C4FF000084FF00009904271EB030C10
:1004A00039D3002919BFB1FA81F701FA07F6B0FA7A
:1004B00080F700FA07F6C7F120071EBF20FA07FCF5
:1004C00046EA0C062037B6FBF4FCA7EB0507103F05
:1004D00007F01F0BCBF120060CFA0BFB2CFA06F6EB
:1004E00044BFB3460026202FA4BF5E464FF0000B4A
:1004F0005BEA060C08BF4FF0010B19EB0B09ABFBD5
:10050000027C48EB0608C01B06FB02CC0BFB03CCAD
:1005100071EB0C01C1E70B46024641464846BDE877
:10052000F08B13B54FF000004FF00001AFF30080E7
:10053000BDE81C40704700000FB4044910B503AA81
:10054000029800F045FA10BC5DF814FB240000246A
:100550000FB41CB5074B06AA7B446946009005986A
:1005600000F007FA0020694600F016FA1CBC5DF89E
:1005700014FB00003D0400002DE9F0410E46044646
:10058000002020622046E168884730B3252805D046
:10059000D4E901219047206A401CF2E7E168204637
:1005A00000278847050018D0A5F14100192802D876
:1005B00020354FF400673246294620462760FFF772
:1005C000A5FE40B1012804D0F61D26F00706083626
:1005D000D8E7361DD6E72846DAE7206ABDE8F0817D
:1005E00070B50C460546012A05D02878800600D54E
:1005F000EA69002302E0012305E05B1C934202D27A
:10060000E05C0028F9D1A869E618C01AA861286A38
:10061000184428622846AFF3008004E0D5E90121A0
:1006200014F8010B9047B442F8D32846AFF300808A
:1006300070BD00002DE9F0410646002410687529C0
:10064000314616A510D0AFF30080002802DA4042F0
:1006500013A507E031688A0701D512A502E0490712
:1006600004D511A5012401E0AFF3008000210A2286
:1006700006F1240709E0B0FBF2FCB0FBF2F302FB49
:100680001C00303078541846491C0028F3D123460A
:100690002A463046BDE8F04100F00DB900000000E8
:1006A0002D0000002B0000002000000070B5044663
:1006B0000D4621461068AFF300802188090502D558
:1006C0000F4A7A4402E00E4A7A440E32002104F1C5
:1006D000240305E000F00F060009965D5E54491CF6
:1006E0000028F7D120780023000704D5702D02D010
:1006F00009B1022311322046BDE8704000F0DBB89A
:10070000AA8F0000032A40F2308010F0030C00F0A2
:10071000158011F8013BBCF1020F624498BF11F83B
:1007200001CB00F8013B38BF11F8013BA2F10402F4
:1007300098BF00F801CB38BF00F8013B11F003036C
:1007400000F02580083AC0F0088051F8043B083AD0
:1007500051F804CBA0E80810F5E7121D5CBF51F872
:10076000043B40F8043BAFF30080D20724BF11F8EC
:10077000013B11F801CB48BF11F8012B24BF00F851
:10078000013B00F801CB48BF00F8012B704710B5C2
:10079000203AC0F00B80B1E81850203AA0E8185079
:1007A000B1E81850A0E81850BFF4F5AF5FEA027C3A
:1007B00024BFB1E81850A0E8185044BF18C918C0A9
:1007C000BDE810405FEA827C24BF51F8043B40F84A
:1007D000043B08BF7047D20728BF31F8023B48BF2F
:1007E00011F8012B28BF20F8023B48BF00F8012B6D
:1007F000704702F0FF0343EA032242EA024200F09C
:1008000002B84FF000020429C0F0128010F0030C6F
:1008100000F0F280CCF1040CBCF1020F18BF00F81C
:10082000012BA8BF20F8022BA1EB0C0100F0E4B8CB
:100830005FEAC17C24BF00F8012B00F8012B48BF00
:1008400000F8012B704700004FF0013C50F8042BDA
:1008500051F8043B9A4215D1A2EB0C03934313EADF
:10086000CC130BD150F8042B51F8043B9A4209D118
:10087000A2EB0C03934313EACC13E7D04FF0000034
:10088000704700BFD01A01BAB1FA81F101F0180126
:1008900022FA01F0CB40C1F12001DBB2C0B2C01A94
:1008A0002CFA01F3D11A914311EAC311E6D1704732
:1008B0007047704770472DE9F0470D4699469246BC
:1008C000044600F124080168880604D5E06921F097
:1008D0001001216000E00120A84201DD471B00E07B
:1008E0000027A1697A1902EB0900081AA061207893
:1008F000C00602D42046AFF30080002608E0D4E909
:1009000001211AF806009047206A401C761C2062DC
:100910004E45F4DB2078C0060AD52046AFF30080B0
:1009200006E0D4E9012130209047206A401C206273
:10093000381EA7F10107F4DC07E0D4E9012118F81B
:1009400005009047206A401C2062281EA5F1010581
:10095000F3DC2046AFF300802078000602D50220A9
:10096000BDE8F0870120FBE701694A1C02610878B5
:10097000704700B58FB0CDE90131002105910549DF
:100980007944CDE9031011466846FFF7F5FD0FB035
:1009900000BD0000E5FFFFFF0A6802F8010B0A60D6
:1009A000704710B5436913B1AFF3008001E0FFF762
:1009B00017FE012010BD127800F124010A700022F8
:1009C0004A700122EDE711684FF0FF32E9E70000BD
:1009D000074B70B50D467B44FFF7CBFF0446284616
:1009E00000F02FF810B14FF0FF3070BD204670BD01
:1009F0001B6A00004FF0000200B51346944696466D
:100A0000203922BFA0E80C50A0E80C50B1F1200121
:100A1000BFF4F7AF090728BFA0E80C5048BF0CC0CF
:100A20005DF804EB890028BF40F8042B08BF70472D
:100A300048BF20F8022B11F0804F18BF00F8012B9F
:100A40007047007B00F080007047754600F02CF87E
:100A5000AE4605006946534620F00700854618B0AB
:100A600020B5FFF7DFFCBDE820404FF000064FF057
:100A700000074FF000084FF0000B21F00701AC46D3
:100A8000ACE8C009ACE8C009ACE8C009ACE8C009F2
:100A90008D46704710B50446AFF300802046BDE890
:100AA0001040FFF74DBC0000004870474C6703241E
:100AB000FEE70000F0B5BFF34F8FBFF36F8F1D4906
:100AC00000200860BFF34F8FBFF36F8F1A4C21686F
:100AD00041F400312160BFF34F8FBFF36F8F164990
:100AE00070310860BFF34F8F081F006843F6FF7531
:100AF000104E1036C0F34E31C0F3C90305EA41125F
:100B0000184642EA80773760401EFAD2491EF5D275
:100B1000BFF34F8F206840F480302060BFF34F8FC9
:100B2000BFF36F8F03484C30016841F0040101604E
:100B3000F0BD000050EF00E014ED00E070B5FF24C0
:100B400005460EA1FFF780FE78B10EA12846FFF7FB
:100B50007BFE60B10DA12846FFF776FE48B10DA1DE
:100B60002846FFF771FE30B106E0012404E00224BC
:100B700002E0032400E00424204670BD4C454431CB
:100B80004F4E00004C4544314F46460042454550CB
:100B90004F4E0000424545504F4646000348002254
:100BA00002604260C721312005F052BF400000249E
:100BB0004FF0FF39DFF898800026DFF898A0264D27
:100BC00000234A461946D8F80C0007F0A5FF012873
:100BD000F6D12C780020611C06F0FEFC1F4A20A1F3
:100BE0000746FFF7B5FC214638463E5505F07DFC2B
:100BF0003846FFF7A3FFFF2804461BD019A039464B
:100C0000FFF79AFC012C06D0022C06D0032C0AD048
:100C1000042C12D109E0002200E0012250460121FB
:100C200000F08FFA09E0002100E00121002005F02A
:100C3000ABFC02E00EA0FFF77FFC0848C8212E8025
:100C4000FFF7DFFD0020394606F0BAFCB8E70000E8
:100C5000000000240004025822000024EC000024BC
:100C600025730000C3FCC1EECEAA3A25730D0A001D
:100C7000CEDED0A7B5C4C3FCC1EEA3ACC7EBD6D8BB
:100C8000D0C2CAE4C8EB21210D0A00007047000061
:100C900070B5B3F5804F05D06FF0704140F8221069
:100CA000002070BD50F82230084C2340D1E90045A7
:100CB0008E8944EA05148D6889692D0245EA064546
:100CC0002C430C431C4340F82240E9E70000F0CFDE
:100CD000F0B50C6850F824501A4A1540D1E90123A8
:100CE000D1E903671A433E4332434E6932438E696A
:100CF0003243CE6932430E6A32434E6A32438E6AC1
:100D00003243CE6A32430E6B32438E6B32434E6BAC
:100D100032432A43082B01D142F0400240F82420FC
:100D20000A6BB2F5801F05D10A684AB1026842F425
:100D3000801202600A681AB10268496B0A430260B5
:100D40000020F0BD8004C0FF00EB8202F0B55368C4
:100D50008E8903F04044D1E9003543EA05138D68DC
:100D60002D0245EA06450E8A2B430D4D05EB06562E
:100D700033430E7D6F0107EB066633438E693343C1
:100D8000234353600268D20207D54268098A22F4DD
:100D9000700205EB0151114341600020F0BD0000DD
:100DA0000000F0FF30B5D1E901230D681A43D1E905
:100DB000033423431A434B691A438B691A43D1E91D
:100DC0000734496A012D056807D01A4322430A43B4
:100DD0006FF30E052A4302600AE025F4F845234329
:100DE00029430B43416803606FF30E010A434260DD
:100DF000002030BD426942EA410141610020704754
:100E000018B5D1E900236FF01F041A438B68C96835
:100E100004EB431343EA41210A430092026100209C
:100E200018BD0000F0B5D1E900346FF00F055B1E6E
:100E30002E0105EB041423438C682F034FEA054C65
:100E40000D8A06EB04248E8A2343CC68097E4FF07A
:100E50007F4E012A07EB05450CEB06560EEB0161B0
:100E60000CD082683F1107EB043423432B433343F8
:100E70000B4302F07042134383600FE08768084A17
:100E800017402203C468A2F5805232433A4382607D
:100E90002B430B4304F070442343C3600020F0BD98
:100EA000FF0F0FFF10B528B190F83510022903D0BD
:100EB00080214165012010BD1D4A4FF495630168F2
:100EC0008C189C4207D8042280F83520086820F04E
:100ED0000100086029E00C6824F00E040C60016831
:100EE0000A440A6822F001020A60016E0A6822F4CC
:100EF00080720A6090F85C30012202FA03F10D4B17
:100F00001960D0E919134B60C16E31B10B6823F43D
:100F100080730B60D0E91C134B60002180F8341003
:100F200080F83520016D01B18847002010BD000018
:100F3000F0FFFDBF045402580248016841F001016E
:100F400001607047200400582DE9F84F6C4C0022D6
:100F50004FF0B04A4FF0010B4FF0030E4FF00F0966
:100F60000B680BFA02F73B40BB4270D14D68022D73
:100F700001D0122D12D1D50800EB850CDCF82060D1
:100F80005507ED0E09FA05F826EA0806D1F8108093
:100F900008FA05F848EA0608CCF82080D0F8008066
:100FA000560091F804C00EFA06F50CF0030C28EA7E
:100FB00005080CFA06FC4CEA080CC0F800C0D1F891
:100FC00004C0BCF1010F08D0BCF1020F05D0BCF188
:100FD000110F02D0BCF1120F16D1D0F808C0D1F811
:100FE0000C802CEA050C08FA06F848EA0C08C0F850
:100FF0000880D0F804C02CEA070C0F79C7F300175B
:10100000974047EA0C074760C768AF438D68B54013
:101010003D43C5604D68ED006BD53A4D2E6846F0F6
:1010200002062E602D6822F0030606F1B04605F098
:1010300002050095D6F808C495072F0F09FA07F5A1
:101040002CEA050C304DA84202D100252EE050E0DC
:101050002E4DA84201D1012528E02D4DA84201D1F5
:10106000022523E02B4DA84201D103251EE02A4D85
:10107000A84201D1042519E0284DA84201D1052537
:1010800014E0274DA84201D106250FE0254DA842C6
:1010900001D107250AE0244DA84201D1082505E029
:1010A000224DA84201D1092500E00A25BD4045EAAC
:1010B0000C05C6F8085425684E689D43F60300D514
:1010C0001D43256065684E689D43B60300D51D43EA
:1010D0006560DAF8005056464F689D43FF0200D520
:1010E0001D43356075684F689D43BF0200D51D43A1
:1010F0007560521C102AFFF433AFBDE8F88F000072
:1011000080000058F44402580000025800040258BD
:1011100000080258000C025800100258001402582F
:1011200000180258001C02580020025800240258DF
:101130000069084000D00120704742694A4042617E
:1011400070470AB101837047418370470148806846
:10115000704700002800002402488168027811448A
:101160008160704728000024032010B500F0F6F9D4
:101170000F2000F007F808B1012010BD00F0C0F901
:10118000002010BD70B50D4D04464FF47A712878DB
:10119000B1FBF0F00A490968B1FBF0F001F02CFD59
:1011A00048B9102C07D200222146501E00F0B6F993
:1011B00000206C6070BD012070BD0000280000247C
:1011C000100000242DE9F041044690F8A0001546D7
:1011D0000F4601281DD0012684F8A060022084F863
:1011E000A10005EB850000EBC500342204EB800074
:1011F0003830FFF7CCFA2A463946204605F0C4F8C5
:101200002068466284F8A160002084F8A000BDE850
:10121000F0810220FBE7000070B5040004D094F8D0
:10122000A100002510B106E0012070BD204684F821
:10123000A05000F06BF8022084F8A10020688169BA
:1012400021F070418161D4E901100143D4E9030226
:1012500010430143206882691143816120688268DC
:1012600029490A408260A08A020420688368A6692E
:101270003343134383602068C2680A40C260A08B76
:1012800002042068C368266A33431343C36020689E
:1012900002690A400261A08C020420680369A66A00
:1012A000334313430361206842690A404261A08DC1
:1012B000010420684269236B1A430A43426194F88F
:1012C0003500020294F8360001042068C36A03F076
:1012D0007F43C3622068C36A114394F83460334388
:1012E0000B43C3622068416B41F0060141632068F3
:1012F000816941F001018161C4F8A450012084F8A2
:10130000A100002070BD000000F800F0374810B5C3
:1013100086B0016841F008010160006800F0080033
:10132000059032481038016841F0100101600068F2
:1013300000F0100005902D48001F016841F00201E7
:101340000160016801F002010591016841F020018E
:101350000160016801F020010591016841F0400140
:101360000160016801F040010591016841F08001D0
:101370000160016801F080010591016841F480710C
:10138000016000680324694600F480700590202005
:10139000009001200190CDE902041548FFF7D4FD2B
:1013A0004FF4806000900220019000206946CDE952
:1013B00002040E2004900F48FFF7C6FD4FF40C60A6
:1013C00000900D486946FFF7BFFD4FF47E40009046
:1013D0000A486946FFF7B8FD40F2F76000900848F8
:1013E0006946FFF7B1FD06B010BD0000E4440258A5
:1013F000000402580014025800180258001C025839
:101400000020025870B5044690F8A0000E4601284E
:1014100020D0012584F8A050022084F8A10003EB1D
:10142000830000EBC30004EB80018E63086E304440
:10143000C1E90F02486E1044486438311A4620460C
:1014400004F0A2FF2068456284F8A150002084F8CF
:10145000A00070BD022070BD70B5044690F8A000D9
:101460000E46012820D0012584F8A050022084F8DF
:10147000A10003EB830000EBC30004EB8001886B49
:101480003044C863086C10444864C1E918623831BC
:101490001A46204604F078FF2068456284F8A1507F
:1014A000002084F8A00070BD022070BD134A41786E
:1014B0001160111D03780A1DE3B143680B60017BC5
:1014C000C37A090741EA0361837A41EAC341437B56
:1014D00041EA8341837B41EA4341C37B41EA0341C3
:1014E000437A41EA0321037A007841EA4301014348
:1014F00011607047002008601060704798ED00E0B0
:101500007047002809DB012100F01F0291404009CB
:10151000800000F1E020C0F8001170470E4BF0B4DD
:101520001B68C3F30223C3F10704042C00D904246D
:101530001D1D072D01D2002300E0DB1E012606FA47
:1015400004F56D1E0D409D409E40761E164045EAF6
:101550000601F0BC05F0D5BE0CED00E0064A00F037
:10156000070110684FF6FF03184040EA01200349C5
:1015700008431060704700000CED00E00000FA0521
:1015800010B500F021FF084909684FF4807292FA03
:10159000A2F201F47061B2FA82F2D140034A515CC6
:1015A000C8400349086010BD18440258229600083C
:1015B0001000002410B500F0C1FE07490968102290
:1015C00092FAA2F201F07001B2FA82F2D140034A1B
:1015D000515CC84010BD000020440258229600080B
:1015E000364930B50A68096812F00302344BC1F37A
:1015F00005311B68334C03F010032468DFED320A19
:10160000B7EE001AC4F3CC0414FB03F300EE103A57
:101610002E4BB8EE400A07D02D4C012A01D0022AE9
:101620004AD0B4FBF1F10BE0244C283C226895062B
:10163000284A03D52468C4F3C104E240B2FBF1F1A7
:1016400001EE901A1968B8EE612AC1F3080101EEA3
:10165000901A1968F8EE611A40EE201A31EE810AEC
:1016600022EE000AC1F34621491C00EE901AF8EE62
:10167000600A80EE201AFCEEC10AC0ED000A19686B
:10168000C1F30641491C00EE901AF8EE600A80EEA4
:10169000201AFCEEC10AC0ED010A1968C1F3066107
:1016A000491C00EE901AF8EE600A80EE201ABCEE9B
:1016B000C10A80ED020A30BD074ABFE7284402583C
:1016C0002C4402583C440258000000393844025867
:1016D00000093D000090D00340787D01364930B5C7
:1016E0000A68096812F00302344BC1F305511B6804
:1016F000334C03F480732468DFED320AB7EE001A2E
:10170000C4F3CC0414FB03F300EE103A2E4BB8EEF6
:10171000400A07D02D4C012A01D0022A4AD0B4FB3E
:10172000F1F10BE0244C283C22689506284A03D5A9
:101730002468C4F3C104E240B2FBF1F101EE901A57
:101740001968B8EE612AC1F3080101EE901A196810
:10175000F8EE611A40EE201A31EE810A22EE000AFC
:10176000C1F34621491C00EE901AF8EE600A80EEA3
:10177000201AFCEEC10AC0ED000A1968C1F3064147
:10178000491C00EE901AF8EE600A80EE201AFCEE7A
:10179000C10AC0ED010A1968C1F30661491C00EED7
:1017A000901AF8EE600A80EE201ABCEEC10A80EDB5
:1017B000020A30BD074ABFE7284402582C440258A9
:1017C00044440258000000394044025800093D00DA
:1017D0000090D00340787D012DE9F84F0446006861
:1017E0000025FC4FDFF8F0832E46010104F12400B0
:1017F000009023D5606E50B1B0F5801F0CD0B0F5CD
:10180000001F11D0B0F5401F23D0012515E0386826
:1018100040F4003038601CE0386840F40010386054
:10182000201D04F035FF06E0386840F08070386015
:10183000009804F091FF05000BD02E462088C005CB
:1018400029D5606D052824D2DFE800F00C1119219C
:101850002100D8F80010626E21F440111143C8F83D
:101860000010EBE7386840F4003038600FE038686B
:1018700040F400203860201D04F00AFF06E03868BC
:1018800040F480003860009804F066FF05466DB1B2
:1018900000E001252E43208880052ED5A06D8028EC
:1018A00021D00CDC90B140280ED114E0D8F8001003
:1018B000626D21F007011143C8F80010EBE7C02862
:1018C00019D0B0F5807F16D0012515E0386840F4B6
:1018D000003038600FE0386840F400203860201D88
:1018E00004F0D6FE06E0386840F4800038600098C6
:1018F00004F032FF054685B12E432088DFF8DC92E4
:10190000400532D5D4F8A400B0F5800F23D00DDC0B
:10191000A0B1B0F5001F0FD115E0D8F80010A26DEE
:1019200021F4E0711143C8F80010E6E7B0F5C00FEC
:1019300019D0B0F5000F16D0012515E0386840F435
:10194000003038600FE0386840F400203860201D17
:1019500004F09EFE06E0386840F48000386000988D
:1019600004F0FAFE054675B12E432088000533D5F4
:10197000D4F8A800B0F1007F24D00EDCA8B1B0F1FB
:10198000807F10D116E0D9F80010D4F8A42021F4FB
:1019900060011143C9F80010E7E7B0F1407F19D0AA
:1019A000B0F1806F16D0012515E0386840F40030A2
:1019B00038600FE0386840F400203860201D04F0E3
:1019C00067FE06E0386840F480003860009804F054
:1019D000C3FE05466DB12E432068800122D5A06C60
:1019E000F0B110280FD0202812D0302818D00125AF
:1019F00017E0D9F80010D4F8A82021F0E0611143D5
:101A0000C9F80010E8E7386840F40030386007E0B3
:101A1000386840F400103860201D04F039FE054697
:101A20006DB12E432088C00431D5E06DB0F5005F64
:101A300023D00DDCA0B1B0F5805F0FD115E0664872
:101A4000001F0168A26C21F0300111430160E9E739
:101A5000B0F5405F19D0B0F5804F16D0012515E0E4
:101A6000386840F4003038600FE0386840F40020F7
:101A70003860201D04F00CFE06E0386840F4800059
:101A80003860009804F068FE054685B12E43208832
:101A900080042FD5206EB0F5403F29D010DC38B33C
:101AA000B0F5803F14D0B0F5003F0FD118E0D8F862
:101AB0000010E26D21F4E0411143C8F80010E6E7A0
:101AC000B0F5802F14D0B0F5A02F11D0012510E073
:101AD000386840F480103860201D04F0D9FD06E01D
:101AE000386840F400003860009804F035FE054680
:101AF0008DB12E432088400430D5D4F8AC00B0F12D
:101B0000405F29D010DC38B3B0F1805F14D0B0F161
:101B1000005F0FD118E0D8F80010226E21F4E02108
:101B20001143C8F80010E5E7B0F1804F14D0B0F1D0
:101B3000A04F11D0012510E0386840F480103860C3
:101B4000201D04F0A5FD06E0386840F40000386070
:101B5000009804F001FE05466DB12E432088000474
:101B600022D5E06EF0B1B0F1805F0ED0B0F1005F31
:101B700010D0012517E0D9F80010D4F8AC2021F0DE
:101B8000E0411143C9F80010E8E7386840F400303C
:101B9000386007E0386840F480103860201D04F099
:101BA00077FD05466DB12E432068C00127D5606CD6
:101BB00018B3012814D0022817D003281DD00125FE
:101BC0001CE0D8F80010E26E21F040511143C8F833
:101BD0000010E9E72C440258504402585844025877
:101BE000386840F40030386007E0386840F400108E
:101BF0003860201D04F04CFD054675B12E43206869
:101C0000DFF8E8B340024FD5F948016841F480712C
:101C10000160FFF79BFA82460EE0F4483C30016811
:101C2000626C21F0030111430160E8E7FFF78EFACF
:101C3000A0EB0A0064282ED8ED480068C005F5D551
:101C400055BBEA4860300068B4F8B01000F440704A
:101C500001F4407188420DD0E448603001680268A8
:101C600021F4407142F480320260026822F4803232
:101C700002600160D4F8B000B0F5807F23D1FFF797
:101C800065FA824609E0FFF761FAA0EB0A0141F22A
:101C90008830814201D9032505E0D44860300068CE
:101CA0008007F0D57DB12E432078DFF848A3C00728
:101CB00043D0A06F18283ED026DC98B3082829D03E
:101CC000102825D12FE0D4F8B000C0F3012103295A
:101CD0000FD0DBF8001021F47C51CBF80010C54880
:101CE0001C300168B4F8B020C2F30B02114301604C
:101CF000DAE7DBF80020C04B22F47C5203EA101034
:101D00000243CBF80020EAE7202814D0282812D07C
:101D1000012511E0386840F480103860201D04F07F
:101D2000B7FC07E007E0386840F40000386000982E
:101D300004F012FD05465DB12E432078800724D5BE
:101D4000606F06281FD2DFE800F01C0C141C1C1C5E
:101D5000DAF80010A26F21F038011143CAF8001020
:101D6000EBE7386840F480103860201D04F090FCE8
:101D700006E0386840F400003860009804F0ECFC9D
:101D8000054675B100E001252E432078400725D592
:101D9000D4F8900006281FD2DFE800F01C0C141CB9
:101DA0001C1CDAF80010626F21F007011143CAF819
:101DB0000010EAE7386840F480103860201D04F015
:101DC00067FC06E0386840F400003860009804F0D2
:101DD000C3FC05469DB100E001252E432078800616
:101DE00031D5D4F88C00B0F1405F2AD011DC40B37B
:101DF000B0F1805F15D0B0F1005F10D119E0D9F8D3
:101E00000010D4F8902021F007011143C9F8001008
:101E1000E4E7B0F1804F14D0B0F1A04F11D001250C
:101E200010E0386840F400203860201D04F030FCD9
:101E300006E0386840F080703860009804F08CFC50
:101E400005468DB12E432078400631D5D4F8980050
:101E5000B0F5406F2AD011DC40B3B0F5806F15D0DB
:101E6000B0F5006F10D119E0DAF80010D4F88C202A
:101E700021F0E0411143CAF80010E4E7B0F5805FBB
:101E800014D0B0F5A05F11D0012510E0386840F4FF
:101E900000203860201D04F0FBFB06E0386840F0AD
:101EA00080703860009804F057FC05468DB12E43D1
:101EB0002078000631D5D4F89C00B0F5C04F2AD068
:101EC00011DC40B3B0F5005F15D0B0F5804F10D1F4
:101ED00019E0D9F80010D4F8982021F4E05111430A
:101EE000C9F80010E4E7B0F5004F14D0B0F5204F6A
:101EF00011D0012510E0386840F400203860201D22
:101F000004F0C6FB06E0386840F080703860009846
:101F100004F022FC054665B32E43207800070BD55C
:101F2000D4F88000B0F5805F2DD0DAF8002022F4DC
:101F300040520243CAF800202078C0060BD5D4F8DE
:101F40009400B0F5807F26D0D9F8002022F44072AA
:101F50000243C9F800202068000336D5D4F8A00059
:101F600008B3B0F5803F26D0B0F5003F2BD0012557
:101F70002AE0D9F80010D4F89C2021F460411143E4
:101F8000C9F80010C9E7009804F0E6FB386840F093
:101F900080703860D0E7009804F0DEFB386840F0CD
:101FA00080703860D7E7386840F400203860201D22
:101FB00004F06EFB06E0386840F0807038600098EE
:101FC00004F0CAFB0546CDB12E43206840032ED550
:101FD000D4F88400B0F5801F1AD0B0F5001F1CD0D3
:101FE000B0F5401F21D0012520E000001044025828
:101FF0000048025854440258CFFFFF00D9F800109F
:10200000D4F8A02021F440311143C9F80010DCE7D6
:10201000386840F40030386007E0386840F4000069
:102020003860009804F098FB054655B12E432068AF
:10203000C0031FD5E06C70B1B0F5803F10D0012512
:1020400017E0DAF80010D4F8842021F4401111438D
:10205000CAF80010EBE7386840F40030386007E059
:10206000386840F400103860201D04F011FB05466C
:10207000DDB12E432068800007D5386840F08070BD
:102080003860009804F068FB0643206880031AD586
:10209000E06FB0B1B0F5807F0FD0B0F5007F10D009
:1020A000B0F5407F0DD001250CE02D480168E26CB1
:1020B00021F4803111430160DCE7386840F40030DE
:1020C0003860EDB32E432068C00207D5D8F8001061
:1020D000226F21F000411143C8F800102068C000B1
:1020E00008D5DBF80010D4F8B42021F48041114366
:1020F000CBF800102068800207D5D8F80010A26E37
:1021000021F080711143C8F80010206840000CD500
:10211000DBF8001021F40041CBF80010DBF80010D0
:10212000D4F8B8201143CBF800102068002806DA54
:102130000B480168226D21F040511143016000E01D
:1021400003E05EB10120BDE8F88FDAF80010E26F1D
:1021500021F440711143CAF80010B4E70020F2E7FF
:102160004C4402582DE9F047DFF8BC9104460E4676
:10217000D9F8000000F00700B0420CD2D9F80010E6
:1021800021F007013143C9F80010D9F8000000F030
:102190000700B0427ED12078DFF89081800707D514
:1021A000D8F80010E26821F00F011143C8F80010C0
:1021B0002078C00762D0D8F80010A26821F47061BE
:1021C0001143C8F8001059496068183902281CD01A
:1021D00003281DD0096801281DD04907002960DAAD
:1021E000524F083F396821F0070101433960FEF77B
:1021F000ADFF0546606841F28831022813D00328FC
:102200001ED001288A4627D034E009688903E5E713
:1022100009688901E2E7C905E0E7FEF797FF411B7E
:10222000514501D923E08A463868C0F3C20002282C
:10223000F3D123E0FEF78AFF411B514501D916E097
:102240008A463868C0F3C2000328F3D116E0FEF7CF
:102250007DFF411B51450AD83868C0F3C2000128F0
:10226000F5D10BE0FEF772FF411B514502D9032067
:10227000BDE8F087386810F0380FF3D1D9F80010B6
:10228000484601F00701B1420DD9016821F007016C
:10229000314300E005E00160006800F00700B04253
:1022A00001D00120E4E72078400707D5D8F80010D6
:1022B000226921F070011143C8F80010207801074D
:1022C0001B4805D50168626921F070011143016066
:1022D0002178C90605D50168A26921F4E06111439E
:1022E00001602078800607D51149091D0868E26958
:1022F00020F070001043086000F066F8D8F8001075
:102300004FF4807292FAA2F201F47061B2FA82F292
:10231000D140084A515CC840074908600F20FEF7C9
:1023200031FF0020A4E700000020005218440258AA
:102330001C440258229600081000002410B5FFF734
:102340001FF908490968012292FAA2F201F00F016F
:10235000B2FA82F2D140044A515CC8400349086095
:1023600010BD0000184402582296000814000024F2
:1023700010B5FFF7E3FF07490968102292FAA2F2AD
:1023800001F07001B2FA82F2D140034A515CC840B8
:1023900010BD00001C4402582296000810B5FFF73B
:1023A000CDFF074909684FF4807292FAA2F201F456
:1023B000E061B2FA82F2D140024A515CC84010BDDD
:1023C0001C440258229600083548F0B50068364D86
:1023D00010F03801334809D00411082904D0334ED5
:1023E00010290BD018290BD02046F0BD296889068A
:1023F000FBD52968C1F3C101C840F0BD3046F0BD2E
:10240000274918310A68096812F00302284BC1F302
:1024100005111B68274F03F001033F68DFED260A13
:10242000B7EE001AC7F3CC0717FB03F300EE103A20
:10243000224BB8EE400A06D0012A01D0022A2BD046
:10244000B4FBF1F008E02A68920603D52A68C2F3CB
:10245000C102D040B0FBF1F001EE900A1868B8EE6E
:10246000612AC0F3080001EE900A1868F8EE611ABC
:1024700040EE201A31EE810A22EE000AC0F3462017
:10248000401C00EE900AF8EE600A80EE201ABCEEC6
:10249000C10A10EE100AF0BDB6FBF1F0DCE7000057
:1024A000104402580090D0030044025840787D0147
:1024B0002C44025834440258000000393044025879
:1024C0002DE9F05F04460078DFF8FC8341F288399B
:1024D000DFF8F8A3FE4DC0074ED0D8F800104046F4
:1024E000C1F3C20102291AD00068C0F3C200032858
:1024F00005D1DAF8000000F0030002280FD0606870
:10250000B0F5803F12D010B1B0F5A02F19D02868D7
:1025100020F480302860286820F4802009E02868B2
:10252000800329D56068002874D025E0286840F42D
:1025300080302860606890B1FEF708FE06464F467E
:1025400009E0286840F480202860EFE7FEF7FEFDF0
:10255000801BB8427DD828688003F7D50CE0FEF7D1
:10256000F5FD06464F4604E0FEF7F0FD801BB8423D
:10257000F0D828688003F7D42078D64F80075AD542
:10258000D8F8001040464FF47C3B11F0380F13D0C0
:102590000068C0F3C200032803D1DAF80000800706
:1025A0000AD0E068A8B3296821F019010143296025
:1025B000FEF7CCFD06461DE02868400702D5E0681E
:1025C0000028B1D02868E16820F01900084328608D
:1025D000FEF7BCFD064604E0FEF7B8FD801B0228AE
:1025E000B8D828684007F7D507E0FEF7AFFD801B95
:1025F0000228AFD828684007F7D538689BFAABF2B5
:1026000020F47C312069B2FA82F2904001433960B3
:1026100011E000E0AEE0286820F001002860FEF73D
:1026200095FD064604E0FEF791FD801B022891D837
:1026300028684007F7D42078C00655D5D8F8001090
:1026400040464FF0F84BC1F3C201012917D0006892
:1026500000E0EDE0C0F3C200032805D1DAF8000085
:1026600000F0030001280AD0E069002828682CD077
:1026700040F080002860FEF769FD064616E02868F5
:10268000C00502D5E069802874D138689BFAABF2A6
:1026900020F0F841206AB2FA82F29040014339609A
:1026A00022E0FEF753FD801B022899D82868C00558
:1026B000F7D538689BFAABF2216AB2FA82F220F0C1
:1026C000F8409140084338600EE020F08000286018
:1026D000FEF73CFD064604E0FEF738FD801B0228AD
:1026E00087D82868C005F7D42078000724D5774F0D
:1026F00060694C37002838680FD040F0010038601E
:10270000FEF724FD064604E0FEF720FD801B0228AC
:102710008DD838688007F7D50EE020F001003860CA
:10272000FEF714FD064604E0FEF710FD801B0228AC
:102730007ED838688007F7D42078800623D5A06932
:10274000002828680FD040F480502860FEF7FEFC77
:10275000064604E0FEF7FAFC801B022868D82868C9
:102760008004F7D50FE020F480502860FEF7EEFCDF
:10277000064605E0D6E0FEF7E9FC801B022857D8A4
:1027800028688004F7D42078400744D5524F386831
:1027900040F480703860FEF7D9FC064604E0FEF78E
:1027A000D5FC801B642843D83868C005F7D5474F4F
:1027B000A068483701280AD008B1052811D0386828
:1027C00020F001003860386820F0040002E038682A
:1027D00040F001003860A06888B1FEF7B7FC0646FB
:1027E00009E0386840F004003860F0E7FEF7AEFC1E
:1027F000811B49451CD838688007F7D50BE0FEF7E8
:10280000A5FC064604E0FEF7A1FC811B49450FD854
:1028100038688007F7D4606AF0B3D8F80010C1F3C5
:10282000C20103297ED00228286820F0807000E0D1
:1028300079E0286003D0FEF789FC044687E0FEF7C4
:1028400085FC064604E0FEF781FC801B02287BD84D
:1028500028688001F7D4DAF8001040F2F33291438F
:10286000E26A41EA0211A26A1143CAF8001094F820
:1028700034004FF4FE02218E4002491EA0F5007084
:1028800080B2C1F308010843218F491E02EA0141C9
:10289000084394F83C1000E05CE0491E120202EA92
:1028A000016108430949083108600B1D19684FF69A
:1028B000F872A06C914392FAA2F2B2FA82F29040BE
:1028C00001431960014809E01044025828440258A5
:1028D000004402580444025800480258001D016890
:1028E000226C21F00C01114301600168626C21F03F
:1028F000020111430160016841F480310160016807
:1029000041F400310160016841F4802101600168F7
:1029100041F001010160286840F080702860FEF7F6
:1029200015FC01E018E00FE0044604E0FEF70EFCA1
:10293000001B022808D828688001F7D50AE0FEF7B6
:1029400005FC001B022802D90320BDE8F09F28687F
:102950008001F4D40020F8E70120F6E770B5040008
:102960000D4603D094F82C0010B107E0012070BD93
:10297000002084F82D00204600F018F8022084F88A
:102980002C002068211DFEF70DFAD4E9000229462B
:10299000FEF748FA0448016841F000410160012057
:1029A00084F82C00002070BD004000523B4810B558
:1029B000B6B0016841F002010160006800F0020059
:1029C000349036482038016841F480510160006835
:1029D00000F48050349031481438016841F004010B
:1029E0000160016801F004013491016841F00801BF
:1029F0000160016801F008013491016841F01001A3
:102A00000160016801F010013491016841F020017A
:102A10000160016801F020013491016841F040013A
:102A200001600068022400F0400034904FF0807094
:102A3000009019201194019020020594029068469C
:102A4000FEF7CAFE0D20CDE92F04012031900320AE
:102A500032900C20339012482FA9FEF775FA4CF2F1
:102A600003702F900F482FA9FEF76EFA4FF6837070
:102A70002F900D482FA9FEF767FA4FF63F002F90D1
:102A80000A482FA9FEF760FA48F237102F9008483D
:102A90002FA9FEF759FA36B010BD0000F4440258D1
:102AA00000080258000C0258001002580014025886
:102AB0000018025810B5044690F82C00022809D0DE
:102AC000022084F82C002068FEF794F9012084F895
:102AD0002C00002010BD70B5044690F82C000D4667
:102AE00002280CD0022084F82C002068FEF788F918
:102AF0002868022804D0012084F82C00002070BD32
:102B00000520F9E770B5040015460E4603D094F889
:102B1000450010B107E0012070BD002084F844009A
:102B2000204600F021F8206804F10801FEF7D0F8F3
:102B3000A26831462068FEF707F9E36A2946D4E91E
:102B40000102FEF7A5F8A168206850F8212042F0A4
:102B5000010240F821200348016841F00041016072
:102B6000002070BD004000521A4800B587B00168CF
:102B700041F480510160006800F4805005901548D0
:102B80000C30016841F008010160016801F00801A2
:102B90000591016841F0100101600068694600F08C
:102BA000100005904EF2B3700090022001900120B9
:102BB0000290032003900C2004900748FEF7C4F90C
:102BC0004FF68070009005486946FEF7BDF907B0E2
:102BD00000BD0000D4440258000C025800100258F6
:102BE0004FF0E0210428086903D020F004000861B8
:102BF000704740F00400FAE7401EB0F1807F10B546
:102C000001D3012010BD4FF0E02460610F21601757
:102C100004F077FB0020A06107202061002010BD98
:102C20007047704710B5040003D094F83D0010B110
:102C300007E0012010BD002084F83C00204600F091
:102C40000DF8022084F83D002068211D03F016FFD6
:102C5000012084F83D00002010BD000008B5006888
:102C60000B49884212D10B48016841F00201016012
:102C700000680022012100F0020000901D20FEF7F4
:102C80004DFCBDE808401D20FEF73BBC08BD000020
:102C900000040040E84402580168CA6842F001029A
:102CA000CA600068018841F001010180002070477E
:102CB000704770B50446006801694FF00005C943CC
:102CC000890715D4C168C943890711D4E91E016178
:102CD00001202077206880698007204602D0FFF716
:102CE000E7FF04E000F0A5F8204600F0A3F8257700
:102CF00020680169C943490717D4C168C943490716
:102D000013D46FF0040101610220207720688069EC
:102D100010F4407F204602D0FFF7CAFF04E000F025
:102D200088F8204600F086F8257720680169C943B5
:102D3000090716D4C168C943090712D46FF0080106
:102D40000161042020772068C0698007204602D0F6
:102D5000FFF7AEFF04E000F06CF8204600F06AF8E0
:102D6000257720680169C943C90617D4C168C943DA
:102D7000C90613D46FF01001016108202077206884
:102D8000C06910F4407F204602D0FFF791FF04E0B5
:102D900000F04FF8204600F04DF8257720680169D3
:102DA000C943C90708D1C168C943C90704D1891EED
:102DB0000161204600F040F8206801696FF080054D
:102DC000C943090607D4C168C943090603D405618C
:102DD0002046FFF725FF20680169C943C90507D4CC
:102DE000C168C943090603D405612046FFF718FFEF
:102DF00020680169C943490609D4C168C943490625
:102E000005D46FF040010161204600F025F82068EC
:102E10000169C94389060BD4C168C943890607D42F
:102E20006FF0200101612046BDE87040FFF7F9BE58
:102E300070BD7047704700000549884207D10548BA
:102E400001684268491C016042F10002426070471B
:102E50008C0300244000002470477047704790F8AE
:102E6000791090F87A0008437047000070B5026846
:102E70000446D0691368916810F00F0F64D0594D63
:102E800003F490760D40354376D0C50707D0DD05B5
:102E900005D501251562E26F42F00102E267820763
:102EA00008D5CA0706D0256802222A62E26F42F0DE
:102EB0000402E267420708D5CA0706D02568042243
:102EC0002A62E26F42F00202E26702070ED503F0C7
:102ED000200201F080552A4352EAC17206D02568CB
:102EE00008222A62E26F42F00802E267E26F002ADB
:102EF0003AD0800608D503F0200001F08051084345
:102F000002D0204603F0C4FEE06F000703D420681F
:102F1000806840062AD5204603F0ACFE2068816810
:102F200049061ED5816821F040018160606FC0B103
:102F30002D490165606FFDF7B5FF002814D0606F63
:102F4000016DBDE870400847850615D503F02005E2
:102F500001F0805635430FD02046BDE8704003F0A5
:102F600097BE2046FFF77AFF70BD05E02046FFF7C9
:102F700075FF0020E067F7E7C6024FF020050CD58B
:102F80004E020AD5E803106284F8795084F87A502A
:102F90002046BDE87040FFF760BF06060AD503F083
:102FA000800601F400010E4304D02046BDE87040C5
:102FB00004F0FEB841060BD5590609D51168204624
:102FC00021F04001116084F8795000F005F9CBE759
:102FD0000002C9D55800C7D5106820F080401060A5
:102FE000C2E7000001000010616C000810B5040089
:102FF00003D094F8790010B107E0012010BD002043
:1030000084F87800204600F027F8242084F879001E
:103010002068016821F001010160204603F074FE80
:103020000128EBD0606B10B1204603F087FD2068CB
:10303000416821F4904141602068816821F02A01B3
:1030400081602068016841F0010101602046BDE80F
:10305000104003F0D7BD000010B5006886B01B49D2
:10306000884230D11A48016841F0010101600068CE
:1030700000F00100059016481030016841F0100181
:10308000016000680121134C00F0100005904FF41E
:10309000007000900220CDE90101039007206946ED
:1030A00004902046FDF750FF4FF4806120460091C8
:1030B0006946FDF749FF2520FEF723FA0022072184
:1030C0002520FEF72BFA06B010BD000000100140CD
:1030D000E04402580000025890F87A30202B4CD17E
:1030E000B9B1B2B190F87830012B46D0012380F805
:1030F00078304166A0F86820A0F86A20FF22816835
:10310000B1F5805F07D07F2351B1B1F1805F0CD062
:1031100010E001207047016921B940F2FF1107E07A
:10312000016909BBA0F86C2004E00169E1B13F210D
:10313000A0F86C100021C167222280F87A2080F864
:10314000781001688A6842F001028A6001680A68A2
:1031500092000CD50A6842F480720A6000688168A7
:1031600041F08051816006E0A0F86C30E2E7086829
:1031700040F4907008600020704702207047000003
:1031800030B50068114988420CD1114A50880104B9
:1031900008D411464FF000034404097806D50A29E3
:1031A00001D0538030BD40F400400DE00D2909D01E
:1031B000084DC0F30D04401C80B2C728295550802B
:1031C000EFD830BD40F48040508030BD0010014049
:1031D00020000024EC0000247047FEE710B5124CDC
:1031E000002210212046FDF7ACFF206820F440604B
:1031F0002060206840F4806020600022204620216A
:10320000FDF79FFF022004F0C3F8012220461021A1
:10321000FDF797FF022004F0BBF800222046BDE82E
:1032200010401021FDF78DBF001C0258114810B549
:1032300086B0016841F080010160006869460E4C6B
:1032400000F0800005903020009001200190029055
:10325000032003902046FDF777FE0122204620211F
:10326000FDF76FFF012220461021FDF76AFF06B02F
:1032700010BD0000E0440258001C025810B5124C6A
:10328000002210212046FDF75CFF206820F44060FA
:103290002060206840F480602060012220462021C8
:1032A000FDF74FFF022004F073F8012220461021A1
:1032B000FDF747FF022004F06BF800222046BDE82E
:1032C00010401021FDF73DBF001C02582DE9F041D0
:1032D000174E07460024306820F4406030603068A4
:1032E00030602546002230461021FDF72AFF0220DB
:1032F00004F04EF8012230461021FDF722FF60064F
:103300002021040E3046FDF713FF08B1641CE4B21F
:10331000012004F03DF86D1CEDB2082DE2D327B179
:10332000FFF75CFF2046BDE8F081FFF7A7FFF9E754
:10333000001C025870B5194E05463046316821F41C
:1033400040613160316841F48061316000221021B8
:10335000FDF7F7FE0024280601D5012200E0002237
:1033600030462021FDF7EDFE6806050E022004F030
:103370000FF8012230461021FDF7E3FE022004F091
:1033800007F8002230461021FDF7DBFE022003F093
:10339000FFFF641CE4B2082CDDD370BD001C025892
:1033A00010B5124C206820F440602060206840F482
:1033B00080602060012220462021FDF7C2FE01220C
:1033C00020461021FDF7BDFE042003F0E1FF00229E
:1033D00020462021FDF7B5FE042003F0D9FF00228E
:1033E0002046BDE810401021FDF7ABBE001C02587E
:1033F00010B5124C206820F440602060206840F432
:1034000080602060002220461021FDF79AFE0022F5
:1034100020462021FDF795FE042003F0B9FF01228C
:1034200020461021FDF78DFE012220462021FDF7C8
:1034300088FEBDE81040042003F0AABF001C02581B
:1034400070B5174D0024286820F440602860286873
:103450002860012220212846FDF773FE012003F099
:1034600097FF012228461021FDF76BFE012003F093
:103470008FFF07E0641CE4B2FA2C03D9FFF7B8FF12
:10348000012070BD20212846FDF752FE0028F1D111
:10349000002228461021FDF754FE002070BD0000D8
:1034A000001C02581B4870B586B0016841F001014C
:1034B0000160016801F001010591016841F004011A
:1034C0000160016801F004010591016841F080018B
:1034D0000160006803240025694600F08000059023
:1034E00002200126CDE902040B48CDE90065FDF775
:1034F0002BFD700303948DE8610008486946FDF7D1
:1035000023FD0C20009006486946FDF71DFD06B01E
:1035100070BD0000E0440258000002580008025844
:10352000001C02580E490F4A70B5064608881268FA
:10353000002422B13046BDE8704002F083BC4D88C3
:1035400000214543084602F0ABFB02F043FCB1B258
:10355000054801E00180641CAC42FBD370BD000053
:103560008002002438030024000008602DE9F05F89
:10357000394C3A4DA071296839B102F087FCE88ACC
:103580002080288B6080BDE8F09F33492C232A25BA
:103590004FF0F0092B2649F2413A4FF4305E45F2E4
:1035A000105B89884FF448774FF4A07845F2103CBF
:1035B0004FF4F07258B1A4F800805145A4F802907D
:1035C00001D0614529D123816581A68139E0A4F824
:1035D00000905145A4F8028001D0614508D12381B3
:1035E00061456581A68131D1A4F8008062802DE01B
:1035F000594508D1A4F808E04FF4285060814FF4F1
:103600002C50A08106E0A1F5C85063381ED123815B
:103610006681A5812280678018E0594508D1A4F809
:1036200008E04FF4285060814FF42C50A08106E050
:10363000A1F5C850633804D123816581A681278014
:103640006280614502D12280A4F802800020BDE89A
:10365000F05F02F049BA0000800200243803002421
:103660002DE9F04F95B002F02FFEFE4D4FF6FF7A98
:10367000DFF8F48349F2413945F2103645F210542F
:1036800041F66317A88038B10146F8A0FCF754FF53
:1036900002F066FC02F08FB9F848016841F00201BF
:1036A000016000680EA900F00200139020200E9027
:1036B00001200F90109003201190F148FDF744FC79
:1036C00002F0AAF9E7481022EE494C38C0E900811F
:1036D00000218160C160C0E9041212028161C161F0
:1036E000C0E908129200C0E90A1292010163C0E920
:1036F0000D121120CDE9000155200290152007AAD6
:10370000CDE90610CDE90810D6480D9169464C3830
:10371000FFF7F8F9322003F01FFED32002F04EFB32
:1037200002F0AEF9A88002F0ABF9A88002F0A8F987
:103730000AEA00205246A88002F0A2F9A9880843AC
:10374000A880484547D0D42002F038FB02F098F911
:10375000A88002F095F9A88002F092F902EA002010
:10376000A88002F08DF9A9880843A880B04232D021
:103770004FF45A4002F022FB02F082F9A8804FF485
:103780005B4002F01BFB02F07BF902EA0020A880FC
:103790004FF45C4002F012FB02F072F9A988084372
:1037A000A880B0F5004F7CD0A04214D0A12002F038
:1037B00005FB02F065F9A88002F062F902EA002038
:1037C000A88002F05DF9A9880843A880A0F5AE4161
:1037D000613900D1AF80A5A0A988FCF7ADFEA8880B
:1037E00048457DD1CF2002F0E9FA002002F0DAFA54
:1037F000C12002F0D7FA302002F0D4FAED2002F016
:10380000DDFA642002F0CEFA032002F0CBFA122097
:1038100002F0C8FA812002F0C5FAE82002F0CEFAE0
:10382000852002F0BFFA102002F0BCFA7A2002F0E4
:10383000B9FACB2002F0C2FA392002F0B3FA2C20F8
:1038400002F0B0FA002002F0ADFA342002F0AAFA39
:10385000022002F0A7FAF72002F0B0FA202002F0CE
:10386000A1FAEA2002F0AAFA002002F09BFA002056
:1038700002F098FAC02002F0A1FA1B2002F092FA9E
:10388000C12002F09BFA012002F08CFAC52002F060
:1038900095FA302002F086FA302002F083FAC72031
:1038A00000E0B7E002F08AFAB72002F07BFA362097
:1038B00002F084FA482002F075FA3A2002F07EFA0B
:1038C000552002F06FFAB12002F078FA002002F0E1
:1038D00069FA1A2002F066FAB62002F06FFA00E0E8
:1038E0009AE00A2002F05EFAA22002F05BFAF220CF
:1038F00002F064FA002002F055FA262002F05EFA87
:10390000012002F04FFAE02002F058FA0F2002F0F6
:1039100049FA2A2002F046FA282002F043FA082049
:1039200002F040FA0E2002F03DFA082002F03AFAC6
:10393000542002F037FAA92002F034FA432002F0B2
:1039400031FA0A2002F02EFA0F2002F02BFA0020A2
:1039500002F028FA002002F025FA002002F022FAF4
:10396000002002F01FFAE12002F028FA002002F005
:1039700019FA152002F016FA172002F013FA0720A0
:1039800002F010FA112002F00DFA062002F00AFAF5
:103990002B2002F007FA562002F004FA3C2002F035
:1039A00001FA052002F0FEF9102002F0FBF90F20C9
:1039B00002F0F8F93F2002F0F5F93F2002F0F2F9A9
:1039C0000F2002F0EFF92B2002F0F8F9002002F0AE
:1039D000E9F9002002F0E6F9012002F0E3F93F20C6
:1039E00002F0E0F92A2002F0E9F9002002F0DAF909
:1039F000002002F0D7F9002002F0D4F9EF2002F005
:103A0000D1F9112002F0DAF9782003F0A5FC292081
:103A100001F014BFAC80DEE6B0427DD1ED2002F0B3
:103A2000CDF9012002F0BEF9FE2002F0BBF9EE2034
:103A300002F0C4F9DE2002F0B5F9212002F0B2F95B
:103A4000F12002F0BBF9012002F0ACF9DF2002F016
:103A5000B5F9102002F0A6F9C42002F0AFF98F20CA
:103A600012E000008002002400400052204C434439
:103A70002049443A25780D0A00000000E04402582D
:103A8000000402580441005202F08CF9C62002F0F2
:103A900095F9002002F086F9E22002F083F9E22095
:103AA00002F080F9E22002F07DF9BF2002F086F9F1
:103AB000AA2002F077F9B02002F080F90D2002F080
:103AC00071F9002002F06EF90D2002F06BF9002070
:103AD00002F068F9112002F065F9002002F062F9A5
:103AE000192002F05FF9002002F05CF9212002F0B9
:103AF00059F9002002F056F92D2002F053F9002068
:103B000002F050F93D2002F04DF9002002F04AF990
:103B10005D2002F047F900E0FDE3002002F042F9E9
:103B20005D2002F03FF9002002F03CF9B12002F0E4
:103B300045F9802002F036F9002002F033F98B209D
:103B400002F030F9002002F02DF9962002F02AF957
:103B5000002002F027F9B22002F030F9002002F034
:103B600021F9002002F01EF9022002F01BF90020CA
:103B700002F018F9032002F015F9002002F012F902
:103B8000B32002F01BF9002002F00CF9002002F033
:103B900009F9002002F006F9002002F003F90020E4
:103BA00002F000F9002002F0FDF8002002F0FAF81F
:103BB000002002F0F7F8002002F0F4F8002002F0F4
:103BC000F1F8002002F0EEF8002002F0EBF80020FF
:103BD00002F0E8F8002002F0E5F8002002F0E2F838
:103BE000002002F0DFF8002002F0DCF8002002F0F4
:103BF000D9F8002002F0D6F8002002F0D3F8002017
:103C000002F0D0F8002002F0CDF8002002F0CAF84F
:103C1000002002F0C7F8B42002F0D0F88B2002F0A8
:103C2000C1F8002002F0BEF8962002F0BBF8002098
:103C300002F0B8F8A12002F0B5F8002002F0B2F8C6
:103C4000B52002F0BBF8022002F0ACF8002002F030
:103C5000A9F8032002F0A6F8002002F0A3F804203F
:103C600002F0A0F8002002F09DF8B62002F0A6F8BD
:103C7000002002F097F8002002F094F8B72002F03C
:103C80009DF8002002F08EF8002002F08BF83F2013
:103C900002F088F8002002F085F85E2002F082F839
:103CA000002002F07FF8642002F07CF8002002F08F
:103CB00079F88C2002F076F8002002F073F8AC203E
:103CC00002F070F8002002F06DF8DC2002F06AF8D3
:103CD000002002F067F8702002F064F8002002F083
:103CE00061F8902002F05EF8002002F05BF8EB2013
:103CF00002F058F8002002F055F8DC2002F052F8EB
:103D0000002002F04FF8B82002F058F8002002F02E
:103D100049F8002002F046F8002002F043F80020A5
:103D200002F040F8002002F03DF8002002F03AF8DE
:103D3000002002F037F8002002F034F8BA2002F038
:103D40003DF8242002F02EF8002002F02BF800208D
:103D500002F028F8002002F025F8C12002F02EF829
:103D6000202002F01FF8002002F01CF8542002F07E
:103D700019F8002002F016F8FF2002F013F80020D6
:103D800002F010F8C22002F019F80A2002F00AF836
:103D9000002002F007F8042002F004F8002002F0EE
:103DA00001F8C32002F00AF83C2001F0FBFF0020DC
:103DB00001F0F8FF3A2001F0F5FF002001F0F2FFDA
:103DC000392001F0EFFF002001F0ECFF372001F077
:103DD000E9FF002001F0E6FF3C2001F0E3FF0020B6
:103DE00001F0E0FF362001F0DDFF002001F0DAFFF6
:103DF000322001F0D7FF002001F0D4FF2F2001F086
:103E0000D1FF002001F0CEFF2C2001F0CBFF0020DD
:103E100001F0C8FF292001F0C5FF002001F0C2FF1A
:103E2000262001F0BFFF002001F0BCFF242001F09C
:103E3000B9FF002001F0B6FF242001F0B3FF0020FD
:103E400001F0B0FF232001F0ADFF002001F0AAFF38
:103E50003C2001F0A7FF002001F0A4FF362001F074
:103E6000A1FF002001F09EFF322001F09BFF002007
:103E700001F098FF2F2001F095FF002001F092FF44
:103E80002C2001F08FFF002001F08CFF292001F091
:103E900089FF002001F086FF262001F083FF00202B
:103EA00001F080FF242001F07DFF002001F07AFF67
:103EB000242001F077FF002001F074FF232001F09F
:103EC00071FF002001F06EFFC42001F077FF622037
:103ED00001F068FF002001F065FF052001F062FF9E
:103EE000002001F05FFF842001F05CFF002001F062
:103EF00059FFF02001F056FF002001F053FF182079
:103F000001F050FF002001F04DFFA42001F04AFF16
:103F1000002001F047FF182001F044FF002001F0CD
:103F200041FF502001F03EFF002001F03BFF0C203C
:103F300001F038FF002001F035FF172001F032FFBB
:103F4000002001F02FFF952001F02CFF002001F050
:103F500029FFF32001F026FF002001F023FFE620D7
:103F600001F020FF002001F01DFFC52001F026FF19
:103F7000322001F017FF002001F014FF442001F06F
:103F800011FF002001F00EFF652001F00BFF002063
:103F900001F008FF762001F005FF002001F002FF8C
:103FA000882001F0FFFE002001F0FCFEC62001F099
:103FB00005FF202001F0F6FE002001F0F3FE17209F
:103FC00001F0F0FE002001F0EDFE012001F0EAFE1C
:103FD000002001F0E7FEC72001F0F0FE002001F014
:103FE000E1FE002001F0DEFE002001F0DBFE0020FB
:103FF00001F0D8FEC82001F0E1FE002001F0D2FE61
:10400000002001F0CFFE002001F0CCFE002001F0E6
:10401000C9FEC92001F0D2FE002001F0C3FE00203D
:1040200001F0C0FE002001F0BDFE002001F0BAFE4C
:10403000002001F0B7FE002001F0B4FE002001F0E6
:10404000B1FE002001F0AEFE002001F0ABFE00202A
:1040500001F0A8FE002001F0A5FE002001F0A2FE64
:10406000002001F09FFE002001F09CFE002001F0E6
:1040700099FE002001F096FEE02001F09FFE162040
:1040800001F090FE002001F08DFE1C2001F08AFE60
:10409000002001F087FE212001F084FE002001F0C5
:1040A00081FE362001F07EFE002001F07BFE4620DE
:1040B00001F078FE002001F075FE522001F072FE42
:1040C000002001F06FFE642001F06CFE002001F082
:1040D00069FE7A2001F066FE002001F063FE8B206D
:1040E00001F060FE002001F05DFE992001F05AFE13
:1040F000002001F057FEA82001F054FE002001F03E
:1041000051FEB92001F04EFE002001F04BFEC4200C
:1041100001F048FE002001F045FECA2001F042FEF9
:10412000002001F03FFED22001F03CFE002001F013
:1041300039FED92001F036FE002001F033FEE020E8
:1041400001F030FE002001F02DFEF32001F02AFEE8
:10415000002001F027FEE12001F030FE162001F0E2
:1041600021FE002001F01EFE1C2001F01BFE00209D
:1041700001F018FE222001F015FE002001F012FED1
:10418000362001F00FFE002001F00CFE452001F06A
:1041900009FE002001F006FE522001F003FE00207F
:1041A00001F000FE642001F0FDFD002001F0FAFDA9
:1041B0007A2001F0F7FD002001F0F4FD8B2001F0E2
:1041C000F1FD002001F0EEFD992001F0EBFD002053
:1041D00001F0E8FDA82001F0E5FD002001F0E2FD7E
:1041E000B92001F0DFFD002001F0DCFDC42001F06A
:1041F000D9FD002001F0D6FDCA2001F0D3FD00203A
:1042000001F0D0FDD22001F0CDFD002001F0CAFD6B
:10421000D82001F0C7FD002001F0C4FDE02001F02E
:10422000C1FD002001F0BEFDF32001F0BBFD002028
:1042300001F0B8FDE22001F0C1FD052001F0B2FD62
:10424000002001F0AFFD0B2001F0ACFD002001F0DB
:10425000A9FD1B2001F0A6FD002001F0A3FD3420E4
:1042600001F0A0FD002001F09DFD442001F09AFD29
:10427000002001F097FD4F2001F094FD002001F097
:1042800091FD612001F08EFD002001F08BFD792071
:1042900001F088FD002001F085FD882001F082FDFD
:1042A000002001F07FFD972001F07CFD002001F04F
:1042B00079FDA62001F076FD002001F073FDB72006
:1042C00001F070FD002001F06DFDC22001F06AFDDB
:1042D000002001F067FDC72001F064FD002001F01F
:1042E00061FDD12001F05EFD002001F05BFDD620D4
:1042F00001F058FD002001F055FDDD2001F052FDD8
:10430000002001F04FFDF32001F04CFD002001F0F2
:1043100049FDE32000E00FE301F050FD052001F02E
:1043200041FD002001F03EFD0A2001F03BFD002090
:1043300001F038FD1C2001F035FD002001F032FDB8
:10434000332001F02FFD002001F02CFD442001F06E
:1043500029FD002001F026FD502001F023FD002062
:1043600001F020FD622001F01DFD002001F01AFD8A
:10437000782001F017FD002001F014FD882001F0E5
:1043800011FD002001F00EFD972001F00BFD002033
:1043900001F008FDA62001F005FD002001F002FD5E
:1043A000B72001F0FFFC002001F0FCFCC22001F06E
:1043B000F9FC002001F0F6FCC72001F0F3FC00201E
:1043C00001F0F0FCD12001F0EDFC002001F0EAFC4E
:1043D000D52001F0E7FC002001F0E4FCDD2001F035
:1043E000E1FC002001F0DEFCF32001F0DBFC00200A
:1043F00001F0D8FCE42001F0E1FC012001F0D2FC46
:10440000002001F0CFFC012001F0CCFC002001F0E5
:10441000C9FC022001F0C6FC002001F0C3FC2A20E8
:1044200001F0C0FC002001F0BDFC3C2001F0BAFC12
:10443000002001F0B7FC4B2001F0B4FC002001F09B
:10444000B1FC5D2001F0AEFC002001F0ABFC74205B
:1044500001F0A8FC002001F0A5FC842001F0A2FCE2
:10446000002001F09FFC932001F09CFC002001F053
:1044700099FCA22001F096FC002001F093FCB320EF
:1044800001F090FC002001F08DFCBE2001F08AFCC0
:10449000002001F087FCC42001F084FC002001F022
:1044A00081FCCD2001F07EFC002001F07BFCD320BC
:1044B00001F078FC002001F075FCDD2001F072FCB9
:1044C000002001F06FFCF32001F06CFC002001F0F3
:1044D00069FCE52001F072FC002001F063FC002083
:1044E00001F060FC002001F05DFC002001F05AFCAE
:1044F000022001F057FC002001F054FC292001F0BB
:1045000051FC002001F04EFC3C2001F04BFC00204F
:1045100001F048FC4B2001F045FC002001F042FC7A
:104520005D2001F03FFC002001F03CFC742001F014
:1045300039FC002001F036FC842001F033FC00201F
:1045400001F030FC932001F02DFC002001F02AFC4A
:10455000A22001F027FC002001F024FCB32001F090
:1045600021FC002001F01EFCBE2001F01BFC0020FD
:1045700001F018FCC42001F015FC002001F012FC31
:10458000CD2001F00FFC002001F00CFCD32001F045
:1045900009FC002001F006FCDC2001F003FC0020F7
:1045A00001F000FCF32001F0FDFB002001F0FAFB1C
:1045B000E62001F003FC112001F0F4FB002001F0E3
:1045C000F1FB342001F0EEFB002001F0EBFB562064
:1045D00001F0E8FB002001F0E5FB762001F0E2FBB2
:1045E000002001F0DFFB772001F0DCFB002001F070
:1045F000D9FB662001F0D6FB002001F0D3FB882018
:1046000001F0D0FB002001F0CDFB992001F0CAFBA6
:10461000002001F0C7FBBB2001F0C4FB002001F02B
:10462000C1FB992001F0BEFB002001F0BBFB66201E
:1046300001F0B8FB002001F0B5FB552001F0B2FB02
:10464000002001F0AFFB552001F0ACFB002001F091
:10465000A9FB452001F0A6FB002001F0A3FB4320AD
:1046600001F0A0FB002001F09DFB442001F09AFB2B
:10467000002001F097FBE72001F0A0FB322001F0C1
:1046800091FB002001F08EFB552001F08BFB0020F8
:1046900001F088FB762001F085FB002001F082FB11
:1046A000662001F07FFB002001F07CFB672001F019
:1046B00079FB002001F076FB672001F073FB0020FE
:1046C00001F070FB872001F06DFB002001F06AFB18
:1046D000992001F067FB002001F064FBBB2001F092
:1046E00061FB002001F05EFB992001F05BFB0020E4
:1046F00001F058FB772001F055FB002001F052FB40
:10470000442001F04FFB002001F04CFB562001F04B
:1047100049FB002001F046FB232001F043FB002071
:1047200001F040FB332001F03DFB002001F03AFB9B
:10473000452001F037FB002001F034FBE82001F0B8
:104740003DFB002001F02EFB002001F02BFB992007
:1047500001F028FB002001F025FB872001F022FB5F
:10476000002001F01FFB882001F01CFB002001F05D
:1047700019FB772001F016FB002001F013FB6620E7
:1047800001F010FB002001F00DFB882001F00AFB76
:10479000002001F007FBAA2001F004FB002001F03B
:1047A00001FBBB2001F0FEFA002001F0FBFA99208A
:1047B00001F0F8FA002001F0F5FA662001F0F2FAB3
:1047C000002001F0EFFA552001F0ECFA002001F092
:1047D000E9FA552001F0E6FA002001F0E3FA44205E
:1047E00001F0E0FA002001F0DDFA442001F0DAFAED
:1047F000002001F0D7FA552001F0D4FA002001F092
:10480000D1FAE92001F0DAFAAA2001F0CBFA00206F
:1048100001F0C8FA002001F0C5FA002001F0C2FA48
:10482000002001F0CBFAAA2001F0BCFACF2001F061
:10483000C5FA002001F0B6FA002001F0B3FA00201A
:1048400001F0B0FA002001F0ADFA002001F0AAFA60
:10485000002001F0A7FA002001F0A4FA002001F0E6
:10486000A1FA002001F09EFA002001F09BFA00203E
:1048700001F098FA002001F095FA002001F092FA78
:10488000002001F08FFA002001F08CFA002001F0E6
:1048900089FA002001F086FAF02001F08FFA00205A
:1048A00001F080FA502001F07DFA002001F07AFA40
:1048B000002001F077FA002001F074FAF32001F0F3
:1048C0007DFA002001F06EFAF92001F077FA062057
:1048D00001F068FA102001F065FA292001F062FA6F
:1048E000002001F05FFA3A2001F068FA552001F04B
:1048F00059FA112001F062FA642002F02DFD2920FE
:1049000001F05CFA352001F059FA002001F04AFA72
:10491000512001F053FAFF2001F044FA532001F036
:104920004DFA2C2001F03EFA552001F047FA822082
:1049300001F038FA2C20FDE3A0427DD14FF4704302
:104940005521184601F050FA4FF2010BAA215846A2
:1049500001F04AFA52214FF2020001F045FA082113
:104960004FF2030001F040FA01214FF2040001F080
:104970003BFA0D214FF4304001F036FA0D214BF295
:10498000010001F031FA0D214BF2020001F02CFA86
:1049900034214FF4364001F027FA34214BF2016004
:1049A00001F022FA34214BF2026001F01DFA0D21D0
:1049B0004FF4314001F018FA0D214BF2011001F0D3
:1049C00013FA0D214BF2021001F00EFA34214FF4CC
:1049D000374001F009FA34214BF2017001F004FA7A
:1049E00034214BF2027001F0FFF900214FF4324004
:1049F00001F0FAF900214BF2012001F0F5F9002154
:104A00004BF2022001F0F0F924214FF4384001F07C
:104A1000EBF924214BF6010001F0E6F924214BF6D5
:104A2000020001F0E1F901214FF43F4001F0DCF90F
:104A30000F214FF4334000E0FEE301F0D5F90F21E0
:104A40004BF2013001F0D0F90F214BF2023001F0AE
:104A5000CBF934214FF4394001F0C6F934214BF63B
:104A6000011001F0C1F934214BF6021001F0BCF93C
:104A700008214FF4354001F0B7F908214BF20150FD
:104A800001F0B2F908214BF2025001F0ADF9032117
:104A90004FF4424001F0A8F924214FF43A4001F0CC
:104AA000A3F924214BF6012001F09EF924214BF6B5
:104AB000022001F099F900214FF43C4001F094F9F3
:104AC00078214BF6014001F08FF900214BF60240AE
:104AD00001F08AF900214FF43D4001F085F9782179
:104AE0004BF6015001F080F900214BF6025001F025
:104AF0007BF900214FF43E4001F076F964214BF63A
:104B0000016001F071F900214FF4514001F06CF99E
:104B100033214DF2011001F067F900214DF202102E
:104B200001F062F934214DF2031001F05DF900212A
:104B30004DF2041001F058F93A214DF2051001F040
:104B400053F900214DF2061001F04EF94A214DF2C1
:104B5000071001F049F900214DF2081001F044F965
:104B60005C214DF2091001F03FF900214DF20A10CD
:104B700001F03AF981214DF20B1001F035F90021D5
:104B80004DF20C1001F030F9A6214DF20D1001F09C
:104B90002BF900214DF20E1001F026F9E5214DF21E
:104BA0000F1001F021F901214DF2101001F01CF954
:104BB00013214DF2111001F017F901214DF21210DD
:104BC00001F012F954214DF2131001F00DF90121F9
:104BD0004DF2141001F008F982214DF2151001F088
:104BE00003F901214DF2161001F0FEF8CA214DF231
:104BF000171001F0F9F802214DF2181001F0F4F845
:104C000000214DF2191001F0EFF802214DF21A10B7
:104C100001F0EAF801214DF21B1001F0E5F8022144
:104C20004DF21C1001F0E0F834214DF21D1001F09E
:104C3000DBF802214DF21E1001F0D6F867214DF28B
:104C40001F1001F0D1F802214DF2201001F0CCF834
:104C500084214DF2211001F0C7F802214DF22210FB
:104C600001F0C2F8A4214DF2231001F0BDF8022199
:104C70004DF2241001F0B8F8B7214DF2251001F0E3
:104C8000B3F802214DF2261001F0AEF8CF214DF21B
:104C9000271001F0A9F802214DF2281001F0A4F824
:104CA000DE214DF2291001F09FF802214DF22A1069
:104CB00001F09AF8F2214DF22B1001F095F8022143
:104CC0004DF22C1001F090F8FE214DF22D1001F064
:104CD0008BF803214DF22E1001F086F810214DF2D1
:104CE0002F1001F081F803214DF2301001F07CF813
:104CF00033214DF2311001F077F803214DF23210DB
:104D000001F072F86D214DF2331001F06DF80021C1
:104D10004FF4524001F068F833214DF2012001F0C8
:104D200063F800214DF2022001F05EF834214DF2CB
:104D3000032001F059F800214DF2042001F054F84D
:104D40003A214DF2052001F04FF800214DF20620E6
:104D500001F04AF84A214DF2072001F045F8002100
:104D60004DF2082001F040F85C214DF2092001F0DD
:104D70003BF800214DF20A2001F036F881214DF276
:104D80000B2001F031F800214DF20C2001F02CF83D
:104D9000A6214DF20D2001F027F800214DF20E2042
:104DA00001F022F8E5214DF20F2001F01DF801215C
:104DB0004DF2102001F018F813214DF2112001F0EE
:104DC00013F801214DF2122001F00EF854214DF29A
:104DD000132001F009F801214DF2142001F004F82C
:104DE00082214DF2152000F0FFFF01214DF2162027
:104DF00000F0FAFFCA214DF2172000F0F5FF022162
:104E00004DF2182000F0F0FF00214DF2192000F0C3
:104E1000EBFF02214DF21A2000F0E6FF01214DF2D6
:104E20001B2000F0E1FF02214DF21C2000F0DCFF0E
:104E300034214DF21D2000F0D7FF02214DF21E203B
:104E400000F0D2FF67214DF21F2000F0CDFF0221BC
:104E50004DF2202000F0C8FF84214DF2212000F007
:104E6000C3FF02214DF2222000F0BEFFA4214DF22B
:104E7000232000F0B9FF02214DF2242000F0B4FFFE
:104E8000B7214DF2252000F0AFFF02214DF2262080
:104E900000F0AAFFCF214DF2272000F0A5FF02214C
:104EA0004DF2282000F0A0FFDE214DF2292000F075
:104EB0009BFF02214DF22A2000F096FFF2214DF2D5
:104EC0002B2000F091FF02214DF22C2000F08CFFEE
:104ED000FE214DF22D2000F087FF03214DF22E2000
:104EE00000F082FF10214DF22F2000F07DFF032102
:104EF0004DF2302000F078FF33214DF2312000F0E8
:104F000073FF03214DF2322000F06EFF6D214DF250
:104F1000332000F069FF00214FF4534000F064FF9C
:104F200033214DF2013000F05FFF00214DF20230DD
:104F300000F05AFF34214DF2033000F055FF0021FC
:104F40004DF2043000F050FF3A214DF2053000F0F0
:104F50004BFF00214DF2063000F046FF4A214DF292
:104F6000073000F041FF00214DF2083000F03CFF17
:104F70005C214DF2093000F037FF00214DF20A307C
:104F800000F032FF81214DF20B3000F02DFF0021A7
:104F90004DF20C3000F028FFA6214DF20D3000F04C
:104FA00023FF00214DF20E3000F01EFFE5214DF2EF
:104FB0000F3000F019FF01214DF2103000F014FF06
:104FC00013214DF2113000F00FFF01214DF212308C
:104FD00000F00AFF54214DF2133000F005FF0121CB
:104FE0004DF2143000F000FF82214DF2153000F038
:104FF000FBFE01214DF2163000F0F6FECA214DF203
:10500000173000F0F1FE02214DF2183000F0ECFEF6
:1050100000214DF2193000F0E7FE02214DF21A3066
:1050200000F0E2FE01214DF21B3000F0DDFE022116
:105030004DF21C3000F0D8FE34214DF21D3000F04E
:10504000D3FE02214DF21E3000F0CEFE67214DF25C
:105050001F3000F0C9FE02214DF2203000F0C4FEE6
:1050600084214DF2213000F0BFFE02214DF22230AA
:1050700000F0BAFEA4214DF2233000F0B5FE02216B
:105080004DF2243000F0B0FEB7214DF2253000F093
:10509000ABFE02214DF2263000F0A6FECF214DF2EC
:1050A000273000F0A1FE02214DF2283000F09CFED6
:1050B000DE214DF2293000F097FE02214DF22A3018
:1050C00000F092FEF2214DF22B3000F08DFE022115
:1050D0004DF22C3000F088FEFE214DF22D3000F014
:1050E00083FE03214DF22E3000F07EFE10214DF2A2
:1050F0002F3000F079FE03214DF2303000F074FEC5
:1051000033214DF2313000F06FFE03214DF2323089
:1051100000F06AFE6D214DF2333000F065FE002193
:105120004FF4544000F060FE33214DF2014000F096
:105130005BFE00E082E300214DF2024000F054FEED
:1051400034214DF2034000F04FFE00214DF20440A7
:1051500000F04AFE3A214DF2054000F045FE0021E4
:105160004DF2064000F040FE4A214DF2074000F0AB
:105170003BFE00214DF2084000F036FE5C214DF26E
:10518000094000F031FE00214DF20A4000F02CFEF3
:1051900081214DF20B4000F027FE00214DF20C4022
:1051A00000F022FEA6214DF20D4000F01DFE002170
:1051B0004DF20E4000F018FEE5214DF20F4000F0D8
:1051C00013FE01214DF2104000F00EFE13214DF2AE
:1051D000114000F009FE01214DF2124000F004FEE2
:1051E00054214DF2134000F0FFFD01214DF2144017
:1051F00000F0FAFD82214DF2154000F0F5FD01218D
:105200004DF2164000F0F0FDCA214DF2174000F0BB
:10521000EBFD02214DF2184000F0E6FD00214DF2B9
:10522000194000F0E1FD02214DF21A4000F0DCFDD2
:1052300001214DF21B4000E003E300F0D5FD022107
:105240004DF21C4000F0D0FD34214DF21D4000F025
:10525000CBFD02214DF21E4000F0C6FD67214DF24C
:105260001F4000F0C1FD02214DF2204000F0BCFDC6
:1052700084214DF2214000F0B7FD02214DF2224081
:1052800000F0B2FDA4214DF2234000F0ADFD02215B
:105290004DF2244000F0A8FDB7214DF2254000F06A
:1052A000A3FD02214DF2264000F09EFDCF214DF2DC
:1052B000274000F099FD02214DF2284000F094FDB6
:1052C000DE214DF2294000F08FFD02214DF22A40EF
:1052D00000F08AFDF2214DF22B4000F085FD022105
:1052E0004DF22C4000F080FDFE214DF22D4000F0EB
:1052F0007BFD03214DF22E4000F076FD10214DF292
:105300002F4000F071FD03214DF2304000F06CFDA4
:1053100033214DF2314000F067FD03214DF2324060
:1053200000F062FD6D214DF2334000F05DFD002183
:105330004FF4554000F058FD33214DF2015000F07C
:1053400053FD00214DF2025000F04EFD34214DF28C
:10535000035000F049FD00214DF2045000F044FDDF
:105360003A214DF2055000F03FFD00214DF206506C
:1053700000F03AFD4A214DF2075000F035FD0021C2
:105380004DF2085000F030FD5C214DF2095000F064
:105390002BFD00214DF20A5000F026FD81214DF237
:1053A0000B5000F021FD00214DF20C5000F01CFDCF
:1053B000A6214DF20D5000F017FD00214DF20E50C8
:1053C00000F012FDE5214DF20F5000F00DFD01211E
:1053D0004DF2105000F008FD13214DF2115000F075
:1053E00003FD01214DF2125000F0FEFC54214DF25C
:1053F000135000F0F9FC01214DF2145000F0F4FCC0
:1054000082214DF2155000F0EFFC01214DF21650B3
:1054100000F0EAFCCA214DF2175000F0E5FC022131
:105420004DF2185000F0E0FC00214DF2195000F050
:10543000DBFC02214DF21A5000F0D6FC01214DF2A6
:105440001B5000F0D1FC02214DF21C5000F0CCFCAE
:1054500034214DF21D5000F0C7FC02214DF21E50C8
:1054600000F0C2FC67214DF21F5000F0BDFC02218C
:105470004DF2205000F0B8FC84214DF2215000F094
:10548000B3FC02214DF2225000F0AEFCA4214DF2FB
:10549000235000F0A9FC02214DF2245000F0A4FC9E
:1054A000B7214DF2255000F09FFC02214DF226500D
:1054B00000F09AFCCF214DF2275000F095FC02211C
:1054C0004DF2285000F090FCDE214DF2295000F002
:1054D0008BFC02214DF22A5000F086FCF2214DF2A5
:1054E0002B5000F081FC02214DF22C5000F07CFC8E
:1054F000FE214DF22D5000F077FC03214DF22E508D
:1055000000F072FC10214DF22F5000F06DFC0321D1
:105510004DF2305000F068FC33214DF2315000F074
:1055200063FC03214DF2325000F05EFC6D214DF220
:10553000335000F059FC00214FF4564000F054FC69
:1055400033214DF2016000F04FFC00214DF202606A
:1055500000F04AFC34214DF2036000F045FC0021CC
:105560004DF2046000F040FC3A214DF2056000F07D
:105570003BFC00214DF2066000F036FC4A214DF262
:10558000076000F031FC00214DF2086000F02CFCB7
:105590005C214DF2096000F027FC00214DF20A6009
:1055A00000F022FC81214DF20B6000F01DFC002177
:1055B0004DF20C6000F018FCA6214DF20D6000F0D9
:1055C00013FC00214DF20E6000F00EFCE5214DF2BF
:1055D0000F6000F009FC01214DF2106000F004FCA6
:1055E00013214DF2116000F0FFFB01214DF212601A
:1055F00000F0FAFB54214DF2136000F0F5FB01219D
:105600004DF2146000F0F0FB82214DF2156000F0C5
:10561000EBFB01214DF2166000F0E6FBCA214DF2D2
:10562000176000F0E1FB02214DF2186000F0DCFB96
:1056300000214DF2196000F0D7FB02214DF21A60F3
:1056400000F0D2FB01214DF21B6000F0CDFB0221E6
:105650004DF21C6000F0C8FB34214DF21D6000F0DB
:10566000C3FB02214DF21E6000F0BEFB67214DF22C
:105670001F6000F0B9FB02214DF2206000F0B4FB86
:1056800084214DF2216000F0AFFB02214DF2226037
:1056900000F0AAFBA4214DF2236000F0A5FB02213B
:1056A0004DF2246000F0A0FBB7214DF2256000F020
:1056B0009BFB02214DF2266000F096FBCF214DF2BC
:1056C000276000F091FB02214DF2286000F08CFB76
:1056D000DE214DF2296000F087FB02214DF22A60A5
:1056E00000F082FBF2214DF22B6000F07DFB0221E5
:1056F0004DF22C6000F078FBFE214DF22D6000F0A1
:1057000073FB03214DF22E6000F06EFB10214DF271
:105710002F6000F069FB03214DF2306000F064FB64
:1057200033214DF2316000F05FFB03214DF2326016
:1057300000F05AFB6D214DF2336000F055FB55210E
:10574000184600F051FBAA21584600F04DFB5221AB
:105750004FF2020000F048FB08214FF2030000F076
:1057600043FB00214FF2040000F03EFBCC214FF43C
:10577000314000F039FB00214BF2011000F034FB06
:1057800005214FF4364000F02FFB70214FF43740D5
:1057900000F02AFB70214BF2017000F025FB012183
:1057A0004FF4384000F020FB03214BF6010000F0DD
:1057B0001BFB03214BF6020000F016FB03214BF606
:1057C000030000F011FB02214FF43C4000F00CFB01
:1057D00000214BF6014000F007FB00214BF6024090
:1057E00000F002FBD0214FF4494000F0FDFA022105
:1057F0004CF6011000F0F8FA50214CF6021000F0BF
:10580000F3FA50214CF6031000F0EEFA50214CF65A
:10581000041000F0E9FA00214FF4545000F0E4FACB
:1058200055214FF4685000F0DFFA4FF4885000F033
:10583000C5FA782001F0ACFD4FF4245000F0BEFA18
:10584000B9E0B842FCD1E22000F0B8FA1D2000F027
:10585000A9FA022000F0A6FA042000F0A3FA6420BE
:1058600001F096FDE02000F0A9FA012000F09AFA7C
:105870000A2001F071FDE02000F0A0FA032000F002
:1058800091FA0C2001F068FD012000F097FA0A203F
:1058900001F062FDE62000F091FA2F2000F082FA7C
:1058A000FF2000F07FFAFF2000F07CFAB02000F02B
:1058B00085FA202000F076FA002000F073FA032029
:1058C00000F070FA40F21F3000F06CFA012000F096
:1058D00069FA40F2DF1000F065FA002000F062FA89
:1058E000B42000F06BFA042000F05CFA40F21F4094
:1058F00000F058FA002000F055FA2E2000F052FA7D
:10590000002000F04FFA002000F04CFA002000F0D8
:1059100049FA002000F046FAB62000F04FFA0220C3
:1059200000F040FA4FF4037000F03CFA002000F061
:1059300039FA172000F036FA152000F033FA00206B
:1059400000F030FA002000F02DFAF02000F036FAD6
:10595000032000F027FA292000F030FAD02000F0D0
:105960002DFA002000F01EFABE2000F027FA0520D4
:1059700000F018FAFE2000F015FA012000F012FAEB
:10598000002000F00FFA002000F00CFA002000F0D8
:1059900009FAB82000F012FA032000F003FA0120FF
:1059A00000F000FABA2000F009FA012000F0FAF93C
:1059B000642000F06FF8A888484505D0B04203D0B5
:1059C000A04201D0B84217D1D8F8041121F00F013C
:1059D000C8F80411D8F8041121F47061C8F8041152
:1059E000D8F8041141F00501C8F80411D8F80411E1
:1059F00041F4A061C8F804110020FDF7B7FD054887
:105A000001222021FBF79DFB5046FDF78BFD15B0D1
:105A1000BDE8F08F000402587FB5184C206820F4D0
:105A200080302060154D7035286820F00100286016
:105A300000208DF80C004FF0C04201921B228DF81F
:105A4000082001218DF809008DF80D0003228DF842
:105A500000108DF80A008DF80E008DF801006846E0
:105A60008DF80B208DF80F10FBF720FD0520286026
:105A7000206840F4803020607FBD000024ED00E00D
:105A8000034808B50088ADF80000BDF8000008BD67
:105A9000000008600246BE2000B500F08FF9052026
:105AA00000F080F900EE102A9FED0D1BB8EE400BC0
:105AB00020EE010BBCEEC00B10EE100A80B200F01D
:105AC00071F9012000F06EF9FF2000F06BF9002061
:105AD00000F068F95DF804EB002000F063B9000005
