:020000040800F2
:10000000E02E002489030008DD760008F73B000895
:100010007376000865090008F9BC000800000000BC
:100020000000000000000000000000001DAE0008FD
:10003000E10B000800000000FD08000819AF0008EF
:10004000C3030008C3030008C3030008C303000878
:10005000C3030008C3030008C3030008C303000868
:10006000C3030008C3030008C3030008C303000858
:10007000C3030008C3030008C3030008C303000848
:10008000C3030008C3030008C3030008C303000838
:10009000C3030008C3030008C3030008C303000828
:1000A000C3030008C3030008C3030008C303000818
:1000B000C3030008C3030008C3030008C303000808
:1000C000C3030008C3030008C3030008C3030008F8
:1000D000C3030008A1BC0008C3030008C303000851
:1000E000C3030008C303000800000000C3030008A6
:1000F000C3030008C3030008C3030008C3030008C8
:10010000C3030008C3030008C3030008C3030008B7
:10011000C3030008C3030008C3030008C3030008A7
:10012000C3030008C3030008C3030008C303000897
:10013000C3030008C3030008C3030008C303000887
:1001400000000000000000000000000000000000AF
:10015000C3030008C3030008C3030008C303000867
:10016000C3030008C3030008C3030008C303000857
:10017000C3030008C3030008C30300080000000015
:10018000C3030008C3030008C3030008C303000837
:10019000C3030008C3030008C3030008C303000827
:1001A000C3030008C3030008C3030008C303000817
:1001B000C3030008C3030008C3030008C303000807
:1001C000C3030008C3030008C3030008C3030008F7
:1001D000C3030008C3030008C3030008C3030008E7
:1001E000C3030008C3030008C3030008C3030008D7
:1001F000C3030008C3030008C3030008C3030008C7
:10020000C3030008C3030008C3030008C3030008B6
:10021000C3030008C3030008C3030008C3030008A6
:10022000C3030008C3030008C30300080000000064
:10023000C3030008C303000800000000C303000854
:10024000C3030008C3030008C3030008C303000876
:10025000C3030008C3030008C3030008C303000866
:10026000C3030008C3030008C3030008C303000856
:10027000C3030008C3030008C30300080000000014
:10028000C303000800000000C303000800000000D2
:1002900000000000C303000800F002F800F064F85A
:1002A0000AA090E8000C82448344AAF10107DA45D1
:1002B00001D100F059F8AFF2090EBAE80F0013F0BF
:1002C000010F18BFFB1A43F001031847700A010021
:1002D000900A01000A444FF0000C10F8013B13F0A3
:1002E000070408BF10F8014B1D1108BF10F8015B8F
:1002F000641E05D010F8016B641E01F8016BF9D182
:1003000013F0080F1EBF10F8014BAD1C0C1B09D1D8
:100310006D1E58BF01F801CBFAD505E014F8016B4A
:1003200001F8016B6D1EF9D59142D6D370470000DC
:100330000023002400250026103A28BF78C1FBD8EE
:10034000520728BF30C148BF0B607047642900F0D6
:100350002181782900F05A81002070471FB50BF0E9
:10036000E3FF1FBD10B510BD00F038FA1146FFF7CE
:10037000F5FF0BF083FD00F056FA03B4FFF7F2FF30
:1003800003BC0BF0D7FC000011488047DFF84400A5
:10039000016841F470010160BFF34F8FDFF838004E
:1003A000016821F040410160BFF36F8F0B480047A7
:1003B000FEE7FEE7FEE7FEE7FEE7FEE7FEE7FEE715
:1003C000FEE7FEE706480749074A084B704700006A
:1003D00039AF000888ED00E034EF00E09902000832
:1003E000E0220024E02E0024E0240024E024002465
:1003F00072B6704762B67047EFF3108072B67047FE
:1004000080F31088704730BF704720BF7047B0FA44
:1004100080F0704790FAA0F0B0FA80F0704790FA40
:10042000A0F0704753EA020C00F069802DE9F04B10
:100430004FF00006002B1FBFB3FA83F503FA05F453
:1004400024FA05F65E4012BF1643B2FA82F502FAAC
:1004500005F4C5F120051EBF22FA05FC44EA0C0490
:10046000203556EA044C4FEA144418BF641C4FF080
:1004700000084FF00009904271EB030C39D30029BA
:1004800019BFB1FA81F701FA07F6B0FA80F700FA5E
:1004900007F6C7F120071EBF20FA07FC46EA0C0644
:1004A0002037B6FBF4FCA7EB0507103F07F01F0B46
:1004B000CBF120060CFA0BFB2CFA06F644BFB34630
:1004C0000026202FA4BF5E464FF0000B5BEA060C0F
:1004D00008BF4FF0010B19EB0B09ABFB027C48EB9B
:1004E0000608C01B06FB02CC0BFB03CC71EB0C0116
:1004F000C1E70B46024641464846BDE8F08B13B5BE
:100500004FF000004FF00001AFF30080BDE81C4049
:10051000704700000FB4044910B503AA029800F018
:100520002FF910BC5DF814FB480000242DE9F041C0
:100530000E460446002020622046E168884730B31A
:10054000252805D0D4E901219047206A401CF2E714
:10055000E168204600278847050018D0A5F1410032
:10056000192802D820354FF4006732462946204624
:100570002760FFF7EBFE40B1012804D0F61D26F0FE
:1005800007060836D8E7361DD6E72846DAE7206A98
:10059000BDE8F0812DE9F041064600241068752978
:1005A000314616A510D0AFF30080002802DA404291
:1005B00013A507E031688A0701D512A502E04907B3
:1005C00004D511A5012401E0AFF3008000210A2227
:1005D00006F1240709E0B0FBF2FCB0FBF2F302FBEA
:1005E0001C00303078541846491C0028F3D12346AB
:1005F0002A463046BDE8F04100F069B8000000002E
:100600002D0000002B0000002000000070B5044603
:100610000D4621461068AFF300802188090502D5F8
:100620000F4A7A4402E00E4A7A440E32002104F165
:10063000240305E000F00F060009965D5E54491C96
:100640000028F7D120780023000704D5702D02D0B0
:1006500009B1022311322046BDE8704000F037B8DE
:10066000EE06010010B5203AC0F00B80B1E818503A
:10067000203AA0E81850B1E81850A0E81850BFF48C
:10068000F5AF5FEA027C24BFB1E81850A0E818502B
:1006900044BF18C918C0BDE810405FEA827C24BF7F
:1006A00051F8043B40F8043B08BF7047D20728BF0D
:1006B00031F8023B48BF11F8012B28BF20F8023B5C
:1006C00048BF00F8012B70477047704770472DE90D
:1006D000F0470D4699469246044600F12408016809
:1006E000880604D5E06921F01001216000E00120B6
:1006F000A84201DD471B00E00027A1697A1902EB3F
:100700000900081AA0612078C00602D42046AFF381
:100710000080002608E0D4E901211AF8060090477D
:10072000206A401C761C20624E45F4DB2078C0060F
:100730000AD52046AFF3008006E0D4E9012130203D
:100740009047206A401C2062381EA7F10107F4DCA4
:1007500007E0D4E9012118F805009047206A401C01
:100760002062281EA5F10105F3DC2046AFF30080CE
:100770002078000602D50220BDE8F0870120FBE7C3
:10078000074B70B50D467B4400F011F8044628462F
:1007900000F020F810B14FF0FF3070BD204670BD62
:1007A000D7B6000001694A1C02610878704700B59D
:1007B0008FB0CDE901310021059105497944CDE99A
:1007C000031011466846FFF7B1FE0FB000BD0000F0
:1007D000E5FFFFFF007B00F080007047754600F0EA
:1007E0002BF8AE4605006946534620F007008546C3
:1007F00018B020B5FFF7E6FDBDE820404FF0000639
:100800004FF000074FF000084FF0000B21F00701F8
:10081000AC46ACE8C009ACE8C009ACE8C009ACE83B
:10082000C0098D46704710B50446AFF300802046DE
:10083000BDE81040FFF7A1BD004870477C220024AE
:10084000EFF3098141B1F1EE101A40F8041D20EDDB
:10085000200A3E490A6810607047B0EC200A02C8BE
:10086000E1EE101A3A490A681060704772B64EF607
:100870002250CEF2000040F2FF01C0F200010170F0
:100880004FF0000080F3098808F04EF940F2541050
:10089000C2F20040016881F3088840F2D200C2F23F
:1008A000004040F2D301C2F200410A78027040F2E7
:1008B0004C15C2F2004540F25011C2F200410A68E4
:1008C0002A60106880F30988EFF3148040F002007A
:1008D00080F31488BFF36F8FBDE8F00F0FBCBDE845
:1008E000005006BC62B608471A484FF080510160BC
:1008F000704718484FF080510160704772B6EFF3AF
:10090000098020E9F00F40F24C15C2F200452E6834
:100910003060744608F008F940F2D200C2F200409C
:1009200040F2D301C2F200410A78027040F2501145
:10093000C2F200410A682A6044F0F40E1068B0E880
:10094000F00F80F3098862B6704700004C01002464
:100950005001002404ED00E010B502F0A5F80446B3
:10096000204610BD00BFFEE710B500F0FBF800F018
:1009700003F800F0F3F810BD70B500260020184908
:100980000880184908801849086018490860184903
:1009900008601849086018490860002400BFFFF784
:1009A0002BFD064600BF00250BE000201049086023
:1009B00000F074F800F08CF80D4800680444681CDE
:1009C00085B2002DF1D00C48046000200849086071
:1009D0000849086000BF3046FFF712FD00BF70BD38
:1009E00070000024720000247400002478000024A9
:1009F00080000024840000247C0000240146084676
:100A0000044A1268904203D9024A1268801A00E030
:100A1000002070477C00002470B5002500BFFFF760
:100A2000EBFC054600BF0648046800BF2846FFF7F8
:100A3000E7FC00BF2046FFF7E1FF0646304670BDE9
:100A40008000002470B50025FFF7E6FF044600BFD4
:100A5000FFF7D2FC054600BF00200449086000BF34
:100A60002846FFF7CDFC00BF204670BD8000002463
:100A700070B5002500BFFFF7BFFC054600BF064864
:100A8000046800BF2846FFF7BBFC00BF2046FFF705
:100A9000B5FF0646304670BD8400002410B50948F5
:100AA0000088401C074908800748008818B900F0F2
:100AB00083F80649086004480088401C0249088001
:100AC00010BD000070000024720000247400002497
:100AD00010B50F480088401E0D4908800846008860
:100AE000A0B900F069F80B490860084600680A4997
:100AF0000968441A09480068A04201D20748046006
:100B000007480068A04201D20548046010BD0000FB
:100B10007200002478000024740000248000002467
:100B20008400002410B5002400BF00BFFFF764FC60
:100B3000044600BFFFF7B2FF00BF1021064806F0D1
:100B40009AFD00BFFFF7C4FF00BF2046FFF758FC27
:100B500000BF00BF10BD0000B00C002410B5FFF7AF
:100B6000E1FF10BD10B500200249086000F00AF84E
:100B700010BD00006C0000240149086070470000AF
:100B80006C00002410B5FFF7E7FE04460848006833
:100B900040F0807006490860002006494860084619
:100BA000006840F0010008602046FFF7E5FF10BD37
:100BB000FCED00E0001000E00149486870470000CB
:100BC000001000E010B50AF069F80AF019F80348BF
:100BD000006840F004000149086010BD9CEF00E08F
:100BE0007047000070B504461D460023B5F5804FE0
:100BF00013D154F822300C480340D1E9000640EAF2
:100C000006108E6840EA06208E8940EA06408E690A
:100C10003043034344F8223003E06FF0704044F85F
:100C20002200002070BD00000000F0CF10B5024689
:100C30000023086852F820301B480340D1E9010422
:100C40002043CC6820430C6920434C6920438C69C5
:100C50002043CC6920430C6A20434C6A20438C6AB1
:100C60002043CC6A20430C6B20438C6B20434C6B9D
:100C7000204303438868082801D143F040030868F3
:100C800042F82030086BB0F5801F05D1086818B114
:100C900010680C6B20431060086818B110684C6B2A
:100CA00020431060002010BD8004C0FF30B5034613
:100CB00014460022601C53F8202002F04042D1E983
:100CC000000540EA05108D6840EA05208D8940EA5C
:100CD0000545088A401E45EA0055087D801E45EA04
:100CE00000608D6928430243601C43F82020186887
:100CF00000F4801038B1586820F47002088A401E51
:100D000042EA00525A60002030BD30B5024600234E
:100D100000240868012816D013686FF30E03D1E988
:100D200001052843CD6828430D6928434D692843B0
:100D30008D692843CD6928430D6A28434D6A2843AD
:100D40000343136019E0136823F4F843D1E907055E
:100D500028434D6A2843034354686FF30E04D1E9D6
:100D600001052843CD6828430D6928434D69284370
:100D70008D692843044313605460002030BD02464F
:100D8000506940EA410050610020704718B50346A1
:100D900000200090D1E9000420438C68641E40EAE2
:100DA0004410CC6840EA442000900098186100206C
:100DB00018BD000070B50346154600220024012D21
:100DC0001FD09A6802F070420868401E4E68761E76
:100DD00040EA06168868401E46EA0026C868401E9B
:100DE00046EA0036088A401E46EA0046888A401EC7
:100DF00046EA0056087E401E46EA006002439A60BA
:100E000022E09A6811480240C868401E0603888A9A
:100E1000401E46EA00500243DC6804F07044086853
:100E2000401E4E68761E40EA06168868401E46EA56
:100E30000026088A401E46EA0046087E401E46EA12
:100E4000006004439A60DC60002070BDFF0F0FFF5C
:100E500010B504460CB9012010BD94F835000228E5
:100E600003D0802060650120F6E73449206888427D
:100E700005D333492068884201D8012000E00020D2
:100E8000C0B1042084F835002C49206888420AD378
:100E90002B492068884206D82068006820F00100AD
:100EA0002168086048E02068006820F0010021689F
:100EB000086041E02068006820F00E0021680860AA
:100EC0001E49206888420AD31D492068884206D8F6
:100ED0002068006820F001002168086005E02068B3
:100EE000006820F0010021680860206E006820F48E
:100EF0008070216E086094F85C10012088401149D0
:100F00000860D4E919104860E06E40B1E06E0068F6
:100F100020F48070E16E0860D4E91C10486000BFC6
:100F2000002084F8340000BF012084F83500206DD3
:100F300010B12046216D884700208DE71000024047
:100F4000B8040240045402580348006840F001000D
:100F5000014908607047000020040058F8B50246B7
:100F60000B460021002600240020824D00BFFCE03B
:100F7000012707FA01F61F6807EA0604B4427CD18C
:100F80005F68022F02D05F68122F1AD14FEAD10C8E
:100F900002F1200757F82C004F074FEAD76C0F27B4
:100FA00007FA0CF7B8434FEA417C4FEADC6C1F6943
:100FB00007FA0CF738434FEAD10C02F1200747F843
:100FC0002C0010684FEA410C032707FA0CF7B843CE
:100FD0001F7907F003074FEA410C07FA0CF7384373
:100FE00010605F68012F08D05F68022F05D05F682E
:100FF000112F02D05F68122F17D190684FEA410C71
:10100000032707FA0CF7B8434FEA410CDF6807FAE9
:101010000CF738439060506801278F40B8431F7920
:10102000C7F300178F4038435060D0684FEA410C37
:10103000032707FA0CF7B8434FEA410C9F6807FAF9
:101040000CF73843D0605F6807F08057B7F1805FD6
:1010500095D100BF484F3F6847F00207DFF818C13D
:10106000CCF8007067463F6807F00207009700BFA2
:1010700000BF424F4FEA910C00E075E057F82C009A
:101080008F074FEA177C0F2707FA0CF7B8433C4F3E
:10109000BA4201D100272DE03A4FBA4201D10127CF
:1010A00028E0394FBA4201D1022723E0374FBA4234
:1010B00001D103271EE0364FBA4201D1042719E0BF
:1010C000344FBA4201D1052714E0334FBA4201D15F
:1010D00006270FE0314FBA4201D107270AE0304F0F
:1010E000BA4201D1082705E02E4FBA4201D10927A3
:1010F00000E00A274FEA817C4FEA1C7C07FA0CF7D4
:1011000038431E4F4FEA910C47F82C002868A04343
:101110005F6807F48037B7F5803F00D1204328602F
:101120006868A0435F6807F40037B7F5003F00D157
:10113000204368604FF0B0473868A0435F6807F409
:101140008017B7F5801F00D120434FF0B0473860BB
:101150007868A0435F6807F40017B7F5001F00D157
:1011600020434FF0B0477860491C1029FFF400AFCE
:10117000F8BD000080000058F444025808040058EC
:10118000000002580004025800080258000C0258DF
:10119000001002580014025800180258001C02588F
:1011A0000020025800240258024613690B400BB17C
:1011B000012000E00020704742694A4042617047C8
:1011C0000AB1018300E041837047000001480068D4
:1011D0007047000050000024034800680349097864
:1011E000084401490860704750000024580000245A
:1011F00010B5032000F07AFA0F2000F007F808B1CC
:10120000012010BD00F022FA0020FAE770B5044674
:101210000E4800784FF47A71B1FBF0F00C49096880
:10122000B1FBF0F5284602F0A5FA08B1012070BD27
:10123000102C07D200222146501E00F018FA054853
:10124000046001E00120F2E70020F0E758000024EC
:10125000380000245400002470B504460E4615469C
:1012600000BF94F8A000012801D1022070BD012028
:1012700084F8A00000BF022084F8A10005EB8501DE
:1012800001EBC50204F1380101EB82003422314642
:10129000FFF7E8F92A463146204606F0E1F801203A
:1012A0002168486284F8A10000BF002084F8A000F3
:1012B00000BF00BFDAE7000070B504460025002635
:1012C0000CB9012070BD94F8A10028B9002084F861
:1012D000A000204600F07EF8022084F8A1002068DB
:1012E000806920F0704021688861D4E901010843D9
:1012F000E168084321690843216889690843216836
:101300008861206880683249084021688860A08A26
:10131000050420688068A169294308432168886022
:101320002068C0682A4908402168C860A08B05046D
:101330002068C068216A294308432168C860206882
:1013400000692349084021680861A08C05042068D1
:101350000069A16A2943084321680861206840693F
:101360001B49084021684861A08D05042068406938
:10137000216B294308432168486194F83500050230
:1013800094F8360006042068C06A00F07F402168A7
:10139000C86246EA050094F8341008432168C96A17
:1013A00008432168C8622068406B40F0060021684D
:1013B00048632068806940F001002168886100204E
:1013C000C4F8A400012084F8A10000207AE70000FE
:1013D00000F800F010B586B0044600BF4848006829
:1013E00040F00800464908600846006800F0080020
:1013F000009000BF00BF00BF41481038006840F0B7
:1014000010003F49103908600846006800F01000DD
:10141000009000BF00BF00BF3948001F006840F0C7
:1014200002003749091F08600846006800F0020002
:10143000009000BF00BF00BF0846006840F02000D9
:1014400008600846006800F02000009000BF00BF60
:1014500000BF0846006840F0400008600846006889
:1014600000F04000009000BF00BF00BF08460068C9
:1014700040F0800008600846006800F0800000909E
:1014800000BF00BF00BF0846006840F480700860DD
:101490000846006800F48070009000BF00BF202064
:1014A00001900120029003900320049001A91548A7
:1014B000FFF754FD4FF4806001900220029000205D
:1014C0000390032004900E20059001A90E48FFF719
:1014D00045FD4FF40C60019001A90C48FFF73EFD5B
:1014E0004FF47E40019001A90948FFF737FD40F213
:1014F000F760019001A90748FFF730FD06B010BD65
:10150000E44402580004025800140258001802581B
:10151000001C0258002002582DE9F04104460E46F6
:101520001746984600BF94F8A000012802D1022077
:10153000BDE8F081012084F8A00000BF022084F8FB
:10154000A10008EB880000EBC80104F1380000EBB3
:1015500081052E60A86A30446860AF60E86A38444C
:10156000E86042462946204605F07AFF01202168BE
:10157000486284F8A10000BF002084F8A00000BFEA
:1015800000BFD5E72DE9F04104460E4617469846C0
:1015900000BF94F8A000012802D10220BDE8F0812C
:1015A000012084F8A00000BF022084F8A10008EB0D
:1015B000880000EBC80104F1380000EB81052868C1
:1015C00030446860A8683844E860AE62EF62424622
:1015D0002946204605F044FF01202168486284F82E
:1015E000A10000BF002084F8A00000BF00BFD5E725
:1015F0004178154A11600178F9B1121D41681160F6
:10160000017B0907C27A41EA0261827A41EAC2415A
:10161000427B41EA8241827B41EA4241C27B41EA0C
:101620000241427A41EA0221027A41EA4201027809
:101630001143054A0832116005E00021024A121DDB
:101640001160121D1160704798ED00E0704701466F
:101650000846002809DB00F01F0301229A404309D5
:101660009B0003F1E023C3F8002100BF70472DE980
:10167000F05F80460D46164600270AF03FFB0746FE
:1016800039462A46334601F00700C0F1070ABAF18D
:10169000040F02D94FF0040A01E0C0F1070AD14655
:1016A00000F1040ABAF1070F02D24FF0000A01E07C
:1016B000A0F1030AD4464FF0010A0AFA09FAAAF186
:1016C000010A0AEA020A0AFA0CFA4FF0010B0BFAB5
:1016D0000CFBABF1010B0BEA030B4AEA0B042146AE
:1016E00040460AF013FBBDE8F09F000000BF00F089
:1016F0000702064B19684FF6FF031940044B0B43D2
:1017000043EA0221014B196000BF70470CED00E075
:101710000000FA0510B501F00FFA0949096801F453
:1017200070614FF4807292FAA2F2B2FA82F2D14062
:10173000044A515CC840044908600846006810BD6E
:101740001844025862C300083800002410B501F0A4
:10175000ABF90749096801F07001102292FAA2F270
:10176000B2FA82F2D140034A515CC84010BD000079
:101770002044025862C3000870B5014600220120CF
:10178000002300249FED811AB0EE410A9FED7F1ADD
:10179000F0EE410A7E4D2D6805F003027C4D2D6868
:1017A000C5F305307A4D2D1D2D6805F01003784DD9
:1017B00014352D68C5F3CC0515FB03F501EE105A61
:1017C000B8EE411AB0EE410A22B1012A4DD0022AE8
:1017D0007DD169E06E4D283D2D68C5F340152DB3D0
:1017E0006B4D283D2D68C5F3C1066A4D25FA06F4F8
:1017F000B4FBF0F501EE105AF8EE411A9FED661AAF
:1018000080EE012A624D10352D68C5F3080501EE02
:10181000105AB8EE411A32EE011AB7EE002A31EE34
:10182000021A21EE811AF0EE410A1DE0594DB5FB76
:10183000F0F501EE105AF8EE411A9FED571A80EEBE
:10184000012A534D10352D68C5F3080501EE105AD5
:10185000B8EE411A32EE011AB7EE002A31EE021A42
:1018600021EE811AF0EE410A5EE04C4DB5FBF0F539
:1018700001EE105AB8EE412A9FED471AC0EE011A48
:10188000434D10352D68C5F3080501EE105AB8EE2A
:10189000411A31EE811AF7EE001A31EE211A22EECA
:1018A000011AF0EE410A3FE03D4DB5FBF0F501EEC7
:1018B000105AF8EE411A9FED381A80EE012A344D85
:1018C00010352D68C5F3080501EE105A00E00CE054
:1018D000B8EE411A32EE011AB7EE002A31EE021AC2
:1018E00021EE811AF0EE410A1EE02C4DB5FBF0F519
:1018F00001EE105AB8EE412A9FED271AC0EE011AE8
:10190000234D10352D68C5F3080501EE105AB8EEC9
:10191000411A31EE811AF7EE001A31EE211A22EE49
:10192000011AF0EE410A00BF00BF194D10352D68B5
:10193000C5F346256D1C01EE105AB8EE411AC0EEF3
:10194000811ABCEEE11A81ED001A114D10352D6897
:10195000C5F306456D1C01EE105AB8EE411AC0EEF3
:10196000811ABCEEE11A81ED011A094D10352D687E
:10197000C5F306656D1C01EE105AB8EE411AC0EEB3
:10198000811ABCEEE11A81ED021A70BD0000000060
:10199000284402580090D0030000004600093D0092
:1019A00040787D0170B5014600220120002300240B
:1019B0009FED811AB0EE410A9FED7F1AF0EE410AC9
:1019C0007E4D2D6805F003027C4D2D68C5F3055052
:1019D0007A4D2D1D2D6805F48073784D1C352D68CA
:1019E000C5F3CC0515FB03F501EE105AB8EE411A0C
:1019F000B0EE410A22B1012A4DD0022A7DD169E020
:101A00006E4D283D2D68C5F340152DB36B4D283D17
:101A10002D68C5F3C1066A4D25FA06F4B4FBF0F54E
:101A200001EE105AF8EE411A9FED661A80EE012A77
:101A3000624D18352D68C5F3080501EE105AB8EE51
:101A4000411A32EE011AB7EE002A31EE021A21EEE7
:101A5000811AF0EE410A1DE0594DB5FBF0F501EE9B
:101A6000105AF8EE411A9FED571A80EE012A534D95
:101A700018352D68C5F3080501EE105AB8EE411A65
:101A800032EE011AB7EE002A31EE021A21EE811A67
:101A9000F0EE410A5EE04C4DB5FBF0F501EE105A58
:101AA000B8EE412A9FED471AC0EE011A434D183592
:101AB0002D68C5F3080501EE105AB8EE411A31EE53
:101AC000811AF7EE001A31EE211A22EE011AF0EE19
:101AD000410A3FE03D4DB5FBF0F501EE105AF8EE3E
:101AE000411A9FED381A80EE012A344D18352D68C1
:101AF000C5F3080501EE105A00E00CE0B8EE411AFB
:101B000032EE011AB7EE002A31EE021A21EE811AE6
:101B1000F0EE410A1EE02C4DB5FBF0F501EE105A37
:101B2000B8EE412A9FED271AC0EE011A234D183551
:101B30002D68C5F3080501EE105AB8EE411A31EED2
:101B4000811AF7EE001A31EE211A22EE011AF0EE98
:101B5000410A00BF00BF194D18352D68C5F3462551
:101B60006D1C01EE105AB8EE411AC0EE811ABCEE9F
:101B7000E11A81ED001A114D18352D68C5F306459F
:101B80006D1C01EE105AB8EE411AC0EE811ABCEE7F
:101B9000E11A81ED011A094D18352D68C5F3066566
:101BA0006D1C01EE105AB8EE411AC0EE811ABCEE5F
:101BB000E11A81ED021A70BD0000000028440258AD
:101BC0000090D0030000004600093D0040787D01F0
:101BD0002DE9F04104464FF00008002700250026BB
:101BE000206800F0006000283AD0606E48B1B0F57F
:101BF000801F0DD0B0F5001F15D0B0F5401F1FD1CC
:101C00001DE0FB48006840F40030F949086019E025
:101C1000F748006840F40010F5490860201D08F0FE
:101C2000F7FE05460EE0F248006840F08070F0498B
:101C3000086004F1240008F067FF054602E001E0B7
:101C4000012500BF00BF55B9E9482430006820F4E1
:101C50004010616E0843E6492431086000E02E43DD
:101C6000208800F48070A8B3606D052824D2DFE8D6
:101C700000F0030A15212200DD48006840F400301E
:101C8000DB4908601AE0DA48006840F40020D849CF
:101C90000860201D08F0BCFE05460FE0D44800682F
:101CA00040F48000D249086004F1240008F02CFFC1
:101CB000054603E002E001E0012500BF00BF55B981
:101CC000CB482430006820F00700616D0843C84904
:101CD0002431086000E02E43208800F40070D8B35F
:101CE000A06D80281CD003DC40B1402826D10CE038
:101CF000C02821D0B0F5807F20D11EE0BC4800680C
:101D000040F40030BA4908601AE0B948006840F46D
:101D10000020B7490860201D08F07AFE05460FE054
:101D2000B348006840F48000B149086004F1240021
:101D300008F0EAFE054603E002E001E0012500BFED
:101D400000BF55B9AA482430006820F4E070A16DA6
:101D50000843A7492431086000E02E43208800F49E
:101D6000806078B3D4F8A400B0F5800F1ED004DCF6
:101D700050B1B0F5001F28D10DE0B0F5C00F22D052
:101D8000B0F5000F21D11FE09948006840F4003001
:101D9000974908601BE09648006840F40020944989
:101DA0000860201D08F034FE054610E090480068E9
:101DB00040F480008E49086004F1240008F0A4FE7D
:101DC000054604E012E002E001E0012500BF00BF8B
:101DD0005DB987482C30006820F46000D4F8A41066
:101DE000084383492C31086000E02E43208800F42A
:101DF000006078B3D4F8A800B0F1007F1ED004DCF6
:101E000050B1B0F1807F28D10DE0B0F1407F22D0F9
:101E1000B0F1806F21D11FE07548006840F40030B8
:101E2000734908601BE07248006840F40020704964
:101E30000860201D08F0ECFD054610E06C480068C5
:101E400040F480006A49086004F1240008F05CFE58
:101E5000054604E012E002E001E0012500BF00BFFA
:101E60005DB963482C30006820F0E060D4F8A81019
:101E700008435F492C31086000E02E43206800F0E1
:101E8000007050B3A06CC8B1102804D0202809D02D
:101E9000302814D111E05648006840F4003054490D
:101EA00008600EE05248006840F400105049086095
:101EB000201D08F0ADFD054603E002E001E001252C
:101EC00000BF00BF55B94A482030006820F03000FC
:101ED000A16C084346492031086000E02E43208869
:101EE00000F4805078B3E06DB0F5005F1ED004DCE4
:101EF00050B1B0F5805F28D10DE0B0F5405F21D042
:101F0000B0F5804F21D11FE03948006840F400301F
:101F1000374908601BE03648006840F40020344927
:101F20000860201D08F074FD054610E03048006888
:101F300040F480002E49086004F1240008F0E4FD1C
:101F4000054604E003E010E001E0012500BF00BF0A
:101F500055B927482430006820F4E040E16D08437B
:101F600023492431086000E02E43208800F400500B
:101F7000E0B3206EB0F5403F27D007DC68B1B0F584
:101F8000803F0BD0B0F5003F22D112E0B0F5802F9A
:101F90001CD0B0F5A02F1BD119E01BE0144800683D
:101FA00040F4801012490860201D08F031FD0546FC
:101FB00010E00F48006840F400000D49086004F18B
:101FC000240008F0A1FD054604E003E002E001E082
:101FD000012500BF00BF6DB905482430006820F41A
:101FE000E020216E084302492431086003E000002C
:101FF0002C4402582E43208800F4804078B3D4F853
:10200000AC00B0F1405F27D007DC68B1B0F1805F71
:102010000BD0B0F1005F23D112E0B0F1804F1CD0A3
:10202000B0F1A04F1CD119E01CE0FA48006840F460
:102030008010F8490860201D08F0EAFC054611E010
:10204000F448006840F40000F249086004F12400FC
:1020500008F05AFD054605E004E003E002E010E068
:10206000012500BF00BF5DB9EA482C30006820F0B0
:10207000E040D4F8AC100843E6492C31086000E099
:102080002E43208800F4004048B3E06EC0B1B0F1A8
:10209000805F03D0B0F1005F13D106E0DD48006837
:1020A00040F40030DB4908600DE0DA48006840F495
:1020B0008010D8490860201D08F0AAFC054602E0FF
:1020C00001E0012500BF00BF55B9D24824300068A7
:1020D00020F04050E16E0843CE492431086000E012
:1020E0002E43206800F0807050B3606CC8B10128A6
:1020F00004D0022809D0032814D111E0C548006893
:1021000040F40030C34908600EE0C248006840F463
:102110000010C0490860201D08F07AFC054603E065
:1021200002E001E0012500BF00BF55B9B9482030E9
:10213000006820F00300616C0843B6492031086054
:1021400000E02E43206800F48000E8B3B248006845
:1021500040F48070B0490860FFF738F8074606E0A1
:10216000FFF734F8C01B642801D9032505E0AA480D
:10217000006800F480700028F2D000BF9DBBA54825
:102180004430006800F44070B4F8B01001F44071BD
:10219000884214D09F484430006820F440789D481D
:1021A0004430006840F480309A4944310860084661
:1021B000006820F4803008600846C0F80080D4F839
:1021C000B000B0F5807F00E045E015D1FEF7FEFFDE
:1021D000074609E0FEF7FAFFC01B41F2883188424A
:1021E00002D9032507E035E08A4844300068C0F38F
:1021F00040000028EED000BF55BB00BFB4F8B000CF
:1022000000F44070B0F5407F0ED182481C38006861
:1022100020F47C51814AD4F8B000104041EA1010FB
:102220007C491C39086007E07A481C38006820F4B3
:102230007C5078491C390860764844300068B4F80E
:10224000B010C1F30B01084372494431086002E049
:102250002E4300E02E43207800F00100B8B3A06FB9
:10226000182823D005DC48B1082808D0102820D130
:1022700010E020281BD028281BD119E01BE065485E
:10228000006840F4801063490860201D08F0C0FB1E
:10229000054610E05F48006840F400005D490860B2
:1022A00004F1240008F030FC054604E003E002E0FD
:1022B00001E0012500BF00BF55B95648283000682D
:1022C00020F03800A16F084352492831086000E02F
:1022D0002E43207800F0020080B3606F06281FD2E2
:1022E000DFE800F003040F1B1C1D1BE049480068D9
:1022F00040F4801047490860201D08F089FB05461E
:1023000010E04448006840F400004249086004F1CD
:10231000240008F0F9FB054604E003E002E001E0D8
:10232000012500BF00BF55B93A482830006820F0A9
:102330000700616F084337492831086000E02E43E9
:10234000207800F0040090B3D4F8900006281FD243
:10235000DFE800F003040F1B1C1D1BE02D48006884
:1023600040F480102B490860201D08F051FB054601
:1023700010E02848006840F400002649086004F195
:10238000240008F0C1FB054604E003E002E001E0A0
:10239000012500BF00BF5DB91E482C30006820F049
:1023A0000700D4F8901008431A492C31086000E067
:1023B0002E43207800F0200090B3D4F88C00B0F1C8
:1023C000405F2ED007DC68B1B0F1805F0BD0B0F178
:1023D000005F29D112E0B0F1804F23D0B0F1A04FBF
:1023E00022D120E022E00B48006840F40020094997
:1023F0000860201D08F00CFB054617E00548006842
:1024000040F080700349086004F1240008F07CFB70
:1024100005460BE02C44025800480258FFFCFF0F11
:1024200011E003E002E001E0012500BF00BF4DB96B
:10243000FE48006820F0E040D4F88C100843FB49C7
:10244000086000E02E43207800F0400080B3D4F80C
:102450009800B0F5406F2CD007DC68B1B0F5806F04
:102460000BD0B0F5006F27D114E0B0F5805F21D01C
:10247000B0F5A05F20D11EE020E0EC4828380068CD
:1024800040F40020E94928390860201D08F0C0FA0E
:10249000054613E0E5482838006840F08070E349BD
:1024A0002839086004F1240008F02EFB054605E0F9
:1024B00013E003E002E001E0012500BF00BF5DB9C9
:1024C000DA48001D006820F4E050D4F89810084362
:1024D000D649091D086000E02E43207800F08000F6
:1024E00080B3D4F89C00B0F5C04F2CD007DC68B1A5
:1024F000B0F5005F0BD0B0F5804F27D114E0B0F5F8
:10250000004F21D0B0F5204F20D11EE020E0C74879
:102510002838006840F40020C44928390860201D8C
:1025200008F076FA054613E0C0482838006840F005
:102530008070BE492839086004F1240008F0E4FAEC
:10254000054605E013E003E002E001E0012500BFDD
:1025500000BF5DB9B548001D006820F46040D4F8A4
:102560009C100843B149091D086000E02E43207803
:1025700000F00800D0B1D4F88000B0F5805F0CD135
:1025800004F1240008F0C0FAA8482838006840F098
:102590008070A6492839086008E0A448006820F443
:1025A0004050D4F880100843A0490860207800F01B
:1025B0001000E0B1D4F89400B0F5807F0CD104F1A4
:1025C000240008F0A1FA99482838006840F080708B
:1025D0009649283908600AE09448001D006820F4F4
:1025E0004070D4F8941008439049091D0860206891
:1025F00000F40020A0B3D4F8A00030B1B0F5803FC3
:1026000010D0B0F5003F1CD11AE088482838006887
:1026100040F40020854928390860201D08F0F8F9A9
:10262000054610E081482838006840F080707F49F6
:102630002839086004F1240008F066FA054602E033
:1026400001E0012500BF00BF5DB97848001D0068AA
:1026500020F44030D4F8A01008437449091D0860E4
:1026600000E02E43206800F4802080B3D4F884007A
:10267000B0F5801F06D0B0F5001F0CD0B0F5401F9C
:1026800018D116E069482838006840F400306749DE
:102690002839086010E065482838006840F40000D8
:1026A00062492839086004F1240008F02DFA054633
:1026B00002E001E0012500BF00BF4DB95B480068A2
:1026C00020F44010D4F8841008435849086000E012
:1026D0002E43206800F4803048B3E06C18B1B0F5A8
:1026E000803F16D108E051482838006840F4003097
:1026F0004E49283908600EE04C482838006840F4FC
:1027000000104A4928390860201D08F081F9054663
:1027100001E0012500BF00BF55B9444808380068F2
:1027200020F48030E16C084340490839086000E03B
:102730002E43206800F0005060B13C482838006803
:1027400040F0807039492839086004F1240008F00D
:10275000DBF90643206800F4003018B3E06FA0B145
:10276000B0F5807F06D0B0F5007F0CD0B0F5407F8B
:102770000CD109E02D482838006840F400302B497E
:102780002839086004E003E002E001E0012500BF11
:1027900000BF45B92548006820F44070E16F084348
:1027A0002249086000E02E43206800F4801048B100
:1027B0001E48001F006820F00040216F08431B499D
:1027C000091F0860206800F0805050B11748443855
:1027D000006820F48040D4F8B41008431349443909
:1027E0000860206800F4001048B11048001F00681D
:1027F00020F08070A16E08430C49091F0860206812
:1028000000F0804088B100BF08484438006820F4D8
:10281000004006494439086008460068D4F8B810FA
:10282000084302494439086000BF01E0544402589B
:10283000206800F0004038B10648006820F04050A1
:10284000216D08430349086016B90020BDE8F081F6
:102850000120FBE74C44025870B504460D460026A3
:102860008D48006800F00700A8420ED28A48006830
:1028700020F007002843884908600846006800F0F7
:102880000700A84201D0012070BD207800F00200AE
:10289000022807D18148006820F00F00E168084352
:1028A0007E490860207800F00100002851D07B4864
:1028B000006820F47060A168084378490860606887
:1028C000022807D1754818380068C0F34040F8B9AD
:1028D0000120D9E76068032807D1704818380068DC
:1028E000C0F34060A0B90120CEE76068012807D19D
:1028F0006A4818380068C0F3002048B90120C3E7CF
:10290000664818380068C0F3800008B90120BBE7AA
:1029100062480838006820F00700616808435F4992
:1029200008390860FEF752FC06466068022811D19B
:1029300008E0FEF74BFC801B41F28831884201D948
:102940000320A1E755480838006800F03800102837
:10295000EFD13AE06068032811D108E0FEF736FCB9
:10296000801B41F28831884201D903208CE74B4813
:102970000838006800F038001828EFD125E06068BA
:10298000012811D108E0FEF721FC801B41F28831BB
:10299000884201D9032077E740480838006800F0F2
:1029A00038000828EFD110E008E0FEF70FFC801B8C
:1029B00041F28831884201D9032065E73748083859
:1029C000006800F038000028EFD13348006800F0BC
:1029D0000700A8420ED93048006820F007002843BD
:1029E0002D4908600846006800F00700A84201D0A1
:1029F000012049E7207800F00400042807D1274887
:102A0000006820F07000216908432449086020789C
:102A100000F00800082809D12048001D006820F0B7
:102A20007000616908431D49091D0860207800F0A5
:102A30001000102809D11948001D006820F4E0603A
:102A4000A16908431549091D0860207800F020009D
:102A5000202809D111480830006820F07000E16991
:102A600008430E490831086000F066F80B49096810
:102A700001F470614FF4807292FAA2F2B2FA82F21B
:102A8000D140074A515CC840064908600F20FEF754
:102A9000BDFB0020F8E60000002000521844025858
:102AA00062C300083800002410B5FEF733FE094960
:102AB000096801F00F01012292FAA2F2B2FA82F241
:102AC000D140054A515CC840044908600846006886
:102AD00010BD00001844025862C300083C000024E6
:102AE00010B5FFF7E1FF0749096801F070011022F6
:102AF00092FAA2F2B2FA82F2D140034A515CC84083
:102B000010BD00001C44025862C3000810B5FFF756
:102B1000CBFF0749096801F4E0614FF4807292FA33
:102B2000A2F2B2FA82F2D140024A515CC84010BD12
:102B30001C44025862C3000870B5012500EE905A8B
:102B40000022012100230024DFED861AB0EE610A85
:102B5000DFED841AB0EE611A0020834D2D6805F078
:102B6000380535B1082D15D0102D15D0182D7CD174
:102B700014E07D4D103D2D68C5F3401545B17A4DEB
:102B8000103D2D68C5F3C106784D25FA06F000E02A
:102B90007648E5E07648E3E07648E1E0724D1835A6
:102BA0002D6805F00302704D18352D68C5F3051129
:102BB0006D4D1C352D6805F001036B4D24352D68D6
:102BC000C5F3CC0515FB03F501EE905AF8EE611A3A
:102BD000B0EE610A22B1012A4FD0022A7DD16BE00A
:102BE000614D103D2D68C5F340152DB35E4D103D70
:102BF0002D68C5F3C1065D4D25FA06F4B4FBF1F569
:102C000001EE905AB8EE612ADFED5B1AC0EE212A80
:102C1000554D20352D68C5F3080501EE905AF8EEA4
:102C2000611A72EEA11AF7EE002A71EEA21A62EE94
:102C3000211AB0EE611A1FE04C4DB5FBF1F501EE23
:102C4000905AB8EE612ADFED4C1AC0EE212A464DAB
:102C500020352D68C5F3080501EE905AF8EE611A8B
:102C600072EEA11AF7EE002A00E077E071EEA21AE8
:102C700062EE211AB0EE611A5EE03D4DB5FBF1F552
:102C800001EE905AB8EE612ADFED3B1AC0EE212A20
:102C9000354D20352D68C5F3080501EE905AF8EE44
:102CA000611A72EEA11AF7EE002A71EEA21A62EE14
:102CB000211AB0EE611A3FE02E4DB5FBF1F501EEA1
:102CC000905AB8EE612ADFED2C1AC0EE212A264D6B
:102CD00020352D68C5F3080500E00EE001EE905A9E
:102CE000F8EE611A72EEA11AF7EE002A71EEA21A3E
:102CF00062EE211AB0EE611A1EE01D4DB5FBF1F532
:102D000001EE905AF8EE612ADFED1B1A80EE212ABF
:102D1000154D20352D68C5F3080501EE905AF8EEE3
:102D2000611A72EE211AB7EE002A71EE821A62EE73
:102D3000A11AB0EE611A00BF00BF0B4D20352D68FF
:102D4000C5F346256D1C00EE905AF8EE601A81EE30
:102D5000212AFCEEC21A11EE900A01E0044800BFDD
:102D600000BF70BD00000000104402580090D00366
:102D700000093D0040787D010000004670B5044622
:102D80000025207800F00100002872D0F948006882
:102D900000F0380010280CD0F648006800F0380029
:102DA000182812D1F3481830006800F003000228F8
:102DB0000BD1F04810380068C0F3404000286DD0B7
:102DC000606800286AD1012070BD00BF6068B0F55E
:102DD000803F08D1E7481038006840F48030E5496A
:102DE000103908602EE0606868B9E2481038006861
:102DF00020F48030DF49103908600846006820F46C
:102E0000802008601EE06068B0F5A02F0DD1D94881
:102E10001038006840F48020D64910390860084610
:102E2000006840F4803008600CE0D2481038006838
:102E300020F48030CF49103908600846006820F43B
:102E40008020086000BF6068A0B1FEF7BFF90546AA
:102E500008E0FEF7BBF9401B41F28831884201D9F6
:102E60000320B1E7C34810380068C0F34040002891
:102E7000EFD013E0FEF7AAF9054608E0FEF7A6F941
:102E8000401B41F28831884201D903209CE7B948B0
:102E900010380068C0F340400028EFD1207800F0DF
:102EA0000200022847D1B348006800F0380058B14A
:102EB000B048006800F0380018283ED1AD481830FE
:102EC000006800F00300B8BBAA4810380068C0F3DF
:102ED000800018B1E06808B9012075E7A5481038EE
:102EE000006820F01900E1680843A2491039086021
:102EF000FEF76CF9054606E0FEF768F9401B02286C
:102F000001D9032060E79B4810380068C0F38000B7
:102F10000028F1D097480C38006820F47C304FF43A
:102F20007C3292FAA2F2B2FA82F22169914008430D
:102F300090490C3908604AE0FFE7E06868B38D48C3
:102F40001038006820F01900E168084389491039F9
:102F50000860FEF73BF9054606E0FEF737F9401B2F
:102F6000022801D903202FE7824810380068C0F3F7
:102F700080000028F1D07F480C38006820F47C30B5
:102F80004FF47C3292FAA2F2B2FA82F221699140B5
:102F9000084378490C39086019E076481038006811
:102FA00020F00100734910390860FEF70FF905465B
:102FB00006E0FEF70BF9401B022801D9032003E7C6
:102FC0006C4810380068C0F380000028F1D12078E8
:102FD00000F01000102877D16648006800F0380033
:102FE00008280CD06348006800F03800182823D166
:102FF00060481830006800F0030001281CD15D48CB
:1030000010380068C0F3002020B1E069802801D0AA
:103010000120D9E657480C38006820F0F8404FF0FE
:10302000F84292FAA2F2B2FA82F2216A914008437F
:1030300050490C39086047E0E06958B34D481038F2
:10304000006840F080004B4910390860FEF7BEF878
:10305000054606E0FEF7BAF8401B022801D9032016
:10306000B2E6444810380068C0F300200028F1D0D0
:1030700040480C38006820F0F8404FF0F84292FACF
:10308000A2F2B2FA82F2216A9140084339490C391E
:10309000086019E037481038006820F08000354992
:1030A00010390860FEF792F8054606E0FEF78EF844
:1030B000401B022801D9032086E62E4810380068FC
:1030C000C0F300200028F1D1207800F00800082883
:1030D00036D16069D0B127486430006840F0010003
:1030E000244964310860FEF771F8054606E0FEF7F2
:1030F0006DF8401B022801D9032065E61D486430A5
:103100000068C0F340000028F1D019E0194864308D
:10311000006820F00100174964310860FEF756F896
:10312000054606E0FEF752F8401B022801D90320AD
:103130004AE6104864300068C0F340000028F1D12E
:10314000207800F02000202834D1A069D8B10948A7
:103150001038006840F48050064910390860FEF7C6
:1031600035F8054608E0FEF731F8401B022803D980
:10317000032029E610440258AF480068C0F34030ED
:103180000028F0D016E0AC48006820F48050AA492E
:103190000860FEF71BF8054606E0FEF717F8401B2F
:1031A000022801D903200FE6A3480068C0F340308D
:1031B0000028F2D1207800F0040004287DD19F4837
:1031C000006840F480709D490860FDF7FFFF0546E8
:1031D00006E0FDF7FBFF401B642801D90320F3E55F
:1031E0009648006800F480700028F2D000BFA06804
:1031F000012808D190487030006840F001008E49E5
:10320000703108602DE0A06868B98B4870300068A4
:1032100020F001008849703108600846006820F0FD
:10322000040008601DE0A06805280DD182487030B8
:10323000006840F00400804970310860084600686A
:1032400040F0010008600CE07B487030006820F01E
:1032500001007949703108600846006820F00400D8
:10326000086000BFA068A0B1FDF7B0FF054608E008
:10327000FDF7ACFF401B41F28831884201D90320A1
:10328000A2E56D4870300068C0F340000028EFD020
:1032900013E0FDF79BFF054608E0FDF797FF401B95
:1032A00041F28831884201D903208DE562487030AF
:1032B0000068C0F340000028EFD1606A00287CD08D
:1032C0005D481030006800F03800182876D0606A39
:1032D000022874D15848006820F080705649086070
:1032E000FDF774FF054606E0FDF770FF401B02285E
:1032F00001D9032068E550480068C0F34060002809
:10330000F2D100BFD4E90A1041EA00104A4928313D
:10331000096840F2F3329143084347492831086075
:10332000208E401EC0F30800616B491E4FF47E42A0
:1033300002EA41210843218F491ED20102EA0141DC
:1033400008433C21095D491E120202EA016108435B
:1033500039493031086000BF081D00684FF6F87128
:1033600088434FF6F87292FAA2F2B2FA82F2A16C96
:10337000914008433049343108602F482C300068B0
:1033800020F00C00216C08432B492C3108600846C2
:10339000006820F00200616C084327492C31086066
:1033A0000846006840F4803008600846006840F431
:1033B000003008600846006802E03BE038E01FE0AB
:1033C00040F4802008600846006840F00100086072
:1033D0001948006840F0807017490860FDF7F6FE54
:1033E000054606E0FDF7F2FE401B022801D9032046
:1033F000EAE411480068C0F340600028F2D019E008
:103400000D48006820F080700B490860FDF7DEFE73
:10341000054606E0FDF7DAFE401B022801D903202D
:10342000D2E405480068C0F340600028F2D101E012
:103430000120C9E40020C7E40044025800480258B3
:1034400070B504460D460CB9012070BD94F82C00EF
:1034500028B9002084F82D00204600F019F8022039
:1034600084F82C00211D2068FDF74FFC2946D4E983
:103470000002FDF79FFC0548006840F0004003494A
:103480000860012084F82C000020DEE70040005294
:1034900010B5B6B0044600BF4D48006840F00200C9
:1034A0004B4908600846006800F00200019000BF28
:1034B00000BF00BF46482038006840F480504449AF
:1034C000203908600846006800F48050019000BF71
:1034D00000BF00BF3E481438006840F004003C497B
:1034E000143908600846006800F00400019000BF2D
:1034F00000BF00BF0846006840F0080008600846AA
:10350000006800F00800019000BF00BF00BF08463F
:10351000006840F0100008600846006800F01000E5
:10352000019000BF00BF00BF0846006840F02000C7
:1035300008600846006800F02000019000BF00BF4E
:1035400000BF0846006840F0400008600846006878
:1035500000F04000019000BF00BF4FF0807002906B
:1035600002201390192003904FF40071049102215E
:10357000079102A8FEF72CFB0D203190022032901B
:1035800001203390032034900C20359031A911484C
:10359000FDF7E4FC4CF20370319031A90E48FDF7C1
:1035A000DDFC4FF68370319031A90C48FDF7D6FC55
:1035B0004FF63F00319031A90948FDF7CFFC48F2A2
:1035C0003710319031A90748FDF7C8FC36B010BD5F
:1035D000F444025800080258000C02580010025827
:1035E000001402580018025870B504460D4694F8AD
:1035F0002C00022800D170BD022084F82C0029463E
:103600002068FDF7BCFB012084F82C000020F2E7C5
:1036100070B504460D46164694F82C00022800D1D9
:1036200070BD022084F82C00324629462068FDF740
:10363000ADFB2868022803D1052084F82C0002E0A5
:10364000012084F82C000020EAE7000070B5044651
:103650000E4615460CB9012070BD94F8450028B9F6
:10366000002084F84400204600F024F804F108010A
:103670002068FDF7DBFA3146A2682068FDF716FBEB
:103680002946E36AD4E90102FDF7ACFAA168206893
:1036900050F8210040F00100A268216841F82200A2
:1036A0000348006840F00040014908600020D3E76B
:1036B0000040005210B586B0044600BF20480068A4
:1036C00040F480501E4908600846006800F48050AD
:1036D000009000BF00BF00BF19480C30006840F0E8
:1036E000080017490C3108600846006800F008001F
:1036F000009000BF00BF00BF0846006840F0100007
:1037000008600846006800F01000009000BF00BF8D
:103710004EF2B3700190022002900120039003202A
:1037200004900C20059001A90648FDF717FC4FF600
:103730008070019001A90448FDF710FC06B010BD8F
:10374000D4440258000C025800100258042808D132
:103750004FF0E021096941F004014FF0E0221161CE
:1037600007E04FF0E021096921F004014FF0E02269
:103770001161704770B504462546681EB0F1807F20
:1037800001D301200FE0681E4FF0E02148610F21B6
:103790004FF0FF3008F0BAFA00204FF0E0218861C6
:1037A00007200861002070BD704770470146002265
:1037B000002391F8792091F87A3042EA03007047AB
:1037C0002DE9F04104462068C56920680768206833
:1037D000866805F00F08B8F1000F0DD105F0200044
:1037E00050B107F0200010B906F0805020B12046FB
:1037F00007F0C7FCBDE8F081B8F1000F72D05D485A
:10380000304018B907F4907000287AD005F0010014
:1038100048B107F4807030B1012021680862E06F80
:1038200040F00100E06705F0020048B106F0010039
:1038300030B1022021680862E06F40F00400E067C8
:1038400005F0040048B106F0010030B10420216801
:103850000862E06F40F00200E06705F0080078B110
:1038600007F0200028B906F0805010B906F00100DA
:1038700030B1082021680862E06F40F00800E0677E
:10388000E06F70B305F0200040B107F0200010B9E0
:1038900006F0805010B1204607F073FCE06F00F096
:1038A000080020B92068806800F0400018B3204666
:1038B00007F047FC2068806800F04000B8B120683D
:1038C000806820F0400021688860606F58B12A4805
:1038D000616F0865606FFDF7BBFA10B1606F016D35
:1038E00088470DE00DE02046FFF75FFF08E0204627
:1038F000FFF75BFF04E02046FFF757FF0020E0677B
:1039000078E705F4801078B106F4800060B14FF4D8
:10391000801021680862202084F8790084F87A00F9
:103920002046FFF741FF65E705F0800048B107F04A
:10393000800010B906F4000018B1204608F038F9EC
:1039400058E705F0400030B107F0400018B12046BC
:1039500007F007FC4EE705F4000040B107F0804097
:1039600028B12068006820F080402168086000BF0E
:1039700040E70000010000102BB1000810B504461C
:103980000CB9012010BDA06900B100E000BF94F89F
:10399000790028B9002084F87800204600F02AF841
:1039A000242084F879002068006820F00100216854
:1039B0000860204607F02AFC012800D1E2E7606B8E
:1039C00010B1204607F002FB2068406820F49040C8
:1039D000216848602068806820F02A00216888609B
:1039E0002068006840F0010021680860204607F068
:1039F00062FBC7E710B586B00446214920688842BB
:103A00003BD100BF1F48006840F001001D4908601D
:103A10000846006800F00100009000BF00BF00BF32
:103A200018481030006840F0100016491031086046
:103A30000846006800F01000009000BF00BF4FF47F
:103A40000070019002200290012003900220049057
:103A50000720059001A90C48FDF780FA4FF480601B
:103A6000019001A90848FDF779FA2520FDF7EFFD3F
:103A7000032211462520FDF7FAFD06B010BD000017
:103A800000100140E04402580000025810B50346FF
:103A900093F87A00202867D101B10AB9012010BD3E
:103AA00000BF93F87800012801D10220F7E7012038
:103AB00083F8780000BF5966A3F86820A3F86A204D
:103AC00000BF9868B0F5805F0AD1186920B940F24C
:103AD000FF10A3F86C001CE0FF20A3F86C0018E0B6
:103AE000986848B9186918B9FF20A3F86C0010E06D
:103AF0007F20A3F86C000CE09868B0F1805F08D1DB
:103B0000186918B97F20A3F86C0002E03F20A3F8E1
:103B10006C0000BF0020D867222083F87A0000BF25
:103B2000002083F8780000BF1868806840F001002A
:103B30001C68A0601868006800F0005060B1186848
:103B4000006840F480701C6820601868806840F04D
:103B500080501C68A06005E01868006840F4907010
:103B60001C68206000209AE7022098E71D4A01683F
:103B7000914236D11C49098801F4004189BB1A4998
:103B8000098801F4804171B1184909780A2903D0E4
:103B90000021154A118024E01349098841F40041AD
:103BA000114A11801DE0114909780D2906D10E49ED
:103BB000098841F480410C4A118012E00B490978D0
:103BC000094A1288C2F30D02094B99540649098823
:103BD000491C054A118011460988C72901DD0021C9
:103BE00011807047001001404C0000244E0000245A
:103BF000B0090024704700BFFEE7000070B504461E
:103C000000260D4805880D48006818B1204603F0CD
:103C10005FF80FE00848408845430021084602F05D
:103C200035FE03F017F8002602E005490C80761CEB
:103C3000AE42FAD370BD0000440B00245C0C00249B
:103C40000000086010B504465C4884715C48006858
:103C500050B1204603F066F85948C08A5749088099
:103C60005748008B488010BD002C51D1F02053499B
:103C700008804FF4A07048800846808849F241319E
:103C8000884205D04D48808845F21031884214D1D1
:103C90002C204A4908812A2048812B208881084607
:103CA000808845F21031884206D14FF4A070434914
:103CB00008804FF4F07048807BE04048808845F2EF
:103CC0001051884210D14FF430503C4908814FF4D4
:103CD000285048814FF42C5088814FF4F0700880B0
:103CE0004FF44870488064E03448808841F663119E
:103CF00088425ED12C20314908812B2048812A201E
:103D000088814FF4F07008804FF44870488050E08C
:103D10004FF4A07029490880F02048800846808828
:103D200049F24131884205D02448808845F210315B
:103D3000884207D12C20214908812A2048812B2044
:103D4000888129E01D48808845F21051884210D1B1
:103D50004FF43050194908814FF4285048814FF4EE
:103D60002C5088814FF4487008804FF4F0704880E0
:103D700012E01248808841F6631188420CD12C2051
:103D80000E4908812A2048812B2088814FF44870F1
:103D900008804FF4F07048800848808845F2103160
:103DA000884206D14FF4F070044908804FF4A070A7
:103DB0004880002002F030FC00BF54E7440B002490
:103DC0005C0C00242DE9FF4F85B081468A46002017
:103DD000049003900798A0EB09050898A0EB0A0649
:103DE000CDF80890CDF804A0002D01DD012705E0F5
:103DF0000DB9002702E04FF0FF376D42002E02DDC3
:103E00004FF0010806E016B94FF0000802E04FF04D
:103E1000FF387642B54201DD2C4600E034464FF0D3
:103E2000000B21E0019A91B2029A90B200F022F8C0
:103E30000498284404900398304403900498A042C6
:103E400005DD0498001B0490029838440290039802
:103E5000A04205DD0398001B0390019840440190A7
:103E60000BF101001FFA80FB601C8345DADD09B00D
:103E7000BDE8F08F70B504460D460A48006830B1C1
:103E8000094829460268204602F062FF09E02946F7
:103E9000204602F0FBFC02F0DDFE034800880349E7
:103EA000088070BD5C0C00245C00002400000860E9
:103EB0002DE9F04104460D4616461F462B46324674
:103EC00029462046FFF77EFF3B46224629462046EC
:103ED000FFF778FF3B46324639462046FFF772FF30
:103EE0003B46324629463046FFF76CFFBDE8F0817D
:103EF00070B504460D4616464348006828B1324660
:103F00002946204602F024FF70BD4048808849F2CF
:103F10004131884205D03D48808845F210318842C1
:103F200014D13A49488902F089FE201202F07AFE43
:103F3000E0B202F077FE3549888902F07FFE281250
:103F400002F070FEE8B202F06DFE54E02F48808867
:103F500045F21051884220D12C49488902F06EFE6A
:103F6000201202F05FFE29494989491C88B202F0FB
:103F700065FEE0B202F056FE2449888902F05EFE3A
:103F8000281202F04FFE21498989491C88B202F0AB
:103F900055FEE8B202F046FE2DE01C48808841F64E
:103FA0006311884227D11948807920B917480088C1
:103FB000401E001B84B21549488902F03FFE2012C2
:103FC00002F030FEE0B202F02DFE201202F02AFED6
:103FD000E0B202F027FE0D49888902F02FFE281278
:103FE00002F020FEE8B202F01DFE281202F01AFED6
:103FF000E8B202F017FE0548008905490880891CCF
:104000000E8000BF80E700005C0C0024440B0024FD
:10401000FEFF07602DE9F84F05460E461746984605
:10402000DDF828904FF0000B1448006840B143467B
:104030003A4631462846CDF8009002F0B1FE1BE02A
:10404000781B401C1FFA80FB344613E021462846AB
:1040500002F01CFC02F0FEFD4FF0000A06E00849E9
:10406000A1F800900AF101001FFA80FADA45F6DBA8
:10407000601C84B24445E9DDBDE8F88F5C0C002487
:104080000000086000B595B003F07AF9FE49888019
:104090000846808818B102F027FF02F0F2B900BF8D
:1040A000FA48006840F00200F849086008460068D5
:1040B00000F00200019000BF00BF202010900120FE
:1040C000119012900320139010A9F148FCF746FFBD
:1040D00002F022FAEF48F0490860F04848600020FA
:1040E00088600021EC48C16001611021416100211C
:1040F0008161C16101624FF480514162002181629E
:104100004FF48041C1620021016341634FF480118B
:1041100081631120099000200A9055200B90002007
:104120000F9015200290002003901520049000208D
:10413000089002AA09A9D848FFF788FA322007F0A8
:1041400029FED32002F07AFD02F034FACE498880AD
:1041500002F030FACC49888002F02CFACA498880F3
:10416000084680884FF6FF7101EA0020C649888022
:1041700002F020FAC44989880843C3498880084668
:10418000808849F24131884278D0D42002F056FD2F
:1041900002F010FABC49888002F00CFABA49888013
:1041A00002F008FAB8498880084680884FF6FF7107
:1041B00001EA0020B449888002F0FCF9B2498988FC
:1041C0000843B14988800846808845F2103188420A
:1041D00054D04FF45A4002F031FD02F0EBF9AA49F5
:1041E00088804FF45B4002F029FD02F0E3F9A64914
:1041F0008880084680884FF6FF7101EA0020A249B6
:1042000088804FF45C4002F019FD02F0D3F99E491A
:10421000898808439C49888008468088B0F5004F0B
:1042200002D145F2105088809748808845F210519D
:10423000884223D0A12002F001FD02F0BBF992498F
:10424000888002F0B7F990498880084680884FF648
:10425000FF7101EA00208C49888002F0ABF98A499D
:1042600089880843884988800846808845F26171BA
:10427000884203D141F6631083498880824881884F
:1042800087A0FCF747F98048808849F2413188428D
:104290007ED1CF2002F0D2FC002002F0C3FCC1206E
:1042A00002F0C0FC302002F0BDFCED2002F0C6FCA4
:1042B000642002F0B7FC032002F0B4FC122002F0EC
:1042C000B1FC812002F0AEFCE82002F0B7FC8520B2
:1042D00002F0A8FC102002F0A5FC7A2002F0A2FC5B
:1042E000CB2002F0ABFC392002F09CFC2C2002F029
:1042F00099FC002002F096FC342002F093FC02208E
:1043000002F090FCF72002F099FC202002F08AFCD9
:10431000EA2002F093FC002002F084FC002002F06E
:1043200081FCC02002F08AFC1B2002F07BFCC12033
:1043300002F084FC012002F075FCC52002F07EFC36
:10434000302002F06FFC302002F06CFCC72002F03D
:1043500075FCB72002F066FC362002F06FFC4820A6
:1043600002F060FC3A2002F069FC552002F05AFC91
:10437000B12002F063FC002002F054FC1A2002F08D
:1043800051FCB62002F05AFC0A2002F04BFC00E07F
:10439000ACE0A22002F046FCF22002F04FFC00202C
:1043A00002F040FC262002F049FC012002F03AFC19
:1043B000E02002F043FC0F2002F034FC2A2002F03F
:1043C00031FC282002F02EFC082002F02BFC0E20ED
:1043D00002F028FC082002F025FC542002F022FC08
:1043E000A92002F01FFC432002F01CFC0A2002F06E
:1043F00019FC0F2002F016FC002002F013FC002034
:1044000002F010FC002002F00DFC002002F00AFC7B
:10441000E12002F013FC002002F004FC152002F061
:1044200001FC172002F0FEFB072002F0FBFB11202D
:1044300002F0F8FB062002F0F5FB2B2002F0F2FB65
:10444000562002F0EFFB3C2002F0ECFB052002F0CE
:10445000E9FB102002F0E6FB0F2002F0E3FB3F2017
:1044600002F0E0FB3F2002F0DDFB0F2002F0DAFB60
:104470002B2002F0E3FB002002F0D4FB002002F02E
:10448000D1FB012014E00000440B0024E04402585A
:104490000004025800400052F80A0024044100526F
:1044A000204C43442049443A25780D0A000000007E
:1044B00002F0B8FB3F2002F0B5FB2A2002F0BEFB61
:1044C000002002F0AFFB002002F0ACFB002002F065
:1044D000A9FBEF2002F0A6FB112002F0AFFB782031
:1044E00007F058FC292002F0A9FBD6E5FE48808899
:1044F00045F21031884240F07C87ED2002F09EFBAF
:10450000012002F08FFBFE2002F08CFBEE2002F077
:1045100095FBDE2002F086FB212002F083FBF120D8
:1045200002F08CFB012002F07DFBDF2002F086FB15
:10453000102002F077FBC42002F080FB8F2002F0F5
:1045400071FBC62002F07AFB002002F06BFBE22038
:1045500002F068FBE22002F065FBE22002F062FB61
:10456000BF2002F06BFBAA2002F05CFBB02002F03F
:1045700065FB0D2002F056FB002002F053FB0D20DE
:1045800002F050FB002002F04DFB112002F04AFB2C
:10459000002002F047FB192002F044FB002002F04B
:1045A00041FB212002F03EFB002002F03BFB2D20CE
:1045B00002F038FB002002F035FB3D2002F032FB18
:1045C000002002F02FFB5D2002F02CFB002002F007
:1045D00029FB5D2002F026FB002002F023FBB12026
:1045E00002F02CFB802002F01DFB002002F01AFBE1
:1045F0008B2002F017FB002002F014FB962002F043
:1046000011FB002002F00EFBB22002F017FB00208D
:1046100002F008FB002002F005FB022002F002FB82
:10462000002002F0FFFA032002F0FCFA002002F062
:10463000F9FAB32002F002FB002002F0F3FA0020A6
:1046400002F0F0FA002002F0EDFA002002F0EAFA9F
:10465000002002F0E7FA002002F0E4FA002002F065
:10466000E1FA002002F0DEFA002002F0DBFA00207E
:1046700002F0D8FA002002F0D5FA002002F0D2FAB7
:10468000002002F0CFFA002002F0CCFA002002F065
:10469000C9FA002002F0C6FA002002F0C3FA002096
:1046A00002F0C0FA002002F0BDFA002002F0BAFACF
:1046B000002002F0B7FA002002F0B4FA002002F065
:1046C000B1FA002002F0AEFAB42002F0B7FA8B2063
:1046D00002F0A8FA002002F0A5FA962002F0A2FA51
:1046E000002002F09FFAA12002F09CFA002002F0C4
:1046F00099FAB52002F0A2FA022002F093FA002003
:1047000002F090FA032002F08DFA002002F08AFAFB
:10471000042002F087FA002002F084FAB62002F0AA
:104720008DFA002002F07EFA002002F07BFAB7201A
:1047300002F084FA002002F075FA002002F072FA0A
:104740003F2002F06FFA002002F06CFA5E2002F0C7
:1047500069FA002002F066FA642002F063FA002091
:1047600002F060FA8C2002F05DFA002002F05AFAA2
:10477000AC2002F057FA002002F054FADC2002F0DC
:1047800051FA002002F04EFA702002F04BFA00209D
:1047900002F048FA902002F045FA002002F042FAB6
:1047A000EB2002F03FFA002002F03CFADC2002F09D
:1047B00039FA002002F036FAB82002F03FFA002061
:1047C00002F030FA002002F02DFA002002F02AFA5E
:1047D000002002F027FA002002F024FA002002F064
:1047E00021FA002002F01EFA002002F01BFABA2083
:1047F00002F024FA242002F015FA002002F012FA46
:10480000002002F00FFA002002F00CFAC12002F0A2
:1048100015FA202002F006FA002002F003FA5420D4
:1048200002F000FA002002F0FDF9FF2002F0FAF990
:10483000002002F0F7F9C22002F000FA0A2002F08C
:10484000F1F9002002F0EEF9042002F0EBF900206B
:1048500002F0E8F9C32002F0F1F93C2002F0E2F99D
:10486000002002F0DFF93A2002F0DCF9002002F02B
:10487000D9F9392002F0D6F9002002F0D3F9372017
:1048800002F0D0F9002002F0CDF93C2002F0CAF984
:10489000002002F0C7F9362002F0C4F9002002F02F
:1048A000C1F9322002F0BEF9002002F0BBF92F203E
:1048B00002F0B8F9002002F0B5F92C2002F0B2F9AC
:1048C000002002F0AFF9292002F0ACF9002002F03C
:1048D000A9F9262002F0A6F9002002F0A3F924206D
:1048E00002F0A0F9002001E0440B002402F09AF944
:1048F000242002F097F9002002F094F9232002F01E
:1049000091F9002002F08EF93C2002F08BF9002092
:1049100002F088F9362002F085F9002002F082F9D1
:10492000322002F07FF9002002F07CF92F2002F003
:1049300079F9002002F076F92C2002F073F90020BA
:1049400002F070F9292002F06DF9002002F06AF9F6
:10495000262002F067F9002002F064F9242002F01A
:1049600061F9002002F05EF9242002F05BF90020DA
:1049700002F058F9232002F055F9002002F052F914
:10498000C42002F05BF9622002F04CF9002002F032
:1049900049F9052002F046F9002002F043F984208D
:1049A00002F040F9002002F03DF9F02002F03AF95F
:1049B000002002F037F9182002F034F9002002F04C
:1049C00031F9A42002F02EF9002002F02BF9182072
:1049D00002F028F9002002F025F9502002F022F917
:1049E000002002F01FF90C2002F01CF9002002F058
:1049F00019F9172002F016F9002002F013F995209A
:104A000002F010F9002002F00DF9F32002F00AF98B
:104A1000002002F007F9E62002F004F9002002F07D
:104A200001F9C52002F00AF9322002F0FBF800205B
:104A300002F0F8F8442002F0F5F8002002F0F2F855
:104A4000652002F0EFF8002002F0ECF8762002F08A
:104A5000E9F8002002F0E6F8882002F0E3F80020F0
:104A600002F0E0F8C62002F0E9F8202002F0DAF8BF
:104A7000002002F0D7F8172002F0D4F8002002F04E
:104A8000D1F8012002F0CEF8002002F0CBF8C720C8
:104A900002F0D4F8002002F0C5F8002002F0C2F8BD
:104AA000002002F0BFF8002002F0BCF8C82002F09D
:104AB000C5F8002002F0B6F8002002F0B3F800209C
:104AC00002F0B0F8002002F0ADF8C92002F0B6F80C
:104AD000002002F0A7F8002002F0A4F8002002F065
:104AE000A1F8002002F09EF8002002F09BF80020C0
:104AF00002F098F8002002F095F8002002F092F8F9
:104B0000002002F08FF8002002F08CF8002002F064
:104B100089F8002002F086F8002002F083F80020D7
:104B200002F080F8002002F07DF8002002F07AF810
:104B3000E02002F083F8162002F074F8002002F062
:104B400071F81C2002F06EF8002002F06BF82120B2
:104B500002F068F8002002F065F8362002F062F8F2
:104B6000002002F05FF8462002F05CF8002002F01E
:104B700059F8522002F056F8002002F053F8642051
:104B800002F050F8002002F04DF87A2002F04AF8C6
:104B9000002002F047F88B2002F044F8002002F0D9
:104BA00041F8992002F03EF8002002F03BF8A820DE
:104BB00002F038F8002002F035F8B92002F032F89F
:104BC000002002F02FF8C42002F02CF8002002F0A0
:104BD00029F8CA2002F026F8002002F023F8D2209B
:104BE00002F020F8002002F01DF8D92002F01AF897
:104BF000002002F017F8E02002F014F8002002F084
:104C000011F8F32002F00EF8002002F00BF8E1207A
:104C100002F014F8162002F005F8002002F002F865
:104C20001C2001F0FFFF002001F0FCFF222001F01A
:104C3000F9FF002001F0F6FF362001F0F3FF00201D
:104C400001F0F0FF452001F0EDFF002001F0EAFF48
:104C5000522001F0E7FF002001F0E4FF642001F0A2
:104C6000E1FF002001F0DEFF7A2001F0DBFF0020F1
:104C700001F0D8FF8B2001F0D5FF002001F0D2FF1A
:104C8000992001F0CFFF002001F0CCFFA82001F017
:104C9000C9FF002001F0C6FFB92001F0C3FF0020CA
:104CA00001F0C0FFC42001F0BDFF002001F0BAFFF9
:104CB000CA2001F0B7FF002001F0B4FFD22001F0BC
:104CC000B1FF002001F0AEFFD82001F0ABFF0020C3
:104CD00001F0A8FFE02001F0A5FF002001F0A2FFF5
:104CE000F32001F09FFF002001F09CFFE22001F083
:104CF000A5FF052001F096FF002001F093FF0B2097
:104D000001F090FF002001F08DFF1B2001F08AFFD1
:104D1000002001F087FF342001F084FF002001F023
:104D200081FF442001F07EFF002001F07BFF4F2037
:104D300001F078FF002001F075FF612001F072FFA3
:104D4000002001F06FFF792001F06CFF002001F0DE
:104D500069FF882001F066FF002001F063FF9720C3
:104D600001F060FF002001F05DFFA62001F05AFF76
:104D7000002001F057FFB72001F054FF002001F0A0
:104D800051FFC22001F04EFF002001F04BFFC72071
:104D900001F048FF002001F045FFD12001F042FF63
:104DA000002001F03FFFD62001F03CFF002001F081
:104DB00039FFDD2001F036FF002001F033FFF32042
:104DC00001F030FF002001F02DFFE32001F036FF5D
:104DD000052001F027FF002001F024FF0A2001F048
:104DE00021FF002001F01EFF1C2001F01BFF00200E
:104DF00001F018FF332001F015FF002001F012FF31
:104E0000442001F00FFF002001F00CFF502001F0C2
:104E100009FF002001F006FF622001F003FF0020DF
:104E200001F000FF782001F0FDFE002001F0FAFE05
:104E3000882001F0F7FE002001F0F4FE972001F039
:104E4000F1FE002001F0EEFEA62001F0EBFE0020B6
:104E500001F0E8FEB72001F0E5FE002001F0E2FEDF
:104E6000C22001F0DFFE002001F0DCFEC72001F0CF
:104E7000D9FE002001F0D6FED12001F0D3FE0020A3
:104E800001F0D0FED52001F0CDFE002001F0CAFED9
:104E9000DD2001F0C7FE002001F0C4FEF32001F088
:104EA000C1FE002001F0BEFEE42001F0C7FE01209B
:104EB00001F0B8FE002001F0B5FE012001F0B2FEC5
:104EC000002001F0AFFE022001F0ACFE002001F056
:104ED000A9FE2A2001F0A6FE002001F0A3FE3C203E
:104EE00001F0A0FE002001F09DFE4B2001F09AFE93
:104EF000002001F097FE5D2001F094FE002001F0FB
:104F000091FE742001F08EFE002001F08BFE8420C3
:104F100001F088FE002001F085FE932001F082FE62
:104F2000002001F07FFEA22001F07CFE002001F0B5
:104F300079FEB32001F076FE002001F073FEBE2062
:104F400001F070FE002001F06DFEC42001F06AFE49
:104F5000002001F067FECD2001F064FE002001F08A
:104F600061FED32001F05EFE002001F05BFEDD203B
:104F700001F058FE002001F055FEF32001F052FE32
:104F8000002001F04FFEE52001F058FE002001F066
:104F900049FE002001F046FE002001F043FE002003
:104FA00001F040FE022001F03DFE002001F03AFE3B
:104FB000292001F037FE002001F034FE3C2001F0F2
:104FC00031FE002001F02EFE4B2001F02BFE0020D0
:104FD00001F028FE5D2001F025FE002001F022FEF8
:104FE000742001F01FFE002001F01CFE842001F05F
:104FF00019FE002001F016FE932001F013FE0020A0
:1050000001F010FEA22001F00DFE002001F00AFECA
:10501000B32001F007FE002001F004FEBE2001F0E5
:1050200001FE002001F0FEFDC42001F0FBFD002088
:1050300001F0F8FDCD2001F0F5FD002001F0F2FDBA
:10504000D32001F0EFFD002001F0ECFDDC2001F0A9
:10505000E9FD002001F0E6FDF32001F0E3FD002072
:1050600001F0E0FDE62001F0E9FD112001F0DAFD9C
:10507000002001F0D7FD342001F0D4FD002001F024
:10508000D1FD562001F0CEFD002001F0CBFD7620B1
:1050900001F0C8FD002001F0C5FD772001F0C2FD40
:1050A000002001F0BFFD662001F0BCFD002001F0F2
:1050B000B9FD882001F0B6FD002001F0B3FD992074
:1050C00001F0B0FD002001F0ADFDBB2001F0AAFD14
:1050D000002001F0A7FD992001F0A4FD002001F0BF
:1050E000A1FD662001F09EFD002001F09BFD5520F2
:1050F00001F098FD002001F095FD552001F092FD92
:10510000002001F08FFD452001F08CFD002001F012
:1051100089FD432001F086FD002001F083FD44203D
:1051200001F080FD002001F07DFDE72001F086FD0B
:10513000322001F077FD002001F074FD552001F0D0
:1051400071FD002001F06EFD762001F06BFD002066
:1051500001F068FD662001F065FD002001F062FDB0
:10516000672001F05FFD002001F05CFD672001F089
:1051700059FD002001F056FD872001F053FD00206D
:1051800001F050FD992001F04DFD002001F04AFD95
:10519000BB2001F047FD002001F044FD992001F003
:1051A00041FD002001F03EFD772001F03BFD002095
:1051B00001F038FD442001F035FD002001F032FD02
:1051C000562001F02FFD002001F02CFD232001F0DE
:1051D00029FD002001F026FD332001F023FD0020F1
:1051E00001F020FD452001F01DFD002001F01AFD19
:1051F000E82001F023FD002001F014FD002001F063
:1052000011FD992001F00EFD002001F00BFD87201B
:1052100001F008FD002001F005FD882001F002FDED
:10522000002001F0FFFC772001F0FCFC002001F0E1
:10523000F9FC662001F0F6FC002001F0F3FC882068
:1052400001F0F0FC002001F0EDFCAA2001F0EAFCE6
:10525000002001F0E7FCBB2001F0E4FC002001F09D
:10526000E1FC992001F0DEFC002001F0DBFC66206F
:1052700001F0D8FC002001F0D5FC552001F0D2FC53
:10528000002001F0CFFC552001F0CCFC002001F003
:10529000C9FC442001F0C6FC002001F0C3FC4420FE
:1052A00001F0C0FC002001F0BDFC552001F0BAFC6B
:1052B000002001F0B7FCE92001F0C0FCAA2001F0B9
:1052C000B1FC002001F0AEFC002001F0ABFC00209E
:1052D00001F0A8FC002001F0B1FCAA2001F0A2FC22
:1052E000CF2001F0ABFC002001F09CFC002001F07D
:1052F00099FC002001F096FC002001F093FC0020B6
:1053000001F090FC002001F08DFC002001F08AFCEF
:10531000002001F087FC002001F084FC002001F057
:1053200081FC002001F07EFC002001F07BFC0020CD
:1053300001F078FC002001F075FC002001F072FC07
:10534000002001F06FFC002001F06CFCF02001F067
:1053500075FC002001F066FC502001F063FC002089
:1053600001F060FC002001F05DFC002001F05AFC1F
:10537000F32001F063FC002001F054FCF92001F05F
:105380005DFC062001F04EFC102001F04BFC2920B2
:1053900001F048FC002001F045FC3A2001F04EFCF1
:1053A000552001F03FFC112001F048FC642006F07C
:1053B000F1FC292001F042FC352001F03FFC0020E7
:1053C00001F030FC512001F039FCFF2001F02AFCF3
:1053D000532001F033FC2C2001F024FC552001F077
:1053E0002DFC822001F01EFC2C2001F027FC01F096
:1053F00048B8FE48808845F2105188427ED1552138
:105400004FF4704001F030FCAA214FF2010001F08E
:105410002BFC52214FF2020001F026FC08214FF232
:10542000030001F021FC01214FF2040001F01CFCFB
:105430000D214FF4304001F017FC0D214BF201001B
:1054400001F012FC0D214BF2020001F00DFC3421A1
:105450004FF4364001F008FC34214BF2016001F0BA
:1054600003FC34214BF2026001F0FEFB0D214FF4EE
:10547000314001F0F9FB0D214BF2011001F0F4FB7A
:105480000D214BF2021001F0EFFB34214FF43740B5
:1054900001F0EAFB34214BF2017001F0E5FB34210D
:1054A0004BF2027001F0E0FB00214FF4324001F0BA
:1054B000DBFB00214BF2012001F0D6FB00214BF277
:1054C000022001F0D1FB24214FF4384001F0CCFB45
:1054D00024214BF6010001F0C7FB24214BF602000A
:1054E00001F0C2FB01214FF43F4001F0BDFB0F2151
:1054F0004FF4334001F0B8FB0F2100E0FEE34BF224
:10550000013001F0B1FB0F214BF2023001F0ACFB96
:1055100034214FF4394001F0A7FB34214BF6011040
:1055200001F0A2FB34214BF6021001F09DFB082193
:105530004FF4354001F098FB08214BF2015001F087
:1055400093FB08214BF2025001F08EFB03214FF434
:10555000424001F089FB24214FF43A4001F084FBE2
:1055600024214BF6012001F07FFB24214BF6022081
:1055700001F07AFB00214FF43C4001F075FB7821EB
:105580004BF6014001F070FB00214BF6024001F0A8
:105590006BFB00214FF43D4001F066FB78214BF698
:1055A000015001F061FB00214BF6025001F05CFB61
:1055B00000214FF43E4001F057FB64214BF601609F
:1055C00001F052FB00214FF4514001F04DFB33211B
:1055D0004DF2011001F048FB00214DF2021001F0E4
:1055E00043FB34214DF2031001F03EFB00214DF24C
:1055F000041001F039FB3A214DF2051001F034FBA3
:1056000000214DF2061001F02FFB4A214DF2071048
:1056100001F02AFB00214DF2081001F025FB5C216E
:105620004DF2091001F020FB00214DF20A1001F0AB
:105630001BFB81214DF20B1001F016FB00214DF2F6
:105640000C1001F011FBA6214DF20D1001F00CFB26
:1056500000214DF20E1001F007FBE5214DF20F1075
:1056600001F002FB01214DF2101001F0FDFA1321AF
:105670004DF2111001F0F8FA01214DF2121001F073
:10568000F3FA54214DF2131001F0EEFA01214DF21C
:10569000141001F0E9FA82214DF2151001F0E4FA3C
:1056A00001214DF2161001F0DFFACA214DF2171058
:1056B00001F0DAFA02214DF2181001F0D5FA0021BA
:1056C0004DF2191001F0D0FA02214DF21A1001F03A
:1056D000CBFA01214DF21B1001F0C6FA02214DF266
:1056E0001C1001F0C1FA34214DF21D1001F0BCFA7A
:1056F00002214DF21E1001F0B7FA67214DF21F1082
:1057000001F0B2FA02214DF2201001F0ADFA84212D
:105710004DF2211001F0A8FA02214DF2221001F001
:10572000A3FAA4214DF2231001F09EFA02214DF2BA
:10573000241001F099FAB7214DF2251001F094FAE6
:1057400002214DF2261001F08FFACF214DF22710E1
:1057500001F08AFA02214DF2281001F085FADE21CB
:105760004DF2291001F080FA02214DF22A1001F0C9
:105770007BFAF2214DF22B1001F076FA02214DF264
:105780002C1001F071FAFE214DF22D1001F06CFA8F
:1057900003214DF22E1001F067FA10214DF22F1067
:1057A00001F062FA03214DF2301001F05DFA33216D
:1057B0004DF2311001F058FA03214DF2321001F090
:1057C00053FA6D214DF2331001F04EFA00214FF4DF
:1057D000524001F049FA33214DF2012001F044FA20
:1057E00000214DF2022001F03FFA01E0440B0024B9
:1057F00034214DF2032001F037FA00214DF204204C
:1058000001F032FA3A214DF2052001F02DFA002183
:105810004DF2062001F028FA4A214DF2072001F04E
:1058200023FA00214DF2082001F01EFA5C214DF20E
:10583000092001F019FA00214DF20A2001F014FAB2
:1058400081214DF20B2001F00FFA00214DF20C20C6
:1058500001F00AFAA6214DF20D2001F005FA00210F
:105860004DF20E2001F000FAE5214DF20F2001F07B
:10587000FBF901214DF2102001F0F6F913214DF250
:10588000112001F0F1F901214DF2122001F0ECF9A3
:1058900054214DF2132001F0E7F901214DF21420BB
:1058A00001F0E2F982214DF2152001F0DDF901212C
:1058B0004DF2162001F0D8F9CA214DF2172001F05F
:1058C000D3F902214DF2182001F0CEF900214DF25A
:1058D000192001F0C9F902214DF21A2001F0C4F992
:1058E00001214DF21B2001F0BFF902214DF21C20D5
:1058F00001F0BAF934214DF21D2001F0B5F9022171
:105900004DF21E2001F0B0F967214DF21F2001F089
:10591000ABF902214DF2202001F0A6F984214DF2CD
:10592000212001F0A1F902214DF2222001F09CF981
:10593000A4214DF2232001F097F902214DF22420F9
:1059400001F092F9B7214DF2252001F08DF90221E5
:105950004DF2262001F088F9CF214DF2272001F0E9
:1059600083F902214DF2282001F07EF9DE214DF26B
:10597000292001F079F902214DF22A2001F074F971
:10598000F2214DF22B2001F06FF902214DF22C2073
:1059900001F06AF9FE214DF22D2001F065F9032195
:1059A0004DF22E2001F060F910214DF22F2001F070
:1059B0005BF903214DF2302001F056F933214DF20D
:1059C000312001F051F903214DF2322001F04CF960
:1059D0006D214DF2332001F047F900214FF453407F
:1059E00001F042F933214DF2013001F03DF900217F
:1059F0004DF2023001F038F934214DF2033001F05C
:105A000033F900214DF2043001F02EF93A214DF224
:105A1000053001F029F900214DF2063001F024F99A
:105A20004A214DF2073001F01FF900214DF20830F4
:105A300001F01AF95C214DF2093001F015F900214D
:105A40004DF20A3001F010F981214DF20B3001F0D6
:105A50000BF900214DF20C3001F006F9A6214DF2B0
:105A60000D3001F001F900214DF20E3001F0FCF88B
:105A7000E5214DF20F3001F0F7F801214DF2103021
:105A800001F0F2F813214DF2113001F0EDF801218F
:105A90004DF2123001F0E8F854214DF2133001F0CC
:105AA000E3F801214DF2143001F0DEF882214DF2CD
:105AB000153001F0D9F801214DF2163001F0D4F87B
:105AC000CA214DF2173001F0CFF802214DF2183003
:105AD00001F0CAF800214DF2193001F0C5F8022199
